:020000040800F2
:10000000080C002049020008374B0008293C000872
:10001000354B0008E9170008F55300080000000000
:100020000000000000000000000000003D4B000840
:10003000811A000800000000394B0008BD4D00087F
:1000400063020008630200086302000863020008FC
:10005000630200083B4B00086302000863020008CB
:1000600063020008630200086302000863020008DC
:1000700063020008630200086302000863020008CC
:10008000F919000863020008F5150008630200086A
:1000900063020008630200086302000863020008AC
:1000A000630200086302000863020008630200089C
:1000B000654E0008714E00087D4E0008393C00086E
:1000C0002D3C0008513C0008453C00086302000834
:1000D00063020008D1530008DD530008E95300080B
:1000E000630200086302000863020008630200085C
:1000F000630200086302000863020008630200084C
:10010000630200086302000863020008630200083B
:10011000630200086302000863020008630200082B
:10012000630200086302000863020008630200081B
:10013000630200086302000863020008630200080B
:1001400063020008630200086302000863020008FB
:1001500063020008630200086302000863020008EB
:1001600063020008630200086302000863020008DB
:100170006302000863020008630200080000000038
:10018000630200086302000800F002F800F04CF877
:100190000AA090E8000C82448344AAF10107DA45E2
:1001A00001D100F041F8AFF2090EBAE80F0013F0E8
:1001B000010F18BFFB1A43F0010318473461000018
:1001C00054610000103A24BF78C878C1FAD85207A9
:1001D00024BF30C830C144BF04680C6070470000C1
:1001E0000023002400250026103A28BF78C1FBD840
:1001F000520728BF30C148BF0B607047662905F021
:10020000FB85642900F0C480002070471FB505F00D
:10021000EEFD00F0AFFC04000020002105F05AFDC7
:10022000E0601FBD10B510BD00F0BCFD1146FFF72A
:10023000EDFF05F0F3FB00F0DAFD03B4FFF7F2FF8A
:1002400003BC05F0E0FB000009488047094800476F
:10025000FEE7FEE7FEE7FEE7FEE7FEE7FEE7FEE776
:10026000FEE7FEE704480549054A064B70470000D3
:10027000554E00088901000808060020080C0020DF
:100280000808002008080020704753EA020C00F01C
:1002900069802DE9F04B4FF00006002B1FBFB3FA29
:1002A00083F503FA05F424FA05F65E4012BF1643FF
:1002B000B2FA82F502FA05F4C5F120051EBF22FA52
:1002C00005FC44EA0C04203556EA044C4FEA144479
:1002D00018BF641C4FF000084FF00009904271EB0A
:1002E000030C39D3002919BFB1FA81F701FA07F6D7
:1002F000B0FA80F700FA07F6C7F120071EBF20FA10
:1003000007FC46EA0C062037B6FBF4FCA7EB050712
:10031000103F07F01F0BCBF120060CFA0BFB2CFA59
:1003200006F644BFB3460026202FA4BF5E464FF01A
:10033000000B5BEA060C08BF4FF0010B19EB0B0931
:10034000ABFB027C48EB0608C01B06FB02CC0BFB98
:1003500003CC71EB0C01C1E70B460246414648460F
:10036000BDE8F08B13B54FF000004FF00001AFF384
:100370000080BDE81C4070470FB4044910B503AAC3
:10038000029800F0B3FB10BC5DF814FB0C000020D9
:100390002DE9F0410646002410687529314616A55E
:1003A00010D0AFF30080002802DA404213A507E026
:1003B00031688A0701D512A502E0490704D511A5C5
:1003C000012401E0AFF3008000210A2206F1240796
:1003D00009E0B0FBF2FCB0FBF2F302FB1C00303092
:1003E00078541846491C0028F3D123462A46304643
:1003F000BDE8F04100F014B9000000002D0000003D
:100400002B000000200000002DE9F05F8946044623
:100410004FF0000ADFF824B1FB44C0F820A02046CA
:10042000E168884700287DD0252806D0D4E901213D
:100430009047206A401C2062F1E700255F46204675
:10044000E16888472028064607DB312E05D2B81917
:1004500010F8200C08B10543F1E7A80701D525F0F5
:100460000405C4F81CA00027C4F818A02A2E09D03F
:10047000304605F0C1FA38B304EB8708303EC8F8BF
:10048000186019E059F8041B204604EB87029161BB
:10049000E1688847012F064618D1E069002820DA74
:1004A00025F020051DE0D8F8180000EB800006EBD1
:1004B00040003038C8F818002046E16888470646F2
:1004C00005F09AFA0028EED1012F0AD02E2E08D17D
:1004D0002046E16888477F1C0646022F45F020052C
:1004E000C4DBA069002803DA404245F00105A061A1
:1004F000E80701D025F01005A6B1A6F141001928A2
:1005000002D8203645F400654A463146204625602B
:100510004D46FFF773FE60B1012807D0ED1D25F0B1
:10052000070000E007E000F1080978E705F1040999
:1005300075E730467AE7206ABDE8F09F285C000046
:10054000032A40F2308010F0030C00F0158011F8FF
:10055000013BBCF1020F624498BF11F801CB00F8D7
:10056000013B38BF11F8013BA2F1040298BF00F82B
:1005700001CB38BF00F8013B11F0030300F0C88243
:10058000083AC0F0088051F8043B083A51F804CB0F
:10059000A0E80810F5E7121D5CBF51F8043B40F8D5
:1005A000043BAFF30080D20724BF11F8013B11F8E0
:1005B00001CB48BF11F8012B24BF00F8013B00F824
:1005C00001CB48BF00F8012B70474FF0000200B587
:1005D000134694469646203922BFA0E80C50A0E866
:1005E0000C50B1F12001BFF4F7AF090728BFA0E814
:1005F0000C5048BF0CC05DF804EB890028BF40F8E0
:10060000042B08BF704748BF20F8022B11F0804F21
:1006100018BF00F8012B704770477047704770474C
:100620002DE9F0470D4699469246044600F124080C
:100630000168880604D5E06921F01001216000E01E
:100640000120A84201DD471B00E00027A1697A19BB
:1006500002EB0900081AA0612078C00602D42046E7
:10066000AFF30080002608E0D4E901211AF8060063
:100670009047206A401C761C20624E45F4DB2078AF
:10068000C0060AD52046AFF3008006E0D4E9012178
:1006900030209047206A401C2062381EA7F10107D5
:1006A000F4DC07E0D4E9012118F805009047206A3E
:1006B000401C2062281EA5F10105F3DC2046AFF3A3
:1006C00000802078000602D50220BDE8F0870120D6
:1006D000FBE770472DE9FF4F0C461E464FF0FF37F2
:1006E0008BB0D2E90001DDF860800A908A46C1F340
:1006F0000A5505B93D46002108464FF00000BAF101
:10070000000F00F4400005DA00EB80004FF44001D8
:1007100001EA50004FEA9059B9F1010F00DDB946E6
:100720000A9850EA4A000ED044F61050A5F2FF3560
:1007300045432F14B8F1000F1ED07542291E1EDD4F
:10074000C9F100021CE0B8F1010F4FF0000001D028
:10075000302103E0F24305E02154401CB042FBDBB2
:1007600030460022002121540B99C1F80880C1E9CC
:1007700000200FB0BDE8F08FBD1B6D1CDEE74A46C0
:1007800000DA694206A800F097FA06AB93E8070082
:1007900003AB83E8070050460A9900F06FFB8DE831
:1007A0000700A0F500501F3800900398002D09DDC8
:1007B00042F21F014A46084403A90390684600F02C
:1007C000CEFD08E0A0F500504A461F3803A903906B
:1007D000684600F0D8FD8DE807000004000C03D047
:1007E0004FF0FF30410800E01046B8F1000F03D091
:1007F0000022009215461EE0751E05D400F0BEF9D9
:10080000303262556D1EF9D5B3460122084302D03D
:1008100000227F1C04E02078302801D100227F1EB6
:10082000002A099786D01DE0112D07DA00F0A6F9FD
:10083000303262556D1C50EA0102F5D1084302D0F6
:100840000098C8B10EE00021681E05E0235C625CE0
:1008500063542254401E491C8142F7DBAB46A81B5F
:10086000401E0990002004F80B000B98099AC0F86C
:100870000880C0E9002B7CE711264FF0000859E7FB
:100880002DE9F04F88460446D21D22F0070191B0B1
:10089000D1E90001CDE90A0105F070F802460B9894
:1008A000C00F01D02D2007E02068810701D52B2043
:1008B00002E0202101EAC000032A099001D0072AA2
:1008C00005DB03464146204600F0B6F90BE12078EF
:1008D000800601D5E06900E00620B8F1650F814689
:1008E00006D0B8F1660F18D0B8F1670F70D131E0BB
:1008F0000020B9F1110F009001DB112301E009F193
:1009000001030AAA01A90CA8FFF7E4FEDDE90C70B7
:10091000002609F10105834647E001204B4600907F
:100920004FF000470AAA01A90CA8FFF7D3FEDDE9A2
:100930000DB00C995D46002610B909F101000D18A3
:10094000B9EB050003D4C0F1FF3609F10105A5EBB1
:1009500009002BE0B9F1010F01DA4FF00109002085
:10096000B9F1110F0090484601DD112300E0034664
:100970000AAA01A90CA8FFF7ADFEDDE90C704D46EF
:1009800000268346207800070AD4AB4500DA5D468E
:1009900001A8012D04DD411911F8011C302907D0EF
:1009A0004F4502DA17F1040F04DA012082460FE006
:1009B0006D1EEEE7002F02DCED1B3E4403E0781CC9
:1009C000A84200DD7D1CB81B00F1010A4FF0004772
:1009D0002078000703D4AA4501DB4FF0FF3A00213D
:1009E000B7F1004F0DF143088DF8431024D00220D9
:1009F0002B23002F01DA7F422D230A21021EA0F1B2
:100A0000010000DC5FB197FBF1FC97FBF1F201FB09
:100A10001C7C17460CF1300C08F801CDEEE7A8F16C
:100A2000010003702188090501D5452100E06521F9
:100A3000A0F1010800F8011C09980FA9A1EB080713
:100A4000FF1D00B10120411901EBEA70A169384492
:100A5000081A401EA0612078C00602D42046AFF3D9
:100A60000080099828B1D4E901219047206A401CF0
:100A700020622078C00622D52046AFF300801EE019
:100A8000002E04DBB34502DD01A8805D00E03020CC
:100A9000D4E901219047206A401C2062761CAAF10B
:100AA00001005FEA000A0AD100F064F8C06801683A
:100AB000405CD4E901219047206A401C2062281E36
:100AC000A5F10105DCDC07E0D4E9012118F8010BF0
:100AD0009047206A401C2062381EA7F10107F3DC12
:100AE0002046AFF30080032011B043E6074B70B5FA
:100AF0000D467B4400F08DF80446284600F04AF984
:100B000010B14FF0FF3070BD204670BD134F000094
:100B100010B5203AC0F00B80B1E81850203AA0E898
:100B20001850B1E81850A0E81850BFF4F5AF5FEACC
:100B3000027C24BFB1E81850A0E8185044BF18C97F
:100B400018C0BDE810405FEA827C24BF51F8043B26
:100B500040F8043B08BF7047D20728BF31F8023B7A
:100B600048BF11F8012B28BF20F8023B48BF00F80E
:100B7000012B704700487047C405002030B5B0F124
:100B80000A024FEA900E71F100034EEA817EB0EB4B
:100B90000E0061EB91014FEA101E4EEA017E10EB50
:100BA0000E0041EB11114FEA102E4EEA016E10EBD0
:100BB0000E0041EB11214FEA104E4EEA014E10EBB0
:100BC0000E0041EB1141401841F100014FEAD00005
:100BD00040EA41704FEAD10110EB80054FEA8104F1
:100BE00044EA907444EB01046D1944EB0404521B75
:100BF000A3414FF0000348BF0A3200D530BD401C6E
:100C000041F1000130BD000001694A1C0261087811
:100C1000704700B58FB0CDE901310021059105493C
:100C20007944CDE9031011466846FFF7EDFB0FB09C
:100C300000BD0000E5FFFFFF2DE9F0411F4604461F
:100C400003260168072A01F4006004DB08B116A539
:100C500005E016A503E008B115A500E015A521F0F3
:100C600010002060A069C01EA0610FB1401EA061ED
:100C70002046AFF300804FB1D4E9012138469047B8
:100C8000206A401C2062C01C206206E0206AFAE74D
:100C9000D4E9012115F8010B9047761EF8D22046C1
:100CA000AFF30080BDE8F0814E414E006E616E00F2
:100CB000494E4600696E66002DE9F04781461646AA
:100CC0008AB0334878440DC88DE80D003048784428
:100CD000801C03AC0DC884E80D0041F69B3008442D
:100CE000372190FBF1F290FBF1F5A5F1800501FBB6
:100CF00012041B3C02D56442012000E00020DFF812
:100D000090A080460027FA44AAF1BE0A0DE0E00751
:100D100009D03246684607EB47010AEB810100F033
:100D200032FB8DE8070064107F1C002CEFD1184FB8
:100D30007F44AC3F18E0E80714D007EB04100DF136
:100D4000180A90E80E008AE80E00C068F04201D14F
:100D500098190890324606A903A800F014FB03ABCB
:100D600083E807006D10641C002DE4D1324669460B
:100D7000B8F1000F03A802D000F0F1FA01E000F092
:100D800002FBC9E90001C9F808200AB0BDE8F087F4
:100D90000C540000007B00F0800070470048704752
:100DA000A40500207546FFF7F9FFAE460500694629
:100DB000534620F00700854618B020B5FFF752FAD9
:100DC000BDE820404FF000064FF000074FF000084C
:100DD0004FF0000B21F00701AC46ACE8C009ACE8CD
:100DE000C009ACE8C009ACE8C0098D4670470446AC
:100DF000AFF300802046FFF720FA00004FF0013CDF
:100E000050F8042B51F8043B9A4221D1A2EB0C0379
:100E1000934313EACC1317D150F8042B51F8043B39
:100E20009A4215D1A2EB0C03934313EACC130BD1D6
:100E300050F8042B51F8043B9A4209D1A2EB0C0361
:100E4000934313EACC13DBD04FF00000704700BF90
:100E5000D01A01BAB1FA81F101F0180122FA01F0B9
:100E6000CB40C1F12001DBB2C0B2C01A2CFA01F3B1
:100E7000D11A914311EAC311E6D170475FEA400CE1
:100E800008BF91F0000F4FEA8C234FEAC12243EADA
:100E900051514FEA1C5018BF00F5F0404FEA3000A6
:100EA00018BF41F000415FEA6C5C00F02980BCF1A2
:100EB000FF3F08BF40F080407047130C06BF12048C
:100EC0004FF0100C4FF0000C130E04BF12020CF187
:100ED000080C130F04BF12010CF1040C930F04BF94
:100EE00092000CF1020CD30F04BF52000CF1010C64
:100EF00011464FF00002A0F11F00A0EB0C0070475C
:100F000011F0004F08BF704731F000413FF4D5AFFA
:100F10000B0C06BF09044FF0100C4FF0000C0B0E29
:100F200004BF09020CF1080C0B0F04BF09010CF1FE
:100F3000040C8B0F04BF89000CF1020CCB0F04BF13
:100F400049000CF1010CCCF12003A0EB0C0022FABB
:100F500003F302FA0CF241EA030100F101007047C9
:100F600020F07F4C80EA030023F07F47ACEB0703BF
:100F700003F57C5300F0004003F1FF032DE98049A5
:100F80004FEA154B09B44FEA144325EA0B4E24EA05
:100F900003480FF2042606EB132749083E785FEA60
:100FA000320203FB0667C7F5000707FB06F64FEAA8
:100FB00054374FEAD64606F1020607FB066CCCF121
:100FC000005C4FEA1C472CEA074C07FB06F40CFBBD
:100FD00006F504EB15464FEA961634BF00204FF095
:100FE00000404FEAD13706FB07FC4FEA1C4C0CFBD4
:100FF0000BF7D21B03FB0CF761EB07010CFB0EF7A1
:10100000B0EB074072EB17420CFB08F734BFA2EBC2
:101010000742B2EB074261EB17414FEA0C444FEA3B
:10102000910706FB07FC4FEA1C4C0CFB0BF7B0EBDF
:10103000C74072EB573203FB0CF734BFA2EBC74239
:10104000B2EBC74261EB57310CFB0EF7B0EBC700B8
:1010500072EB57720CFB08F734BFA2EBC702B2EB7E
:10106000C70261EB5771039F4FEA816141EA921118
:1010700004EBCC044FEAD1374FEA826206FB07FC4F
:1010800042EA90124FEA80604FEA1C4C0CFB0BF7CF
:10109000D21B03FB0CF761EB07010CFB0EF7B0EB67
:1010A000074072EB17420CFB08F734BFA2EB074274
:1010B000B2EB074261EB17414FEA8C554FEA9107BB
:1010C00004EB9C2406FB07FC4FEA1C4C0CFB0BF7C3
:1010D000B0EBC74072EB573203FB0CF734BFA2EB07
:1010E000C742B2EBC74261EB57310CFB0EF7B0EBD6
:1010F000C70072EB57720CFB08F734BFA2EBC702B4
:10110000B2EBC70261EB577115EB4C254FEA8161D9
:1011100041EA92114FEA82624FEAD13742EA9012D5
:1011200006FB07FC44F100044FEA80604FEA1C4CC8
:101130000CFB0BF7D21B03FB0CF761EB07010CFB5D
:101140000EF7B0EB074072EB17420CFB08F734BF09
:10115000A2EB0742B2EB074261EB174115EB1C15FE
:101160004FEA813141EA92414FEA823242EA9042AB
:101170004FEA80304FEA0C7644F1000448EA03431A
:101180004EEA0B484FF0000EB2EB080C71EB030770
:1011900024BF624639464EEB0E0E4FF0000B00188E
:1011A000524149414BEB0B0BB2EB080C71EB0307BF
:1011B0007BF1000B24BF624639464EEB0E0E4FF01A
:1011C000000B0018524149414BEB0B0BB2EB080CE2
:1011D00071EB03077BF1000B24BF624639464EEBEF
:1011E0000E0E51EA020718BF46F0010616EB0E7606
:1011F00055F1000254F1000103D5BDE88901BDE8B5
:101200000088BDE88901BDE80048B619524141EBAC
:101210000101A3F10103704780807F7E7D7C7B7A92
:101220007978777676757473727171706F6E6E6D92
:101230006C6C6B6A6A696868676666656464636338
:1012400062616160605F5F5E5E5D5D5C5C5B5B5ABE
:101250005A5959585857575656555555545453532B
:1012600052525251515050504F4F4F4E4E4D4D4D86
:101270004C4C4C4B4B4B4A4A4A49494948484847D1
:10128000474747464646454545444444444343430F
:101290004342424242414141002B26D4770021D0B3
:1012A0001CB54FEA370703B44FF010004FF01001A0
:1012B0004FF000000FBCBDE810400BF1010BBBF17B
:1012C000010F08BF5FEA170722BF12F1010211F1F7
:1012D00001014FF0004143F1000300F0004043EAF8
:1012E00000007047F9D35708DAE746EA064613F1DB
:1012F000400F4FEA16461FDD13F1200FDFBF1643E4
:101300000A46002120335B42C8D0C3F1200746EAD9
:10131000064602FA07F74FEA164646EA0706C3F101
:10132000200722FA03F201FA07F721FA03F14FF03E
:10133000000342EA0702B1E746EA020646EA064629
:101340004FEA164646EA0106BCBF46EA0646360C98
:101350004FF000034FF000024FF000019EE72DE92F
:10136000C048934630B491E8380007C831EA400CD1
:1013700048BF34EA430C03D5FFF7F2FDFFF78CFFBB
:10138000F0BCBDE800882DE9C048934630B491E830
:10139000380007C810F0804F08BF13F0804F03D10A
:1013A00000F005F8FFF778FFF0BCBDE8008820F0FA
:1013B0007F4780EA030023F07F4C07EB0C03A3F583
:1013C0007C5300F00040A3F1FE0392F0000F00F008
:1013D000B38095F0000F00F077802DE901494FEAC6
:1013E00011404FEA144621EA004800FB06FC24EABB
:1013F000064708FB06F607FB08F800FB07F718EBA3
:1014000006484CEB164C4FEA124B18EB07484FEAD4
:1014100015464CEB174022EA0B4E0BFB06FC25EA67
:1014200006470EFB06F607FB0EFE0BFB07F71EEB4F
:10143000064E4CEB164C4FF000061EEB074E4CEBE5
:10144000174B18EB0B0840F1000018EB0E0B58EB94
:10145000000840F100008F1A4FF000013CBFC94363
:10146000661B14BFB5EB040C00213CBFC943F61B3F
:101470004FEA17444EEA8E0E27EA04454FEA1C470E
:1014800004FB07622CEA074C05FB07F70CFB05F68B
:1014900004FB0CFC16EB074642EB174216EB0C461E
:1014A00042EB1C421BEB060658EB0202414146EAA6
:1014B0009E0601D5BDE80189B619524141EB0101F3
:1014C000A3F10103BDE801894FEA14454FEA114732
:1014D00024EA054621EA074C05FB07F406FB07F75B
:1014E0000CFB06F105FB0CFC11EB074144EB174428
:1014F0004FEA124711EB0C4144EB1C4422EA074C23
:1015000005FB07F206FB07F70CFB06F605FB0CFCD8
:1015100016EB074642EB174216EB0C4642EB1C4516
:101520006A1854F1000148BF7047B619524141EBA7
:101530000101A3F10103704795F0000F37D04FEA86
:1015400011424FEA144721EA024624EA074C02FB03
:1015500007F106FB07F70CFB06F402FB0CFC14EB8F
:10156000074441EB17414FEA154714EB0C4441EB9C
:101570001C4125EA074C02FB07F506FB07F70CFBAD
:1015800006F602FB0CFC16EB074645EB174516EB7F
:101590000C4645EB1C42121951F1000148BF70473F
:1015A000B619524141EB0101A3F1010370474FEA23
:1015B00014454FEA114724EA054621EA074C05FB8A
:1015C00007F106FB07F70CFB06F24FF0000605FBE0
:1015D0000CFC12EB074241EB174112EB0C4251EBB2
:1015E0001C4148BF7047921841EB0101A3F1010370
:1015F00070470000014800F0F1BA000048000020E8
:10160000464910B54A6822F440324A604A68436845
:101610001A434A6001684A6822F480724A6001688D
:101620004A68036942EA03224A6001684A6822F074
:1016300040724A6001684A6883681A434A600168D8
:101640008A6822F400628A6001688A68C3681A4363
:101650008A60816A6FF07062D14201688A6822F004
:1016600070628A6001688A680CD0836A1A438A6053
:1016700001688A6822F040528A6001688A68C36AF9
:101680001A4301E022F040528A6001688A6822F021
:1016900002028A6001688A68037E42EA43028A6025
:1016A00090F82010002901684A680FD042F40062C7
:1016B0004A6001684A6822F460424A6001684A68E8
:1016C000174C436A04EB43331A4301E022F40062EF
:1016D0004A600168CA6A22F47002CA620168CA6A72
:1016E000838B104C04EB03531A43CA6201688A6867
:1016F00022F400728A6001688A6890F8303042EA09
:1017000043228A6001688A6822F480628A600168E4
:101710008A68406942EA8020886010BD0023014049
:1017200000E0FFFF0000F0FF2DE9F0410124DFF8A9
:101730005C80174E002700BF58F8240003F0C2F960
:10174000022537700321342003F06EFE014611A0FC
:10175000FEF712FE642000F0E5FC307840B158F846
:1017600024100DA0FEF708FEBDE8F04103F018BA02
:101770006D1EE6D1641C0A2CDEDB0DA0FEF7FCFD1D
:10178000BDE8F04110A0FEF7F7BD0000FC5D0008C9
:10179000000000202564000025642062617564203B
:1017A00066696E642073656E736F720D0A0D0A00B0
:1017B00063616E206E6F742066696E642073656E5F
:1017C000736F720D0A000000706C656173652063B1
:1017D0006865636B20796F757220636F6E6E6563E9
:1017E00074696F6E0D0A0000FEE7884203DB9042C9
:1017F00001DC0120704700207047000010B52F4C1D
:10180000607863284CD00EDC55282DD006DC4228A9
:1018100030D0432842D052284CD135E061280FD037
:10182000622847D12AE06D2810D004DC652812D048
:1018300068283FD13CE072282AD075283AD10FE0C1
:1018400003F0CEFF002835D01DA02EE003F0E6FF08
:1018500003E021A029E003F0FFFF0028F9D129E0EF
:10186000062002E022A020E0002003F011FF002863
:10187000F8D11FE0062002E023A016E0022003F0CA
:1018800085FF0028F8D115E0062002E023A00CE037
:10189000032003F051FF0028F8D10BE01E2000E0E8
:1018A000022003F01FFF28B121A0FEF765FD01E033
:1018B00003F076F9FF20607010BD000000000020EA
:1018C0000D0A5365742041636343616C692045725E
:1018D000726F720D0A0000000D0A536574204D618D
:1018E0006743616C69204572726F720D0A000000D7
:1018F0000D0A5365742042616E64776964746820D0
:101900004572726F720D0A000D0A536574204261B0
:101910007564204572726F720D0A00000D0A5365DE
:10192000742052617465204572726F720D0A000056
:101930000D0A53657420525357204572726F720D11
:101940000A0000002DE9F04700270425DFF8A080F9
:10195000DFF8A09050383E4601F1060A102845D223
:10196000DFE800F01108130C1517191B1D1F214487
:101970004444442334240325402702E03D24032526
:101980002E27012613E0302411E037242BE03A24DF
:1019900029E041240BE0452409E0492407E04D24D7
:1019A00005E0512403E0552401E0D8F82440032A3F
:1019B00019D04DB16A0009EB4400FEF7C1FDD8F81B
:1019C0001420294620469047002E0FD0720009EBC4
:1019D00047005146FEF7B4FD31463846D8F814208A
:1019E000BDE8F047104703250026E3E7BDE8F08790
:1019F0002000002084040020014800F059BA0000B3
:101A00002403002001681823CAB2103AB2FBF3F293
:101A1000054B6FF30901032A9B5CC36500D9091DBF
:101A20008165084670470000245E000810B5014635
:101A300000208B698A6A4FF0C07453B1B3F5005F20
:101A400015D072B1012A0CD0022A0AD0032A09D17A
:101A500004E01AB1012A06D0022A03D1C96AC901D9
:101A600000D5012010BDC96AA142FAD010BD002ADC
:101A7000F7D0012AF2D0022AF3D0032AF3D010BD06
:101A8000704700F04FBB72B6FEE7704778B5002490
:101A9000009490F83C20012A19D0012280F83C20C3
:101AA0000A6807230568092A13D9EE680A3A02EB87
:101AB000420293409E43EE600B788A680A3B03EB38
:101AC00043039A400368DD682A43DA6010E002208D
:101AD00078BD2E6902EB420293409E432E610B7843
:101AE0008A6803EB43039A4003681D692A431A611D
:101AF0004A681F23072A13D205686E6B521E02EB39
:101B0000820293409E436E630B790A885B1E92B2F9
:101B100003EB83039A4003685D6B2A435A6327E013
:101B200005680D2A12D22E6BD21F02EB820293405F
:101B30009E432E630B790A88DB1F92B203EB83036B
:101B40009A4003681D6B2A431A6311E0EE6A0D3A4E
:101B500002EB820293409E43EE620B790A880D3BB2
:101B600092B203EB83039A400368DD6A2A43DA6288
:101B7000164B0568144A9D4206D10D68122D03D1FB
:101B8000556845F48005556005689D4218D10B687D
:101B9000102B01D0112B13D1536843F40003536071
:101BA000096810290CD10A490A4A0968B1FBF2F107
:101BB00001EB8101490000E0491E00910029FBD1A1
:101BC00080F83C40002078BD002301400020014007
:101BD0001C00002040420F007047704770B504465B
:101BE00000680668456816F0020F05F020012AD04B
:101BF00049B3216CC90603D4216C41F400712164FE
:101C0000816811F0405F17D1217EA9B9C16A11F432
:101C1000700F02D0816849050ED4416821F020017F
:101C20004160206C20F480702064206CC00403D4D8
:101C3000206C40F0010020642046FFF7CDFF2168B2
:101C40006FF01200086016F0040F05F0800132D02A
:101C500089B3206CC00603D4206C40F4005020648B
:101C60002068816811F4401F1ED1816B11F4401F60
:101C700002D08168490517D44168490514D48168A8
:101C800011F0405F10D1217E71B9416821F08001CF
:101C90004160206C20F480502064206CC00503D487
:101CA000206C40F0010020642046FFF7EEFE216822
:101CB0006FF00C00086016F0010F05F040010FD026
:101CC00071B120680068C0070AD0206C40F48030F1
:101CD0002064204600F043F821686FF0010008609E
:101CE00016F0200F05F080610ED000290CD0606C3A
:101CF00040F00200606420686FF020050560204617
:101D0000FFF76BFF2068056070BD70B504004FF0F1
:101D1000000503D0206C002610B107E0012070BD43
:101D2000204600F01DF8666484F83C60206CC00614
:101D300010D4206C20F4885040F00200206420462B
:101D4000FFF75EFC6664206C20F0020040F00100AA
:101D5000206400E0012584F83C60284670BD70478F
:101D600030B587B0044614216846FEF72EFC1D49A5
:101D70002068884234D11C480024016841F48071F5
:101D80000160006800F480700590174814380168FD
:101D900041F001010160016801F001010591016854
:101DA00041F0020101600068032500F00200059087
:101DB000F020CDE90005694602940C4800F0C4F912
:101DC0000120CDE9000569460294094800F0BCF9FC
:101DD00000221146122000F0E1FD122000F0D0FD9B
:101DE00007B030BD002001404438024000000240EE
:101DF000000402402DE9F0410446876D00F0A2FA8C
:101E0000064694F835000025022806D0802060653B
:101E100084F834500120BDE8F0812068016821F089
:101E2000160101602068416921F080014161206C48
:101E300008B9A06C20B12068016821F00801016098
:101E40002068016821F0010101600CE000F07AFADD
:101E5000801B052807D920206065032084F8350001
:101E600084F83450D7E720680068C007EED194F8B2
:101E70005C103F208840B860012084F8350084F869
:101E800034500020C7E790F83510022903D0802194
:101E9000416501207047052180F835100068016810
:101EA00021F0010101600020704790F83500704773
:101EB0002DE9F84304464FF00009CDF8009063483F
:101EC0004FF41651A56D0068B0FBF1F72E6894F839
:101ED0005C10082000FA01F131420FD021680A6835
:101EE00052070BD50A6822F004020A6094F85C10CD
:101EF0008840A860606D40F00100606594F85C1057
:101F00004FF0010808FA01F0304208D02168496911
:101F1000090604D5A860606D40F00200606594F881
:101F20005C1004208840304208D021680968890785
:101F300004D5A860606D40F00400606594F85C1002
:101F400010208840304218D021680968090714D54C
:101F5000A86020680168490304D50068000308D51B
:101F6000A16C07E00168C90503D4016821F00801EC
:101F70000160216C09B12046884794F85C1020204C
:101F80008840304231D021680968C9062DD5A86043
:101F900094F8350005282068016806D0490347D524
:101FA000006800031DD4616C1CE021F01601016083
:101FB0002068416921F080014161206C08B9A06C62
:101FC00020B12068016821F00801016094F85C10DC
:101FD0003F208840A86084F8358084F83490216DD3
:101FE0001FE0E16B09B120468847606D00282BD0C7
:101FF000606DC00714D0052084F8350020680168A2
:1020000021F0010101600098401C0090B84203D803
:1020100020680068C007F6D184F8358084F83490D1
:10202000E16C002910D001B02046BDE8F04308471C
:102030000168C905D5D4016821F01001016084F858
:10204000358084F83490CCE7BDE8F8831C0000208C
:102050002DE9F041044600F075F906465CB1022016
:1020600084F83500002584F834502068016821F098
:10207000010101600DE00120BDE8F08100F062F98E
:10208000801B052805D920206065032084F83500D1
:10209000F2E720680068C007F0D122681168204884
:1020A0000140D4E901031843D4E90336334318430C
:1020B00063691843A3691843E3691843236A184303
:1020C0000843616A042903D1D4E90B131943084377
:1020D000106020684069666A20F0070130460E43B0
:1020E000012704280CD1A06A0643E06A40B12046CB
:1020F000FFF79CFC20B14020606584F83570BAE79A
:10210000206846612046FFF77DFC94F85C203F2163
:1021100091408160656584F835700020ACE700006F
:102120003F8010F070B5044600F00CF90546601CC5
:1021300002D004480078044400F004F9401BA04297
:10214000FAD370BD100000202DE9F84FDFF8BCA1D4
:102150000022012503264FF00F090AF1040BAAF112
:10216000040E00BF0B6805FA02F42340A34270D1AD
:102170000F7907F00307012F01D0022F16D18768CE
:102180004FEA420806FA08FC27EA0C07D1F80CC00F
:102190000CFA08FC4CEA070CC0F808C04768A743D3
:1021A0000C79C4F3001494403C4344600C79E4433C
:1021B000A4070AD0C4684FEA420C06FA0CF7BC43E5
:1021C0008F6807FA0CF72743C7600C7904F0030403
:1021D000022C12D1D40800EB840CDCF82040570705
:1021E000FF0E09FA07F824EA0804D1F8108008FA6B
:1021F00007F848EA0408CCF8208004684FEA420C4B
:1022000006FA0CF7BC430F7907F0030707FA0CF73F
:10221000274307604C6814F4403F70D03C4C27685B
:1022200047F480472760246822F0030704F48044C1
:102230000094384C07EB040CDCF8084897074FEA89
:10224000177809FA08F7BC43334FB84202D1002788
:1022500024E054E0314FB84201D101271EE0304F55
:10226000B84201D1022719E02E4FB84201D103270D
:1022700014E02D4FB84201D104270FE02B4FB84294
:1022800001D105270AE02A4FB84201D1062705E00F
:10229000284FB84201D1072700E0082707FA08F7BE
:1022A0002743CCF80878DAF800405746D1F804C044
:1022B0009C435FEACC2C00D51C433C60DBF800401B
:1022C0005F46D1F804C09C435FEA8C2C00D51C43C8
:1022D0003C60DEF800407746D1F804C09C435FEADA
:1022E0008C3C00D51C433C60084F083F3C68D1F84B
:1022F00004C09C435FEACC3C00D51C433C60521CAC
:10230000102AFFF42FAFBDE8F88F0000083C014011
:102310004438024000300140000002400004024006
:1023200000080240000C024000100240001402406D
:1023300000180240001C02400AB181617047090484
:10234000FBE7000001488068704700001000002093
:10235000704770472DE9F041016804464A694E68AC
:1023600090F83E000025D743FA0506D4F243D20583
:1023700003D46FF4807201254A61B90508D4F14392
:10238000C90505D422686FF4007145F0020551615A
:10239000790525D4F143C90522D4638D94F83D1005
:1023A000226B202808D13BB9212910D029290ED031
:1023B000282901D1212A0AD022686FF48061516155
:1023C00045F00405102806D0402804D008E0204637
:1023D00002F010F804E02068016841F40071016027
:1023E000380508D4F043C00505D421686FF40060B7
:1023F00045F008054861002D07D0206C2843206473
:102400002046BDE8F04101F087BCBDE8F0812DE930
:10241000F047026800215368C66A90F83E4090F881
:102420003D50102C12D0402C10D0046C002C7DD0CC
:102430005469E443A6077AD4DE43B60577D4036C27
:1024400003B19169BDE8F04701F0B0BF97695169E8
:102450004FF42A0CC9435FEAC1784FF02A4904D0EF
:1024600066452AD04E4528D010E0DE43B6050DD48F
:10247000C16A614501D1012103E0C16A494501D129
:102480000821C162BDE8F04701F0FABE0E0716D47C
:10249000DE43B60513D4416CC9B21161416B09B179
:1024A000C96B29B9816B002907D0C96B002904D0F9
:1024B0000068416841F400614160BDE8F0878E0723
:1024C00006D4DE43B60503D4BDE8F04701F04CBEA8
:1024D000FE43526876074FEA02521DD4002AECDB15
:1024E0000A0608D4DA43520505D4490705D5BDE8E4
:1024F000F04701F0DDBD4907DFD4D9438905DCD4BD
:10250000212D05D0402CD8D1BDE8F04701F0FEBE0A
:10251000BDE8F04701F08ABD002ACEDB4A060BD4A5
:10252000DA43520508D4490708D501E00DE00EE072
:10253000BDE8F04701F006BD4907BED4D94389057F
:10254000BBD4BDE8F04701F093BC916970E7E106A8
:1025500006D4D943890503D4BDE8F04701F08CBF08
:102560002821212D27D0292D25D0650655D4DD43DE
:102570006D0552D4640752D590F83D30448D002C3F
:102580009BD01269446A2270426A521C4262428D98
:10259000521E4285428D002A8FD12A2B8DD102688E
:1025A000536823F4806353602222026380F83D1055
:1025B00000F082F981E7250623D4DD436D0520D4A0
:1025C000640720D590F83D30448D002CF2D0446A49
:1025D00024781461426A521C4262428D521E428526
:1025E000428D002AE6D1292BE4D10268536823F4F6
:1025F000806353602122026380F83D1000F05DF992
:102600005BE76107D6D4D9438905D3D4418D00292E
:10261000D0D0416A097811610AE06107CAD4D94370
:102620008905C7D4418D0029C4D01169426A11704F
:10263000416A491C4162418D491E41853DE7704711
:1026400070B5040025D094F83D00002520B984F829
:102650003C50204600F0BEF8242084F83D0020685D
:10266000016821F0010101602068016841F4004126
:1026700001602068016821F40041016000F05AFA0D
:102680004D4A6168914201D84C4900E04C4988426A
:1026900001D2012070BD4B492368B0FBF1F15E68A7
:1026A00026F03F060E435E606368934206D94FF4FE
:1026B000967359434FF47A73B1FBF3F12368491CC5
:1026C0001E6A26F03F06314319626168914210D8B4
:1026D0004900401EB0FBF1F2521CC2F30B02042A67
:1026E00001D2042022E0B0FBF1F0401CC0F30B004B
:1026F0001CE0A268F2B301EBC10303EB0116431E19
:10270000B3FBF6F35B1C43F480431B0549D092B343
:1027100001EBC10202EB0111401EB0FBF1F0401CC5
:10272000C0F30B0040F4804040F400402168CA69C7
:102730004CF6FF739A431043C861D4E90710014374
:102740002068026822F0C00211430160D4E903014D
:1027500001432068826848F2FF339A431143816045
:10276000D4E9050108432168CA6822F0FF0210433A
:10277000C86001E00EE016E02068016841F0010148
:1027800001602564202084F83D00256384F83E50D4
:10279000002070BD01EB4106431EB3FBF6F35B1C4A
:1027A000B3E70120C2E701EB4101401EB0FBF1F0AD
:1027B000401CC0F30B00B7E7A086010080841E0018
:1027C00000093D0040420F00704770477047704756
:1027D00070470000F0B587B0044614216846FDF745
:1027E000F4FE2668304C2F4F00252F48122203217B
:1027F00004231034BE4227D1066846F00206066064
:10280000006800F002000590CDE90313C0208DE8B8
:10281000250069462548FFF797FC206840F4001022
:1028200020602068002200F40010059011461F204F
:1028300000F0B4F81F2000F0A3F800221146202079
:1028400000F0ACF8202028E0194FBE4227D10668DE
:1028500046F020060660006800F0200005908DE834
:102860002600CDE9031369461248FFF76DFC206886
:1028700040F4800020602068002200F48000059071
:102880001146212000F08AF8212000F079F800227A
:102890001146222000F082F8222000F071F807B0E3
:1028A000F0BD0000005400403038024000040240F7
:1028B0000058004000140240704770470248816889
:1028C0000278114481607047100000200B4810B559
:1028D000016841F400710160016841F480610160A8
:1028E000016841F480710160032000F077F80F2047
:1028F00000F006F800F024F8002010BD003C024073
:1029000070B50D4D04464FF47A712878B1FBF0F0A4
:102910000A490968B1FBF0F000F014FB48B9102C2B
:1029200007D200222146501E00F038F800206C60CB
:1029300070BD012070BD0000100000201C000020B0
:102940000E4808B5016841F480410160006800F458
:10295000804000900948001F016841F080510160EB
:102960000068002200F0805000901146052000F021
:1029700015F8BDE80840052000F002B844380240D0
:10298000002809DB00F01F0201219140400980006E
:1029900000F1E020C0F8001170470000F0B40E4BC9
:1029A0001B680C46C3F30223C3F10705042D00D9AD
:1029B0000425191D072901D2002300E0DB1E012692
:1029C00006FA05F1491E214099409E40761E1640A8
:1029D0003143F0BC03F000B80CED00E0064900F014
:1029E000070208684FF6FF03184040EA0220034A36
:1029F00010430860704700000CED00E00000FA058D
:102A00002DE9F0470E46050065D0DFF81481D8F8AF
:102A10000000F7B200F00700B04207D288F800705B
:102A2000D8F8000000F00700B04254D128683D4CAF
:102A3000810712D5400703D5206840F4E05020609C
:102A40002878000703D5206840F4604020602068A3
:102A5000A96820F0F000084320602878C0072DD036
:102A6000304968680839012812D0022813D0032899
:102A700011D00968890700292DDA216821F00301A6
:102A800001432160FFF75EFC814641F2883A0EE087
:102A900009688903EFE709688901ECE7FFF752FC51
:102AA000A0EB0901514502D90320BDE8F087206859
:102AB000696800F00C00B0EB810FEFD1D8F800107E
:102AC000404601F00701B14207D90770006800F0E5
:102AD0000700B04201D00120E7E72878400705D57C
:102AE0002068E96820F4E050084320602878000757
:102AF00006D52068296920F4604040EAC1002060C2
:102B000000F038F82168084AC1F30311515CC8404D
:102B10000649086006480068FFF7F2FE0020C4E797
:102B2000003C0240083802402C5E00081C000020D7
:102B3000140000200448054900680968044AC1F3EC
:102B40008221515CC84070471C00002008380240B8
:102B50003C5E00080448054900680968044AC1F35E
:102B60004231515CC84070471C00002008380240C8
:102B70003C5E0008154810B5006810F00C021448BF
:102B800013D01449042A0FD0082A0ED10F4C241F49
:102B90002268236802F03F025B0207D52068C0F379
:102BA0008810A0FB010106E0084610BD2168C1F3B2
:102BB0008811A1FB00010023FDF767FB2168C1F329
:102BC0000141491C4900B0FBF1F010BD083802403A
:102BD0000024F40040787D012DE9F84F04006ED008
:102BE0002078DFF84C93C007A9F104054AD009F119
:102BF00004000168C1F38101012908D00068C0F315
:102C0000810002280AD1D9F80000400206D52868C0
:102C1000800337D560680028E1D033E06068B0F504
:102C2000803F10D0B0F5A02F286810D020F480305D
:102C30002860286820F4802028606068A8B1FFF729
:102C400081FB06460DE0286840F48030F4E740F44C
:102C500080202860F7E700BFFFF774FB801B642823
:102C600073D828688003F7D50CE0FFF76BFB0646A6
:102C700005E000BFFFF766FB801B6428F0D82868DA
:102C80008003F7D42078DFF8AC8280074FF0000A89
:102C90003ED5A748001D016811F00C0F08D0006850
:102CA000C0F3810002280BD1D9F80000400207D4FC
:102CB0002868800716D5E068012800D112E033E1CA
:102CC000E068B8B10120C8F80000FFF73BFB0646FA
:102CD00005E000BFFFF736FB801B0228C0D828683C
:102CE0008007F7D52868216920F0F80040EAC10084
:102CF00028600DE0C8F800A0FFF724FB064604E0BA
:102D0000FFF720FB801B02281FD828688007F7D414
:102D10002078000722D5864F87486169703771B1E6
:102D200001210160FFF70EFB064604E0FFF70AFBF6
:102D3000801B022809D838688007F7D50EE0C0F854
:102D400000A0FFF7FFFA064605E082E0FFF7FAFA77
:102D5000801B02287DD838688007F7D42078400788
:102D600068D5DFF8CCB100270BF13C0BDBF8000095
:102D7000C0000BD4DBF8001041F08051CBF80010FC
:102D8000DBF80000012700F0805000906B4E3068A7
:102D9000C00510D4306840F480703060FFF7D2FA7C
:102DA000009005E0FFF7CEFA0099401A022850D8AB
:102DB0003068C005F6D55E4EA0686C3601280FD08D
:102DC0000528306810D020F001003060306820F015
:102DD00004003060A068B8B1FFF7B4FA00900FE0CB
:102DE000306840F00100F4E740F004003060F7E79D
:102DF000FFF7A8FA0099411A41F28830814266D85B
:102E000030688007F4D50EE0FFF79CFA009007E0E9
:102E1000FFF798FA0099411A41F28830814256D85A
:102E200030688007F4D42FB1DBF8001021F0805116
:102E3000CBF80010A069C8B33D49091D0968C1F36A
:102E4000810102294AD00228504607D0C8F8600004
:102E500000E03CE0FFF776FA04463BE04746C8F85E
:102E60006000FFF76FFA064605E000BFFFF76AFA59
:102E7000801B02282BD828688001F7D4D4E90701E9
:102E80000843A16A2E4A490802EB0141626A41EAFD
:102E90008211084394F82C1040EA0161C9F800102F
:102EA00001203866FFF74EFA044606E03EE000BF18
:102EB000FFF748FA001B022809D828688001F7D5D7
:102EC00034E000BFFFF73EFA001B022802D90320BE
:102ED000BDE8F88F28688001F4D427E00128F7D0F6
:102EE000D9F80000E26900F4800191421CD1226A05
:102EF00000F03F01914217D147F6C071626A01406C
:102F0000B1EB821F10D1A26A4FF0FF3300F44031C1
:102F100003EB5202B1EB024F06D194F82C1000F0F3
:102F20007060B0EB016F01D00120D1E70020CFE746
:102F30000438024000004742800E474200700040C3
:102F40000000FFFF10B5401EB0F1807F01D30120CB
:102F500010BD4FF0E02460610F21601702F03CFDCE
:102F60000020A06107202061002010BD704770473D
:102F700070B590F83C20012A32D0012480F83C4002
:102F8000022280F83D2003685A689D6822F070068E
:102F90000A6832435A60134B02689A4214D0B2F165
:102FA000804F11D0104B9A420ED0104B9A420BD04A
:102FB0000F4B9A4208D00F4B9A4205D00E4B9A42C3
:102FC00002D00E4B9A4204D1496825F08003194380
:102FD000916080F83D40002180F83C10084670BDAB
:102FE000022070BD000001400004004000080040C5
:102FF000000C004000040140004001400018004067
:1030000090F83D10012901D001207047022180F87D
:103010003D1000681149884214D0B0F1804F11D0A2
:103020000F4988420ED00F4988420BD00E49884282
:1030300008D00E49884205D00D49884202D00D497A
:10304000884204D1816801F00701062903D0016894
:1030500041F00101016000207047000000000140C4
:103060000004004000080040000C00400004014043
:1030700000400140001800402DE9F0410D460400D9
:1030800003D094F83D0018B108E00120BDE8F081BC
:10309000002084F83C00204600F040F8022084F82C
:1030A0003D002068816844F2070291438160211D40
:1030B000206801F0E9FE226890689169166A2B6821
:1030C000AF69034340F20330814341EA0721A86816
:1030D000EF6908434FF6FC418843E96840EA07205E
:1030E000014328692F6A000140EA073008436968F4
:1030F0006D6926F0AA0646EA051529439360226801
:10310000906154F8460B0162012004F81F09E07534
:103110002076E0762077A0750020B7E710B586B05E
:10312000044614216846FDF750FA2268274C002116
:1031300027480223A2421FD1254A1432146844F0C2
:1031400001041460126802F001020592026842F064
:1031500010020260006800F0100005904FF420603B
:103160000090CDE901310120CDE9031069461948ED
:10317000FEF7EAFF06B010BD174CA242FAD1144A7E
:103180001032146844F004041460126802F004025F
:103190000592026842F008020260006800F0080030
:1031A00005904FF440500090CDE90131CDE9031373
:1031B00069460A48FEF7C8FF002211461E20FFF7A5
:1031C000EDFB1E20FFF7DCFBD4E700000000014010
:1031D000303802400010024000080040000C02405D
:1031E00070B590F83E60044690F83F5090F8423039
:1031F00090F84320022021B104290ED0012E1BD1CA
:1032000014E0012E18D1012B16D184F83E0084F869
:10321000420001220021206820E0012D0CD1012A6A
:103220000AD184F83F0084F8430014E0012D03D153
:10323000012B01D1012A01D0012070BD84F83E008C
:1032400084F83F0084F8420084F843000122002102
:10325000206801F07DFE01220421206801F078FE43
:103260002068016841F001010160002070BD7047D5
:1032700070B50446006801694FF00005C94389072D
:1032800015D4C168C943890711D4E91E0161012021
:103290002077206880698007204602D0FFF7E7FF8B
:1032A00004E000F0EFF8204600F0B0F92577206840
:1032B0000169C943490717D4C168C943490713D4F1
:1032C0006FF004010161022020772068806910F40A
:1032D000407F204602D0FFF7CAFF04E000F0D2F89A
:1032E000204600F093F9257720680169C943090752
:1032F00016D4C168C943090712D46FF008010161EF
:10330000042020772068C0698007204602D0FFF79C
:10331000AEFF04E000F0B6F8204600F077F925771C
:1033200020680169C943C90617D4C168C943C906E1
:1033300013D46FF010010161082020772068C06964
:1033400010F4407F204602D0FFF791FF04E000F028
:1033500099F8204600F05AF9257720680169C94399
:10336000C90708D1C168C943C90704D1891E0161D1
:10337000204600F0B1F920680169C943090609D463
:10338000C168C943090605D46FF080010161204678
:10339000FFF7ECFD20680169C943490609D4C168FB
:1033A000C943490605D46FF040010161204600F091
:1033B00094F920680169C94389060BD4C168C943DF
:1033C000890607D46FF0200101612046BDE87040F6
:1033D000FFF7CDBD70BD000030B587B004461421A5
:1033E0006846FDF7F2F82168002421480225B1F172
:1033F000804F29D01F4A914224D1016841F0020137
:103400000160016801F002010591016841F00401C9
:1034100001600068694600F00400059022200090D9
:10342000CDE901541448CDE90345FEF78DFE4FF474
:10343000A0700090CDE9015469461048CDE90345DC
:10344000FEF782FE07B030BD016841F00101016066
:103450000068694600F00100059048F20E000090F7
:10346000CDE901540120CDE903400548E8E700001B
:1034700030380240000400400004024000080240CE
:1034800000000240704770B5044690F83C000026EA
:103490000D4601280FD0012084F83C006AB1042AAF
:1034A0001DD0082A2FD00C2A3FD00126002084F8F6
:1034B0003C00304670BD022070BD206801F056FD12
:1034C0002068816941F0080181612068816921F0EB
:1034D00004018161206881692A69114311E0206833
:1034E00001F074FD2068816941F400618161206808
:1034F000816921F480618161206881692A6941EADA
:1035000002218161D2E7206801F096FD2068C1693F
:1035100041F00801C1612068C16921F00401C16165
:103520002068C1692A69114311E0206801F0B8FDE3
:103530002068C16941F40061C1612068C16921F45A
:103540008061C1612068C1692A6941EA0221C161C3
:10355000ACE710B5040003D094F83D0010B107E0CB
:10356000012010BD002084F83C00204600F01EF829
:10357000022084F83D00211D206801F085FC012017
:1035800084F8460084F83E0084F83F0084F8400048
:1035900084F8410084F8420084F8430084F8440031
:1035A00084F8450084F83D00002010BD08B501688E
:1035B0001448B1F1804F14D0134A914220D10168D0
:1035C00041F0020101600068002200F0020000905A
:1035D00011461D20FFF7E2F91D20BDE80840FFF766
:1035E000CFB9016841F0010101600068002200F0DC
:1035F0000100009011461C20FFF7D0F91C20ECE7D9
:1036000008BD000040380240000400407047000040
:1036100010B50446022249B104290ED0082913D05E
:1036200094F84100012816D0012010BD94F83E0006
:103630000128F9D184F83E200FE094F83F000128DA
:10364000F2D184F83F2008E094F840000128EBD143
:1036500084F8402001E084F841200122206801F034
:1036600077FC16492068164A884201D0904203D15F
:10367000436C43F4004343642068884213D0B0F1A4
:10368000804F10D00F4988420DD00F4988420AD090
:103690000E49884207D0904205D00D49884202D099
:1036A0000C49884204D1816801F00701062903D042
:1036B000016841F001010160002010BD00000140DF
:1036C000000401400004004000080040000C0040DD
:1036D0000040014000180040704770477047704735
:1036E000F8B5016804460868CA684B6910F00F0F06
:1036F0004FF000055AD003F0010602F490773743EB
:1037000065D0C10705D0D10503D5216C41F0010179
:103710002164410705D5D90703D0216C41F002018E
:103720002164810705D5D90703D0216C41F004013C
:103730002164010707D502F02001314303D0216C39
:1037400041F008012164216C00293BD0800604D59A
:10375000900602D5204601F0FAFC20684069216CF1
:10376000C0F3801001F00801014320462BD001F086
:10377000C7FC20684069400621D52068143050E815
:10378000001F21F0400140E80012002AF5D1A06B93
:10379000A8B16C490165A06BFEF775FB002811D03C
:1037A000A06B016D01B0BDE8F040084783060ED55F
:1037B00093060CD52046BDE8F84001F0C8BC204671
:1037C000FFF78DFFF8BDFFF78AFF2564F8BD266B74
:1037D0002023012E79D1C60677D5D60675D508687F
:1037E000486800904869400640D5A16B0868406869
:1037F0000004000CEAD0A28D8242E7D9E085C869B6
:10380000B0F5807F2DD020680C3050E8001F21F4E7
:10381000807140E80012002AF5D12068143050E889
:10382000001F21F0010140E80012002AF5D12068B4
:10383000143050E8001F21F0400140E80012002A37
:10384000F5D184F83E30256320680C3050E8001F25
:1038500021F0100140E80012002AF5D1A06BFEF71C
:10386000C9FAA08DE18D401A81B229E0A08DE18DC9
:10387000401A81B2E08D0028A8D00029A6D0206887
:103880000C3050E8002F22F4907240E80026002E01
:10389000F5D12068143050E8002F22F0010240E8F2
:1038A0000026002EF5D184F83E30256320680C30C8
:1038B00050E8002F22F0100240E80023002BF5D141
:1038C0002046FFF70BFFF8BDFFE705062BD51506D1
:1038D00029D594F83D002128F5D1A068B0F5805F86
:1038E00001D12069B0B1206A411C216221680078B1
:1038F0004860E08C401E0004000CE084E3D12068A6
:10390000C16821F08001C1602068C16841F04001B8
:10391000C160D8E7206A0088C0F308004860206AC8
:10392000801C2062E5E74006CDD55006CBD5CA689D
:10393000204622F04002CA6084F83D3000F073F95E
:10394000C1E70000F150000870B5040004D094F8FD
:103950003D00002510B106E0012070BD84F83C5008
:10396000204600F023F8242084F83D002068C16838
:1039700021F40051C160204601F04AFC2068016931
:1039800021F4904101612068416921F02A014161DF
:103990002068C16841F40051C1602564202084F88A
:1039A0003D0084F83E00002070BD00002DE9F0438A
:1039B00087B0074614216846FCF707FE53493A686A
:1039C00000245348022503264FF007088A4222D1DB
:1039D0004F4914310A6842F010020A60096801F088
:1039E00010010591016841F001010160006802AA1F
:1039F00000F0010005907002CDE9000582E8500159
:103A000069464448FEF7A0FB002201212520FEF76D
:103A1000C5FF25203DE03E493F4B1031DFF8FC90CB
:103A20009A423BD10A6842F400320A60096801F404
:103A300000310591016841F008010160006802AAA7
:103A400000F0080005906020CDE9000582E85001F3
:103A500069464846FEF778FB324D314828604FF002
:103A60000060C5E901044014C5E903406C61AC6124
:103A7000EC612C6228466C62FEF7EAFA08B1FEF7A8
:103A800002F8BD63002201212620AF63FEF786FF06
:103A90002620FEF775FF07B0BDE8F083224B9A425F
:103AA000F9D10A6842F480220A60096801F4802191
:103AB0000591016841F002010160016801F0020115
:103AC0000591016841F008010160006802AA00F058
:103AD00008000590D814CDE9000582E85001694638
:103AE0001248FEF731FB4FF48070CDE9000502AAC1
:103AF000694682E850014846FEF726FB0022012174
:103B00002720FEF74BFF2720C3E7000000100140ED
:103B1000303802400000024000440040000C0240E7
:103B20008860024024030020004800400004024056
:103B300090F83E30202B0ED159B152B190F83C3064
:103B4000012B08D0012380F83C300023036301F0EF
:103B5000E5BB0120704702207047000004498842FD
:103B600004D108684068C0B201F008BD7047000089
:103B70009C0200202DE9F843044690F83D001F46C2
:103B800016460D4620284CD1C5B1BEB194F83C0074
:103B9000012846D0012084F83C004FF00008C4F80A
:103BA0004080212084F83D00FEF7CCFBA6848146AE
:103BB000E684A068B0F5805F03D004E00120BDE892
:103BC000F883206928B12E465FF0000584F83C8018
:103BD0000EE00026FAE78021204601F0BCFBA0B9E8
:103BE000AEB116F8010B21684860E08C401EE084FD
:103BF000E08C4B464FF0000200970028EBD14FF0CD
:103C00004001204601F0A7FB30B10320D7E735F88B
:103C1000020BC0F30800E6E7202084F83D000020F6
:103C2000CDE70220CBE77047FEE700000148FEF732
:103C300091BB0000900000200148FEF7E8BB0000A7
:103C4000900000200148FEF785BB0000E400002042
:103C50000148FEF7DCBB0000E400002038B5806BB3
:103C6000002190F83D202B4B46F2A8141B68B3FBB3
:103C7000F4F3C3EBC30303EB830300933BB15B1E7D
:103C8000009303681B689B0505D5009BF6E7036C52
:103C900043F020030364436B03B1D963836B03B127
:103CA000D96303681C6824F480641C604185436BFD
:103CB00003B11965836B03B1196503681C6824F0AF
:103CC00001041C6090F83D402023602C0BD0282478
:103CD00034EA02020FD080F83D3080F83E1000BF79
:103CE000FEF7ADFC38BD80F83D3080F83E10016431
:103CF000FEF72EFB38BD0268136843F00103136022
:103D00000268136843F480631360016380F83D40E8
:103D1000E6E700001C00002070B5044690F83D0066
:103D200094F83E10102901D0402906D1222804D150
:103D300021680A6822F400620A60282131EA000240
:103D40004FF000054FF0200626D02168496809058C
:103D500005D4602803D084F83D6084F83E50256384
:103D600020684168090537D5416821F40061416048
:103D7000606B90F835203C49012A11D00165606BD9
:103D8000FEF781F838B32068016821F00101016075
:103D900084F83D60606B1CE0256384F83D10DFE72C
:103DA000A06B0165A06BFEF76EF8A0B120684169B9
:103DB000C943490605D40069616A0870606A401CFD
:103DC00060622068016821F00101016084F83D60B3
:103DD000A06B016D884710E094F83D10602910D069
:103DE0004169C943490605D40069616A0870606A7F
:103DF000401C60622046FEF722FC206CC1071CD1EB
:103E000015E084F83D6025644169C943490605D43D
:103E10000069616A0870606A401C6062206801681D
:103E200021F0010101602046FEF792FAE5E78107E3
:103E300003D4410701D4000704D52068416821F468
:103E4000E061416094F83D00216C49070BD52828BA
:103E500009D10648E062256384F83D6084F83E504D
:103E60002046FEF7B1FC70BD5D3C00080000FFFF7E
:103E700010B5C26A438D0168042B06D0438D032B15
:103E800008D0438D022B1DD012E04A6822F48062D4
:103E90004A600CE04B6823F480634B60042A06D030
:103EA000022A04D001680A6822F480620A6001686C
:103EB0000969426A1170416A491C4162418D491E7B
:103EC000418510BD012A30D0102A2ED0042A30D0CE
:103ED000022A2ED00A6842F400720A600168096959
:103EE000426A1170416A491C4162428D521E4285EC
:103EF000026812690A70416A491C4162418D491E7B
:103F0000418501684A6822F440724A60202180F8A5
:103F10003D1090F83E200021402A80F83E100CD041
:103F200012210163FEF751FC10BD0A6822F4806281
:103F3000D3E70A6842F48062CFE70163FEF747FCEB
:103F400010BD000038B590F83D1022290FD1418DE9
:103F500003290DD901680969426A1170416A491C37
:103F60004162418D491E4185418D032906D038BDEE
:103F7000C26A022A02D0012906D029B1006841682C
:103F800021F48061416038BD274946F2A813002220
:103F90000968B1FBF3F101EB810100910168202375
:103FA000009C641E009422D00C68A405F8D40C6810
:103FB00024F480640C6001684C6824F4E0644C6074
:103FC00001680969446A2170416A491C4162418D56
:103FD000491E418580F83D3090F83E1080F83E2023
:103FE00040291DD012210163FEF7EFFB38BD046CA0
:103FF00044F0200404644C6824F4E0644C600168DC
:104000000969446A2170416A491C4162418D491E17
:10401000418580F83D3080F83E20FEF710FB38BD2A
:104020000263FEF7D4FB38BD1C00002010B5C26A45
:1040300090F83D1021290BD1418D51B1416A0268A0
:1040400009781161416A491C4162418D491E4185CF
:1040500010BD20230021082A13D0202A11D012F5E8
:10406000803F0ED00268546824F4E064546011224A
:10407000026380F83E1080F83D3000BFFEF7A6FBDB
:1040800010BD0268546824F4E06454600268146847
:1040900044F400741460016380F83D3090F83E20D1
:1040A00080F83E10402AE9D1FEF792FB10BD0000D7
:1040B00010B590F83D1090F83E30C26A048DB4B14E
:1040C000212903D0402B11D122290FD1418DE1B3F9
:1040D00090F83E10402942D0416A02680978116187
:1040E000416A491C4162418D491E418510BD21290B
:1040F000E8D120230021082A13D0202A11D012F55C
:10410000803F0ED00268546824F4E06454601122A9
:10411000026380F83E1080F83D3000BFFEF756FB8A
:1041200010BD0268546824F4E064546002681468A6
:1041300044F400741460016380F83D3090F83E2030
:1041400080F83E10402AE9D100E002E0FEF740FB93
:1041500010BD0068416821F48061416010BDBDE878
:10416000104000F0D3B8000078B590F83E50C26A15
:10417000036B90F83D6000240168222E7AD1066D11
:104180000EB9402D76D0056D1DB90569B5F5404FC6
:1041900009D0458D05B3468D384D012E0ED0438D87
:1041A000022B3AD05DE04A698A6900920A6842F4BB
:1041B00080720A60016D491C016578BDAA4213D165
:1041C0000A6822F480620A6001684A68120503D511
:1041D0000A6822F4806216E04A698A6900920A68D5
:1041E00042F400720A6039E0082A10D0202A0ED06A
:1041F000122B0AD0042A03D0022A01D0102AE7D1B8
:104200000A6842F480620A6024E0012AE0D00A6869
:1042100022F480620A600168DEE7042A21D0022AC3
:104220001FD0102A1DD00B6823F480630B60016837
:104230000B6843F400630B6001684B681B0509D5EC
:10424000AA4212D0012A10D0082A0ED0102A0CD06F
:10425000202A0AD001684A6989690091046578BDFD
:1042600008E00B6843F48063E5E74A6842F4805253
:104270004A60EFE7486988690090F0E70000FFFFB7
:1042800090F83E10402910D00169B1F5804F19D047
:10429000016DA9B3016D012910D1416C5FF0F102EC
:1042A00001F4407142EAD11106E0016D0029416C30
:1042B00005D0C9B241F0010100680161704701F009
:1042C000FE01F9E790F83D102129416C09D0C9B2EF
:1042D00041F0010102681161416B29B1C96B49B913
:1042E00002E001F0FE01F5E7816B0029E6D0C96B21
:1042F0000029E3D00068416841F4006141607047E3
:10430000FFE7416CF02201F44071CBE710B590F863
:104310003D10026D22B3026D012A2FD0026D022AD8
:104320001DD122292FD0428D0AB1212933D0428DAF
:10433000002A14D1212912D101684A6822F4E062CE
:104340004A6001680A6842F400720A600021016351
:10435000202280F83D2080F83E10FEF739FA10BD8B
:10436000C16C0129816C02D0C1F3072108E0026809
:10437000C9B21161016D891C016510BD816CC9B2A2
:104380000268116104E001680A6842F480720A6000
:10439000016D491CF0E7416A026809781161416AC0
:1043A000491C4162418D491E418510BD38B50C46FE
:1043B00090F83D2000212825954302680B4605D042
:1043C00051699169009180F83C3038BD556825F4F9
:1043D00080655560E243540700D50121120601D5DE
:1043E000828900E0028B80F83C3092B2FDF7B1FF89
:1043F00038BD00002DE9F04190F83D40C26A00232D
:1044000020261C4F01686FF48065082A01D0202AFD
:1044100001D1282C04D0212C16D04D61BDE8F081AB
:10442000C7624A6822F4E0624A6001684D6101682F
:104430000A6822F480620A60036380F83D6080F8B5
:104440003E30FEF7C1F9E9E7C7622122026380F836
:104450003D6080F83E304A6822F4E0624A600168BC
:104460004D6101680A6822F480620A60FEF725FA4D
:10447000D4E700000000FFFFF8B590F83D60044667
:104480000068416821F4E0614160206800254169CD
:104490000091016841F0010101602068016821F488
:1044A0008061016020684168090520D5474F222EB0
:1044B00048D02A2E46D0616B096849686185618DB4
:1044C00019B1216C41F004012164416821F40061BB
:1044D0004160606BFDF7E9FC012808D0606B07655F
:1044E000606BFDF7D0FC10B1606B016D8847608D8B
:1044F00008B320684169C943490708D40069616A63
:104500000870606A401C6062608D401E6085206893
:104510004169C943490608D40069616A0870606A44
:10452000401C6062608D401E6085608D18B1206CFB
:1045300040F004002064206C00B32046BDE8F84041
:10454000FFF7EABBA16B096849686185618D19B104
:10455000216C41F004012164416821F40061416053
:10456000A06BFDF7A2FC0128C1D0A06B0765A06B72
:10457000FDF789FC0028BAD0A06BB6E72A2E06D139
:104580002563282084F83D002046FEF795F994F82D
:104590003D10202028290DD0216B222901D0222E68
:1045A00007D1256384F83D0084F83E502046FEF78D
:1045B00083F9F8BD0649E162256384F83D0084F87B
:1045C0003E502046FEF700F9F8BD00005D3C0008B3
:1045D0000000FFFF2DE9FF4100242C4800940194C6
:1045E000029429490394016001254FF4803105614B
:1045F000C0E90114057680F820402549C0E90A1475
:104600000526C661C46080F830404561FDF77DFB3A
:1046100008B1FDF738FA0427CDE9007569461B4853
:104620000295FDF733FA08B1FDF72DFA0220009646
:10463000CDE9010469461548FDF728FA08B1FDF7F0
:1046400022FA062000900320019069460F48FDF7EA
:104650001DFA08B1FDF717FA0720CDE900076946F2
:104660000A48FDF713FA08B1FDF70DFA0820CDE965
:10467000000669460548FDF709FA002801D0FDF754
:1046800002FABDE8FF810000002001404800002040
:104690000100000F094808B5016841F400110160EC
:1046A0000068002200F40010009011461020FEF770
:1046B00075F9BDE808401020FEF762B930380240B5
:1046C00030B587B014216846FBF77FFF42480024CD
:1046D000016841F004010160016801F004010591E5
:1046E000016841F020010160016801F0200105919D
:1046F000016841F080010160016801F080010591CD
:10470000016841F001010160016801F001010591BA
:10471000016841F002010160016801F002010591A8
:10472000016841F010010160016801F0100105917C
:10473000016841F008010160016801F0080105917C
:10474000016841F0400101600068244D00F0400024
:10475000059001224FF488412846FDF7EDFD002227
:104760004FF430412846FDF7E7FD4FF474400090C8
:104770000120CDE90104694628460394FDF7E4FCD5
:104780002815CDE90004694615480294FDF7DCFCC4
:104790008020CDE90004694612480294FDF7D4FC5C
:1047A0004FF4D060CDE9000469460F480294FDF74C
:1047B000CBFCA815CDE9000469460C480294FDF72E
:1047C000C3FC8420CDE90004694609480294FDF742
:1047D000BBFC07B030BD0000303802400010024082
:1047E000000402400018024000080240000002409D
:1047F000000C02400D4810B50B4901600C494160A6
:1048000000214FF480428160C0E90312416181615F
:10481000C1610162FDF714FF002803D0BDE810401C
:10482000FDF731B910BD0000005400409000002099
:10483000A08601000D4810B50B4901600C4941608C
:1048400000214FF480428160C0E90312416181611F
:10485000C1610162FDF7F4FE002803D0BDE81040FD
:10486000FDF711B910BD000000580040E400002021
:10487000A086010010B58CB024216846FBF7A5FE88
:1048800000241748099415490A9401600321C0E9DE
:1048900001144FF6FF72C0E9032444618461009162
:1048A0000120CDE901400F21CDE90341CDE90540CB
:1048B000CDE9074169460A48FEF7DEFB08B1FDF77E
:1048C000E2F8099409A906480A94FEF751FB00286A
:1048D00001D0FDF7D8F80CB010BD00000000014079
:1048E0003801002010B58AB0002407941C216846C6
:1048F0000894FBF76AFE21484FF08041C0E900149C
:1049000040F2E731C0E9024104618461FEF721FE13
:1049100008B1FDF7B8F8079407A918480894FEF7FE
:1049200027FB08B1FDF7AFF86020CDE90004029441
:104930000022694611480494FEF7A5FD08B1FDF771
:10494000A2F8042269460D48FEF79DFD08B1FDF767
:104950009AF8082269460948FEF795FD08B1FDF767
:1049600092F80C2269460548FEF78DFD08B1FDF767
:104970008AF80248FEF730FD0AB010BD8001002021
:1049800010B58AB0002407941C2168460894FBF7F0
:104990001CFE22482049C0E900144FF6FF71C0E90F
:1049A000024104618461FEF7D4FD08B1FDF76BF8A4
:1049B000079407A919480894FEF7DAFA08B1FDF739
:1049C00062F86020CDE90004029400226946134891
:1049D0000494FEF758FD08B1FDF755F80422694626
:1049E0000E48FEF750FD08B1FDF74DF80822694664
:1049F0000A48FEF748FD08B1FDF745F80C22694664
:104A00000648FEF740FD08B1FDF73DF80348FEF704
:104A1000E3FC0AB010BD000000040040C801002003
:104A200010B58CB024216846FBF7CFFD0024164852
:104A3000099414490A9401600321C0E901144FF656
:104A4000FF72C0E90324846100910120CDE9014097
:104A500003940494CDE90540079469460A480894F4
:104A6000FEF70AFB08B1FDF70EF8099409A90648FC
:104A70000A94FEF77DFA002801D0FDF704F80CB087
:104A800010BD000000080040100200200C4810B5C6
:104A90000A4901604FF4E1314160002181600C223C
:104AA000C160C0E904128161C161FEF74DFF0028B9
:104AB00003D0BDE81040FCF7E6BF10BD0010014078
:104AC000580200200C4910B50A4AC1E90020002014
:104AD00088600C22C860C1E904028861C861084688
:104AE000FEF732FF002803D0BDE81040FCF7CBBF33
:104AF00010BD0000004400409C0200200C4810B58E
:104B00000A4901604FF4E1314160002181600C22CB
:104B1000C160C0E904128161C161FEF715FF002880
:104B200003D0BDE81040FCF7AEBF10BD0048004008
:104B3000E0020020FEE7FEE7704770477047000084
:104B400010B50023104A15E0362809D039280BD0BB
:104B50003C2812D014783F2813D044F0800406E09B
:104B6000147844F0010402E0147844F00204147054
:104B7000401C5B1C8B42E7D310BD147844F0080442
:104B8000F5E744F00404F2E7000000208AB2014691
:104B90004FF0FF330148FEF7EDBF00009C020020FC
:104BA00010B51648FBF7E8FB1548FBF7E5FB15A029
:104BB000FBF7E2FB1F48FBF7DFFB1FA0FBF7DCFB6B
:104BC00027A0FBF7D9FB31A0FBF7D6FB3CA0FBF7F6
:104BD000D3FB48A0FBF7D0FB54A0FBF7CDFB61480B
:104BE000FBF7CAFB60A0FBF7C7FB6CA0FBF7C4FB9D
:104BF000BDE810407048FBF7BFBB0000AC62000886
:104C0000EC600008554152542053454E443A615CD3
:104C1000725C6E202020416363656C65726174690B
:104C20006F6E2063616C6962726174696F6E2E0DC4
:104C30000A00000044620008554152542053454E7A
:104C4000443A555C725C6E20202042616E64776944
:104C500064746820696E6372656173652E0D0A0065
:104C6000554152542053454E443A755C725C6E2057
:104C7000202042616E64776964746820726564758F
:104C80006374696F6E2E0D0A000000005541525486
:104C90002053454E443A425C725C6E2020204261B3
:104CA0007564207261746520696E637265617365F5
:104CB0006420746F203131353230302E0D0A0000FF
:104CC000554152542053454E443A625C725C6E200A
:104CD000202042617564207261746520726564757C
:104CE0006374696F6E20746F20393630302E0D0A70
:104CF00000000000554152542053454E443A525C46
:104D0000725C6E2020205468652072657475726E26
:104D1000207261746520696E6372656173657320CA
:104D2000746F203130487A2E0D0A000055415254DC
:104D30002053454E443A725C725C6E2020205468C9
:104D4000652072657475726E20726174652072657B
:104D500064756374696F6E20746F2031487A2E0D0C
:104D60000A000000E0610008554152542053454EAE
:104D7000443A635C725C6E20202052657475726EDA
:104D800020636F6E74656E743A20616363656C6551
:104D9000726174696F6E2E0D0A0000005541525405
:104DA0002053454E443A685C725C6E202020686552
:104DB0006C702E0D0A0000008C610008FDF77EBDAE
:104DC00030B593B030216846FBF7FFFB14210CA8E7
:104DD000FBF7FBFB1D480025016841F08051016095
:104DE000006800F0805011901948016841F480413A
:104DF00001600068022400F48040119001200390BB
:104E000010200490009406940820CDE90750A820B3
:104E1000CDE9090404200B906846FDF7DDFE08B1DA
:104E200072B6FEE70CA90F2081E831004FF4A050C4
:104E30000F904FF48050109005210CA8FDF7E0FD75
:104E4000002801D072B6FEE713B030BD40380240F2
:104E5000007000400248016841F470010160704731
:104E600088ED00E00148FEF703BA00008001002051
:104E70000148FEF7FDB90000C80100200148FEF717
:104E8000F7B9000010020020F0B50268254C264D4D
:104E9000264E274F274B4FF0804CA04209D060454B
:104EA00007D0A84205D0B04203D0B84201D0984202
:104EB00004D122F0700E4A6842EA0E02A0421BD0D2
:104EC000604519D0A84217D0B04215D0B84213D0CF
:104ED000984211D0184DA8420ED0184DA8420BD0C0
:104EE000174DA84208D0174DA84205D0164DA8422C
:104EF00002D0164DA84203D122F44075CA682A4355
:104F00004D6922F080022A4302608A68C2620A6800
:104F10008262A04201D0984201D109690163012156
:104F20004161F0BD00000140000400400008004065
:104F3000000C0040000401400040014000440140DA
:104F40000048014000180040001C004000200040C4
:104F500010B501F01F030121046A99408C430462DB
:104F6000016A9A401143016210BD0000F0B5026A67
:104F700022F001020262036A42688469124E24F040
:104F800073050C682C4323F002058B682B430D4DF1
:104F9000A84201D0B04205D123F00807CB683B43BB
:104FA00023F00403A84201D0B04205D14D6922F498
:104FB000407215438A692A434260846149684163AB
:104FC0000362F0BD0000014000040140F0B5026A38
:104FD00022F010020262026A436884690D6824F4B8
:104FE000E64444EA05248D6822F0200242EA0512D4
:104FF0000F4D104EA84201D0B04206D1CF6822F02A
:10500000800242EA071222F04002A84201D0B042D8
:1050100007D14D6923F4406343EA85038D6943EA70
:10502000850343608461496881630262F0BD0000CA
:105030000000014000040140F0B5026A22F48072D1
:105040000262026A4368C46922F4007224F07305A4
:105050000C68124E2C438D6842EA05220E4DA84280
:1050600001D0B04206D1CF6822F4006242EA0722A2
:1050700022F48062A84201D0B04207D14D6923F4E6
:10508000405343EA05138D6943EA05134360C46145
:105090004968C1630262F0BD0000014000040140A4
:1050A00030B5026A22F480520262046A4268C3691F
:1050B0000D6823F4E64343EA05238D6824F4005485
:1050C00044EA0534084DA84202D0084DA84204D154
:1050D0004D6922F4804242EA85124260C361496808
:1050E0000164046230BD0000000001400004014082
:1050F00010B5806B0021C185C184FEF7F0FA10BDA8
:1051000001680C3151E8002F22F4907241E800232D
:10511000002BF5D10168143151E8002F22F0010273
:1051200041E80023002BF5D1016B012909D1016869
:105130000C3151E8002F22F0100241E80023002B2F
:10514000F5D1202180F83E1000210163704708B599
:1051500090F83E10222901D0022008BD82684FF449
:1051600080539A4201D1016921B1816A9A421BD0D0
:105170004AB10AE00268816A5268C2F308020A80F2
:10518000816A891C08E0026972B10268526802F003
:105190007F020A70816A491C8162C18D491E09041F
:1051A000090CC18503D019E002685268F1E7016873
:1051B000CA6822F02002CA600168CA6822F48072BC
:1051C000CA6001684A6922F001024A61202180F820
:1051D0003E10016B012903D0FEF7C0FC002008BD82
:1051E0000021016301680C3151E8002F22F0100208
:1051F00041E80023002BF5D101680A68D20602D5E8
:105200000A6849680091818DFEF768FAE6E70000B8
:1052100070B5044600680169E26821F44051114309
:1052200001612169A068E26908436169114308438B
:105230002168CA6849F20C639A430243CA60206835
:105240004169A26921F440711143416131492068EB
:10525000884202D03049884202D1FDF77BFC01E050
:10526000FDF768FCE2690023192164253226B2F5B6
:10527000004F626828D0A0FB0101930F9200FBF75A
:1052800004F80146B0FBF5F06FF01802504301EB53
:10529000800006EB0010B0FBF5F000F0F002B1FB6F
:1052A000F5F002EB0012B1FBF5F06FF01803584374
:1052B00001EB800006EB0010B0FBF5F000F00F00F2
:1052C00021681044886070BDA0FB010192185B4109
:1052D000FAF7DBFF0146B0FBF5F00201B1FBF5F098
:1052E0006FF01803584301EB800006EBC000B0FBE1
:1052F000F5F000F0F80002EB4002B1FBF5F0584386
:1053000001EB800006EBC000B0FBF5F000F00700F9
:10531000D6E7000000100140001401408162828540
:10532000C28500210164222280F83E2080F83C10D2
:10533000016921B10168CA6842F48072CA600168DB
:105340004A6942F001024A610068C16841F02001E7
:10535000C160002070472DE9F041984617460E467F
:105360000446069D27E0681C25D02DB1FCF7EAFF16
:10537000A0EB0800A8421ED920680C3050E8001F9E
:1053800021F4D07140E80012002AF5D120681430D1
:1053900050E8001F21F0010140E80012002AF5D179
:1053A000202084F83D0084F83E00002084F83C0072
:1053B0000320BDE8F0812068006836EA000004D0D0
:1053C0000020B842CFD00020F3E70120F9E7000029
:1053D0000148FEF785B90000580200200148FEF799
:1053E0007FB900009C0200200148FEF779B9000057
:1053F000E0020020FEE7000018B1034988610020A8
:1054000070476FF00500704720000020032802D984
:105410006FF005007047034A106211700020D061E0
:1054200070470000200000202DE9FC5F0D46064675
:1054300028446FF0050C90287CD2494C6FF0040989
:105440002046D4F8208042684FF0FF0A4FF0AA0BA4
:105450004FF0270EF7B2C6F30721B8F1000F0FD0B7
:105460004FF6FF7000EA45032046B8F1010F0078BF
:1054700016D0B8F1020F33D0B8F1030F6ED142E06D
:10548000042D6BD8F2B38DF800A08DF801B08DF823
:1054900002E08DF804108DF803700521684659E08C
:1054A00082B35B1DB3F5807F32D88DF800000320F6
:1054B0008DF80100280A8DF802108DF804008DF88F
:1054C00003708DF805500621684600F06FFA010A56
:1054D0008DF806108DF8070008216846626839E0EB
:1054E000032D3BD823696BB18DF800A08DF801B076
:1054F0008DF802E08DF804108DF8037005226946DE
:10550000984728E017E0E768AFB1B3F5807F03D98B
:105510006FF00300BDE8FC9F4006F1B2000E114A97
:10552000B847012817D162692AB10E49002001F558
:1055300080730BE012E04846ECE700BF31F81070D2
:1055400000EB060C401C23F81C7080B2A842F5D377
:1055500029463046904700206662DBE76046D9E77F
:10556000200000208403002018B103494861002076
:1055700070476FF005007047200000202DE9FC41C6
:105580003B4C6169002955D03A49E2698854521C64
:10559000E261206A002630B101282FD0022865D0B0
:1055A000032860D162E00878552804D0521E3148A3
:1055B000491CE2613CE00B2A55D30A252D4F0020FF
:1055C0004FEA000317F803C05B1C6044C0B2AB4253
:1055D000F8D38B7A8342E9D14888ADF800008888F7
:1055E000ADF80200C888ADF804000889ADF80600DF
:1055F000487804226946FCF7A5F937E0022A32D937
:1056000048780328D2D18878401D904212D8881853
:105610000D4630F8020C921E47BA91B2154800F0C0
:10562000C5F9874208D0E269691C521E1148E2613F
:10563000FAF786FFBDE8FC81A8780F4B42080021ED
:10564000606A0AE005EB410701EB000CB7F8037054
:10565000491C7FBA23F81C7089B29142F2D31146DB
:105660006269904702E0B2F5807FE3D1E661E1E74D
:1056700020000020840300208404002018B1034986
:105680004860002070476FF0050070472000002040
:1056900070B504460622002100B2FCF7A6F840B11E
:1056A0004BF28851692000F0F5F86FF00205A0B9BF
:1056B00002E06FF0050070BD0949086A012801D0B9
:1056C00010B104E0142000E0012089698847A1B2EC
:1056D0001F2000F0DFF80028EDD0284670BD000044
:1056E0002000002070B5044640F6FF72012100B290
:1056F000FCF77BF840B14BF28851692000F0CAF802
:105700006FF00205A0B902E06FF0050070BD094915
:10571000086A012801D010B104E0142000E0012043
:1057200089698847A1B2022000F0B4F80028EDD0C2
:10573000284670BD2000002070B504460D220121CE
:1057400000B2FCF752F840B14BF28851692000F0EA
:10575000A1F86FF00205A0B902E06FF0050070BD7E
:105760000949086A012801D010B104E0142000E0C2
:10577000012089698847A1B2032000F08BF8002836
:10578000EDD0284670BD00002000002070B5044612
:105790000722012100B2FCF728F840B14BF28851F2
:1057A000692000F077F86FF00205A0B902E06FF011
:1057B000050070BD0949086A012801D010B104E054
:1057C000142000E0012089698847A1B2042000F07C
:1057D00061F80028EDD0284670BD000020000020B0
:1057E00010B54BF28851692000F054F86FF00204B4
:1057F00080B909490A6A012A01D012B104E01420D3
:1058000000E00120896988470121084600F042F83C
:10581000002800D0204610BD2000002010B54BF21B
:105820008851692000F036F86FF0020480B9094908
:105830000A6A012A01D012B104E0142000E001201C
:10584000896988470721012000F024F8002800D04A
:10585000204610BD2000002010B54BF28851692071
:1058600000F018F86FF0020480B909490A6A012AA9
:1058700001D012B104E0142000E0012089698847BA
:105880000021012000F006F8002800D0204610BDBD
:10589000200000202DE9FC476FF0050A90281AD25D
:1058A000354CCAB22346D4F82080FF27090A5B682A
:1058B0006FF0040C4FF0AA09C6B2B8F1000F0DD07A
:1058C0002546B8F1010F2D7817D0B8F1020F31D06D
:1058D000B8F1030F40D05046BDE8FC87DBB38DF82C
:1058E00000708DF801908DF802608DF804108DF82D
:1058F00003200521684698473AE063B306238DF8F4
:1059000000508DF80130000A8DF802008DF8041067
:105910008DF803608DF805201946684600F046F8BA
:10592000010A8DF806108DF80700626808216846A4
:1059300090471DE0236973B18DF800708DF80190D8
:105940008DF802608DF803208DF804100522694659
:10595000284698470CE00DE0A4685CB18DF8002063
:105960008DF80110C1B26806000E02236A46A047F6
:105970000020B1E76046AFE72000002003B40198A3
:105980004100009850EAC12018BF04204A0D18BFFA
:1059900040F0010040F2FF72B2EB515F08BF40F0EF
:1059A0000200012808BF052002B07047F0B5FF23B0
:1059B000084E1C46002206F5807705E0855C5D40B8
:1059C000735D63407C5D521C8A42F7DB44EA03202E
:1059D000F0BD0000445E00080907090E002804DB42
:1059E00000F1E02080F80014704700F00F0000F193
:1059F000E02080F8141D704730380A2801D20120B9
:105A0000704700207047704703490A681206FCD5AA
:105A1000C2B24A6070470000001001408EB0FCF72F
:105A200055FFFFF7CDF9FEF74BFEFEF733FEFEF70D
:105A300021FFFFF72BF8FEF755FFFEF7A1FFFEF75A
:105A4000EFFFFEF7C7FDFEF7D5FEFEF7F3FE4FF4BE
:105A50001650FFF737F8FFF751F87A48FDF7D0FAFC
:105A60003C217848FDF7BCFB7748FDF7C9FA0021D7
:105A70007548FDF7CDFD04217348FDF7C9FD0821E8
:105A80007148FDF7C5FD0C216F48FDF7C1FD6F485A
:105A9000FDF7B6FA00216D48FDF7BAFD04216B4809
:105AA000FDF7B6FD08216948FDF7B2FD0C216748F6
:105AB000FDF7AEFD6648FDF7A3FA01226549664889
:105AC000FEF736F850210020FFF7A0FC6348FFF7EF
:105AD000D5FD6348FFF748FD6248FFF78DFC62483B
