:020000040800F2
:10000000100A002031020008433700082B2800089E
:100010004137000821080008193D000800000000D1
:100020000000000000000000000000004937000848
:100030002308000800000000453700084B3700087F
:100040004B0200084B0200084B0200084B0200085C
:100050004B020008473700084B0200084B0200081B
:100060004B0200084B0200084B0200084B0200083C
:100070004B0200084B0200084B0200084B0200082C
:100080004B0200084B020008ED0600084B02000876
:100090004B0200084B0200084B0200084B0200080C
:1000A0004B0200084B0200084B0200084B020008FC
:1000B000F5370008013800080D3800083928000815
:1000C0002D28000851280008452800084B02000888
:1000D0004B020008E93C0008F53C0008013D00081F
:1000E0004B0200084B0200084B0200084B020008BC
:1000F0004B0200084B0200084B0200084B020008AC
:100100004B0200084B0200084B0200084B0200089B
:100110004B0200084B0200084B0200084B0200088B
:100120004B0200084B0200084B0200084B0200087B
:100130004B0200084B0200084B0200084B0200086B
:100140004B0200084B0200084B0200084B0200085B
:100150004B0200084B0200084B0200080D3D00084E
:100160004B0200084B0200084B0200084B0200083B
:100170004B0200084B0200084B0200080000000080
:100180004B0200084B02000800F002F800F041F8B2
:100190000AA090E8000C82448344AAF10107DA45E2
:1001A00001D100F036F8AFF2090EBAE80F0013F0F3
:1001B000010F18BFFB1A43F0010318474845000020
:1001C00068450000103A24BF78C878C1FAD85207B1
:1001D00024BF30C830C144BF04680C6070470000C1
:1001E0000023002400250026103A28BF78C1FBD840
:1001F000520728BF30C148BF0B607047642900F028
:10020000BB80002070471FB504F061FA1FBD10B518
:1002100010BD00F03FFA1146FFF7F5FF03F0AAFD0D
:1002200000F05DFA03B4FFF7F2FF03BC03F096FDA4
:100230000948804709480047FEE7FEE7FEE7FEE77A
:10024000FEE7FEE7FEE7FEE7FEE7FEE704480549B6
:10025000054A064B70470000E53700088901000891
:1002600010040020100A00201006002010060020B4
:10027000704753EA020C00F069802DE9F04B4FF013
:100280000006002B1FBFB3FA83F503FA05F424FA26
:1002900005F65E4012BF1643B2FA82F502FA05F483
:1002A000C5F120051EBF22FA05FC44EA0C042035E6
:1002B00056EA044C4FEA144418BF641C4FF000087F
:1002C0004FF00009904271EB030C39D3002919BF9C
:1002D000B1FA81F701FA07F6B0FA80F700FA07F6EB
:1002E000C7F120071EBF20FA07FC46EA0C0620379C
:1002F000B6FBF4FCA7EB0507103F07F01F0BCBF193
:1003000020060CFA0BFB2CFA06F644BFB346002677
:10031000202FA4BF5E464FF0000B5BEA060C08BF1F
:100320004FF0010B19EB0B09ABFB027C48EB060805
:10033000C01B06FB02CC0BFB03CC71EB0C01C1E72D
:100340000B46024641464846BDE8F08B13B54FF0D8
:1003500000004FF00001AFF30080BDE81C40704783
:100360000FB4044910B503AA029800F061F910BC5B
:100370005DF814FB280000202DE9F041064600241A
:1003800010687529314616A510D0AFF300800028FB
:1003900002DA404213A507E031688A0701D512A5A9
:1003A00002E0490704D511A5012401E0AFF3008064
:1003B00000210A2206F1240709E0B0FBF2FCB0FBA1
:1003C000F2F302FB1C00303078541846491C002818
:1003D000F3D123462A463046BDE8F04100F0CFB8BD
:1003E000000000002D0000002B0000002000000095
:1003F0002DE9F05F894604464FF0000ADFF824B18A
:10040000FB44C0F820A02046E168884700287DD042
:10041000252806D0D4E901219047206A401C20629B
:10042000F1E700255F462046E16888472028064618
:1004300007DB312E05D2B81910F8200C08B105439E
:10044000F1E7A80701D525F00405C4F81CA0002792
:10045000C4F818A02A2E09D0304603F078FC38B32F
:1004600004EB8708303EC8F8186019E059F8041BFF
:10047000204604EB87029161E1688847012F064618
:1004800018D1E069002820DA25F020051DE0D8F811
:10049000180000EB800006EB40003038C8F8180068
:1004A0002046E1688847064603F051FC0028EED15B
:1004B000012F0AD02E2E08D12046E16888477F1CE4
:1004C0000646022F45F02005C4DBA069002803DAA8
:1004D000404245F00105A061E80701D025F0100574
:1004E000A6B1A6F14100192802D8203645F40065CE
:1004F0004A463146204625604D46FFF77FFE60B1F3
:10050000012807D0ED1D25F0070000E007E000F10D
:10051000080978E705F1040975E730467AE7206AAB
:10052000BDE8F09FEC4200004FF0000200B513461A
:1005300094469646203922BFA0E80C50A0E80C5003
:10054000B1F12001BFF4F7AF090728BFA0E80C50B4
:1005500048BF0CC05DF804EB890028BF40F8042BAD
:1005600008BF704748BF20F8022B11F0804F18BF1A
:1005700000F8012B704770477047704770472DE9AE
:10058000F0470D4699469246044600F1240801685A
:10059000880604D5E06921F01001216000E0012007
:1005A000A84201DD471B00E00027A1697A1902EB90
:1005B0000900081AA0612078C00602D42046AFF3D3
:1005C0000080002608E0D4E901211AF806009047CF
:1005D000206A401C761C20624E45F4DB2078C00661
:1005E0000AD52046AFF3008006E0D4E9012130208F
:1005F0009047206A401C2062381EA7F10107F4DCF6
:1006000007E0D4E9012118F805009047206A401C52
:100610002062281EA5F10105F3DC2046AFF300801F
:100620002078000602D50220BDE8F0870120FBE714
:10063000074B70B50D467B4400F011F80446284680
:1006400000F020F810B14FF0FF3070BD204670BDB3
:100650002737000001694A1C02610878704700B51D
:100660008FB0CDE901310021059105497944CDE9EB
:10067000031011466846FFF7BBFE0FB000BD000037
:10068000E5FFFFFF007B00F08000704700487047E7
:10069000AC0300207546FFF7F9FFAE46050069463A
:1006A000534620F00700854618B020B5FFF7CEFD71
:1006B000BDE820404FF000064FF000074FF0000863
:1006C0004FF0000B21F00701AC46ACE8C009ACE8E4
:1006D000C009ACE8C009ACE8C0098D4670470446C3
:1006E000AFF300802046FFF79DFD0000014800F0B9
:1006F00045B900005C000020464910B54A6822F464
:1007000040324A604A6843681A434A6001684A684E
:1007100022F480724A6001684A68036942EA03224F
:100720004A6001684A6822F040724A6001684A687B
:1007300083681A434A6001688A6822F400628A600A
:1007400001688A68C3681A438A60816A6FF07062C0
:10075000D14201688A6822F070628A6001688A6802
:100760000CD0836A1A438A6001688A6822F040527A
:100770008A6001688A68C36A1A4301E022F0405225
:100780008A6001688A6822F002028A6001688A68C9
:10079000037E42EA43028A6090F820100029016833
:1007A0004A680FD042F400624A6001684A6822F445
:1007B00060424A6001684A68174C436A04EB43335D
:1007C0001A4301E022F400624A600168CA6A22F416
:1007D0007002CA620168CA6A838B104C04EB03532F
:1007E0001A43CA6201688A6822F400728A6001684A
:1007F0008A6890F8303042EA43228A6001688A6849
:1008000022F480628A6001688A68406942EA802036
:10081000886010BD0023014000E0FFFF0000F0FFF2
:10082000FEE7704772B6FEE77047000078B5002417
:10083000009490F83C20012A19D0012280F83C2035
:100840000A6807230568092A13D9EE680A3A02EBF9
:10085000420293409E43EE600B788A680A3B03EBAA
:1008600043039A400368DD682A43DA6010E00220FF
:1008700078BD2E6902EB420293409E432E610B78B5
:100880008A6803EB43039A4003681D692A431A618F
:100890004A681F23072A13D205686E6B521E02EBAB
:1008A000820293409E436E630B790A885B1E92B26C
:1008B00003EB83039A4003685D6B2A435A6327E086
:1008C00005680D2A12D22E6BD21F02EB82029340D2
:1008D0009E432E630B790A88DB1F92B203EB8303DE
:1008E0009A4003681D6B2A431A6311E0EE6A0D3AC1
:1008F00002EB820293409E43EE620B790A880D3B25
:1009000092B203EB83039A400368DD6A2A43DA62FA
:10091000164B0568144A9D4206D10D68122D03D16D
:10092000556845F48005556005689D4218D10B68EF
:10093000102B01D0112B13D1536843F400035360E3
:10094000096810290CD10A490A4A0968B1FBF2F179
:1009500001EB8101490000E0491E00910029FBD113
:1009600080F83C40002078BD002301400020014079
:100970003800002040420F007047704770B50446B1
:1009800000680668456816F0020F05F020012AD0BD
:1009900049B3216CC90603D4216C41F40071216470
:1009A000816811F0405F17D1217EA9B9C16A11F4A5
:1009B000700F02D0816849050ED4416821F02001F2
:1009C0004160206C20F480702064206CC00403D44B
:1009D000206C40F0010020642046FFF7CDFF216825
:1009E0006FF01200086016F0040F05F0800132D09D
:1009F00089B3206CC00603D4206C40F400502064FE
:100A00002068816811F4401F1ED1816B11F4401FD2
:100A100002D08168490517D44168490514D481681A
:100A200011F0405F10D1217E71B9416821F0800141
:100A30004160206C20F480502064206CC00503D4F9
:100A4000206C40F0010020642046FFF7EDFE216895
:100A50006FF00C00086016F0010F05F040010FD098
:100A600071B120680068C0070AD0206C40F4803063
:100A70002064204600F043F821686FF00100086010
:100A800016F0200F05F080610ED000290CD0606CAC
:100A900040F00200606420686FF020050560204689
:100AA000FFF76BFF2068056070BD70B504004FF064
:100AB000000503D0206C002610B107E0012070BDB6
:100AC000204600F01DF8666484F83C60206CC00687
:100AD00010D4206C20F4885040F00200206420469E
:100AE000FFF70AFE6664206C20F0020040F001006F
:100AF000206400E0012584F83C60284670BD704702
:100B000030B587B0044614216846FFF70DFD1D4936
:100B10002068884234D11C480024016841F4807167
:100B20000160006800F4807005901748143801686F
:100B300041F001010160016801F0010105910168C6
:100B400041F0020101600068032500F002000590F9
:100B5000F020CDE90005694602940C4800F078F8D1
:100B60000120CDE9000569460294094800F070F8BB
:100B700000221146122000F095FC122000F084FCA7
:100B800007B030BD00200140443802400000024060
:100B9000000402402DE9F0410446876D00F056F94B
:100BA000064694F835000025022806D080206065AE
:100BB00084F834500120BDE8F0812068016821F0FC
:100BC000160101602068416921F080014161206CBB
:100BD00008B9A06C20B12068016821F0080101600B
:100BE0002068016821F0010101600CE000F02EF99D
:100BF000801B052807D920206065032084F8350074
:100C000084F83450D7E720680068C007EED194F824
:100C10005C103F208840B860012084F8350084F8DB
:100C200034500020C7E790F83510022903D0802106
:100C3000416501207047052180F835100068016882
:100C400021F0010101600020704790F835007047E5
:100C50002DE9F84FDFF8BCA10022012503264FF053
:100C60000F090AF1040BAAF1040E00BF0B6805FA84
:100C700002F42340A34270D10F7907F00307012F3C
:100C800001D0022F16D187684FEA420806FA08FC05
:100C900027EA0C07D1F80CC00CFA08FC4CEA070C48
:100CA000C0F808C04768A7430C79C4F30014944007
:100CB0003C4344600C79E443A4070AD0C4684FEA7B
:100CC000420C06FA0CF7BC438F6807FA0CF727436F
:100CD000C7600C7904F00304022C12D1D40800EB95
:100CE000840CDCF820405707FF0E09FA07F824EAC5
:100CF0000804D1F8108008FA07F848EA0408CCF88C
:100D0000208004684FEA420C06FA0CF7BC430F79C6
:100D100007F0030707FA0CF7274307604C6814F441
:100D2000403F70D03C4C276847F4804727602468D8
:100D300022F0030704F480440094384C07EB040CC1
:100D4000DCF8084897074FEA177809FA08F7BC4318
:100D5000334FB84202D1002724E054E0314FB8426B
:100D600001D101271EE0304FB84201D1022719E01E
:100D70002E4FB84201D1032714E02D4FB84201D1C4
:100D800004270FE02B4FB84201D105270AE02A4F74
:100D9000B84201D1062705E0284FB84201D1072704
:100DA00000E0082707FA08F72743CCF80878DAF8B4
:100DB00000405746D1F804C09C435FEACC2C00D5D4
:100DC0001C433C60DBF800405F46D1F804C09C4304
:100DD0005FEA8C2C00D51C433C60DEF8004077466F
:100DE000D1F804C09C435FEA8C3C00D51C433C60B6
:100DF000084F083F3C68D1F804C09C435FEACC3CF4
:100E000000D51C433C60521C102AFFF42FAFBDE8F4
:100E1000F88F0000083C0140443802400030014097
:100E2000000002400004024000080240000C0240A2
:100E3000001002400014024000180240001C024052
:100E40000AB1816170470904FBE70000014880682E
:100E5000704700002C000020704770472DE9F041DA
:100E6000016804464A694E6890F83E000025D74361
:100E7000FA0506D4F243D20503D46FF4807201253B
:100E80004A61B90508D4F143C90505D422686FF455
:100E9000007145F002055161790525D4F143C9057A
:100EA00022D4638D94F83D10226B202808D13BB9E1
:100EB000212910D029290ED0282901D1212A0AD090
:100EC00022686FF48061516145F00405102806D056
:100ED000402804D008E0204602F08CF804E02068A6
:100EE000016841F400710160380508D4F043C00581
:100EF00005D421686FF4006045F008054861002DB5
:100F000007D0206C284320642046BDE8F04101F062
:100F100003BDBDE8F0812DE9F04702680021536868
:100F2000C66A90F83E4090F83D50102C12D0402CEC
:100F300010D0046C002C7DD05469E443A6077AD409
:100F4000DE43B60577D4036C03B19169BDE8F04781
:100F500002F02CB8976951694FF42A0CC9435FEA33
:100F6000C1784FF02A4904D066452AD04E4528D092
:100F700010E0DE43B6050DD4C16A614501D10121FF
:100F800003E0C16A494501D10821C162BDE8F047CB
:100F900001F076BF0E0716D4DE43B60513D4416CBC
:100FA000C9B21161416B09B1C96B29B9816B0029C3
:100FB00007D0C96B002904D00068416841F4006182
:100FC0004160BDE8F0878E0706D4DE43B60503D442
:100FD000BDE8F04701F0C8BEFE43526876074FEA0D
:100FE00002521DD4002AECDB0A0608D4DA4352056B
:100FF00005D4490705D5BDE8F04701F059BE4907BA
:10100000DFD4D9438905DCD4212D05D0402CD8D19B
:10101000BDE8F04701F07ABFBDE8F04701F006BE39
:10102000002ACEDB4A060BD4DA43520508D449071E
:1010300008D501E00DE00EE0BDE8F04701F082BD0B
:101040004907BED4D9438905BBD4BDE8F04701F0B8
:101050000FBD916970E7E10606D4D943890503D431
:10106000BDE8F04702F008B82821212D27D0292D0E
:1010700025D0650655D4DD436D0552D4640752D59D
:1010800090F83D30448D002C9BD01269446A227048
:10109000426A521C4262428D521E4285428D002A93
:1010A0008FD12A2B8DD10268536823F4806353605B
:1010B0002222026380F83D1000F082F981E72506C4
:1010C00023D4DD436D0520D4640720D590F83D304E
:1010D000448D002CF2D0446A24781461426A521C78
:1010E0004262428D521E4285428D002AE6D1292B52
:1010F000E4D10268536823F48063536021220263C1
:1011000080F83D1000F05DF95BE76107D6D4D94364
:101110008905D3D4418D0029D0D0416A0978116165
:101120000AE06107CAD4D9438905C7D4418D002993
:10113000C4D01169426A1170416A491C4162418DF3
:10114000491E41853DE7704770B5040025D094F8ED
:101150003D00002520B984F83C50204600F0BEF840
:10116000242084F83D002068016821F0010101601D
:101170002068016841F4004101602068016821F4A1
:101180000041016000F05AFA4D4A6168914201D86D
:101190004C4900E04C49884201D2012070BD4B49C6
:1011A0002368B0FBF1F15E6826F03F060E435E60F7
:1011B0006368934206D94FF4967359434FF47A7398
:1011C000B1FBF3F12368491C1E6A26F03F06314348
:1011D00019626168914210D84900401EB0FBF1F2DB
:1011E000521CC2F30B02042A01D2042022E0B0FBFD
:1011F000F1F0401CC0F30B001CE0A268F2B301EB5D
:10120000C10303EB0116431EB3FBF6F35B1C43F46F
:1012100080431B0549D092B301EBC10202EB0111DF
:10122000401EB0FBF1F0401CC0F30B0040F48040C6
:1012300040F400402168CA694CF6FF739A4310439A
:10124000C861D4E9071001432068026822F0C00297
:1012500011430160D4E9030101432068826848F228
:10126000FF339A4311438160D4E9050108432168A3
:10127000CA6822F0FF021043C86001E00EE016E0E9
:101280002068016841F0010101602564202084F894
:101290003D00256384F83E50002070BD01EB4106FF
:1012A000431EB3FBF6F35B1CB3E70120C2E701EB7F
:1012B0004101401EB0FBF1F0401CC0F30B00B7E74A
:1012C000A086010080841E0000093D0040420F00FE
:1012D000704770477047704770470000F0B587B09F
:1012E000044614216846FFF71FF92668304C2F4F3B
:1012F00000252F481222032104231034BE4227D197
:10130000066846F002060660006800F002000590DC
:10131000CDE90313C0208DE8250069462548FFF775
:1013200097FC206840F4001020602068002200F440
:101330000010059011461F2000F0B4F81F2000F0A7
:10134000A3F800221146202000F0ACF8202028E06D
:10135000194FBE4227D1066846F020060660006895
:1013600000F0200005908DE82600CDE903136946C2
:101370001248FFF76DFC206840F480002060206870
:10138000002200F4800005901146212000F08AF828
:10139000212000F079F800221146222000F082F886
:1013A000222000F071F807B0F0BD000000540040AA
:1013B000303802400004024000580040001402404F
:1013C0007047704702488168027811448160704715
:1013D0002C0000200B4810B5016841F40071016039
:1013E000016841F480610160016841F4807101602D
:1013F000032000F077F80F2000F006F800F024F842
:10140000002010BD003C024070B50D4D04464FF465
:101410007A712878B1FBF0F00A490968B1FBF0F065
:1014200000F014FB48B9102C07D200222146501EB0
:1014300000F038F800206C6070BD012070BD000025
:101440002C000020380000200E4808B5016841F447
:1014500080410160006800F4804000900948001F4E
:10146000016841F0805101600068002200F0805066
:1014700000901146052000F015F8BDE80840052051
:1014800000F002B844380240002809DB00F01F02D7
:10149000012191404009800000F1E020C0F80011D6
:1014A00070470000F0B40E4B1B680C46C3F30223D8
:1014B000C3F10705042D00D90425191D072901D200
:1014C000002300E0DB1E012606FA05F1491E21403B
:1014D00099409E40761E16403143F0BC02F01DBC80
:1014E0000CED00E0064900F0070208684FF6FF0324
:1014F000184040EA0220034A104308607047000089
:101500000CED00E00000FA052DE9F0470E4605005D
:1015100065D0DFF81481D8F80000F7B200F00700BA
:10152000B04207D288F80070D8F8000000F0070039
:10153000B04254D128683D4C810712D5400703D5ED
:10154000206840F4E05020602878000703D5206828
:1015500040F4604020602068A96820F0F000084353
:1015600020602878C0072DD03049686808390128E4
:1015700012D0022813D0032811D009688907002946
:101580002DDA216821F0030101432160FFF75EFCA1
:10159000814641F2883A0EE009688903EFE709685D
:1015A0008901ECE7FFF752FCA0EB0901514502D994
:1015B0000320BDE8F0872068696800F00C00B0EBFC
:1015C000810FEFD1D8F80010404601F00701B14279
:1015D00007D90770006800F00700B04201D0012071
:1015E000E7E72878400705D52068E96820F4E0504F
:1015F000084320602878000706D52068296920F470
:10160000604040EAC100206000F038F82168084AD4
:10161000C1F30311515CC8400649086006480068E0
:10162000FFF7F2FE0020C4E7003C02400838024009
:10163000D846000838000020300000200448054942
:1016400000680968044AC1F38221515CC8407047B0
:101650003800002008380240E846000804480549E0
:1016600000680968044AC1F34231515CC8407047C0
:101670003800002008380240E8460008154810B538
:10168000006810F00C02144813D01449042A0FD03B
:10169000082A0ED10F4C241F2268236802F03F0253
:1016A0005B0207D52068C0F38810A0FB010106E0AB
:1016B000084610BD2168C1F38811A1FB0001002379
:1016C000FEF7D7FD2168C1F30141491C4900B0FB79
:1016D000F1F010BD083802400024F40040787D018C
:1016E0002DE9F84F04006ED02078DFF84C93C00746
:1016F000A9F104054AD009F104000168C1F3810190
:10170000012908D00068C0F3810002280AD1D9F865
:101710000000400206D52868800337D5606800289D
:10172000E1D033E06068B0F5803F10D0B0F5A02F75
:10173000286810D020F480302860286820F48020A9
:1017400028606068A8B1FFF781FB06460DE02868B5
:1017500040F48030F4E740F480202860F7E700BFD1
:10176000FFF774FB801B642873D828688003F7D5C3
:101770000CE0FFF76BFB064605E000BFFFF766FBDA
:10178000801B6428F0D828688003F7D42078DFF81D
:10179000AC8280074FF0000A3ED5A748001D0168C3
:1017A00011F00C0F08D00068C0F3810002280BD1A3
:1017B000D9F80000400207D42868800716D5E068F1
:1017C000012800D112E033E1E068B8B10120C8F887
:1017D0000000FFF73BFB064605E000BFFFF736FBC6
:1017E000801B0228C0D828688007F7D5286821699F
:1017F00020F0F80040EAC10028600DE0C8F800A021
:10180000FFF724FB064604E0FFF720FB801B0228BD
:101810001FD828688007F7D42078000722D5864F84
:1018200087486169703771B101210160FFF70EFBD4
:10183000064604E0FFF70AFB801B022809D8386837
:101840008007F7D50EE0C0F800A0FFF7FFFA0646C4
:1018500005E082E0FFF7FAFA801B02287DD838689D
:101860008007F7D42078400768D5DFF8CCB100278F
:101870000BF13C0BDBF80000C0000BD4DBF80010D0
:1018800041F08051CBF80010DBF80000012700F098
:10189000805000906B4E3068C00510D4306840F422
:1018A00080703060FFF7D2FA009005E0FFF7CEFAC3
:1018B0000099401A022850D83068C005F6D55E4E0F
:1018C000A0686C3601280FD00528306810D020F0B1
:1018D00001003060306820F004003060A068B8B1CA
:1018E000FFF7B4FA00900FE0306840F00100F4E731
:1018F00040F004003060F7E7FFF7A8FA0099411ABA
:1019000041F28830814266D830688007F4D50EE015
:10191000FFF79CFA009007E0FFF798FA0099411A48
:1019200041F28830814256D830688007F4D42FB114
:10193000DBF8001021F08051CBF80010A069C8B38B
:101940003D49091D0968C1F3810102294AD00228D5
:10195000504607D0C8F8600000E03CE0FFF776FA98
:1019600004463BE04746C8F86000FFF76FFA0646BA
:1019700005E000BFFFF76AFA801B02282BD8286811
:101980008001F7D4D4E907010843A16A2E4A490827
:1019900002EB0141626A41EA8211084394F82C107B
:1019A00040EA0161C9F8001001203866FFF74EFADD
:1019B000044606E03EE000BFFFF748FA001B02289D
:1019C00009D828688001F7D534E000BFFFF73EFA58
:1019D000001B022802D90320BDE8F88F2868800187
:1019E000F4D427E00128F7D0D9F80000E26900F428
:1019F000800191421CD1226A00F03F01914217D12F
:101A000047F6C071626A0140B1EB821F10D1A26A31
:101A10004FF0FF3300F4403103EB5202B1EB024FC1
:101A200006D194F82C1000F07060B0EB016F01D07B
:101A30000120D1E70020CFE70438024000004742F0
:101A4000800E4742007000400000FFFF10B5401EAE
:101A5000B0F1807F01D3012010BD4FF0E024606120
:101A60000F21601702F059F90020A06107202061C2
:101A7000002010BD7047704770B590F83C20012AD7
:101A800032D0012480F83C40022280F83D200368D7
:101A90005A689D6822F070060A6832435A60134BF8
:101AA00002689A4214D0B2F1804F11D0104B9A4282
:101AB0000ED0104B9A420BD00F4B9A4208D00F4BCE
:101AC0009A4205D00E4B9A4202D00E4B9A4204D154
:101AD000496825F080031943916080F83D4000215A
:101AE00080F83C10084670BD022070BD0000014027
:101AF0000004004000080040000C004000040140C9
:101B0000004001400018004090F83D10012901D02C
:101B100001207047022180F83D1000681149884279
:101B200014D0B0F1804F11D00F4988420ED00F4928
:101B300088420BD00E49884208D00E49884205D011
:101B40000D49884202D00D49884204D1816801F0D4
:101B50000701062903D0016841F00101016000205E
:101B600070470000000001400004004000080040F1
:101B7000000C0040000401400040014000180040FB
:101B80002DE9F0410D46040003D094F83D0018B152
:101B900008E00120BDE8F081002084F83C002046E8
:101BA00000F040F8022084F83D002068816844F28B
:101BB000070291438160211D206801F02DFE2268FB
:101BC00090689169166A2B68AF69034340F203304D
:101BD000814341EA0721A868EF6908434FF6FC41B9
:101BE0008843E96840EA0720014328692F6A000119
:101BF00040EA0730084369686D6926F0AA0646EA9C
:101C00000515294393602268906154F8460B0162E0
:101C1000012004F81F09E0752076E0762077A07592
:101C20000020B7E710B586B0044614216846FEF7D9
:101C30007BFC2268274C002127480223A2421FD1A7
:101C4000254A1432146844F001041460126802F04A
:101C500001020592026842F010020260006800F082
:101C6000100005904FF420600090CDE90131012073
:101C7000CDE9031069461948FEF7EAFF06B010BD2A
:101C8000174CA242FAD1144A1032146844F00404EA
:101C90001460126802F004020592026842F0080221
:101CA0000260006800F0080005904FF4405000907A
:101CB000CDE90131CDE9031369460A48FEF7C8FFB3
:101CC000002211461E20FFF7EDFB1E20FFF7DCFB74
:101CD000D4E700000000014030380240001002400C
:101CE00000080040000C024070B590F83E600446C9
:101CF00090F83F5090F8423090F84320022021B1F4
:101D000004290ED0012E1BD114E0012E18D1012B75
:101D100016D184F83E0084F8420001220021206898
:101D200020E0012D0CD1012A0AD184F83F0084F86B
:101D3000430014E0012D03D1012B01D1012A01D070
:101D4000012070BD84F83E0084F83F0084F8420012
:101D500084F8430001220021206801F0C1FD012226
:101D60000421206801F0BCFD2068016841F00101F8
:101D70000160002070BD704770B5044600680169BD
:101D80004FF00005C943890715D4C168C9438907C5
:101D900011D4E91E01610120207720688069800745
:101DA000204602D0FFF7E7FF04E000F0EFF82046FE
:101DB00000F0B0F9257720680169C943490717D4B5
:101DC000C168C943490713D46FF0040101610220BF
:101DD00020772068806910F4407F204602D0FFF70A
:101DE000CAFF04E000F0D2F8204600F093F925770E
:101DF00020680169C943090716D4C168C9430907A6
:101E000012D46FF008010161042020772068C069B6
:101E10008007204602D0FFF7AEFF04E000F0B6F8DE
:101E2000204600F077F9257720680169C943C90683
:101E300017D4C168C943C90613D46FF010010161FA
:101E4000082020772068C06910F4407F204602D027
:101E5000FFF791FF04E000F099F8204600F05AF9EE
:101E6000257720680169C943C90708D1C168C943FA
:101E7000C90704D1891E0161204600F0B1F920682C
:101E80000169C943090609D4C168C943090605D4D3
:101E90006FF0800101612046FFF7ECFD20680169C9
:101EA000C943490609D4C168C943490605D46FF03E
:101EB00040010161204600F094F920680169C9439E
:101EC00089060BD4C168C943890607D46FF0200185
:101ED00001612046BDE87040FFF7CDBD70BD000038
:101EE00030B587B0044614216846FEF71DFB216813
:101EF000002421480225B1F1804F29D01F4A914288
:101F000024D1016841F002010160016801F0020181
:101F10000591016841F0040101600068694600F024
:101F20000400059022200090CDE901541448CDE929
:101F30000345FEF78DFE4FF4A0700090CDE90154EB
:101F400069461048CDE90345FEF782FE07B030BD73
:101F5000016841F0010101600068694600F001007C
:101F6000059048F20E000090CDE901540120CDE922
:101F700003400548E8E70000303802400004004014
:101F8000000402400008024000000240704770B5A3
:101F9000044690F83C0000260D4601280FD0012091
:101FA00084F83C006AB1042A1DD0082A2FD00C2ADC
:101FB0003FD00126002084F83C00304670BD02204E
:101FC00070BD206801F09AFC2068816941F0080129
:101FD00081612068816921F0040181612068816943
:101FE0002A69114311E0206801F0B8FC206881697A
:101FF00041F4006181612068816921F4806181611F
:10200000206881692A6941EA02218161D2E720685A
:1020100001F0DAFC2068C16941F00801C161206863
:10202000C16921F00401C1612068C1692A691143B5
:1020300011E0206801F0FCFC2068C16941F40061F6
:10204000C1612068C16921F48061C1612068C169F2
:102050002A6941EA0221C161ACE710B5040003D04E
:1020600094F83D0010B107E0012010BD002084F875
:102070003C00204600F01EF8022084F83D00211D9F
:10208000206801F0C9FB012084F8460084F83E0076
:1020900084F83F0084F8400084F8410084F842004E
:1020A00084F8430084F8440084F8450084F83D0037
:1020B000002010BD08B501681448B1F1804F14D05C
:1020C000134A914220D1016841F002010160006889
:1020D000002200F00200009011461D20FFF7E2F9F7
:1020E0001D20BDE80840FFF7CFB9016841F00101AC
:1020F00001600068002200F00100009011461C20E1
:10210000FFF7D0F91C20ECE708BD00004038024082
:10211000000400407047000010B50446022249B197
:1021200004290ED0082913D094F84100012816D0B4
:10213000012010BD94F83E000128F9D184F83E201A
:102140000FE094F83F000128F2D184F83F2008E026
:1021500094F840000128EBD184F8402001E084F895
:1021600041200122206801F0BBFB16492068164A75
:10217000884201D0904203D1436C43F4004343644E
:102180002068884213D0B0F1804F10D00F498842A8
:102190000DD00F4988420AD00E49884207D090429C
:1021A00005D00D49884202D00C49884204D181688B
:1021B00001F00701062903D0016841F00101016027
:1021C000002010BD00000140000401400004004058
:1021D00000080040000C0040004001400018004092
:1021E0007047704770477047F8B501680446086843
:1021F000CA684B6910F00F0F4FF000055AD003F07A
:10220000010602F49077374365D0C10705D0D105A8
:1022100003D5216C41F001012164410705D5D9079F
:1022200003D0216C41F002012164810705D5D90753
:1022300003D0216C41F004012164010707D502F0AD
:102240002001314303D0216C41F008012164216C4D
:1022500000293BD0800604D5900602D5204601F027
:102260003EFC20684069216CC0F3801001F0080139
:10227000014320462BD001F00BFC2068406940064A
:1022800021D52068143050E8001F21F0400140E8BB
:102290000012002AF5D1A06BA8B16C490165A06BB2
:1022A000FEF7C1FC002811D0A06B016D01B0BDE8A4
:1022B000F040084783060ED593060CD52046BDE8AE
:1022C000F84001F00CBC2046FFF78DFFF8BDFFF78A
:1022D0008AFF2564F8BD266B2023012E79D1C6061E
:1022E00077D5D60675D508684868009048694006D5
:1022F00040D5A16B086840680004000CEAD0A28DAC
:102300008242E7D9E085C869B0F5807F2DD020688A
:102310000C3050E8001F21F4807140E80012002AC0
:10232000F5D12068143050E8001F21F0010140E889
:102330000012002AF5D12068143050E8001F21F067
:10234000400140E80012002AF5D184F83E302563B0
:1023500020680C3050E8001F21F0100140E8001206
:10236000002AF5D1A06BFEF715FCA08DE18D401A77
:1023700081B229E0A08DE18D401A81B2E08D002864
:10238000A8D00029A6D020680C3050E8002F22F4F5
:10239000907240E80026002EF5D12068143050E8F5
:1023A000002F22F0010240E80026002EF5D184F82B
:1023B0003E30256320680C3050E8002F22F01002D8
:1023C00040E80023002BF5D12046FFF70BFFF8BDB6
:1023D000FFE705062BD5150629D594F83D002128E1
:1023E000F5D1A068B0F5805F01D12069B0B1206A55
:1023F000411C2162216800784860E08C401E000486
:10240000000CE084E3D12068C16821F08001C16044
:102410002068C16841F04001C160D8E7206A0088A7
:10242000C0F308004860206A801C2062E5E740068F
:10243000CDD55006CBD5CA68204622F04002CA60EE
:1024400084F83D3000F0F0F9C1E70000813A00085F
:1024500070B5040004D094F83D00002510B106E0EA
:10246000012070BD84F83C50204600F023F8242061
:1024700084F83D002068C16821F40051C160204605
:1024800001F08EFB2068016921F490410161206810
:10249000416921F02A0141612068C16841F400517D
:1024A000C1602564202084F83D0084F83E000020AF
:1024B00070BD00002DE9F04186B004461421684645
:1024C000FEF732F85C485B49236800245A4A143806
:1024D0000225032607278B4220D1116841F0100105
:1024E0001160116801F010010591016841F00101CE
:1024F0000160006802AB00F0010005907002CDE9B8
:10250000000583E8D00069464C48FEF7A1FB002295
:1025100001212520FEF7C6FF252027E04649DFF8E8
:1025200020C1091FDFF81C81634524D10A6842F4E9
:1025300000320A60096801F400310591016841F038
:1025400008010160006802AA00F008000590602000
:10255000CDE9000582E8D00069464046FEF778FBE9
:10256000002201212620FEF79DFF2620FEF78CFF8A
:1025700006B0BDE8F081DFF8D0C0634534D10A6809
:1025800042F480220A60096801F480210591016803
:1025900041F002010160016801F00201059101684A
:1025A00041F008010160006802AA00F008000590EF
:1025B0004FF40060CDE9000582E8D0006946234869
:1025C000FEF746FB4FF48070CDE9000502AA69468C
:1025D00082E8D0004046FEF73BFB00220121272085
:1025E000FEF760FF2720C1E719498B42C0D111686F
:1025F00041F020011160116801F02001059101688E
:1026000041F0400101600068029400F04000059034
:102610004FF48440CDE900050820CDE90360694608
:102620000C48FEF715FB002211464720FEF73AFF43
:1026300047209BE700100140443802400000024060
:1026400000440040000C02400048004000040240EA
:10265000001401400018024090F83E30202B0ED1AB
:1026600059B152B190F83C30012B08D0012380F8C9
:102670003C300023036301F019BB012070470220A6
:102680007047000070B54749474C884219D1086827
:102690004168464DA0682954401CA06010280CD306
:1026A000B5F90220E280B5F90010A18040A0FDF745
:1026B00057FE0120A0610020A0602918012239489E
:1026C0006AE0404988426BD100684068364D10F09E
:1026D000FF00287022D029460128096A26D0022846
:1026E00026D02A460328526A26D0042827D0052857
:1026F0002CD006282CD007282CD008282DD009282B
:102700002ED010282ED012282ED013282ED090286C
:102710002ED0912830D0992834D036E040F20F31B5
:1027200040F2A32001F0BAFC27A028E00A3100E023
:102730000A3927A0216206E002F10A0101E0A2F1B4
:102740000A0127A06162FDF70BFE1EE06431F0E78D
:102750006439EEE702F16401F3E7A2F16401F0E706
:10276000491CE6E7491EE4E7511CEAE7511EE8E789
:102770000220E0611EA002E00320E0611FA0FDF73F
:10278000EFFD02E020A0FDF7EBFDD4E9080101F028
:1027900085FC01220B48691CBDE87040FFF75CBF57
:1027A00070BD0000F4020020000000204C0000205A
:1027B000726564583A25642020726564593A25642C
:1027C0000D0A00006C02002072657365740D0A002A
:1027D00070776D5F746573745F783A25640D0A00D5
:1027E00070776D5F746573745F793A25640D0A00C4
:1027F00050726F626C656D323A0D0A0050726F62F2
:102800006C656D333A0D0A0070776D5F7465737493
:102810005F783A25642C2070776D5F746573745F00
:10282000793A25640D0A00007047FEE70148FEF77B
:1028300015BB0000A40000200148FEF76CBB00009F
:10284000A40000200148FEF709BB0000F8000020AA
:102850000148FEF760BB0000F800002038B5806B2F
:10286000002190F83D202B4B46F2A8141B68B3FBC7
:10287000F4F3C3EBC30303EB830300933BB15B1E91
:10288000009303681B689B0505D5009BF6E7036C66
:1028900043F020030364436B03B1D963836B03B13B
:1028A000D96303681C6824F480641C604185436B11
:1028B00003B11965836B03B1196503681C6824F0C3
:1028C00001041C6090F83D402023602C0BD028248C
:1028D00034EA02020FD080F83D3080F83E1000BF8D
:1028E000FEF731FC38BD80F83D3080F83E100164C1
:1028F000FEF7B2FA38BD0268136843F001031360B3
:102900000268136843F480631360016380F83D40FC
:10291000E6E700003800002070B5044690F83D005E
:1029200094F83E10102901D0402906D1222804D164
:1029300021680A6822F400620A60282131EA000254
:102940004FF000054FF0200626D0216849680905A0
:1029500005D4602803D084F83D6084F83E50256398
:1029600020684168090537D5416821F4006141605C
:10297000606B90F835203C49012A11D00165606BED
:10298000FEF751F938B32068016821F001010160B8
:1029900084F83D60606B1CE0256384F83D10DFE740
:1029A000A06B0165A06BFEF73EF9A0B120684169FC
:1029B000C943490605D40069616A0870606A401C11
:1029C00060622068016821F00101016084F83D60C7
:1029D000A06B016D884710E094F83D10602910D07D
:1029E0004169C943490605D40069616A0870606A93
:1029F000401C60622046FEF7A6FB206CC1071CD17C
:102A000015E084F83D6025644169C943490605D451
:102A10000069616A0870606A401C60622068016831
:102A200021F0010101602046FEF716FAE5E7810773
:102A300003D4410701D4000704D52068416821F47C
:102A4000E061416094F83D00216C49070BD52828CE
:102A500009D10648E062256384F83D6084F83E5061
:102A60002046FEF735FC70BD5D2800080000FFFF22
:102A700010B5C26A438D0168042B06D0438D032B29
:102A800008D0438D022B1DD012E04A6822F48062E8
:102A90004A600CE04B6823F480634B60042A06D044
:102AA000022A04D001680A6822F480620A60016880
:102AB0000969426A1170416A491C4162418D491E8F
:102AC000418510BD012A30D0102A2ED0042A30D0E2
:102AD000022A2ED00A6842F400720A60016809696D
:102AE000426A1170416A491C4162428D521E428500
:102AF000026812690A70416A491C4162418D491E8F
:102B0000418501684A6822F440724A60202180F8B9
:102B10003D1090F83E200021402A80F83E100CD055
:102B200012210163FEF7D5FB10BD0A6822F4806212
:102B3000D3E70A6842F48062CFE70163FEF7CBFB7C
:102B400010BD000038B590F83D1022290FD1418DFD
:102B500003290DD901680969426A1170416A491C4B
:102B60004162418D491E4185418D032906D038BD02
:102B7000C26A022A02D0012906D029B10068416840
:102B800021F48061416038BD274946F2A813002234
:102B90000968B1FBF3F101EB810100910168202389
:102BA000009C641E009422D00C68A405F8D40C6824
:102BB00024F480640C6001684C6824F4E0644C6088
:102BC00001680969446A2170416A491C4162418D6A
:102BD000491E418580F83D3090F83E1080F83E2037
:102BE00040291DD012210163FEF773FB38BD046C30
:102BF00044F0200404644C6824F4E0644C600168F0
:102C00000969446A2170416A491C4162418D491E2B
:102C1000418580F83D3080F83E20FEF794FA38BDBB
:102C20000263FEF758FB38BD3800002010B5C26AB9
:102C300090F83D1021290BD1418D51B1416A0268B4
:102C400009781161416A491C4162418D491E4185E3
:102C500010BD20230021082A13D0202A11D012F5FC
:102C6000803F0ED00268546824F4E064546011225E
:102C7000026380F83E1080F83D3000BFFEF72AFB6B
:102C800010BD0268546824F4E0645460026814685B
:102C900044F400741460016380F83D3090F83E20E5
:102CA00080F83E10402AE9D1FEF716FB10BD000067
:102CB00010B590F83D1090F83E30C26A048DB4B162
:102CC000212903D0402B11D122290FD1418DE1B30D
:102CD00090F83E10402942D0416A0268097811619B
:102CE000416A491C4162418D491E418510BD21291F
:102CF000E8D120230021082A13D0202A11D012F570
:102D0000803F0ED00268546824F4E06454601122BD
:102D1000026380F83E1080F83D3000BFFEF7DAFA1B
:102D200010BD0268546824F4E064546002681468BA
:102D300044F400741460016380F83D3090F83E2044
:102D400080F83E10402AE9D100E002E0FEF7C4FA24
:102D500010BD0068416821F48061416010BDBDE88C
:102D6000104000F0D3B8000078B590F83E50C26A29
:102D7000036B90F83D6000240168222E7AD1066D25
:102D80000EB9402D76D0056D1DB90569B5F5404FDA
:102D900009D0458D05B3468D384D012E0ED0438D9B
:102DA000022B3AD05DE04A698A6900920A6842F4CF
:102DB00080720A60016D491C016578BDAA4213D179
:102DC0000A6822F480620A6001684A68120503D525
:102DD0000A6822F4806216E04A698A6900920A68E9
:102DE00042F400720A6039E0082A10D0202A0ED07E
:102DF000122B0AD0042A03D0022A01D0102AE7D1CC
:102E00000A6842F480620A6024E0012AE0D00A687D
:102E100022F480620A600168DEE7042A21D0022AD7
:102E20001FD0102A1DD00B6823F480630B6001684B
:102E30000B6843F400630B6001684B681B0509D500
:102E4000AA4212D0012A10D0082A0ED0102A0CD083
:102E5000202A0AD001684A6989690091046578BD11
:102E600008E00B6843F48063E5E74A6842F4805267
:102E70004A60EFE7486988690090F0E70000FFFFCB
:102E800090F83E10402910D00169B1F5804F19D05B
:102E9000016DA9B3016D012910D1416C5FF0F10200
:102EA00001F4407142EAD11106E0016D0029416C44
:102EB00005D0C9B241F0010100680161704701F01D
:102EC000FE01F9E790F83D102129416C09D0C9B203
:102ED00041F0010102681161416B29B1C96B49B927
:102EE00002E001F0FE01F5E7816B0029E6D0C96B35
:102EF0000029E3D00068416841F4006141607047F7
:102F0000FFE7416CF02201F44071CBE710B590F877
:102F10003D10026D22B3026D012A2FD0026D022AEC
:102F20001DD122292FD0428D0AB1212933D0428DC3
:102F3000002A14D1212912D101684A6822F4E062E2
:102F40004A6001680A6842F400720A600021016365
:102F5000202280F83D2080F83E10FEF7BDF910BD1C
:102F6000C16C0129816C02D0C1F3072108E002681D
:102F7000C9B21161016D891C016510BD816CC9B2B6
:102F80000268116104E001680A6842F480720A6014
:102F9000016D491CF0E7416A026809781161416AD4
:102FA000491C4162418D491E418510BD38B50C4612
:102FB00090F83D2000212825954302680B4605D056
:102FC00051699169009180F83C3038BD556825F40D
:102FD00080655560E243540700D50121120601D5F2
:102FE000828900E0028B80F83C3092B2FDF735FF19
:102FF00038BD00002DE9F04190F83D40C26A002341
:1030000020261C4F01686FF48065082A01D0202A11
:1030100001D1282C04D0212C16D04D61BDE8F081BF
:10302000C7624A6822F4E0624A6001684D61016843
:103030000A6822F480620A60036380F83D6080F8C9
:103040003E30FEF745F9E9E7C7622122026380F8C6
:103050003D6080F83E304A6822F4E0624A600168D0
:103060004D6101680A6822F480620A60FEF7A9F9DE
:10307000D4E700000000FFFFF8B590F83D6004467B
:103080000068416821F4E0614160206800254169E1
:103090000091016841F0010101602068016821F49C
:1030A0008061016020684168090520D5474F222EC4
:1030B00048D02A2E46D0616B096849686185618DC8
:1030C00019B1216C41F004012164416821F40061CF
:1030D0004160606BFDF7B9FD012808D0606B0765A2
:1030E000606BFDF7A0FD10B1606B016D8847608DCE
:1030F00008B320684169C943490708D40069616A77
:103100000870606A401C6062608D401E60852068A7
:103110004169C943490608D40069616A0870606A58
:10312000401C6062608D401E6085608D18B1206C0F
:1031300040F004002064206C00B32046BDE8F84055
:10314000FFF7EABBA16B096849686185618D19B118
:10315000216C41F004012164416821F40061416067
:10316000A06BFDF772FD0128C1D0A06B0765A06BB5
:10317000FDF759FD0028BAD0A06BB6E72A2E06D17C
:103180002563282084F83D002046FEF719F994F8BD
:103190003D10202028290DD0216B222901D0222E7C
:1031A00007D1256384F83D0084F83E502046FEF7A1
:1031B00007F9F8BD0649E162256384F83D0084F80B
:1031C0003E502046FEF784F8F8BD00005D28000858
:1031D0000000FFFF2DE9FF4100242C4800940194DA
:1031E000029429490394016001254FF4803105615F
:1031F000C0E90114057680F820402549C0E90A1489
:103200000526C661C46080F830404561FDF74DFC7D
:1032100008B1FDF707FB0427CDE9007569461B4897
:103220000295FDF703FB08B1FDF7FCFA02200096BA
:10323000CDE9010469461548FDF7F8FA08B1FDF734
:10324000F1FA062000900320019069460F48FDF72F
:10325000EDFA08B1FDF7E6FA0720CDE90007694667
:103260000A48FDF7E3FA08B1FDF7DCFA0820CDE9DA
:10327000000669460548FDF7D9FA002801D0FDF798
:10328000D1FABDE8FF810000002001405C00002071
:103290000100000F30B587B014216846FDF744F9EE
:1032A00042480024016841F004010160016801F016
:1032B00004010591016841F020010160016801F0FD
:1032C00020010591016841F080010160016801F071
:1032D00080010591016841F001010160016801F080
:1032E00001010591016841F002010160016801F0EE
:1032F00002010591016841F010010160016801F0CF
:1033000010010591016841F008010160016801F0B8
:1033100008010591016841F0400101600068244DF9
:1033200000F04000059001224FF488412846FDF747
:1033300087FD00224FF430412846FDF781FD4FF410
:10334000744000900120CDE90104694628460394A9
:10335000FDF77EFC2815CDE9000469461548029466
:10336000FDF776FC8020CDE90004694612480294FE
:10337000FDF76EFC4FF4D060CDE9000469460F48BC
:103380000294FDF765FCA815CDE9000469460C48D8
:103390000294FDF75DFC8420CDE9000469460948EC
:1033A0000294FDF755FC07B030BD000030380240F4
:1033B00000100240000402400018024000080240D1
:1033C00000000240000C02400D4810B50B4901609E
:1033D0000C49416000214FF480428160C0E9031232
:1033E00041618161C1610162FDF7AEFE002803D039
:1033F000BDE81040FDF716BA10BD000000540040B3
:10340000A4000020A08601000D4810B50B49016002
:103410000C49416000214FF480428160C0E90312F1
:1034200041618161C1610162FDF78EFE002803D018
:10343000BDE81040FDF7F6B910BD0000005800408F
:10344000F8000020A086010010B58CB02421684649
:10345000FDF76AF800241748099415490A94016099
:103460000321C0E901144FF6FF72C0E9032444614F
:10347000846100910120CDE901400F21CDE9034194
:10348000CDE90540CDE9074169460A48FEF778FBDA
:1034900008B1FDF7C7F9099409A906480A94FEF78F
:1034A000EBFA002801D0FDF7BDF90CB010BD00000B
:1034B000000001404C01002010B58AB000240794A0
:1034C0001C2168460894FDF72FF821484FF08041F1
:1034D000C0E9001440F2E731C0E9024104618461AF
:1034E000FEF7BBFD08B1FDF79DF9079407A9184841
:1034F0000894FEF7C1FA08B1FDF794F96020CDE910
:10350000000402940022694611480494FEF73FFD2E
:1035100008B1FDF787F9042269460D48FEF737FD2B
:1035200008B1FDF77FF9082269460948FEF72FFD2B
:1035300008B1FDF777F90C2269460548FEF727FD2B
:1035400008B1FDF76FF90248FEF7CAFC0AB010BDDA
:103550009401002010B58AB0002407941C2168460D
:103560000894FCF7E1FF224820490160A721C0E947
:10357000011444F61F61C0E903148461FEF76DFD78
:1035800008B1FDF74FF9079407A919480894FEF709
:1035900073FA08B1FDF746F96020CDE90004029402
:1035A0000022694612480494FEF7F1FC08B1FDF7C9
:1035B00039F9042269460E48FEF7E9FC08B1FDF727
:1035C00031F9082269460A48FEF7E1FC08B1FDF727
:1035D00029F90C2269460648FEF7D9FC08B1FDF727
:1035E00021F90348FEF77CFC0AB010BD000400403E
:1035F000DC01002010B58CB024216846FCF794FF54
:1036000000241648099414490A9401600321C0E972
:1036100001144FF6FF72C0E9032484610091012078
:10362000CDE9014003940494CDE90540079469462F
:103630000A480894FEF7A4FA08B1FDF7F3F80994D4
:1036400009A906480A94FEF717FA002801D0FDF7E9
:10365000E9F80CB010BD0000000800402402002072
:103660000C4810B50A4901604FF4E1314160002176
:1036700081600C22C160C0E904128161C161FEF762
:10368000E7FE002803D0BDE81040FDF7CBB810BD21
:10369000001001406C0200200C4810B50A4901607E
:1036A0004FF4E1314160002181600C22C160C0E92A
:1036B00004128161C161FEF7CBFE002803D0BDE892
:1036C0001040FDF7AFB810BD00440040B00200202C
:1036D0000C4810B50A4901604FF4E1314160002106
:1036E00081600C22C160C0E904128161C161FEF7F2
:1036F000AFFE002803D0BDE81040FDF793B810BD21
:1037000000480040F40200200C4810B50A4901604E
:103710004FF4E1314160002181600C22C160C0E9B9
:1037200004128161C161FEF793FE002803D0BDE859
:103730001040FDF777B810BD001401403803002099
:10374000FEE7FEE7704770477047FDF73BBE00009D
:1037500030B593B030216846FCF7E6FE14210CA882
:10376000FCF7E2FE1D480025016841F08051016030
:10377000006800F0805011901948016841F48041C0
:1037800001600068022400F4804011900120039041
:1037900010200490009406940820CDE90750A8203A
:1037A000CDE9090404200B906846FDF799FF08B1A4
:1037B00072B6FEE70CA90F2081E831004FF4A0504B
:1037C0000F904FF48050109005210CA8FDF79CFE3F
:1037D000002801D072B6FEE713B030BD4038024079
:1037E000007000400248016841F4700101607047B8
:1037F00088ED00E00148FEF7BFBA00009401002008
:103800000148FEF7B9BA0000DC0100200148FEF7CC
:10381000B3BA000024020020F0B50268254C264D02
:10382000264E274F274B4FF0804CA04209D06045D1
:1038300007D0A84205D0B04203D0B84201D0984288
:1038400004D122F0700E4A6842EA0E02A0421BD058
:10385000604519D0A84217D0B04215D0B84213D055
:10386000984211D0184DA8420ED0184DA8420BD046
:10387000174DA84208D0174DA84205D0164DA842B2
:1038800002D0164DA84203D122F44075CA682A43DB
:103890004D6922F080022A4302608A68C2620A6887
:1038A0008262A04201D0984201D1096901630121DD
:1038B0004161F0BD000001400004004000080040EC
:1038C000000C004000040140004001400044014061
:1038D0000048014000180040001C0040002000404B
:1038E00010B501F01F030121046A99408C43046262
:1038F000016A9A401143016210BD0000F0B5026AEE
:1039000022F001020262036A42688469124E24F0C6
:1039100073050C682C4323F002058B682B430D4D77
:10392000A84201D0B04205D123F00807CB683B4341
:1039300023F00403A84201D0B04205D14D6922F41E
:10394000407215438A692A43426084614968416331
:103950000362F0BD0000014000040140F0B5026ABE
:1039600022F010020262026A436884690D6824F43E
:10397000E64444EA05248D6822F0200242EA05125A
:103980000F4D104EA84201D0B04206D1CF6822F0B0
:10399000800242EA071222F04002A84201D0B0425F
:1039A00007D14D6923F4406343EA85038D6943EAF7
:1039B000850343608461496881630262F0BD000051
:1039C0000000014000040140F0B5026A22F4807258
:1039D0000262026A4368C46922F4007224F073052B
:1039E0000C68124E2C438D6842EA05220E4DA84207
:1039F00001D0B04206D1CF6822F4006242EA072229
:103A000022F48062A84201D0B04207D14D6923F46C
:103A1000405343EA05138D6943EA05134360C461CB
:103A20004968C1630262F0BD00000140000401402A
:103A300030B5026A22F480520262046A4268C369A5
:103A40000D6823F4E64343EA05238D6824F400540B
:103A500044EA0534084DA84202D0084DA84204D1DA
:103A60004D6922F4804242EA85124260C36149688E
:103A70000164046230BD0000000001400004014008
:103A800010B5806B0021C185C184FEF7ACFB10BD71
:103A900001680C3151E8002F22F4907241E80023B4
:103AA000002BF5D10168143151E8002F22F00102FA
:103AB00041E80023002BF5D1016B012909D10168F0
:103AC0000C3151E8002F22F0100241E80023002BB6
:103AD000F5D1202180F83E1000210163704708B520
:103AE00090F83E10222901D0022008BD82684FF4D0
:103AF00080539A4201D1016921B1816A9A421BD057
:103B00004AB10AE00268816A5268C2F308020A8078
:103B1000816A891C08E0026972B10268526802F089
:103B20007F020A70816A491C8162C18D491E0904A5
:103B3000090CC18503D019E002685268F1E70168F9
:103B4000CA6822F02002CA600168CA6822F4807242
:103B5000CA6001684A6922F001024A61202180F8A6
:103B60003E10016B012903D0FEF78CFD002008BD3B
:103B70000021016301680C3151E8002F22F010028E
:103B800041E80023002BF5D101680A68D20602D56E
:103B90000A6849680091818DFEF724FBE6E7000082
:103BA00070B5044600680169E26821F44051114390
:103BB00001612169A068E269084361691143084312
:103BC0002168CA6849F20C639A430243CA602068BC
:103BD0004169A26921F44071114341613149206872
:103BE000884202D03049884202D1FDF737FD01E01A
:103BF000FDF724FDE2690023192164253226B2F580
:103C0000004F626828D0A0FB0101930F9200FCF7DF
:103C100030FB0146B0FBF5F06FF01802504301EBAA
:103C2000800006EB0010B0FBF5F000F0F002B1FBF5
:103C3000F5F002EB0012B1FBF5F06FF018035843FA
:103C400001EB800006EB0010B0FBF5F000F00F0078
:103C500021681044886070BDA0FB010192185B418F
:103C6000FCF707FB0146B0FBF5F00201B1FBF5F0F4
:103C70006FF01803584301EB800006EBC000B0FB67
:103C8000F5F000F0F80002EB4002B1FBF5F058430C
:103C900001EB800006EBC000B0FBF5F000F0070080
:103CA000D6E70000001001400014014081628285C7
:103CB000C28500210164222280F83E2080F83C1059
:103CC000016921B10168CA6842F48072CA60016862
:103CD0004A6942F001024A610068C16841F020016E
:103CE000C1600020704700000148FEF77DBA000067
:103CF0006C0200200148FEF777BA0000B0020020F5
:103D00000148FEF771BA0000F40200200148FEF7F6
:103D10006BBA000038030020FEE70907090E0028EF
:103D200004DB00F1E02080F80014704700F00F0081
:103D300000F1E02080F8141D70472DED020B019872
:103D400020F0004001909DED000B02B0704730382C
:103D50000A2801D2012070470020704770470000F8
:103D600003490A681206FCD5C2B24A6070470000D7
:103D7000001001403E4C2069206260696062FDF7DE
:103D800029FBFFF7E5FCFFF785FAFFF75DFBFFF77F
:103D900067FCFFF791FBFFF7DDFBFFF72BFCFFF75D
:103DA00019FAFFF711FBFFF72FFBFFF775FCFFF781
:103DB0008FFCFFF7A9FC2F48FDF7A6FE3C212D48FC
:103DC000FDF792FF2C48FDF79FFE00212A48FEF7E1
:103DD000A3F904212848FEF79FF908212648FEF799
:103DE0009BF90C212448FEF797F92448FDF78CFE37
:103DF00000212248FEF790F904212048FEF78CF9B3
:103E000008211E48FEF788F90C211C48FEF784F9AA
:103E10001B48FDF779FE3C211948FDF765FFD4E901
:103E2000040100F03BF91748A1680122014416483B
:103E3000FEF712FC0122611C1448FEF70DFCE1683C
:103E4000601C014401221248FEF706FC11A0FCF799
:103E500087FA0025A0690028FCD000231A46B4F98F
:103E60000610B4F9040000F043F8A561F2E7000081
:103E7000000000204C01002094010020DC01002003
:103E8000240200204C000020F40200206C020020DC
:103E90003803002073746172740D0A00D0ED000ABB
:103EA00070EEC00A90ED040A30EE200A80ED040A9C
:103EB00090ED051AC0ED050AD0ED021A30EEC11AD8
:103EC00021EE800AD0ED011A01EEA00AD0ED030A1E
:103ED00000EE810A7047000080EC040A9FED030A9F
:103EE00080ED040A80ED050A704700000000000024
:103EF0002DE9F0472DED048B1D4690460E460746F2
:103F00009FED5D8BA0EB0804A1EB0509204600F0B6
:103F1000DCF941EC100BFFF710FF53EC182B51ECC0
:103F2000100B00F0E9F90DD2484600F0CEF941EC53
:103F3000100BFFF702FF53EC182B51EC100B00F0A5
:103F4000DBF97CD321464EA0FCF70AFA9FED502AFC
:103F500000EE108AF0EE080AF0EE421AB0EE421AB5
:103F6000B8EEC00A4B48FFF7B7FF00EE105A4948B9
:103F7000F0EE421AB0EE421AF0EE080AB8EEC00AAD
:103F80001830FFF7A9FF00EE107A4248B8EEC00AD9
:103F9000FFF784FFB0EE402A00EE106A3D48B8EE0D
:103FA000C00A1830FFF77AFFB2EE041A3A4DC2EE9B
:103FB000010A002C80EE018AB0EEE00A10EE100A31
:103FC0000BDB00F013FB41EC190BA86800F07DF946
:103FD00053EC192B00F096F80AE000F007FB41ECD7
:103FE000190BA86800F071F953EC192B00F014FAC2
:103FF00000F03CF90446B0EEC80A10EE100AB9F120
:10400000000F0BDB00F0F2FA41EC180BE86800F04F
:104010005CF953EC182B00F0FFF90AE000F0E6FA27
:1040200041EC180BE86800F050F953EC182B00F045
:1040300069F800F01BF901464FF4617200E016E0E8
:104040004FF4C873944201DD144602E09C4200DA4A
:104050001C46914201DD114602E0994200DA194600
:10406000BDEC048B2046BDE8F04700F017B8BDEC6E
:10407000048BBDE8F0870000000000000000144041
:104080006572726F725F783A25640D0A0000000055
:10409000CDCCCC3D7C0300203C0000204FF461736C
:1040A0004FF4C872984201DD184602E0904200DAEF
:1040B0001046994201DD194602E0914200DA1146AC
:1040C000064A1160121D1060054A1060054A116011
:1040D0000A46014604A0FCF743B90000340400403E
:1040E000440000204800002063757272656E745FA2
:1040F000783A25642C63757272656E745F783A2520
:10410000640D0A0010B591EA030F48BF83F0004325
:1041100000F18A81841A71EB030C05D2121943EB6A
:104120000C03001B61EB0C01DFF824E14FEA115492
:10413000A4EB135C1EEA430F18BF9EEA445F73D0E2
:1041400023EA0E03DCF1200E21EA045143F480132C
:1041500032D322FA0CFE10EB0E0023FA0CFE41EBD8
:104160000E01CCF1200E03FA0EFE10EB0E0051F101
:104170000001B1F5801FCCF1200E32D201EB0451C9
:1041800012FA0EF2BDE8104058BF7047401C38BF0D
:104190005FEA420218BF7047002814BF20F00100F8
:1041A00041F100014FEA410313F5001F38BF70478A
:1041B000A1F1C04100F02AB9012A43EB0302ACF19E
:1041C000200CDCF11F0E32BF4FF0000E23FA0CF36F
:1041D00010EB030041EB0451B4EB115FD0D0A1EB25
:1041E000045101F5801149085FEA300001EB0451E8
:1041F0000ED350F1000038BF12FA0EFE08D1BDE810
:104200001040C9E7401C38BF5FEA4202CAD1C3E789
:10421000BDE810404FEA410313F5001F38BF704757
:10422000A1F1C04100F0F2B89EEA445F08D011EA63
:104230005E0FBDE8104004BF01F000410020704750
:10424000BDE8104070B500F093F800BF64FBBE3EBF
:104250000000E0FF491058BFC1F140415B1058BF5A
:10426000C3F140438B42EFF3008070474FEA4103B4
:104270004FEA5353A3F58063D3F11E03C8BFD3F1B4
:10428000210C0CDD4FF0004242EAC12242EA5052BA
:1042900032FA03FC8CEAE17CACEBE1707047102B46
:1042A000C4BF0020704703F5787CBCF1FF3F04D009
:1042B0006FF0004282EA2100704770B500F058F8B4
:1042C0004992248000207047F2E710F0004248BF76
:1042D0004042B0FA80F310FA03F10AD0C3F11D0393
:1042E00003F580634FEA415002EB035202EBD12108
:1042F00070474FF00000704751EA030C17D41CF5CB
:10430000801F58BFBCF5801F00F10680994218BF7E
:10431000704708BF9042704707D711F5801F58BFFC
:1043200013F5801F19D499427047894270471CF5D4
:10433000801F08D5BCF5801FF7D58B4218BF70478A
:1043400008BF824270474FF4001C1CEB410F38BF7E
:104350001CEB430F01D28B42704770B500F008F898
:10436000922449004FF000514FF08053FFF772BF85
:104370000EF1020E2EF0030E5EF8046B364205D4E9
:10438000012A43EB030515F5001F12D8012841EB64
:10439000010C1CF5001F0CD80ED14FEAD17C15F58D
:1043A000001F0CEB4C0C0CF1020C08BF4CEBD37C47
:1043B00004E04FF0080C01E04FEAD37C0CEB4C0515
:1043C00026FA05F606F00706B6F1040C06D20EEB47
:1043D000860CBDE870404CF0010C6047DFE80CF043
:1043E000090B02024FF000414FF00000A1F500213F
:1043F00070BD19461046012851EB010418BFD4F5D1
:10440000001484BF002001F0004170BD0808A0F531
:1044100000114FEA3101704710B591EA030F48BF10
:1044200083F000433FF576AE841A71EB030C07D29C
:1044300012198CF0004C43EB0C03001B61EB0C01D8
:10444000DFF8A4E14FEA1154A4EB135C1EEA430F1A
:1044500018BF9EEA445F00F0B08023EA6E03524228
:1044600021EA0451C3EB6E0338BF5B1EDCF1200E62
:1044700025D322FA0CFE10EB0E0043FA0CFE41EBA2
:104480000E01CCF1200E03FA0EFE10EB0E0051F1DE
:104490000001CCF1200E29D412FA0EF201EB0451E6
:1044A000BDE8104058BF7047401C1CBFB2F1004F20
:1044B000704700280CBF491C20F00100704712EB28
:1044C000020E43EB030218BF4FF0010E4EEA420208
:1044D000ACF1200CDCF11E0E54D943FA0CFE10EBAB
:1044E0000E0051F1FF31CCF11E0ED5D50EF1010EAB
:1044F00012FA0EFE404141EB010101EB445C5FEA20
:104500005C5C10D910EBDE7001EB045138BFBEF1DA
:10451000004FBDE8104018BF704700280CBF491C71
:1045200020F00100704730D24FEAD42C11F5001171
:1045300024F400641BD0B1FA81F20B3AA41AA41E31
:10454000D2F12003914030FA03F31943904001EB7C
:10455000CC71002C01EB0451BDE81040A8BF70479E
:1045600001F1C0414FF0000001F000417047B0FA86
:1045700080F310FA03F100D110BDE41A173C48058E
:10458000C90AE4E701EB045110BD491001EB0451E5
:10459000BDE810404FEA300002E04FF000017047E4
:1045A0004A0008BF0042F8D0B2F5001F28BF70478C
:1045B00001F000414FF0000070479EEA445F07D0D1
:1045C00011EA5E0FBDE8104004BF002100207047D3
:1045D000BDE8104070B5FFF7CBFE00BF40DFF63EF0
:1045E00083F00041104670470000E0FF43004FEAAF
:1045F000D30C4FEA3C0C43401FBF40070CF1605105
:1046000013F0FE4F70471CF0006F03D100200CF038
:10461000004170470CF0004343EA507010B540EA87
:10462000CC0000F00EF800BF000000924FEA00013D
:10463000FFF7ECBE4FF000414FF00000A1F5002164
:1046400070470EF1020E2EF0030E5EF8044B24426A
:1046500004D44FEA4102B2F17F4F11D84FEA400330
:10466000B3F17F4F0CD80ED14FEAD07CB2F17F4F1F
:104670000CEB4C0C0CF1020C08BF4CEBD17C04E0B1
:104680004FF0080C01E04FEAD17C0CEB4C0324FA0C
:1046900003F404F00704B4F1040C06D20EEB840C0E
:1046A000BDE810404CF0010C6047DFE80CF0070853
:1046B00002024FF00040A0F5800010BD0846420005
:1046C00018BFD2F1807288BF00F0004010BD4FF0DB
:1046D0004070E1EE100A704700000000000000008A
:1046E0000102030406070809000000000102030498
:1046F00004000008000000000000000200010000AB
:104700001000000024470008000000204C000000BA
:10471000C4010008704700084C000020C4090000D4
:10472000E0010008000000000000000000000000A0
:1047300000000000800200001403000000000000E0
:104740000000000000000000000000000000000069
:104750000100000010000000000000000024F40030
:1047600080020000140300000000000000000000B0
:040000050800018965
:00000001FF
