:020000040800F2
:10000000180A0020490200080B470008EF370008D3
:100010000947000865160008694F00080000000045
:10002000000000000000000000000000A5480008DB
:100030006716000800000000A1480008A748000853
:1000400063020008630200086302000863020008FC
:1000500063020008A3480008630200086302000866
:1000600063020008630200086302000863020008DC
:1000700063020008630200086302000863020008CC
:1000800063020008630200083115000863020008DB
:1000900063020008630200086302000863020008AC
:1000A0006302000851490008630200086302000867
:1000B0005D4900086949000875490008FD370008D6
:1000C000F1370008153800080938000863020008F5
:1000D00063020008454F0008514F00085D4F0008BB
:1000E000630200086302000863020008630200085C
:1000F000630200086302000863020008630200084C
:10010000630200086302000863020008630200083B
:10011000630200086302000863020008630200082B
:10012000630200086302000863020008630200081B
:10013000630200086302000863020008630200080B
:1001400063020008630200086302000863020008FB
:1001500063020008630200086302000863020008EB
:1001600063020008630200086302000863020008DB
:100170006302000863020008630200080000000038
:10018000630200086302000800F002F800F04CF877
:100190000AA090E8000C82448344AAF10107DA45E2
:1001A00001D100F041F8AFF2090EBAE80F0013F0E8
:1001B000010F18BFFB1A43F0010318475054000009
:1001C00070540000103A24BF78C878C1FAD852079A
:1001D00024BF30C830C144BF04680C6070470000C1
:1001E0000023002400250026103A28BF78C1FBD840
:1001F000520728BF30C148BF0B607047662905F021
:10020000A381642900F0C480002070471FB505F069
:1002100096F900F03BFC04000020002105F054F8A2
:10022000E0601FBD10B510BD00F04CFD1146FFF79A
:10023000EDFF04F023FF00F06AFD03B4FFF7F2FFC7
:1002400003BC04F0CBFE0000094880470948004782
:10025000FEE7FEE7FEE7FEE7FEE7FEE7FEE7FEE776
:10026000FEE7FEE704480549054A064B70470000D3
:10027000414900088901000818040020180A0020DC
:100280001806002018060020704753EA020C00F000
:1002900069802DE9F04B4FF00006002B1FBFB3FA29
:1002A00083F503FA05F424FA05F65E4012BF1643FF
:1002B000B2FA82F502FA05F4C5F120051EBF22FA52
:1002C00005FC44EA0C04203556EA044C4FEA144479
:1002D00018BF641C4FF000084FF00009904271EB0A
:1002E000030C39D3002919BFB1FA81F701FA07F6D7
:1002F000B0FA80F700FA07F6C7F120071EBF20FA10
:1003000007FC46EA0C062037B6FBF4FCA7EB050712
:10031000103F07F01F0BCBF120060CFA0BFB2CFA59
:1003200006F644BFB3460026202FA4BF5E464FF01A
:10033000000B5BEA060C08BF4FF0010B19EB0B0931
:10034000ABFB027C48EB0608C01B06FB02CC0BFB98
:1003500003CC71EB0C01C1E70B460246414648460F
:10036000BDE8F08B13B54FF000004FF00001AFF384
:100370000080BDE81C4070470FB4044910B503AAC3
:10038000029800F071FB10BC5DF814FB2C000020FB
:100390002DE9F0410646002410687529314616A55E
:1003A00010D0AFF30080002802DA404213A507E026
:1003B00031688A0701D512A502E0490704D511A5C5
:1003C000012401E0AFF3008000210A2206F1240796
:1003D00009E0B0FBF2FCB0FBF2F302FB1C00303092
:1003E00078541846491C0028F3D123462A46304643
:1003F000BDE8F04100F0CFB8000000002D00000083
:100400002B000000200000002DE9F05F8946044623
:100410004FF0000ADFF824B1FB44C0F820A02046CA
:10042000E168884700287DD0252806D0D4E901213D
:100430009047206A401C2062F1E700255F46204675
:10044000E16888472028064607DB312E05D2B81917
:1004500010F8200C08B10543F1E7A80701D525F0F5
:100460000405C4F81CA00027C4F818A02A2E09D03F
:10047000304604F0ACFD38B304EB8708303EC8F8D2
:10048000186019E059F8041B204604EB87029161BB
:10049000E1688847012F064618D1E069002820DA74
:1004A00025F020051DE0D8F8180000EB800006EBD1
:1004B00040003038C8F818002046E16888470646F2
:1004C00004F085FD0028EED1012F0AD02E2E08D190
:1004D0002046E16888477F1C0646022F45F020052C
:1004E000C4DBA069002803DA404245F00105A061A1
:1004F000E80701D025F01005A6B1A6F141001928A2
:1005000002D8203645F400654A463146204625602B
:100510004D46FFF773FE60B1012807D0ED1D25F0B1
:10052000070000E007E000F1080978E705F1040999
:1005300075E730467AE7206ABDE8F09F4851000031
:100540004FF0000200B5134694469646203922BF6C
:10055000A0E80C50A0E80C50B1F12001BFF4F7AFB7
:10056000090728BFA0E80C5048BF0CC05DF804EB99
:10057000890028BF40F8042B08BF704748BF20F807
:10058000022B11F0804F18BF00F8012B7047704705
:100590007047704770472DE9F0470D4699469246DF
:1005A000044600F124080168880604D5E06921F0BA
:1005B0001001216000E00120A84201DD471B00E09E
:1005C0000027A1697A1902EB0900081AA0612078B6
:1005D000C00602D42046AFF30080002608E0D4E92C
:1005E00001211AF806009047206A401C761C206200
:1005F0004E45F4DB2078C0060AD52046AFF30080D4
:1006000006E0D4E9012130209047206A401C206296
:10061000381EA7F10107F4DC07E0D4E9012118F83E
:1006200005009047206A401C2062281EA5F10105A4
:10063000F3DC2046AFF300802078000602D50220CC
:10064000BDE8F0870120FBE770472DE9FF4F0C461E
:100650001E464FF0FF378BB0D2E90001DDF8608015
:100660000A908A46C1F30A5505B93D46002108465D
:100670004FF00000BAF1000F00F4400005DA00EB83
:1006800080004FF4400101EA50004FEA9059B9F15F
:10069000010F00DDB9460A9850EA4A000ED044F630
:1006A0001050A5F2FF3545432F14B8F1000F1ED0AE
:1006B0007542291E1EDDC9F100021CE0B8F1010FD0
:1006C0004FF0000001D0302103E0F24305E0215457
:1006D000401CB042FBDB30460022002121540B9924
:1006E000C1F80880C1E900200FB0BDE8F08FBD1B44
:1006F0006D1CDEE74A4600DA694206A800F068FA97
:1007000006AB93E8070003AB83E8070050460A995D
:1007100000F046FB8DE80700A0F500501F38009060
:100720000398002D0ADD42F21F014A4608440023C7
:1007300003A90390684600F0AFFD09E0A0F5005062
:100740004A461F38002303A90390684600F0B9FD0C
:100750008DE807000004000C03D04FF0FF30410883
:1007600000E01046B8F1000F03D0002200921546B9
:100770001EE0751E05D400F08DF9303262556D1EF5
:10078000F9D5B3460122084302D000227F1C04E0C1
:100790002078302801D100227F1E002A099784D0BA
:1007A0001DE0112D07DA00F075F9303262556D1C2D
:1007B00050EA0102F5D1084302D00098C8B10EE01A
:1007C0000021681E05E0235C625C63542254401ED5
:1007D000491C8142F7DBAB46A81B401E0990002054
:1007E00004F80B000B98099AC0F80880C0E9002BA8
:1007F0007AE711264FF0000857E72DE9F04F8846B9
:100800000446D21D22F0070191B0D1E90001CDE9E3
:100810000A0104F0AAFB02460B98C00F01D02D205C
:1008200007E02068810701D52B2002E0202101EAA2
:10083000C000032A099001D0072A05DB0346414680
:10084000204600F085F90BE12078800601D5E069AB
:1008500000E00620B8F1650F814606D0B8F1660FBA
:1008600018D0B8F1670F70D131E00020B9F1110F45
:10087000009001DB112301E009F101030AAA01A99B
:100880000CA8FFF7E2FEDDE90C70002609F1010576
:10089000834647E001204B4600904FF000470AAAEC
:1008A00001A90CA8FFF7D1FEDDE90DB00C995D465A
:1008B000002610B909F101000D18B9EB050003D4A9
:1008C000C0F1FF3609F10105A5EB09002BE0B9F1F4
:1008D000010F01DA4FF001090020B9F1110F00906A
:1008E000484601DD112300E003460AAA01A90CA82D
:1008F000FFF7ABFEDDE90C704D46002683462078FD
:1009000000070AD4AB4500DA5D4601A8012D04DDDD
:10091000411911F8011C302907D04F4502DA17F1AF
:10092000040F04DA012082460FE06D1EEEE7002F6F
:1009300002DCED1B3E4403E0781CA84200DD7D1C78
:10094000B81B00F1010A4FF000472078000703D4DC
:10095000AA4501DB4FF0FF3A0021B7F1004F0DF13E
:1009600043088DF8431024D002202B23002F01DAF6
:100970007F422D230A21021EA0F1010000DC5FB19D
:1009800097FBF1FC97FBF1F201FB1C7C17460CF185
:10099000300C08F801CDEEE7A8F1010003702188C2
:1009A000090501D5452100E06521A0F1010800F805
:1009B000011C09980FA9A1EB0807FF1D00B1012038
:1009C000411901EBEA70A1693844081A401EA06180
:1009D0002078C00602D42046AFF30080099828B1E1
:1009E000D4E901219047206A401C20622078C0068B
:1009F00022D52046AFF300801EE0002E04DBB34575
:100A000002DD01A8805D00E03020D4E9012190479B
:100A1000206A401C2062761CAAF101005FEA000AED
:100A20000AD100F033F8C0680168405CD4E90121C4
:100A30009047206A401C2062281EA5F10105DCDCDD
:100A400007E0D4E9012118F8010B9047206A401C07
:100A50002062381EA7F10107F3DC2046AFF30080C7
:100A6000032011B041E60000074B70B50D467B44F2
:100A700000F05BF80446284600F01CF910B14FF076
:100A8000FF3070BD204670BD6F45000000487047C4
:100A9000D803002030B5B0F10A024FEA900E71F190
:100AA00000034EEA817EB0EB0E0061EB91014FEA4C
:100AB000101E4EEA017E10EB0E0041EB11114FEAC1
:100AC000102E4EEA016E10EB0E0041EB11214FEAA1
:100AD000104E4EEA014E10EB0E0041EB1141401852
:100AE00041F100014FEAD00040EA41704FEAD101E4
:100AF00010EB80054FEA810444EA907444EB010452
:100B00006D1944EB0404521BA3414FF0000348BF8E
:100B10000A3200D530BD401C41F1000130BD00005B
:100B200001694A1C02610878704700B58FB0CDE9B1
:100B300001310021059105497944CDE903101146A1
:100B40006846FFF761FC0FB000BD0000E5FFFFFF46
:100B50002DE9F0411F46044603260168072A01F4E7
:100B6000006004DB08B116A505E016A503E008B196
:100B700015A500E015A521F010002060A069C01E99
:100B8000A0610FB1401EA0612046AFF300804FB1BD
:100B9000D4E9012138469047206A401C2062C01CDD
:100BA000206206E0206AFAE7D4E9012115F8010B7A
:100BB0009047761EF8D22046AFF30080BDE8F08162
:100BC0004E414E006E616E00494E4600696E6600F1
:100BD0002DE9F047814616468AB0354878440DC85D
:100BE0008DE80D0032487844801C03AC0DC884E8C1
:100BF0000D0041F69B300844372190FBF1F290FB49
:100C0000F1F5A5F1800501FB12041B3C02D56442FD
:100C1000012000E00020DFF898A080460027FA4479
:100C2000AAF1BE0A0EE0E0070AD03246684607EB9A
:100C3000470101230AEB810100F043FB8DE8070027
:100C400064107F1C002CEED1194F7F44AE3F19E099
:100C5000E80715D007EB04100DF1180A90E80E0014
:100C60008AE80E00C068F04201D198190890324617
:100C7000012306A903A800F024FB03AB83E80700C7
:100C80006D10641C002DE3D14FF00103324669461C
:100C9000B8F1000F03A802D000F0FEFA01E000F066
:100CA00010FBC9E90001C9F808200AB0BDE8F087C7
:100CB000144A0000007B00F0800070470048704735
:100CC000B80300207546FFF7F9FFAE4605006946F8
:100CD000534620F00700854618B020B5FFF7C2FA4A
:100CE000BDE820404FF000064FF000074FF000082D
:100CF0004FF0000B21F00701AC46ACE8C009ACE8AE
:100D0000C009ACE8C009ACE8C0098D46704710B511
:100D10000446AFF300802046BDE81040FFF78DBACF
:100D20004FF0013C50F8042B51F8043B9A4221D17A
:100D3000A2EB0C03934313EACC1317D150F8042B06
:100D400051F8043B9A4215D1A2EB0C03934313EAEA
:100D5000CC130BD150F8042B51F8043B9A4209D123
:100D6000A2EB0C03934313EACC13DBD04FF000004B
:100D7000704700BFD01A01BAB1FA81F101F0180131
:100D800022FA01F0CB40C1F12001DBB2C0B2C01A9F
:100D90002CFA01F3D11A914311EAC311E6D170473D
:100DA0005FEA400C08BF91F0000F4FEA8C234FEA36
:100DB000C12243EA51514FEA1C5018BF00F5F040E0
:100DC0004FEA300018BF41F000415FEA6C5C00F070
:100DD0002980BCF1FF3F08BF40F080407047130CF2
:100DE00006BF12044FF0100C4FF0000C130E04BF9E
:100DF00012020CF1080C130F04BF12010CF1040CC9
:100E0000930F04BF92000CF1020CD30F04BF5200E9
:100E10000CF1010C11464FF00002A0F11F00A0EBF5
:100E20000C00704711F0004F08BF704731F00041CF
:100E30003FF4D5AF0B0C06BF09044FF0100C4FF078
:100E4000000C0B0E04BF09020CF1080C0B0F04BFC1
:100E500009010CF1040C8B0F04BF89000CF1020C8A
:100E6000CB0F04BF49000CF1010CCCF12003A0EB27
:100E70000C0022FA03F302FA0CF241EA030100F13A
:100E80000100704720F07F4C80EA030023F07F4789
:100E9000ACEB070303F57C5300F0004003F1FF03C4
:100EA0002DE980494FEA154B09B44FEA144325EA6E
:100EB0000B4E24EA03480FF2042606EB13274908D9
:100EC0003E785FEA320203FB0667C7F5000707FBBF
:100ED00006F64FEA54374FEAD64606F1020607FBFC
:100EE000066CCCF1005C4FEA1C472CEA074C07FB70
:100EF00006F40CFB06F504EB15464FEA961634BFD4
:100F000000204FF000404FEAD13706FB07FC4FEAC4
:100F10001C4C0CFB0BF7D21B03FB0CF761EB07011E
:100F20000CFB0EF7B0EB074072EB17420CFB08F717
:100F300034BFA2EB0742B2EB074261EB17414FEA25
:100F40000C444FEA910706FB07FC4FEA1C4C0CFBD4
:100F50000BF7B0EBC74072EB573203FB0CF734BF13
:100F6000A2EBC742B2EBC74261EB57310CFB0EF765
:100F7000B0EBC70072EB57720CFB08F734BFA2EB63
:100F8000C702B2EBC70261EB5771039F4FEA816161
:100F900041EA921104EBCC044FEAD1374FEA826266
:100FA00006FB07FC42EA90124FEA80604FEA1C4CB5
:100FB0000CFB0BF7D21B03FB0CF761EB07010CFBDF
:100FC0000EF7B0EB074072EB17420CFB08F734BF8B
:100FD000A2EB0742B2EB074261EB17414FEA8C5597
:100FE0004FEA910704EB9C2406FB07FC4FEA1C4CDC
:100FF0000CFB0BF7B0EBC74072EB573203FB0CF75F
:1010000034BFA2EBC742B2EBC74261EB57310CFBD6
:101010000EF7B0EBC70072EB57720CFB08F734BF4A
:10102000A2EBC702B2EBC70261EB577115EB4C257F
:101030004FEA816141EA92114FEA82624FEAD13769
:1010400042EA901206FB07FC44F100044FEA80607C
:101050004FEA1C4C0CFB0BF7D21B03FB0CF761EBAC
:1010600007010CFB0EF7B0EB074072EB17420CFBCD
:1010700008F734BFA2EB0742B2EB074261EB17411E
:1010800015EB1C154FEA813141EA92414FEA823259
:1010900042EA90424FEA80304FEA0C7644F1000475
:1010A00048EA03434EEA0B484FF0000EB2EB080C3F
:1010B00071EB030724BF624639464EEB0E0E4FF02C
:1010C000000B0018524149414BEB0B0BB2EB080CE3
:1010D00071EB03077BF1000B24BF624639464EEBF0
:1010E0000E0E4FF0000B0018524149414BEB0B0B19
:1010F000B2EB080C71EB03077BF1000B24BF6246D7
:1011000039464EEB0E0E51EA020718BF46F00106B3
:1011100016EB0E7655F1000254F1000103D5BDE83F
:101120008901BDE80088BDE88901BDE80048B6191D
:10113000524141EB0101A3F10103704780807F7EA2
:101140007D7C7B7A7978777676757473727171703D
:101150006F6E6E6D6C6C6B6A6A69686867666665EF
:101160006464636362616160605F5F5E5E5D5D5C7D
:101170005C5B5B5A5A5959585857575656555555EE
:101180005454535352525251515050504F4F4F4E4E
:101190004E4D4D4D4C4C4C4B4B4B4A4A4A4949499C
:1011A00048484847474747464646454545444444DE
:1011B000444343434342424242414141002B9C4607
:1011C00030D477002BD01CB54FEA370703B44FF06B
:1011D00010004FF01001BAF1000F06D0BCF1000F63
:1011E000DCBF40F0080040F008014FF000000FBCE9
:1011F000BDE810400BF1010BBBF1010F08BF5FEA26
:10120000170722BF12F1010211F101014FF0004155
:1012100043F1000300F0004043EA00007047F9D3B7
:101220005708D0E746EA064613F1400F4FEA164644
:101230001FDD13F1200FDFBF16430A4600212033C4
:101240005B42BED0C3F1200746EA064602FA07F722
:101250004FEA164646EA0706C3F1200722FA03F2D0
:1012600001FA07F721FA03F14FF0000342EA0702FF
:10127000A7E746EA020646EA06464FEA164646EA67
:101280000106BCBF46EA0646360C4FF000034FF09D
:1012900000024FF0000194E72DE9804C9A469346F6
:1012A00070B491E8380007C831EA400C48BF34EA0E
:1012B000430C03D5FFF7E6FDFFF780FFF0BCBDE868
:1012C000008C2DE9804C9A46934670B491E8380022
:1012D00007C810F0804F08BF13F0804F03D100F013
:1012E00005F8FFF76BFFF0BCBDE8008C20F07F47EE
:1012F00080EA030023F07F4C07EB0C03A3F57C533B
:1013000000F00040A3F1FE0392F0000F00F0B38064
:1013100095F0000F00F077802DE901494FEA114068
:101320004FEA144621EA004800FB06FC24EA06477F
:1013300008FB06F607FB08F800FB07F718EB064862
:101340004CEB164C4FEA124B18EB07484FEA154688
:101350004CEB174022EA0B4E0BFB06FC25EA064736
:101360000EFB06F607FB0EFE0BFB07F71EEB064E09
:101370004CEB164C4FF000061EEB074E4CEB174B98
:1013800018EB0B0840F1000018EB0E0B58EB0008AF
:1013900040F100008F1A4FF000013CBFC943661BAB
:1013A00014BFB5EB040C00213CBFC943F61B4FEA48
:1013B00017444EEA8E0E27EA04454FEA1C4704FB09
:1013C00007622CEA074C05FB07F70CFB05F604FB4C
:1013D0000CFC16EB074642EB174216EB0C4642EBB1
:1013E0001C421BEB060658EB0202414146EA9E06F0
:1013F00001D5BDE80189B619524141EB0101A3F1C4
:101400000103BDE801894FEA14454FEA114724EA78
:10141000054621EA074C05FB07F406FB07F70CFB22
:1014200006F105FB0CFC11EB074144EB17444FEAB6
:10143000124711EB0C4144EB1C4422EA074C05FB1C
:1014400007F206FB07F70CFB06F605FB0CFC16EB98
:10145000074642EB174216EB0C4642EB1C456A1856
:1014600054F1000148BF7047B619524141EB0101E8
:10147000A3F10103704795F0000F37D04FEA1142F6
:101480004FEA144721EA024624EA074C02FB07F11F
:1014900006FB07F70CFB06F402FB0CFC14EB0744FD
:1014A00041EB17414FEA154714EB0C4441EB1C414B
:1014B00025EA074C02FB07F506FB07F70CFB06F6CF
:1014C00002FB0CFC16EB074645EB174516EB0C46EA
:1014D00045EB1C42121951F1000148BF7047B61983
:1014E000524141EB0101A3F1010370474FEA14455A
:1014F0004FEA114724EA054621EA074C05FB07F1AC
:1015000006FB07F70CFB06F24FF0000605FB0CFC90
:1015100012EB074241EB174112EB0C4251EB1C411D
:1015200048BF7047921841EB0101A3F101037047D6
:10153000014800F045B900007C000020464910B584
:101540004A6822F440324A604A6843681A434A6053
:1015500001684A6822F480724A6001684A68036937
:1015600042EA03224A6001684A6822F040724A60F7
:1015700001684A6883681A434A6001688A6822F4ED
:1015800000628A6001688A68C3681A438A60816A57
:101590006FF07062D14201688A6822F070628A60DE
:1015A00001688A680CD0836A1A438A6001688A6875
:1015B00022F040528A6001688A68C36A1A4301E0D7
:1015C00022F040528A6001688A6822F002028A6032
:1015D00001688A68037E42EA43028A6090F820101C
:1015E000002901684A680FD042F400624A6001682D
:1015F0004A6822F460424A6001684A68174C436AAC
:1016000004EB43331A4301E022F400624A600168AC
:10161000CA6A22F47002CA620168CA6A838B104CDB
:1016200004EB03531A43CA6201688A6822F4007209
:101630008A6001688A6890F8303042EA43228A6002
:1016400001688A6822F480628A6001688A68406959
:1016500042EA8020886010BD0023014000E0FFFFC7
:101660000000F0FFFEE7704772B6FEE7704700002B
:1016700078B50024009490F83C20012A19D001226A
:1016800080F83C200A6807230568092A13D9EE6808
:101690000A3A02EB420293409E43EE600B788A685E
:1016A0000A3B03EB43039A400368DD682A43DA6090
:1016B00010E0022078BD2E6902EB420293409E4367
:1016C0002E610B788A6803EB43039A4003681D6917
:1016D0002A431A614A681F23072A13D205686E6BD2
:1016E000521E02EB820293409E436E630B790A887E
:1016F0005B1E92B203EB83039A4003685D6B2A433F
:101700005A6327E005680D2A12D22E6BD21F02EB16
:10171000820293409E432E630B790A88DB1F92B2AC
:1017200003EB83039A4003681D6B2A431A6311E09D
:10173000EE6A0D3A02EB820293409E43EE620B7911
:101740000A880D3B92B203EB83039A400368DD6A7B
:101750002A43DA62164B0568144A9D4206D10D6889
:10176000122D03D1556845F48005556005689D42EA
:1017700018D10B68102B01D0112B13D1536843F4EF
:1017800000035360096810290CD10A490A4A096804
:10179000B1FBF2F101EB8101490000E0491E00912B
:1017A0000029FBD180F83C40002078BD0023014097
:1017B000002001403C00002040420F00704770476D
:1017C00070B5044600680668456816F0020F05F01B
:1017D00020012AD049B3216CC90603D4216C41F4FD
:1017E00000712164816811F0405F17D1217EA9B991
:1017F000C16A11F4700F02D0816849050ED44168A6
:1018000021F020014160206C20F480702064206C65
:10181000C00403D4206C40F0010020642046FFF790
:10182000CDFF21686FF01200086016F0040F05F07C
:10183000800132D089B3206CC00603D4206C40F400
:10184000005020642068816811F4401F1ED1816B14
:1018500011F4401F02D08168490517D44168490539
:1018600014D4816811F0405F10D1217E71B94168B4
:1018700021F080014160206C20F480502064206CB5
:10188000C00503D4206C40F0010020642046FFF71F
:10189000EDFE21686FF00C00086016F0010F05F0F6
:1018A00040010FD071B120680068C0070AD0206CD9
:1018B00040F480302064204600F043F821686FF047
:1018C0000100086016F0200F05F080610ED000299D
:1018D0000CD0606C40F00200606420686FF020055E
:1018E00005602046FFF76BFF2068056070BD70B58E
:1018F00004004FF0000503D0206C002610B107E073
:10190000012070BD204600F01DF8666484F83C603C
:10191000206CC00610D4206C20F4885040F00200E7
:1019200020642046FFF70AFE6664206C20F0020067
:1019300040F00100206400E0012584F83C60284666
:1019400070BD704730B587B0044614216846FEF775
:10195000F7FD1D492068884234D11C4800240168E5
:1019600041F480710160006800F4807005901748B0
:101970001438016841F001010160016801F00101C2
:101980000591016841F0020101600068032500F043
:1019900002000590F020CDE90005694602940C484C
:1019A00000F078F80120CDE9000569460294094865
:1019B00000F070F800221146122000F095FC122071
:1019C00000F084FC07B030BD0020014044380240E4
:1019D00000000240000402402DE9F0410446876DFA
:1019E00000F056F9064694F835000025022806D086
:1019F0008020606584F834500120BDE8F0812068C3
:101A0000016821F0160101602068416921F0800120
:101A10004161206C08B9A06C20B12068016821F0F8
:101A2000080101602068016821F0010101600CE0FB
:101A300000F02EF9801B052807D9202060650320BF
:101A400084F8350084F83450D7E720680068C00770
:101A5000EED194F85C103F208840B860012084F8F3
:101A6000350084F834500020C7E790F8351002297B
:101A700003D08021416501207047052180F8351091
:101A80000068016821F0010101600020704790F8B2
:101A9000350070472DE9F84FDFF8BCA10022012581
:101AA00003264FF00F090AF1040BAAF1040E00BF40
:101AB0000B6805FA02F42340A34270D10F7907F0B6
:101AC0000307012F01D0022F16D187684FEA420881
:101AD00006FA08FC27EA0C07D1F80CC00CFA08FC3F
:101AE0004CEA070CC0F808C04768A7430C79C4F358
:101AF000001494403C4344600C79E443A4070AD0AA
:101B0000C4684FEA420C06FA0CF7BC438F6807FA28
:101B10000CF72743C7600C7904F00304022C12D1A0
:101B2000D40800EB840CDCF820405707FF0E09FABC
:101B300007F824EA0804D1F8108008FA07F848EA00
:101B40000408CCF8208004684FEA420C06FA0CF72F
:101B5000BC430F7907F0030707FA0CF72743076028
:101B60004C6814F4403F70D03C4C276847F48047E1
:101B70002760246822F0030704F480440094384C62
:101B800007EB040CDCF8084897074FEA177809FAC6
:101B900008F7BC43334FB84202D1002724E054E099
:101BA000314FB84201D101271EE0304FB84201D178
:101BB000022719E02E4FB84201D1032714E02D4F20
:101BC000B84201D104270FE02B4FB84201D10527BD
:101BD0000AE02A4FB84201D1062705E0284FB84253
:101BE00001D1072700E0082707FA08F72743CCF8B8
:101BF0000878DAF800405746D1F804C09C435FEA01
:101C0000CC2C00D51C433C60DBF800405F46D1F88B
:101C100004C09C435FEA8C2C00D51C433C60DEF87A
:101C200000407746D1F804C09C435FEA8C3C00D565
:101C30001C433C60084F083F3C68D1F804C09C43FB
:101C40005FEACC3C00D51C433C60521C102AFFF4D8
:101C50002FAFBDE8F88F0000083C01404438024037
:101C60000030014000000240000402400008024031
:101C7000000C024000100240001402400018024014
:101C8000001C02400AB1816170470904FBE70000B3
:101C9000014880687047000030000020704770479E
:101CA0002DE9F041016804464A694E6890F83E000B
:101CB0000025D743FA0506D4F243D20503D46FF4C6
:101CC000807201254A61B90508D4F143C90505D4DC
:101CD00022686FF4007145F002055161790525D441
:101CE000F143C90522D4638D94F83D10226B20285E
:101CF00008D13BB9212910D029290ED0282901D19A
:101D0000212A0AD022686FF48061516145F00405F0
:101D1000102806D0402804D008E0204602F04CF9F4
:101D200004E02068016841F400710160380508D4BE
:101D3000F043C00505D421686FF4006045F0080544
:101D40004861002D07D0206C284320642046BDE860
:101D5000F04101F0C3BDBDE8F0812DE9F047026814
:101D600000215368C66A90F83E4090F83D50102C10
:101D700012D0402C10D0046C002C7DD05469E44368
:101D8000A6077AD4DE43B60577D4036C03B1916914
:101D9000BDE8F04702F0ECB8976951694FF42A0C9E
:101DA000C9435FEAC1784FF02A4904D066452AD07A
:101DB0004E4528D010E0DE43B6050DD4C16A61451A
:101DC00001D1012103E0C16A494501D10821C16265
:101DD000BDE8F04702F036B80E0716D4DE43B6056C
:101DE00013D4416CC9B21161416B09B1C96B29B9F6
:101DF000816B002907D0C96B002904D000684168B5
:101E000041F400614160BDE8F0878E0706D4DE43EF
:101E1000B60503D4BDE8F04701F088BFFE43526821
:101E200076074FEA02521DD4002AECDB0A0608D4DA
:101E3000DA43520505D4490705D5BDE8F04701F05E
:101E400019BF4907DFD4D9438905DCD4212D05D03A
:101E5000402CD8D1BDE8F04702F03AB8BDE8F047D1
:101E600001F0C6BE002ACEDB4A060BD4DA43520587
:101E700008D4490708D501E00DE00EE0BDE8F047C1
:101E800001F042BE4907BED4D9438905BBD4BDE8A1
:101E9000F04701F0CFBD916970E7E10606D4D94360
:101EA000890503D4BDE8F04702F0C8B82821212DE8
:101EB00027D0292D25D0650655D4DD436D0552D494
:101EC000640752D590F83D30448D002C9BD01269A8
:101ED000446A2270426A521C4262428D521E4285FE
:101EE000428D002A8FD12A2B8DD10268536823F4AA
:101EF000806353602222026380F83D1000F082F973
:101F000081E7250623D4DD436D0520D4640720D561
:101F100090F83D30448D002CF2D0446A247814614E
:101F2000426A521C4262428D521E4285428D002AF4
:101F3000E6D1292BE4D10268536823F4806353600F
:101F40002122026380F83D1000F05DF95BE7610734
:101F5000D6D4D9438905D3D4418D0029D0D0416A44
:101F6000097811610AE06107CAD4D9438905C7D449
:101F7000418D0029C4D01169426A1170416A491C1F
:101F80004162418D491E41853DE7704770B50400AF
:101F900025D094F83D00002520B984F83C50204617
:101FA00000F0BEF8242084F83D002068016821F08C
:101FB000010101602068016841F40041016020686E
:101FC000016821F40041016000F05AFA4D4A61684D
:101FD000914201D84C4900E04C49884201D201208D
:101FE00070BD4B492368B0FBF1F15E6826F03F06F7
:101FF0000E435E606368934206D94FF4967359436B
:102000004FF47A73B1FBF3F12368491C1E6A26F082
:102010003F06314319626168914210D84900401E61
:10202000B0FBF1F2521CC2F30B02042A01D20420CD
:1020300022E0B0FBF1F0401CC0F30B001CE0A268F2
:10204000F2B301EBC10303EB0116431EB3FBF6F33E
:102050005B1C43F480431B0549D092B301EBC102E2
:1020600002EB0111401EB0FBF1F0401CC0F30B006D
:1020700040F4804040F400402168CA694CF6FF7388
:102080009A431043C861D4E90710014320680268ED
:1020900022F0C00211430160D4E90301014320682A
:1020A000826848F2FF339A4311438160D4E9050105
:1020B00008432168CA6822F0FF021043C86001E0AB
:1020C0000EE016E02068016841F00101016025641E
:1020D000202084F83D00256384F83E50002070BD28
:1020E00001EB4106431EB3FBF6F35B1CB3E7012093
:1020F000C2E701EB4101401EB0FBF1F0401CC0F310
:102100000B00B7E7A086010080841E0000093D0097
:1021100040420F007047704770477047704700009B
:10212000F0B587B0044614216846FEF709FA266820
:10213000304C2F4F00252F48122203210423103446
:10214000BE4227D1066846F002060660006800F02D
:1021500002000590CDE90313C0208DE825006946F3
:102160002548FFF797FC206840F4001020602068A5
:10217000002200F40010059011461F2000F0B4F872
:102180001F2000F0A3F800221146202000F0ACF838
:10219000202028E0194FBE4227D1066846F02006CD
:1021A0000660006800F0200005908DE82600CDE96B
:1021B000031369461248FFF76DFC206840F4800065
:1021C00020602068002200F4800005901146212044
:1021D00000F08AF8212000F079F800221146222030
:1021E00000F082F8222000F071F807B0F0BD000086
:1021F00000540040303802400004024000580040C3
:102200000014024070477047024881680278114408
:1022100081607047300000200B4810B5016841F420
:1022200000710160016841F480610160016841F45E
:1022300080710160032000F077F80F2000F006F8AD
:1022400000F024F8002010BD003C024070B50D4D98
:1022500004464FF47A712878B1FBF0F00A49096816
:10226000B1FBF0F000F014FB48B9102C07D20022AB
:102270002146501E00F038F800206C6070BD01202F
:1022800070BD0000300000203C0000200E4808B562
:10229000016841F480410160006800F480400090D2
:1022A0000948001F016841F0805101600068002268
:1022B00000F0805000901146052000F015F8BDE8B0
:1022C0000840052000F002B844380240002809DB2D
:1022D00000F01F02012191404009800000F1E02040
:1022E000C0F8001170470000F0B40E4B1B680C469C
:1022F000C3F30223C3F10705042D00D90425191DDA
:10230000072901D2002300E0DB1E012606FA05F1B1
:10231000491E214099409E40761E16403143F0BC34
:1023200002F03BBE0CED00E0064900F00702086831
:102330004FF6FF03184040EA0220034A10430860AA
:10234000704700000CED00E00000FA052DE9F047B1
:102350000E46050065D0DFF81481D8F80000F7B20A
:1023600000F00700B04207D288F80070D8F80000EB
:1023700000F00700B04254D128683D4C810712D5C7
:10238000400703D5206840F4E0502060287800071B
:1023900003D5206840F4604020602068A96820F0E0
:1023A000F000084320602878C0072DD030496868C5
:1023B0000839012812D0022813D0032811D0096847
:1023C000890700292DDA216821F0030101432160EA
:1023D000FFF75EFC814641F2883A0EE00968890306
:1023E000EFE709688901ECE7FFF752FCA0EB090170
:1023F000514502D90320BDE8F0872068696800F0E4
:102400000C00B0EB810FEFD1D8F80010404601F07E
:102410000701B14207D90770006800F00700B04219
:1024200001D00120E7E72878400705D52068E96852
:1024300020F4E050084320602878000706D5206883
:10244000296920F4604040EAC100206000F038F8BB
:102450002168084AC1F30311515CC840064908606D
:1024600006480068FFF7F2FE0020C4E7003C024087
:10247000083802404C5500083C0000203400002081
:102480000448054900680968044AC1F38221515C87
:10249000C84070473C000020083802405C550008E6
:1024A0000448054900680968044AC1F34231515C97
:1024B000C84070473C000020083802405C550008C6
:1024C000154810B5006810F00C02144813D01449D8
:1024D000042A0FD0082A0ED10F4C241F226823682B
:1024E00002F03F025B0207D52068C0F38810A0FB12
:1024F000010106E0084610BD2168C1F38811A1FB67
:1025000000010023FDF7C1FE2168C1F30141491C10
:102510004900B0FBF1F010BD083802400024F4007F
:1025200040787D012DE9F84F04006ED02078DFF867
:102530004C93C007A9F104054AD009F104000168D1
:10254000C1F38101012908D00068C0F3810002288D
:102550000AD1D9F80000400206D52868800337D593
:1025600060680028E1D033E06068B0F5803F10D0AB
:10257000B0F5A02F286810D020F48030286028689B
:1025800020F4802028606068A8B1FFF781FB064630
:102590000DE0286840F48030F4E740F480202860A3
:1025A000F7E700BFFFF774FB801B642873D8286827
:1025B0008003F7D50CE0FFF76BFB064605E000BF94
:1025C000FFF766FB801B6428F0D828688003F7D4E7
:1025D0002078DFF8AC8280074FF0000A3ED5A7488C
:1025E000001D016811F00C0F08D00068C0F38100D5
:1025F00002280BD1D9F80000400207D428688007D0
:1026000016D5E068012800D112E033E1E068B8B1E6
:102610000120C8F80000FFF73BFB064605E000BFBD
:10262000FFF736FB801B0228C0D828688007F7D543
:102630002868216920F0F80040EAC10028600DE018
:10264000C8F800A0FFF724FB064604E0FFF720FBD4
:10265000801B02281FD828688007F7D4207800073D
:1026600022D5864F87486169703771B101210160B9
:10267000FFF70EFB064604E0FFF70AFB801B02286B
:1026800009D838688007F7D50EE0C0F800A0FFF73A
:10269000FFFA064605E082E0FFF7FAFA801B0228FF
:1026A0007DD838688007F7D42078400768D5DFF8F0
:1026B000CCB100270BF13C0BDBF80000C0000BD4C1
:1026C000DBF8001041F08051CBF80010DBF800007F
:1026D000012700F0805000906B4E3068C00510D488
:1026E000306840F480703060FFF7D2FA009005E067
:1026F000FFF7CEFA0099401A022850D83068C0057A
:10270000F6D55E4EA0686C3601280FD005283068DB
:1027100010D020F001003060306820F004003060FC
:10272000A068B8B1FFF7B4FA00900FE0306840F04D
:102730000100F4E740F004003060F7E7FFF7A8FA83
:102740000099411A41F28830814266D8306880078A
:10275000F4D50EE0FFF79CFA009007E0FFF798FA37
:102760000099411A41F28830814256D8306880077A
:10277000F4D42FB1DBF8001021F08051CBF8001019
:10278000A069C8B33D49091D0968C1F38101022947
:102790004AD00228504607D0C8F8600000E03CE06C
:1027A000FFF776FA04463BE04746C8F86000FFF7BB
:1027B0006FFA064605E000BFFFF76AFA801B0228A1
:1027C0002BD828688001F7D4D4E907010843A16A0F
:1027D0002E4A490802EB0141626A41EA821108432C
:1027E00094F82C1040EA0161C9F800100120386605
:1027F000FFF74EFA044606E03EE000BFFFF748FA56
:10280000001B022809D828688001F7D534E000BFF2
:10281000FFF73EFA001B022802D90320BDE8F88F1B
:1028200028688001F4D427E00128F7D0D9F8000007
:10283000E26900F4800191421CD1226A00F03F015C
:10284000914217D147F6C071626A0140B1EB821F15
:1028500010D1A26A4FF0FF3300F4403103EB520273
:10286000B1EB024F06D194F82C1000F07060B0EB81
:10287000016F01D00120D1E70020CFE704380240EA
:1028800000004742800E4742007000400000FFFFFA
:1028900010B5401EB0F1807F01D3012010BD4FF074
:1028A000E02460610F21601702F077FB0020A06137
:1028B00007202061002010BD7047704770B590F868
:1028C0003C20012A32D0012480F83C40022280F8CA
:1028D0003D2003685A689D6822F070060A683243FA
:1028E0005A60134B02689A4214D0B2F1804F11D053
:1028F000104B9A420ED0104B9A420BD00F4B9A427B
:1029000008D00F4B9A4205D00E4B9A4202D00E4B84
:102910009A4204D1496825F080031943916080F8F8
:102920003D40002180F83C10084670BD022070BD7B
:10293000000001400004004000080040000C00407E
:1029400000040140004001400018004010B50400A0
:1029500003D094F83D0010B107E0012010BD002025
:1029600084F83C00204600F01FF8022084F83D0067
:10297000211D206802F004F8012084F8460084F844
:102980003E0084F83F0084F8400084F8410084F859
:10299000420084F8430084F8440084F8450084F839
:1029A0003D00002010BD000008B500680B498842BA
:1029B00012D10B48016841F001010160006800225A
:1029C00000F00100009011461920FFF78DFCBDE8D2
:1029D00008401920FFF77ABC08BD00000000014044
:1029E0004438024090F83D10012901D00120704781
:1029F000022180F83D1000681149884214D0B0F1DE
:102A0000804F11D00F4988420ED00F4988420BD019
:102A10000E49884208D00E49884205D00D498842A7
:102A200002D00D49884204D1816801F007010629CE
:102A300003D0016841F001010160002070470000EF
:102A4000000001400004004000080040000C00406D
:102A500000040140004001400018004090F83D1083
:102A6000012901D001207047022180F83D10016842
:102A7000CA6842F00102CA6000681149884214D055
:102A8000B0F1804F11D00F4988420ED00E498842D4
:102A90000BD00E49884208D00D49884205D00D4917
:102AA000884202D00C49884204D1816801F00701B4
:102AB000062903D0016841F0010101600020704740
:102AC000000001400004004000080040000C0040ED
:102AD00000040140004001400018004070B5044669
:102AE00090F83C000025012817D0012684F83C60AE
:102AF000022084F83D002068826822F0770222F4E8
:102B00007F4282600868502838D00DDC20284FD0E2
:102B100005DC90B3102811D14AE0022070BD3028A6
:102B200046D040280AD13BE060282FD070280DD035
:102B3000B0F5805F03D0B0F5005F12D0012584F8B6
:102B40003D60002084F83C00284670BDCB68D1E988
:102B50000121206801F085FF2068816841F077013C
:102B600009E0CB68D1E90121206801F07AFF2068F3
:102B7000816841F480418160E1E719E0CA684968F1
:102B8000206802F089F85021206806E0CA68496888
:102B9000206802F092F86021206801F06CFFCEE717
:102BA000CA684968206802F077F840212068F4E795
:102BB000226801461046F0E72DE9F0410D46040079
:102BC00003D094F83D0018B108E00120BDE8F08181
:102BD000002084F83C00204600F040F8022084F8F1
:102BE0003D002068816844F2070291438160211D05
:102BF000206801F0C5FE226890689169166A2B680A
:102C0000AF69034340F20330814341EA0721A868DA
:102C1000EF6908434FF6FC418843E96840EA072022
:102C2000014328692F6A000140EA073008436968B8
:102C30006D6926F0AA0646EA0515294393602268C5
:102C4000906154F8460B0162012004F81F09E075F9
:102C50002076E0762077A0750020B7E710B586B023
:102C6000044614216846FDF76BFC1749206888422A
:102C700027D116480021026842F004020260006871
:102C800000F00400059011481038026842F0080274
:102C90000260006800F0080005904FF4405000907A
:102CA0000220CDE90101CDE9031069460848FEF78D
:102CB000F1FE002211461E20FFF716FB1E20FFF733
:102CC00005FB06B010BD000000080040403802407F
:102CD000000C024070B590F83E60044690F83F50FA
:102CE00090F8423090F84320022021B104290ED000
:102CF000012E1BD114E0012E18D1012B16D184F81E
:102D00003E0084F8420001220021206820E0012DCD
:102D10000CD1012A0AD184F83F0084F8430014E062
:102D2000012D03D1012B01D1012A01D0012070BD59
:102D300084F83E0084F83F0084F8420084F84300A1
:102D400001220021206801F07FFE01220421206879
:102D500001F07AFE2068016841F001010160002065
:102D600070BD704770B50446006801694FF00005FA
:102D7000C943890715D4C168C943890711D4E91E1D
:102D8000016101202077206880698007204602D0F9
:102D9000FFF7E7FF04E000F0EFF8204600F0B0F99D
:102DA000257720680169C943490717D4C168C94319
:102DB000490713D46FF004010161022020772068D5
:102DC000806910F4407F204602D0FFF7CAFF04E07C
:102DD00000F0D2F8204600F093F9257720680169C9
:102DE000C943090716D4C168C943090712D46FF053
:102DF00008010161042020772068C069800720460F
:102E000002D0FFF7AEFF04E000F0B6F8204600F075
:102E100077F9257720680169C943C90617D4C168C5
:102E2000C943C90613D46FF010010161082020774F
:102E30002068C06910F4407F204602D0FFF791FF60
:102E400004E000F099F8204600F05AF92577206850
:102E50000169C943C90708D1C168C943C90704D179
:102E6000891E0161204600F0B1F920680169C9435B
:102E7000090609D4C168C943090605D46FF0800169
:102E800001612046FFF718FD20680169C943490622
:102E900009D4C168C943490605D46FF040010161F6
:102EA000204600F0BFF920680169C94389060BD4A8
:102EB000C168C943890607D46FF02001016120462B
:102EC000BDE87040FFF7F9BC70BD000030B587B0B9
:102ED000044614216846FDF733FB2168002421488D
:102EE0000225B1F1804F29D01F4A914224D10168B7
:102EF00041F002010160016801F0020105910168E1
:102F000041F0040101600068694600F0040005908A
:102F100022200090CDE901541448CDE90345FEF785
:102F2000B9FD4FF4A0700090CDE9015469461048F6
:102F3000CDE90345FEF7AEFD07B030BD016841F0B5
:102F4000010101600068694600F00100059048F247
:102F50000E000090CDE901540120CDE90340054861
:102F6000E8E700003038024000040040000402405E
:102F70000008024000000240704770B5044690F817
:102F80003C0000260D4601280FD0012084F83C00AB
:102F90006AB1042A1DD0082A2FD00C2A3FD001265E
:102FA000002084F83C00304670BD022070BD2068CF
:102FB00001F06AFD2068816941F0080181612068A3
:102FC000816921F004018161206881692A691143C6
:102FD00011E0206801F088FD2068816941F40061FA
:102FE00081612068816921F4806181612068816943
:102FF0002A6941EA02218161D2E7206801F0AAFD35
:103000002068C16941F00801C1612068C16921F0EF
:103010000401C1612068C1692A69114311E0206877
:1030200001F0CCFD2068C16941F40061C1612068F4
:10303000C16921F48061C1612068C1692A6941EADE
:103040000221C161ACE710B5040003D094F83D0043
:1030500010B107E0012010BD002084F83C0020469C
:1030600000F01EF8022084F83D00211D206801F0C8
:1030700087FC012084F8460084F83E0084F83F0075
:1030800084F8400084F8410084F8420084F843004A
:1030900084F8440084F8450084F83D00002010BD09
:1030A00008B501681448B1F1804F14D0134A914219
:1030B00020D1016841F0020101600068002200F0A7
:1030C0000200009011461D20FFF70EF91D20BDE8FB
:1030D0000840FFF7FBB8016841F00101016000689A
:1030E000002200F00100009011461C20FFF7FCF8C0
:1030F0001C20ECE708BD00004038024000040040FE
:103100007047000010B50446022249B104290ED0D0
:10311000082913D094F84100012816D0012010BDD1
:1031200094F83E000128F9D184F83E200FE094F88D
:103130003F000128F2D184F83F2008E094F84000D5
:103140000128EBD184F8402001E084F841200122DD
:10315000206801F079FC16492068164A884201D09F
:10316000904203D1436C43F4004343642068884297
:1031700013D0B0F1804F10D00F4988420DD00F49C5
:1031800088420AD00E49884207D0904205D00D49A6
:10319000884202D00C49884204D1816801F00701BD
:1031A000062903D0016841F001010160002010BD33
:1031B00000000140000401400004004000080040FD
:1031C000000C00400040014000180040704770B5FE
:1031D000044690F83C00012812D0012584F83C50A8
:1031E000022084F83D00204601F010FD01004FF060
:1031F000000007D084F83D5084F83C00012070BDE9
:10320000022070BD2168CA6822F04002CA602168AD
:10321000CA6822F48042CA6084F83D5084F83C00B9
:10322000002070BD7047704770470000F8B5016816
:1032300004460868CA684B6910F00F0F4FF000058C
:1032400059D003F0010602F49077374365D0C107E7
:1032500005D0D10503D5216C41F00101216441075E
:1032600005D5D90703D0216C41F002012164810703
:1032700005D5D90703D0216C41F004012164010771
:1032800007D502F02001314303D0216C41F0080141
:103290002164216C00293AD0800604D5900602D51D
:1032A000204601F04BFD20684069216CC0F380107E
:1032B000090700D460B3204601F019FD2068406979
:1032C000400621D52068143050E8001F21F040014D
:1032D00040E80012002AF5D1A06BA8B16C49016545
:1032E000A06BFEF7C2FB002811D0A06B016D01B0EE
:1032F000BDE8F040084783060FD593060DD520465C
:10330000BDE8F84001F01ABD2046FFF78DFFF8BD7B
:103310002046FFF789FF2564F8BD266B2023012E88
:1033200079D1C60677D5D60675D508684868009065
:103330004869400640D5A16B086840680004000C4D
:10334000EAD0A28D8242E7D9E085C869B0F5807FD6
:103350002DD020680C3050E8001F21F4807140E827
:103360000012002AF5D12068143050E8001F21F027
:10337000010140E80012002AF5D12068143050E81D
:10338000001F21F0400140E80012002AF5D184F826
:103390003E30256320680C3050E8001F21F01001FA
:1033A00040E80012002AF5D1A06BFEF715FBA08DB6
:1033B000E18D401A81B229E0A08DE18D401A81B2E1
:1033C000E08D0028A8D00029A6D020680C3050E855
:1033D000002F22F4907240E80026002EF5D12068DC
:1033E000143050E8002F22F0010240E80026002EA1
:1033F000F5D184F83E30256320680C3050E8002F6A
:1034000022F0100240E80023002BF5D12046FFF700
:103410000AFFF8BDFFE705062BD5150629D594F858
:103420003D002128F5D1A068B0F5805F01D1206969
:10343000B0B1206A411C2162216800784860E08CAC
:10344000401E0004000CE084E3D12068C16821F034
:103450008001C1602068C16841F04001C160D8E7C7
:10346000206A0088C0F308004860206A801C20623F
:10347000E5E74006CDD55006CBD5CA68204622F0F8
:103480004002CA6084F83D3000F0B0F9C1E70000A6
:10349000DF4C000870B5040004D094F83D0000250E
:1034A00010B106E0012070BD84F83C50204600F0C9
:1034B00023F8242084F83D002068C16821F40051DD
:1034C000C160204601F09AFC2068016921F4904116
:1034D00001612068416921F02A0141612068C168C9
:1034E00041F40051C1602564202084F83D0084F837
:1034F0003E00002070BD00002DE9F04186B004467A
:1035000014216846FDF71CF8474922680024474803
:103510000225032607278A4222D1444914310A682A
:1035200042F010020A60096801F01001059101687B
:1035300041F001010160006802AA00F0010005905D
:103540007002CDE9000582E8D00069463848FEF7F0
:10355000A1FA002201212520FEF7C6FE252026E043
:103560003249344B1031DFF8D0809A4224D10A68B6
:1035700042F400320A60096801F4003105910168E3
:1035800041F008010160006802AA00F008000590FF
:103590006020CDE9000582E8D00069464046FEF78C
:1035A00079FA002201212620FEF79EFE2620FEF752
:1035B0008DFE06B0BDE8F081204B9A42F9D10A6831
:1035C00042F480220A60096801F4802105910168B3
:1035D00041F002010160016801F0020105910168FA
:1035E00041F008010160006802AA00F0080005909F
:1035F000D814CDE9000582E8D00069461048FEF7EE
:1036000049FA4FF48070CDE9000502AA694682E8C4
:10361000D0004046FEF73EFA002201212720FEF7A7
:1036200063FE2720C3E7000000100140303802404D
:103630000000024000440040000C024000480040EE
:103640000004024090F83E30202B0ED159B152B107
:1036500090F83C30012B08D0012380F83C30002347
:10366000036301F051BC0120704702207047000045
:103670002DE9F04105464F4800274F4C85421DD1AA
:1036800000684168606904F120063154401C6061A3
:1036900004280DD3B6F90010E180B6F9022022818A
:1036A00046A0FCF769FE01206761606201F0A2FCA0
:1036B0006069012231183F48FFF7C4FF4248854244
:1036C0001AD1286841683C4A20780A321154401CBB
:1036D000C0B22070032809D33C49104601F0ACFD6C
:1036E00035483B490A3001F0A7FD277032490122D5
:1036F0000A313548FFF7A6FF3648854258D1286879
:1037000040682D4DC0B26D1CB7EE000A287001282C
:1037100006D0022809D003280ED0042811D016E0C4
:10372000D4ED060A30EE800A03E0D4ED060A30EE4E
:10373000C00A84ED060A0AE0D4ED070A30EE800ADA
:1037400003E0D4ED070A30EEC00A84ED070A2249EF
:10375000A069884203DB9FED210A84ED060A204917
:10376000E069884203DB9FED1F0A84ED070AD4ED70
:10377000060A9FED1D0AF5EEC00AF1EE10FA01D817
:1037800084ED060AD4ED070AF5EEC00AF1EE10FA50
:1037900001D884ED070AD4ED070A94ED060A01F07A
:1037A000DDFC0122691CBDE8F0410A48FFF74ABF71
:1037B000BDE8F081140300200000002025642020D3
:1037C00025640D0A00000000D00200204C000020FB
:1037D000640000208C020020000087430000874323
:1037E0000000344300003443000000007047FEE74F
:1037F0000148FEF755BA0000C40000200148FEF75A
:10380000ACBA0000C40000200148FEF749BA00002D
:10381000180100200148FEF7A0BA0000180100209E
:1038200038B5806B002190F83D202B4B46F2A81450
:103830001B68B3FBF4F3C3EBC30303EB83030093F5
:103840003BB15B1E009303681B689B0505D5009B7D
:10385000F6E7036C43F020030364436B03B1D963C1
:10386000836B03B1D96303681C6824F480641C6013
:103870004185436B03B11965836B03B11965036817
:103880001C6824F001041C6090F83D402023602C4B
:103890000BD0282434EA02020FD080F83D3080F8A3
:1038A0003E1000BFFEF771FB38BD80F83D3080F858
:1038B0003E100164FEF7F2F938BD0268136843F068
:1038C000010313600268136843F4806313600163AB
:1038D00080F83D40E6E700003C00002070B504465B
:1038E00090F83D0094F83E10102901D0402906D1EF
:1038F000222804D121680A6822F400620A60282183
:1039000031EA00024FF000054FF0200626D0216872
:103910004968090505D4602803D084F83D6084F81F
:103920003E50256320684168090537D5416821F478
:1039300000614160606B90F835203C49012A11D04C
:103940000165606BFEF791F838B32068016821F0DB
:103950000101016084F83D60606B1CE0256384F820
:103960003D10DFE7A06B0165A06BFEF77EF8A0B10C
:1039700020684169C943490605D40069616A087035
:10398000606A401C60622068016821F001010160EA
:1039900084F83D60A06B016D884710E094F83D10FD
:1039A000602910D04169C943490605D40069616A9C
:1039B0000870606A401C60622046FEF7E6FA206CE0
:1039C000C1071CD115E084F83D6025644169C943F5
:1039D000490605D40069616A0870606A401C60622B
:1039E0002068016821F0010101602046FEF756F9C8
:1039F000E5E7810703D4410701D4000704D5206817
:103A0000416821F4E061416094F83D00216C490770
:103A10000BD5282809D10648E062256384F83D606B
:103A200084F83E502046FEF775FB70BD2138000833
:103A30000000FFFF10B5C26A438D0168042B06D059
:103A4000438D032B08D0438D022B1DD012E04A6812
:103A500022F480624A600CE04B6823F480634B6080
:103A6000042A06D0022A04D001680A6822F480627F
:103A70000A6001680969426A1170416A491C416221
:103A8000418D491E418510BD012A30D0102A2ED00B
:103A9000042A30D0022A2ED00A6842F400720A604A
:103AA00001680969426A1170416A491C4162428D8C
:103AB000521E4285026812690A70416A491C4162BD
:103AC000418D491E418501684A6822F440724A606E
:103AD000202180F83D1090F83E200021402A80F8F7
:103AE0003E100CD012210163FEF715FB10BD0A68D1
:103AF00022F48062D3E70A6842F48062CFE7016370
:103B0000FEF70BFB10BD000038B590F83D102229E0
:103B10000FD1418D03290DD901680969426A1170DD
:103B2000416A491C4162418D491E4185418D0329ED
:103B300006D038BDC26A022A02D0012906D029B1B6
:103B40000068416821F48061416038BD274946F230
:103B5000A81300220968B1FBF3F101EB8101009188
:103B600001682023009C641E009422D00C68A405E8
:103B7000F8D40C6824F480640C6001684C6824F468
:103B8000E0644C6001680969446A2170416A491C1B
:103B90004162418D491E418580F83D3090F83E10CC
:103BA00080F83E2040291DD012210163FEF7B3FAB0
:103BB00038BD046C44F0200404644C6824F4E064D0
:103BC0004C6001680969446A2170416A491C41627C
:103BD000418D491E418580F83D3080F83E20FEF73A
:103BE000D4F938BD0263FEF798FA38BD3C000020D6
:103BF00010B5C26A90F83D1021290BD1418D51B109
:103C0000416A026809781161416A491C4162418D2B
:103C1000491E418510BD20230021082A13D0202AE7
:103C200011D012F5803F0ED00268546824F4E0648D
:103C300054601122026380F83E1080F83D3000BFCE
:103C4000FEF76AFA10BD0268546824F4E064546018
:103C50000268146844F400741460016380F83D3015
:103C600090F83E2080F83E10402AE9D1FEF756FA3F
:103C700010BD000010B590F83D1090F83E30C26ABB
:103C8000048DB4B1212903D0402B11D122290FD1A9
:103C9000418DE1B390F83E10402942D0416A02685C
:103CA00009781161416A491C4162418D491E418573
:103CB00010BD2129E8D120230021082A13D0202A71
:103CC00011D012F5803F0ED00268546824F4E064ED
:103CD00054601122026380F83E1080F83D3000BF2E
:103CE000FEF71AFA10BD0268546824F4E0645460C8
:103CF0000268146844F400741460016380F83D3075
:103D000090F83E2080F83E10402AE9D100E002E021
:103D1000FEF704FA10BD0068416821F4806141603B
:103D200010BDBDE8104000F0D3B8000078B590F8A1
:103D30003E50C26A036B90F83D6000240168222E59
:103D40007AD1066D0EB9402D76D0056D1DB9056985
:103D5000B5F5404F09D0458D05B3468D384D012E40
:103D60000ED0438D022B3AD05DE04A698A690092F9
:103D70000A6842F480720A60016D491C016578BDD1
:103D8000AA4213D10A6822F480620A6001684A6874
:103D9000120503D50A6822F4806216E04A698A692E
:103DA00000920A6842F400720A6039E0082A10D0D2
:103DB000202A0ED0122B0AD0042A03D0022A01D0C6
:103DC000102AE7D10A6842F480620A6024E0012ADE
:103DD000E0D00A6822F480620A600168DEE7042A03
:103DE00021D0022A1FD0102A1DD00B6823F4806333
:103DF0000B6001680B6843F400630B6001684B685B
:103E00001B0509D5AA4212D0012A10D0082A0ED0CB
:103E1000102A0CD0202A0AD001684A6989690091C9
:103E2000046578BD08E00B6843F48063E5E74A6801
:103E300042F480524A60EFE7486988690090F0E7F1
:103E40000000FFFF90F83E10402910D00169B1F545
:103E5000804F19D0016DA9B3016D012910D1416CBA
:103E60005FF0F10201F4407142EAD11106E0016D08
:103E70000029416C05D0C9B241F00101006801611F
:103E8000704701F0FE01F9E790F83D102129416CDF
:103E900009D0C9B241F0010102681161416B29B139
:103EA000C96B49B902E001F0FE01F5E7816B002919
:103EB000E6D0C96B0029E3D00068416841F4006195
:103EC00041607047FFE7416CF02201F44071CBE79D
:103ED00010B590F83D10026D22B3026D012A2FD06B
:103EE000026D022A1DD122292FD0428D0AB121292B
:103EF00033D0428D002A14D1212912D101684A6899
:103F000022F4E0624A6001680A6842F400720A60C2
:103F100000210163202280F83D2080F83E10FEF74A
:103F2000FDF810BDC16C0129816C02D0C1F30721DD
:103F300008E00268C9B21161016D891C016510BDFC
:103F4000816CC9B20268116104E001680A6842F438
:103F500080720A60016D491CF0E7416A02680978C5
:103F60001161416A491C4162418D491E418510BD64
:103F700038B50C4690F83D2000212825954302686D
:103F80000B4605D051699169009180F83C3038BDED
:103F9000556825F480655560E243540700D501213A
:103FA000120601D5828900E0028B80F83C3092B283
:103FB000FDF775FE38BD00002DE9F04190F83D4059
:103FC000C26A002320261C4F01686FF48065082A0E
:103FD00001D0202A01D1282C04D0212C16D04D61EB
:103FE000BDE8F081C7624A6822F4E0624A60016875
:103FF0004D6101680A6822F480620A60036380F8F8
:104000003D6080F83E30FEF785F8E9E7C76221227F
:10401000026380F83D6080F83E304A6822F4E06236
:104020004A6001684D6101680A6822F480620A6092
:10403000FEF7E9F8D4E700000000FFFFF8B590F8BC
:104040003D6004460068416821F4E06141602068F9
:10405000002541690091016841F00101016020687B
:10406000016821F48061016020684168090520D55C
:10407000474F222E48D02A2E46D0616B09684968E6
:104080006185618D19B1216C41F0040121644168A1
:1040900021F400614160606BFDF7F9FC012808D054
:1040A000606B0765606BFDF7E0FC10B1606B016D44
:1040B0008847608D08B320684169C943490708D41F
:1040C0000069616A0870606A401C6062608D401E11
:1040D000608520684169C943490608D40069616A5E
:1040E0000870606A401C6062608D401E6085608D53
:1040F00018B1206C40F004002064206C00B320460E
:10410000BDE8F840FFF7EABBA16B09684968618523
:10411000618D19B1216C41F004012164416821F4E1
:1041200000614160A06BFDF7B2FC0128C1D0A06B1B
:104130000765A06BFDF799FC0028BAD0A06BB6E725
:104140002A2E06D12563282084F83D002046FEF75C
:1041500059F894F83D10202028290DD0216B2229F0
:1041600001D0222E07D1256384F83D0084F83E500B
:104170002046FEF747F8F8BD0649E162256384F85A
:104180003D0084F83E502046FDF7C4FFF8BD000016
:10419000213800080000FFFF2DE9FF4100242C48D2
:1041A00000940194029429490394016001254FF47D
:1041B00080310561C0E90114057680F82040254969
:1041C000C0E90A140526C661C46080F83040456124
:1041D000FDF78DFB08B1FDF747FA0427CDE900751F
:1041E00069461B480295FDF743FA08B1FDF73CFA12
:1041F00002200096CDE9010469461548FDF738FA1A
:1042000008B1FDF731FA06200090032001906946BD
:104210000F48FDF72DFA08B1FDF726FA0720CDE982
:10422000000769460A48FDF723FA08B1FDF71CFAB2
:104230000820CDE9000669460548FDF719FA00286F
:1042400001D0FDF711FABDE8FF8100000020014018
:104250007C0000200100000FF0B587B014216846F3
:10426000FCF76EF94A480024016841F0040101603E
:10427000016801F004010591016841F0200101602D
:10428000016801F020010591016841F080010160A1
:10429000016801F080010591016841F001010160B0
:1042A000016801F001010591016841F0020101601E
:1042B000016801F002010591016841F010010160FF
:1042C000016801F010010591016841F008010160E9
:1042D000016801F008010591016841F040010160A9
:1042E00000682C4E00F040004FF4C065059000229D
:1042F00029463046FDF7C6FC274F01224FF488417E
:104300003846FDF7BFFC00224FF430413846FDF738
:10431000B9FC00950125CDE9015469463046039466
:10432000FDF7B8FB4FF474400090CDE901546946A5
:1043300038460394FDF7AEFBA802CDE900046946B8
:1043400016480294FDF7A6FB8020CDE900046946DB
:1043500013480294FDF79EFB4FF4D060CDE90004B2
:10436000694610480294FDF795FB2802CDE9000448
:1043700069460D480294FDF78DFB8420CDE90004C9
:1043800069460A480294FDF785FB07B0F0BD0000BE
:104390003038024000140240001002400004024085
:1043A000001802400008024000000240000C0240D9
:1043B0000D4810B50B4901600C49416000214FF4D4
:1043C00080428160C0E9031241618161C161016283
:1043D000FDF7DCFD002803D0BDE81040FDF744B92F
:1043E00010BD000000540040C4000020A086010061
:1043F0000D4810B50B4901600C49416000214FF494
:1044000080428160C0E9031241618161C161016242
:10441000FDF7BCFD002803D0BDE81040FDF724B92E
:1044200010BD00000058004018010020A0860100C7
:1044300010B58CB0002405940694079414216846A6
:104440000894FCF77DF81B48099419490A94016007
:1044500040F28F61C0E9011440F2E731C0E9031472
:104460008021C0E90541FEF771FA08B1FDF7FCF8BB
:104470004FF48050059005A90E48FEF72FFB08B1B8
:10448000FDF7F2F8009469460A480194FEF79FFE92
:1044900008B1FDF7E9F8099409A906480A94FEF75E
:1044A0000DFA002801D0FDF7DFF80CB010BD0000B8
:1044B000000001406C01002010B58AB00024079470
:1044C0001C2168460894FCF73BF821484FF08041D6
:1044D000C0E9001440F2E731C0E90241046184619F
:1044E000FEF7B1FD08B1FDF7BFF8079407A918481A
:1044F0000894FEF7E3F908B1FDF7B6F86020CDE9BE
:10450000000402940022694611480494FEF735FD28
:1045100008B1FDF7A9F8042269460D48FEF72DFD04
:1045200008B1FDF7A1F8082269460948FEF725FD04
:1045300008B1FDF799F80C2269460548FEF71DFD04
:1045400008B1FDF791F80248FEF7C0FC0AB010BDB3
:10455000B401002010B58AB0002407941C216846DD
:104560000894FBF7EDFF2248204901605321C0E980
:10457000011444F61F61C0E903148461FEF763FD72
:1045800008B1FDF771F8079407A919480894FEF7D8
:1045900095F908B1FDF768F86020CDE900040294B0
:1045A0000022694612480494FEF7E7FC08B1FDF7C3
:1045B0005BF8042269460E48FEF7DFFC08B1FDF700
:1045C00053F8082269460A48FEF7D7FC08B1FDF700
:1045D0004BF80C2269460648FEF7CFFC08B1FDF700
:1045E00043F80348FEF772FC0AB010BD0004004017
:1045F000FC01002010B58CB024216846FBF7A0FF19
:1046000000241648099414490A9401600321C0E962
:1046100001144FF6FF72C0E9032484610091012068
:10462000CDE9014003940494CDE90540079469461F
:104630000A480894FEF7C0FA08B1FDF715F8099486
:1046400009A906480A94FEF739F9002801D0FDF7B8
:104650000BF80CB010BD0000000800404402002020
:104660000C4810B50A4901604FF4E1314160002166
:1046700081600C22C160C0E904128161C161FEF752
:1046800009FF002803D0BDE81040FCF7EDBF10BDC6
:10469000001001408C0200200C4810B50A4901604E
:1046A0004FF4E1314160002181600C22C160C0E91A
:1046B00004128161C161FEF7EDFE002803D0BDE860
:1046C0001040FCF7D1BF10BD00440040D0020020D4
:1046D0000C4810B50A4901604FF4E13141600021F6
:1046E00081600C22C160C0E904128161C161FEF7E2
:1046F000D1FE002803D0BDE81040FCF7B5BF10BDC7
:104700000048004014030020FEE7FEE71348DFEDF9
:10471000120A9FED130AC0ED000A80ED010A9FED19
:10472000110A80ED020A9FED100A80ED030A80ED68
:10473000040A80ED050AC0ED060ADFED0C0AC0EDA3
:10474000070ADFED0B0AC0ED080A80ED090A80EDCB
:104750000A0A80ED0B0A7047C3F5283F8803002042
:10476000BC74933C0AD7A33C000000008FC2753C88
:10477000CDCCCC3C024600EE102A214910B5B8EE53
:10478000C00A204881ED030AD1ED040A30EE801AF8
:1047900081ED041AD1ED000AD1ED011A60EE800A14
:1047A00041EE810A91ED051AD1ED021A81ED050A5B
:1047B00030EE411A006841EE810AFDEEE00A10EE8B
:1047C000904A844201DB0F3810BD41428C4202DC2A
:1047D000C0F10F0010BD104600F098FD41EC100B29
:1047E00000F0EBFB9FED081B51EC100B53EC112B71
:1047F00000F0A4FD01D8002010BD204610BD00002F
:10480000880300204000002000000000000010404D
:1048100000EE100A1E4910B5B8EEC00A81ED090A73
:10482000D1ED0A0A30EE801A81ED0A1AD1ED060A9E
:10483000D1ED071A60EE800A41EE810A91ED0B1A64
:10484000D1ED081A81ED0B0A30EE411A114941EE03
:10485000810A0968FDEEE00A10EE904A8C4202DA05
:1048600049428C4201DC084610BD00F04FFD41EC8E
:10487000100B00F0A2FB9FED081B51EC100B53EC4A
:10488000112B00F05BFD01D8002010BD204610BDAB
:1048900088030020400000200000000000001040BD
:1048A000704770477047FDF7AFBC000030B593B05C
:1048B00030216846FBF744FE14210CA8FBF740FEAC
:1048C0001D480025016841F080510160006800F03A
:1048D000805011901948016841F4804101600068DE
:1048E000022400F4804011900120039010200490D5
:1048F000009406940820CDE90750A820CDE90904CA
:1049000004200B906846FDF70DFE08B172B6FEE775
:104910000CA90F2081E831004FF4A0500F904FF404
:104920008050109005210CA8FDF710FD002801D043
:1049300072B6FEE713B030BD403802400070004050
:104940000248016841F470010160704788ED00E0A1
:104950000148FEF707BA00006C0100200148FEF78D
:1049600001BA0000B40100200148FEF7FBB90000C5
:10497000FC0100200148FEF7F5B9000044020020C8
:10498000F0B50268254C264D264E274F274B4FF099
:10499000804CA04209D0604507D0A84205D0B04263
:1049A00003D0B84201D0984204D122F0700E4A6878
:1049B00042EA0E02A0421BD0604519D0A84217D08F
:1049C000B04215D0B84213D0984211D0184DA84229
:1049D0000ED0184DA8420BD0174DA84208D0174D45
:1049E000A84205D0164DA84202D0164DA84203D1C8
:1049F00022F44075CA682A434D6922F080022A4396
:104A000002608A68C2620A688262A04201D098424B
:104A100001D10969016301214161F0BD000001403C
:104A20000004004000080040000C00400004014069
:104A3000004001400044014000480140001800408F
:104A4000001C00400020004010B501F01F030121B0
:104A5000046A99408C430462016A9A4011430162DE
:104A600010BD10B5846842EA032224F47F440A434F
:104A70002243826010BD826822F070020A4342F035
:104A80000701816070470000F0B5026A22F0010260
:104A90000262036A42688469124E24F073050C684E
:104AA0002C4323F002058B682B430D4DA84201D007
:104AB000B04205D123F00807CB683B4323F0040341
:104AC000A84201D0B04205D14D6922F4407215438D
:104AD0008A692A4342608461496841630362F0BD88
:104AE0000000014000040140F0B5026A22F010020B
:104AF0000262026A436884690D6824F4E64444EA69
:104B000005248D6822F0200242EA05120F4D104E56
:104B1000A84201D0B04206D1CF6822F0800242EA1A
:104B2000071222F04002A84201D0B04207D14D69DD
:104B300023F4406343EA85038D6943EA85034360B8
:104B40008461496881630262F0BD00000000014099
:104B500000040140F0B5026A22F480720262026A27
:104B60004368C46922F4007224F073050C68124E85
:104B70002C438D6842EA05220E4DA84201D0B04276
:104B800006D1CF6822F4006242EA072222F4806252
:104B9000A84201D0B04207D14D6923F4405343EA03
:104BA00005138D6943EA05134360C4614968C16315
:104BB0000262F0BD000001400004014030B5026A0D
:104BC00022F480520262046A4268C3690D6823F4C9
:104BD000E64343EA05238D6824F4005444EA05348F
:104BE000084DA84202D0084DA84204D14D6922F4D4
:104BF000804242EA85124260C361496801640462EE
:104C000030BD0000000001400004014070B50368A1
:104C100000249A6822F070054A682A4322F00705AA
:104C20000A682A439A604A6812F00F0F31D11211B4
:104C3000082A2ED2DFE802F02E2E2E2E0B2127047A
:104C40000B69D1E902210068FFF70BFF22E00A6837
:104C5000052A10D00268136A156A25F0010515624D
:104C600002689569096925F0F00545EA011191612D
:104C7000006803620EE0012070BD0A69896800685F
:104C800000F00AF806E00A698968006800F015F883
:104C900000E00124204670BD10B5036A046A24F0C8
:104CA00001040462846924F0F00444EA021423F04D
:104CB0000A020A438461026210BD10B5036A23F040
:104CC000100303628369046A23F4704343EA0232E7
:104CD00024F0A00343EA01118261016210BD10B506
:104CE000806B0021C185C184FEF79EFA10BD01686A
:104CF0000C3151E8002F22F4907241E80023002B80
:104D0000F5D10168143151E8002F22F0010241E889
:104D10000023002BF5D1016B012909D101680C3169
:104D200051E8002F22F0100241E80023002BF5D1BA
:104D3000202180F83E1000210163704708B590F8EB
:104D40003E10222901D0022008BD82684FF4805312
:104D50009A4201D1016921B1816A9A421BD04AB1BC
:104D60000AE00268816A5268C2F308020A80816A16
:104D7000891C08E0026972B10268526802F07F0281
:104D80000A70816A491C8162C18D491E0904090C9F
:104D9000C18503D019E002685268F1E70168CA686A
:104DA00022F02002CA600168CA6822F48072CA60D8
:104DB00001684A6922F001024A61202180F83E1010
:104DC000016B012903D0FEF753FC002008BD002130
:104DD000016301680C3151E8002F22F0100241E814
:104DE0000023002BF5D101680A68D20602D50A68B3
:104DF00049680091818DFEF716FAE6E770B5044622
:104E000000680169E26821F44051114301612169A0
:104E1000A068E26908436169114308432168CA68D0
:104E200049F20C639A430243CA6020684169A2694F
:104E300021F440711143416131492068884202D018
:104E40003049884202D1FDF72BFB01E0FDF718FB4A
:104E5000E2690023192164253226B2F5004F626809
:104E600028D0A0FB0101930F9200FBF70EFA014638
:104E7000B0FBF5F06FF01802504301EB800006EB39
:104E80000010B0FBF5F000F0F002B1FBF5F002EB22
:104E90000012B1FBF5F06FF01803584301EB8000EE
:104EA00006EB0010B0FBF5F000F00F002168104495
:104EB000886070BDA0FB010192185B41FBF7E5F92A
:104EC0000146B0FBF5F00201B1FBF5F06FF01803FD
:104ED000584301EB800006EBC000B0FBF5F000F09A
:104EE000F80002EB4002B1FBF5F0584301EB800003
:104EF00006EBC000B0FBF5F000F00700D6E70000BD
:104F0000001001400014014081628285C2850021A9
:104F10000164222280F83E2080F83C10016921B112
:104F20000168CA6842F48072CA6001684A6942F046
:104F300001024A610068C16841F02001C16000209F
:104F4000704700000148FEF771B900008C02002094
:104F50000148FEF76BB90000D00200200148FEF7BF
:104F600065B9000014030020FEE703B40198410076
:104F7000009850EAC12018BF04204A0D18BF40F025
:104F8000010040F2FF72B2EB515F08BF40F0020037
:104F9000012808BF052002B070470907090E002844
:104FA00004DB00F1E02080F80014704700F00F00EF
:104FB00000F1E02080F8141D70472DED020B0198E0
:104FC00020F0004001909DED000B02B0704730389A
:104FD0000A2801D201207047002070477047000066
:104FE00003490A681206FCD5C2B24A607047000045
:104FF0000010014070B51A4C606A00282ED0B4F938
:105000000600FFF7B7FB0546B4F90800FFF700FC00
:1050100001466088401B80B26080A288511A89B224
:1050200040F6B832A180904203D24FF4FA72904217
:1050300000D8628040F6C410814203D240F2DC50B6
:10504000814200D8A080074861880160001DA288C5
:10505000026005A0FBF790F90020606270BD0000BF
:10506000000000203404004070696458256420204A
:105070007069645925640D0A00000000FDF7CCF842
:10508000FFF714FCFFF7E8F8FFF7D2F9FFF7E8FAAB
:10509000FFF712FAFFF75EFAFFF7ACFAFFF77CF8BA
:1050A000FFF786F9FFF7A4F9FFF7F6FAFFF710FB11
:1050B0002348FDF7D3FC2348FDF794FC0021214849
:1050C000FEF720F804211F48FEF71CF808211D48B0
:1050D000FEF718F80C211B48FEF714F81A48FDF7E4
:1050E00081FC00211848FEF70DF804211648FEF750
:1050F00009F808211448FEF705F80C211248FEF7BC
:1051000001F81248FDF76EFC3C211048FDF7E2FD66
:105110000F4CD4ED070A94ED060A00F01FF8616900
:1051200004F12000014401220A48FEF78BFA012213
:10513000A11C0948FEF786FAFFF7E8FAFEE700002F
:105140006C010020B4010020FC010020440200207A
:1051500000000020140300208C0200207CB59FED8D
:10516000221ADFED221A234C20EE010A254A80EE96
:10517000211A9FED1F0A31EE000A9FED201ABCEEA6
:10518000C00A10EE100A9FED1C0A80B260EE800A81
:10519000608080EE810ADFED1A0A30EE200ABCEE54
:1051A000C00A10EE101A89B2A1801060101D0160B3
:1051B000E06900F053F905460E46A06900F04EF98B
:1051C00041EC100BCDE9005653EC102B0EA0FBF771
:1051D000D3F8A288618811A0FBF7CEF8BDE87C4027
:1051E00014A0FBF7C9B8000000401C45000087432D
:1051F0000080F9430000002000007A440000F042E3
:105200000060BB4434040040616E67783A20256634
:1052100020616E67793A6E25660D0A0070776D78A9
:105220003A202564202070776D793A2025640D0A94
:10523000000000000D0A00002DE9FF410C46017836
:1052400000EE101A41788078B8EE401A00EE101A7D
:10525000F8EE400A00EE100AB5EEC01AB8EE400AA9
:10526000F1EE10FA0FDDF5EEC00AF1EE10FA0ADBEE
:10527000B5EEC00AF1EE10FA05DB84ED011AC4EDBB
:10528000020A84ED030AE06800F0E8F80746884661
:10529000A06800F0E3F805460E46606800F0DEF80E
:1052A0008DE8E00141EC100B03A053EC102BFBF751
:1052B00063F8BDE8FF8100007069643A25662C251B
:1052C000662C25660D0A000010B500290AD0087862
:1052D000002807D005487844FBF722FD002801D0BC
:1052E000002010BD0248784410BD000056030000A5
:1052F0004E030000491058BFC1F140415B1058BF38
:10530000C3F140438B42EFF30080704710F000423E
:1053100048BF4042B0FA80F310FA03F10AD0C3F15B
:105320001D0303F580634FEA415002EB035202EB89
:10533000D12170474FF000007047000051EA030C84
:1053400017D41CF5801F58BFBCF5801F00F10680E4
:10535000994218BF704708BF9042704707D711F5B0
:10536000801F58BF13F5801F19D499427047894296
:1053700070471CF5801F08D5BCF5801FF7D58B4200
:1053800018BF704708BF824270474FF4001C1CEBE7
:10539000410F38BF1CEB430F01D28B42704770B5F1
:1053A00000F008F8922449004FF000514FF080536C
:1053B000FFF7A0BF0EF1020E2EF0030E5EF8046B95
:1053C000364205D4012A43EB030515F5001F12D818
:1053D000012841EB010C1CF5001F0CD80ED14FEA3F
:1053E000D17C15F5001F0CEB4C0C0CF1020C08BF26
:1053F0004CEBD37C04E04FF0080C01E04FEAD37C87
:105400000CEB4C0526FA05F606F00706B6F1040C7F
:1054100006D20EEB860CBDE870404CF0010C6047E4
:10542000DFE80CF0090B02024FF000414FF00000E2
:10543000A1F5002170BD19461046012851EB010469
:1054400018BFD4F5001484BF002001F0004170BDE6
:105450000808A0F500114FEA3101704743004FEAF8
:10546000D30C4FEA3C0C43401FBF40070CF1605186
:1054700013F0FE4F70471CF0006F03D100200CF0BA
:10548000004170470CF0004343EA507010B540EA09
:10549000CC0000F00EF800BF000000924FEA0001BF
:1054A000FFF7D6BF4FF000414FF00000A1F50021FB
:1054B00070470EF1020E2EF0030E5EF8044B2442EC
:1054C00004D44FEA4102B2F17F4F11D84FEA4003B2
:1054D000B3F17F4F0CD80ED14FEAD07CB2F17F4FA1
:1054E0000CEB4C0C0CF1020C08BF4CEBD17C04E033
:1054F0004FF0080C01E04FEAD17C0CEB4C0324FA8E
:1055000003F404F00704B4F1040C06D20EEB840C8F
:10551000BDE810404CF0010C6047DFE80CF00708D4
:1055200002024FF00040A0F5800010BD0846420086
:1055300018BFD2F1807288BF00F0004010BD4FF05C
:105540004070E1EE100A7047FBF757B90000000009
:105550000000000001020304060708090000000023
:105560000102030404000008000000000000000223
:10557000000100001000000002400000000000A038
:105580000000000005400000000000C8000000000E
:105590000C4000000000409C00000000194000008A
:1055A0000020BCBE0000000034400000BFC91B8EBC
:1055B00000000004B5400000504BCFD06607E2CF9A
:1055C000010000006C4100003E8251AADFEEA734CA
:1055D00001000000D9420000DCB5A0E23A301F977C
:1055E000FFFFFFFFB4450000FD25A0C8E9A3C14FA0
:1055F000FFFFFFFFFF3F00000000008000000000F1
:10560000FF3F000000000080000000004856000836
:10561000000000204C000000C4010008945600085F
:105620004C000020CC090000E00100081C00000034
:1056300043000000F8FFFFFF0C0000000E00000018
:105640000F0000002E0000000000D506D506000067
:10565000000000000000000000000000000000004A
:10566000000007430000F0410000000000000000BF
:105670000000000000000000010000001000000019
:10568000000000000024F4002400000000000000DE
:045690000000000016
:040000050800018965
:00000001FF
