:020000040800F2
:10000000080A002031020008AB37000893280008D6
:10001000A937000821080008E54300080000000097
:10002000000000000000000000000000373D000854
:100030002308000800000000FD380008393D0008D2
:100040004B0200084B0200084B0200084B0200085C
:100050004B020008353D00084B0200084B02000827
:100060004B0200084B0200084B0200084B0200083C
:100070004B0200084B0200084B0200084B0200082C
:100080004B0200084B020008ED0600084B02000876
:100090004B0200084B0200084B0200084B0200080C
:1000A0004B0200084B0200084B0200084B020008FC
:1000B000E13D0008ED3D0008F93D0008A1280008D9
:1000C00095280008B9280008AD2800084B02000850
:1000D0004B020008B5430008C1430008CD430008A7
:1000E0004B0200084B0200084B0200084B020008BC
:1000F0004B0200084B0200084B0200084B020008AC
:100100004B0200084B0200084B0200084B0200089B
:100110004B0200084B0200084B0200084B0200088B
:100120004B0200084B0200084B0200084B0200087B
:100130004B0200084B0200084B0200084B0200086B
:100140004B0200084B0200084B0200084B0200085B
:100150004B0200084B0200084B020008D94300087C
:100160004B0200084B0200084B0200084B0200083B
:100170004B0200084B0200084B0200080000000080
:100180004B0200084B02000800F002F800F041F8B2
:100190000AA090E8000C82448344AAF10107DA45E2
:1001A00001D100F036F8AFF2090EBAE80F0013F0F3
:1001B000010F18BFFB1A43F0010318470C4600005B
:1001C0002C460000103A24BF78C878C1FAD85207EC
:1001D00024BF30C830C144BF04680C6070470000C1
:1001E0000023002400250026103A28BF78C1FBD840
:1001F000520728BF30C148BF0B607047642900F028
:10020000BB80002070471FB504F07EFA1FBD10B5FB
:1002100010BD00F03FFA1146FFF7F5FF04F010F9AA
:1002200000F05DFA03B4FFF7F2FF03BC04F0FCF842
:100230000948804709480047FEE7FEE7FEE7FEE77A
:10024000FEE7FEE7FEE7FEE7FEE7FEE704480549B6
:10025000054A064B70470000D13D0008890100089F
:1002600008040020080A00200806002008060020D4
:10027000704753EA020C00F069802DE9F04B4FF013
:100280000006002B1FBFB3FA83F503FA05F424FA26
:1002900005F65E4012BF1643B2FA82F502FA05F483
:1002A000C5F120051EBF22FA05FC44EA0C042035E6
:1002B00056EA044C4FEA144418BF641C4FF000087F
:1002C0004FF00009904271EB030C39D3002919BF9C
:1002D000B1FA81F701FA07F6B0FA80F700FA07F6EB
:1002E000C7F120071EBF20FA07FC46EA0C0620379C
:1002F000B6FBF4FCA7EB0507103F07F01F0BCBF193
:1003000020060CFA0BFB2CFA06F644BFB346002677
:10031000202FA4BF5E464FF0000B5BEA060C08BF1F
:100320004FF0010B19EB0B09ABFB027C48EB060805
:10033000C01B06FB02CC0BFB03CC71EB0C01C1E72D
:100340000B46024641464846BDE8F08B13B54FF0D8
:1003500000004FF00001AFF30080BDE81C40704783
:100360000FB4044910B503AA029800F061F910BC5B
:100370005DF814FB380000202DE9F041064600240A
:1003800010687529314616A510D0AFF300800028FB
:1003900002DA404213A507E031688A0701D512A5A9
:1003A00002E0490704D511A5012401E0AFF3008064
:1003B00000210A2206F1240709E0B0FBF2FCB0FBA1
:1003C000F2F302FB1C00303078541846491C002818
:1003D000F3D123462A463046BDE8F04100F0CFB8BD
:1003E000000000002D0000002B0000002000000095
:1003F0002DE9F05F894604464FF0000ADFF824B18A
:10040000FB44C0F820A02046E168884700287DD042
:10041000252806D0D4E901219047206A401C20629B
:10042000F1E700255F462046E16888472028064618
:1004300007DB312E05D2B81910F8200C08B105439E
:10044000F1E7A80701D525F00405C4F81CA0002792
:10045000C4F818A02A2E09D0304603F0DEFF38B3C6
:1004600004EB8708303EC8F8186019E059F8041BFF
:10047000204604EB87029161E1688847012F064618
:1004800018D1E069002820DA25F020051DE0D8F811
:10049000180000EB800006EB40003038C8F8180068
:1004A0002046E1688847064603F0B7FF0028EED1F2
:1004B000012F0AD02E2E08D12046E16888477F1CE4
:1004C0000646022F45F02005C4DBA069002803DAA8
:1004D000404245F00105A061E80701D025F0100574
:1004E000A6B1A6F14100192802D8203645F40065CE
:1004F0004A463146204625604D46FFF77FFE60B1F3
:10050000012807D0ED1D25F0070000E007E000F10D
:10051000080978E705F1040975E730467AE7206AAB
:10052000BDE8F09F264300004FF0000200B51346DF
:1005300094469646203922BFA0E80C50A0E80C5003
:10054000B1F12001BFF4F7AF090728BFA0E80C50B4
:1005500048BF0CC05DF804EB890028BF40F8042BAD
:1005600008BF704748BF20F8022B11F0804F18BF1A
:1005700000F8012B704770477047704770472DE9AE
:10058000F0470D4699469246044600F1240801685A
:10059000880604D5E06921F01001216000E0012007
:1005A000A84201DD471B00E00027A1697A1902EB90
:1005B0000900081AA0612078C00602D42046AFF3D3
:1005C0000080002608E0D4E901211AF806009047CF
:1005D000206A401C761C20624E45F4DB2078C00661
:1005E0000AD52046AFF3008006E0D4E9012130208F
:1005F0009047206A401C2062381EA7F10107F4DCF6
:1006000007E0D4E9012118F805009047206A401C52
:100610002062281EA5F10105F3DC2046AFF300801F
:100620002078000602D50220BDE8F0870120FBE714
:10063000074B70B50D467B4400F011F80446284680
:1006400000F020F810B14FF0FF3070BD204670BDB3
:10065000F33D000001694A1C02610878704700B54B
:100660008FB0CDE901310021059105497944CDE9EB
:10067000031011466846FFF7BBFE0FB000BD000037
:10068000E5FFFFFF007B00F08000704700487047E7
:10069000A80300207546FFF7F9FFAE46050069463E
:1006A000534620F00700854618B020B5FFF7CEFD71
:1006B000BDE820404FF000064FF000074FF0000863
:1006C0004FF0000B21F00701AC46ACE8C009ACE8E4
:1006D000C009ACE8C009ACE8C0098D4670470446C3
:1006E000AFF300802046FFF79DFD0000014800F0B9
:1006F00045B9000064000020464910B54A6822F45C
:1007000040324A604A6843681A434A6001684A684E
:1007100022F480724A6001684A68036942EA03224F
:100720004A6001684A6822F040724A6001684A687B
:1007300083681A434A6001688A6822F400628A600A
:1007400001688A68C3681A438A60816A6FF07062C0
:10075000D14201688A6822F070628A6001688A6802
:100760000CD0836A1A438A6001688A6822F040527A
:100770008A6001688A68C36A1A4301E022F0405225
:100780008A6001688A6822F002028A6001688A68C9
:10079000037E42EA43028A6090F820100029016833
:1007A0004A680FD042F400624A6001684A6822F445
:1007B00060424A6001684A68174C436A04EB43335D
:1007C0001A4301E022F400624A600168CA6A22F416
:1007D0007002CA620168CA6A838B104C04EB03532F
:1007E0001A43CA6201688A6822F400728A6001684A
:1007F0008A6890F8303042EA43228A6001688A6849
:1008000022F480628A6001688A68406942EA802036
:10081000886010BD0023014000E0FFFF0000F0FFF2
:10082000FEE7704772B6FEE77047000078B5002417
:10083000009490F83C20012A19D0012280F83C2035
:100840000A6807230568092A13D9EE680A3A02EBF9
:10085000420293409E43EE600B788A680A3B03EBAA
:1008600043039A400368DD682A43DA6010E00220FF
:1008700078BD2E6902EB420293409E432E610B78B5
:100880008A6803EB43039A4003681D692A431A618F
:100890004A681F23072A13D205686E6B521E02EBAB
:1008A000820293409E436E630B790A885B1E92B26C
:1008B00003EB83039A4003685D6B2A435A6327E086
:1008C00005680D2A12D22E6BD21F02EB82029340D2
:1008D0009E432E630B790A88DB1F92B203EB8303DE
:1008E0009A4003681D6B2A431A6311E0EE6A0D3AC1
:1008F00002EB820293409E43EE620B790A880D3B25
:1009000092B203EB83039A400368DD6A2A43DA62FA
:10091000164B0568144A9D4206D10D68122D03D16D
:10092000556845F48005556005689D4218D10B68EF
:10093000102B01D0112B13D1536843F400035360E3
:10094000096810290CD10A490A4A0968B1FBF2F179
:1009500001EB8101490000E0491E00910029FBD113
:1009600080F83C40002078BD002301400020014079
:100970004800002040420F007047704770B50446A1
:1009800000680668456816F0020F05F020012AD0BD
:1009900049B3216CC90603D4216C41F40071216470
:1009A000816811F0405F17D1217EA9B9C16A11F4A5
:1009B000700F02D0816849050ED4416821F02001F2
:1009C0004160206C20F480702064206CC00403D44B
:1009D000206C40F0010020642046FFF7CDFF216825
:1009E0006FF01200086016F0040F05F0800132D09D
:1009F00089B3206CC00603D4206C40F400502064FE
:100A00002068816811F4401F1ED1816B11F4401FD2
:100A100002D08168490517D44168490514D481681A
:100A200011F0405F10D1217E71B9416821F0800141
:100A30004160206C20F480502064206CC00503D4F9
:100A4000206C40F0010020642046FFF7EDFE216895
:100A50006FF00C00086016F0010F05F040010FD098
:100A600071B120680068C0070AD0206C40F4803063
:100A70002064204600F043F821686FF00100086010
:100A800016F0200F05F080610ED000290CD0606CAC
:100A900040F00200606420686FF020050560204689
:100AA000FFF76BFF2068056070BD70B504004FF064
:100AB000000503D0206C002610B107E0012070BDB6
:100AC000204600F01DF8666484F83C60206CC00687
:100AD00010D4206C20F4885040F00200206420469E
:100AE000FFF70AFE6664206C20F0020040F001006F
:100AF000206400E0012584F83C60284670BD704702
:100B000030B587B0044614216846FFF70DFD1D4936
:100B10002068884234D11C480024016841F4807167
:100B20000160006800F4807005901748143801686F
:100B300041F001010160016801F0010105910168C6
:100B400041F0020101600068032500F002000590F9
:100B5000F020CDE90005694602940C4800F08AF8BF
:100B60000120CDE9000569460294094800F082F8A9
:100B700000221146122000F0A7FC122000F096FC83
:100B800007B030BD00200140443802400000024060
:100B9000000402402DE9F0410446876D00F068F939
:100BA000064694F835000025022806D080206065AE
:100BB00084F834500120BDE8F0812068016821F0FC
:100BC000160101602068416921F080014161206CBB
:100BD00008B9A06C20B12068016821F0080101600B
:100BE0002068016821F0010101600CE000F040F98B
:100BF000801B052807D920206065032084F8350074
:100C000084F83450D7E720680068C007EED194F824
:100C10005C103F208840B860012084F8350084F8DB
:100C200034500020C7E790F83510022903D0802106
:100C3000416501207047052180F835100068016882
:100C400021F0010101600020704790F835007047E5
:100C500070B5044600F00CF90546601C02D004484B
:100C60000078044400F004F9401BA042FAD370BDA0
:100C70003C0000202DE9F84FDFF8BCA1002201253F
:100C800003264FF00F090AF1040BAAF1040E00BF6E
:100C90000B6805FA02F42340A34270D10F7907F0E4
:100CA0000307012F01D0022F16D187684FEA4208AF
:100CB00006FA08FC27EA0C07D1F80CC00CFA08FC6D
:100CC0004CEA070CC0F808C04768A7430C79C4F386
:100CD000001494403C4344600C79E443A4070AD0D8
:100CE000C4684FEA420C06FA0CF7BC438F6807FA57
:100CF0000CF72743C7600C7904F00304022C12D1CF
:100D0000D40800EB840CDCF820405707FF0E09FAEA
:100D100007F824EA0804D1F8108008FA07F848EA2E
:100D20000408CCF8208004684FEA420C06FA0CF75D
:100D3000BC430F7907F0030707FA0CF72743076056
:100D40004C6814F4403F70D03C4C276847F480470F
:100D50002760246822F0030704F480440094384C90
:100D600007EB040CDCF8084897074FEA177809FAF4
:100D700008F7BC43334FB84202D1002724E054E0C7
:100D8000314FB84201D101271EE0304FB84201D1A6
:100D9000022719E02E4FB84201D1032714E02D4F4E
:100DA000B84201D104270FE02B4FB84201D10527EB
:100DB0000AE02A4FB84201D1062705E0284FB84281
:100DC00001D1072700E0082707FA08F72743CCF8E6
:100DD0000878DAF800405746D1F804C09C435FEA2F
:100DE000CC2C00D51C433C60DBF800405F46D1F8BA
:100DF00004C09C435FEA8C2C00D51C433C60DEF8A9
:100E000000407746D1F804C09C435FEA8C3C00D593
:100E10001C433C60084F083F3C68D1F804C09C4329
:100E20005FEACC3C00D51C433C60521C102AFFF406
:100E30002FAFBDE8F88F0000083C01404438024065
:100E4000003001400000024000040240000802405F
:100E5000000C024000100240001402400018024042
:100E6000001C02400AB1816170470904FBE70000E1
:100E700001488068704700003C00002070477047C0
:100E80002DE9F041016804464A694E6890F83E0039
:100E90000025D743FA0506D4F243D20503D46FF4F4
:100EA000807201254A61B90508D4F143C90505D40A
:100EB00022686FF4007145F002055161790525D46F
:100EC000F143C90522D4638D94F83D10226B20288C
:100ED00008D13BB9212910D029290ED0282901D1C8
:100EE000212A0AD022686FF48061516145F004051F
:100EF000102806D0402804D008E0204602F0AEF8C2
:100F000004E02068016841F400710160380508D4EC
:100F1000F043C00505D421686FF4006045F0080572
:100F20004861002D07D0206C284320642046BDE88E
:100F3000F04101F025BDBDE8F0812DE9F0470268E0
:100F400000215368C66A90F83E4090F83D50102C3E
:100F500012D0402C10D0046C002C7DD05469E44396
:100F6000A6077AD4DE43B60577D4036C03B1916942
:100F7000BDE8F04702F04EB8976951694FF42A0C6A
:100F8000C9435FEAC1784FF02A4904D066452AD0A8
:100F90004E4528D010E0DE43B6050DD4C16A614548
:100FA00001D1012103E0C16A494501D10821C16293
:100FB000BDE8F04701F098BF0E0716D4DE43B60532
:100FC00013D4416CC9B21161416B09B1C96B29B924
:100FD000816B002907D0C96B002904D000684168E3
:100FE00041F400614160BDE8F0878E0706D4DE431E
:100FF000B60503D4BDE8F04701F0EABEFE435268EF
:1010000076074FEA02521DD4002AECDB0A0608D408
:10101000DA43520505D4490705D5BDE8F04701F08C
:101020007BBE4907DFD4D9438905DCD4212D05D007
:10103000402CD8D1BDE8F04701F09CBFBDE8F04797
:1010400001F028BE002ACEDB4A060BD4DA43520553
:1010500008D4490708D501E00DE00EE0BDE8F047EF
:1010600001F0A4BD4907BED4D9438905BBD4BDE86E
:10107000F04701F031BD916970E7E10606D4D9432C
:10108000890503D4BDE8F04702F02AB82821212DB4
:1010900027D0292D25D0650655D4DD436D0552D4C2
:1010A000640752D590F83D30448D002C9BD01269D6
:1010B000446A2270426A521C4262428D521E42852C
:1010C000428D002A8FD12A2B8DD10268536823F4D8
:1010D000806353602222026380F83D1000F082F9A1
:1010E00081E7250623D4DD436D0520D4640720D590
:1010F00090F83D30448D002CF2D0446A247814617D
:10110000426A521C4262428D521E4285428D002A22
:10111000E6D1292BE4D10268536823F4806353603D
:101120002122026380F83D1000F05DF95BE7610762
:10113000D6D4D9438905D3D4418D0029D0D0416A72
:10114000097811610AE06107CAD4D9438905C7D477
:10115000418D0029C4D01169426A1170416A491C4D
:101160004162418D491E41853DE7704770B50400DD
:1011700025D094F83D00002520B984F83C50204645
:1011800000F0BEF8242084F83D002068016821F0BA
:10119000010101602068016841F40041016020689C
:1011A000016821F40041016000F05AFA4D4A61687B
:1011B000914201D84C4900E04C49884201D20120BB
:1011C00070BD4B492368B0FBF1F15E6826F03F0625
:1011D0000E435E606368934206D94FF49673594399
:1011E0004FF47A73B1FBF3F12368491C1E6A26F0B1
:1011F0003F06314319626168914210D84900401E90
:10120000B0FBF1F2521CC2F30B02042A01D20420FB
:1012100022E0B0FBF1F0401CC0F30B001CE0A26820
:10122000F2B301EBC10303EB0116431EB3FBF6F36C
:101230005B1C43F480431B0549D092B301EBC10210
:1012400002EB0111401EB0FBF1F0401CC0F30B009B
:1012500040F4804040F400402168CA694CF6FF73B6
:101260009A431043C861D4E907100143206802681B
:1012700022F0C00211430160D4E903010143206858
:10128000826848F2FF339A4311438160D4E9050133
:1012900008432168CA6822F0FF021043C86001E0D9
:1012A0000EE016E02068016841F00101016025644C
:1012B000202084F83D00256384F83E50002070BD56
:1012C00001EB4106431EB3FBF6F35B1CB3E70120C1
:1012D000C2E701EB4101401EB0FBF1F0401CC0F33E
:1012E0000B00B7E7A086010080841E0000093D00C6
:1012F00040420F00704770477047704770470000CA
:10130000F0B587B0044614216846FFF70DF926684A
:10131000304C2F4F00252F48122203210423103474
:10132000BE4227D1066846F002060660006800F05B
:1013300002000590CDE90313C0208DE82500694621
:101340002548FFF797FC206840F4001020602068D3
:10135000002200F40010059011461F2000F0B4F8A0
:101360001F2000F0A3F800221146202000F0ACF866
:10137000202028E0194FBE4227D1066846F02006FB
:101380000660006800F0200005908DE82600CDE999
:10139000031369461248FFF76DFC206840F4800093
:1013A00020602068002200F4800005901146212072
:1013B00000F08AF8212000F079F80022114622205E
:1013C00000F082F8222000F071F807B0F0BD0000B4
:1013D00000540040303802400004024000580040F1
:1013E0000014024070477047024881680278114437
:1013F000816070473C0000200B4810B5016841F443
:1014000000710160016841F480610160016841F48C
:1014100080710160032000F077F80F2000F006F8DB
:1014200000F024F8002010BD003C024070B50D4DC6
:1014300004464FF47A712878B1FBF0F00A49096844
:10144000B1FBF0F000F014FB48B9102C07D20022D9
:101450002146501E00F038F800206C6070BD01205D
:1014600070BD00003C000020480000200E4808B578
:10147000016841F480410160006800F48040009000
:101480000948001F016841F0805101600068002296
:1014900000F0805000901146052000F015F8BDE8DE
:1014A0000840052000F002B844380240002809DB5B
:1014B00000F01F02012191404009800000F1E0206E
:1014C000C0F8001170470000F0B40E4B1B680C46CA
:1014D000C3F30223C3F10705042D00D90425191D08
:1014E000072901D2002300E0DB1E012606FA05F1E0
:1014F000491E214099409E40761E16403143F0BC63
:1015000002F071BF0CED00E0064900F00702086828
:101510004FF6FF03184040EA0220034A10430860D8
:10152000704700000CED00E00000FA052DE9F047DF
:101530000E46050065D0DFF81481D8F80000F7B238
:1015400000F00700B04207D288F80070D8F8000019
:1015500000F00700B04254D128683D4C810712D5F5
:10156000400703D5206840F4E05020602878000749
:1015700003D5206840F4604020602068A96820F00E
:10158000F000084320602878C0072DD030496868F3
:101590000839012812D0022813D0032811D0096875
:1015A000890700292DDA216821F003010143216018
:1015B000FFF75EFC814641F2883A0EE00968890334
:1015C000EFE709688901ECE7FFF752FCA0EB09019E
:1015D000514502D90320BDE8F0872068696800F012
:1015E0000C00B0EB810FEFD1D8F80010404601F0AD
:1015F0000701B14207D90770006800F00700B04248
:1016000001D00120E7E72878400705D52068E96880
:1016100020F4E050084320602878000706D52068B1
:10162000296920F4604040EAC100206000F038F8E9
:101630002168084AC1F30311515CC840064908609B
:1016400006480068FFF7F2FE0020C4E7003C0240B5
:1016500008380240124700084800002040000020DF
:101660000448054900680968044AC1F38221515CB5
:10167000C840704748000020083802402247000850
:101680000448054900680968044AC1F34231515CC5
:10169000C840704748000020083802402247000830
:1016A000154810B5006810F00C02144813D0144906
:1016B000042A0FD0082A0ED10F4C241F2268236859
:1016C00002F03F025B0207D52068C0F38810A0FB40
:1016D000010106E0084610BD2168C1F38811A1FB95
:1016E00000010023FEF7C5FD2168C1F30141491C3B
:1016F0004900B0FBF1F010BD083802400024F400AE
:1017000040787D012DE9F84F04006ED02078DFF895
:101710004C93C007A9F104054AD009F104000168FF
:10172000C1F38101012908D00068C0F381000228BB
:101730000AD1D9F80000400206D52868800337D5C1
:1017400060680028E1D033E06068B0F5803F10D0D9
:10175000B0F5A02F286810D020F4803028602868C9
:1017600020F4802028606068A8B1FFF781FB06465E
:101770000DE0286840F48030F4E740F480202860D1
:10178000F7E700BFFFF774FB801B642873D8286855
:101790008003F7D50CE0FFF76BFB064605E000BFC2
:1017A000FFF766FB801B6428F0D828688003F7D415
:1017B0002078DFF8AC8280074FF0000A3ED5A748BA
:1017C000001D016811F00C0F08D00068C0F3810003
:1017D00002280BD1D9F80000400207D428688007FE
:1017E00016D5E068012800D112E033E1E068B8B115
:1017F0000120C8F80000FFF73BFB064605E000BFEC
:10180000FFF736FB801B0228C0D828688007F7D571
:101810002868216920F0F80040EAC10028600DE046
:10182000C8F800A0FFF724FB064604E0FFF720FB02
:10183000801B02281FD828688007F7D4207800076B
:1018400022D5864F87486169703771B101210160E7
:10185000FFF70EFB064604E0FFF70AFB801B022899
:1018600009D838688007F7D50EE0C0F800A0FFF768
:10187000FFFA064605E082E0FFF7FAFA801B02282D
:101880007DD838688007F7D42078400768D5DFF81E
:10189000CCB100270BF13C0BDBF80000C0000BD4EF
:1018A000DBF8001041F08051CBF80010DBF80000AD
:1018B000012700F0805000906B4E3068C00510D4B6
:1018C000306840F480703060FFF7D2FA009005E095
:1018D000FFF7CEFA0099401A022850D83068C005A8
:1018E000F6D55E4EA0686C3601280FD0052830680A
:1018F00010D020F001003060306820F0040030602B
:10190000A068B8B1FFF7B4FA00900FE0306840F07B
:101910000100F4E740F004003060F7E7FFF7A8FAB1
:101920000099411A41F28830814266D830688007B8
:10193000F4D50EE0FFF79CFA009007E0FFF798FA65
:101940000099411A41F28830814256D830688007A8
:10195000F4D42FB1DBF8001021F08051CBF8001047
:10196000A069C8B33D49091D0968C1F38101022975
:101970004AD00228504607D0C8F8600000E03CE09A
:10198000FFF776FA04463BE04746C8F86000FFF7E9
:101990006FFA064605E000BFFFF76AFA801B0228CF
:1019A0002BD828688001F7D4D4E907010843A16A3D
:1019B0002E4A490802EB0141626A41EA821108435A
:1019C00094F82C1040EA0161C9F800100120386633
:1019D000FFF74EFA044606E03EE000BFFFF748FA84
:1019E000001B022809D828688001F7D534E000BF21
:1019F000FFF73EFA001B022802D90320BDE8F88F4A
:101A000028688001F4D427E00128F7D0D9F8000035
:101A1000E26900F4800191421CD1226A00F03F018A
:101A2000914217D147F6C071626A0140B1EB821F43
:101A300010D1A26A4FF0FF3300F4403103EB5202A1
:101A4000B1EB024F06D194F82C1000F07060B0EBAF
:101A5000016F01D00120D1E70020CFE70438024018
:101A600000004742800E4742007000400000FFFF28
:101A700010B5401EB0F1807F01D3012010BD4FF0A2
:101A8000E02460610F21601702F0ADFC0020A0612E
:101A900007202061002010BD7047704770B590F896
:101AA0003C20012A32D0012480F83C40022280F8F8
:101AB0003D2003685A689D6822F070060A68324328
:101AC0005A60134B02689A4214D0B2F1804F11D081
:101AD000104B9A420ED0104B9A420BD00F4B9A42A9
:101AE00008D00F4B9A4205D00E4B9A4202D00E4BB3
:101AF0009A4204D1496825F080031943916080F827
:101B00003D40002180F83C10084670BD022070BDA9
:101B1000000001400004004000080040000C0040AC
:101B200000040140004001400018004090F83D10C2
:101B3000012901D001207047022180F83D10006882
:101B40001149884214D0B0F1804F11D00F4988421A
:101B50000ED00F4988420BD00E49884208D00E495A
:101B6000884205D00D49884202D00D49884204D1EF
:101B7000816801F00701062903D0016841F00101E5
:101B80000160002070470000000001400004004098
:101B900000080040000C00400004014000400140EB
:101BA000001800402DE9F0410D46040003D094F8E0
:101BB0003D0018B108E00120BDE8F081002084F864
:101BC0003C00204600F040F8022084F83D002068E8
:101BD000816844F2070291438160211D206802F070
:101BE00011F9226890689169166A2B68AF690343FE
:101BF00040F20330814341EA0721A868EF690843B6
:101C00004FF6FC418843E96840EA07200143286910
:101C10002F6A000140EA0730084369686D6926F0C1
:101C2000AA0646EA0515294393602268906154F894
:101C3000460B0162012004F81F09E0752076E0766A
:101C40002077A0750020B7E710B586B004461421B0
:101C50006846FEF769FC2268274C002127480223CA
:101C6000A2421FD1254A1432146844F001041460C2
:101C7000126802F001020592026842F0100202604E
:101C8000006800F0100005904FF420600090CDE94E
:101C900001310120CDE9031069461948FEF7EAFF3A
:101CA00006B010BD174CA242FAD1144A1032146883
:101CB00044F004041460126802F004020592026801
:101CC00042F008020260006800F0080005904FF43E
:101CD00040500090CDE90131CDE9031369460A482F
:101CE000FEF7C8FF002211461E20FFF7EDFB1E2065
:101CF000FFF7DCFBD4E70000000001403038024071
:101D00000010024000080040000C024070B590F83E
:101D10003E60044690F83F5090F8423090F84320DF
:101D2000022021B104290ED0012E1BD114E0012E76
:101D300018D1012B16D184F83E0084F8420001220C
:101D40000021206820E0012D0CD1012A0AD184F85D
:101D50003F0084F8430014E0012D03D1012B01D191
:101D6000012A01D0012070BD84F83E0084F83F00B4
:101D700084F8420084F8430001220021206802F028
:101D8000A5F801220421206802F0A0F8206801686B
:101D900041F001010160002070BD704770B504463C
:101DA000006801694FF00005C943890715D4C1686F
:101DB000C943890711D4E91E0161012020772068F9
:101DC00080698007204602D0FFF7E7FF04E000F0BB
:101DD000EFF8204600F0B0F9257720680169C94383
:101DE000490717D4C168C943490713D46FF00401E8
:101DF0000161022020772068806910F4407F20462E
:101E000002D0FFF7CAFF04E000F0D2F8204600F04D
:101E100093F9257720680169C943090716D4C16879
:101E2000C943090712D46FF008010161042020772B
:101E30002068C0698007204602D0FFF7AEFF04E0AB
:101E400000F0B6F8204600F077F9257720680169A0
:101E5000C943C90617D4C168C943C90613D46FF072
:101E600010010161082020772068C06910F4407FCC
:101E7000204602D0FFF791FF04E000F099F82046D9
:101E800000F05AF9257720680169C943C90708D1CC
:101E9000C168C943C90704D1891E0161204600F009
:101EA000B1F920680169C943090609D4C168C94369
:101EB000090605D46FF0800101612046FFF7ECFDB3
:101EC00020680169C943490609D4C168C943490664
:101ED00005D46FF040010161204600F094F92068BC
:101EE0000169C94389060BD4C168C943890607D46F
:101EF0006FF0200101612046BDE87040FFF7CDBDC5
:101F000070BD000030B587B0044614216846FEF766
:101F10000BFB2168002421480225B1F1804F29D014
:101F20001F4A914224D1016841F002010160016819
:101F300001F002010591016841F0040101600068AF
:101F4000694600F00400059022200090CDE901547C
:101F50001448CDE90345FEF78DFE4FF4A0700090C4
:101F6000CDE9015469461048CDE90345FEF782FEEC
:101F700007B030BD016841F00101016000686946A9
:101F800000F00100059048F20E000090CDE90154E8
:101F90000120CDE903400548E8E700003038024061
:101FA000000400400004024000080240000002401B
:101FB000704770B5044690F83C0000260D46012895
:101FC0000FD0012084F83C006AB1042A1DD0082AF1
:101FD0002FD00C2A3FD00126002084F83C00304648
:101FE00070BD022070BD206801F07EFF206881690D
:101FF00041F0080181612068816921F0040181615B
:10200000206881692A69114311E0206801F09CFF72
:102010002068816941F4006181612068816921F44F
:1020200080618161206881692A6941EA02218161B8
:10203000D2E7206801F0BEFF2068C16941F00801C5
:10204000C1612068C16921F00401C1612068C169D2
:102050002A69114311E0206801F0E0FF2068C1699E
:1020600041F40061C1612068C16921F48061C161EE
:102070002068C1692A6941EA0221C161ACE710B553
:10208000040003D094F83D0010B107E0012010BD1A
:10209000002084F83C00204600F01EF8022084F85E
:1020A0003D00211D206801F0ADFE012084F84600AE
:1020B00084F83E0084F83F0084F8400084F8410032
:1020C00084F8420084F8430084F8440084F8450012
:1020D00084F83D00002010BD08B501681448B1F136
:1020E000804F14D0134A914220D1016841F002017F
:1020F00001600068002200F00200009011461D20DF
:10210000FFF7E2F91D20BDE80840FFF7CFB90168ED
:1021100041F0010101600068002200F00100009020
:1021200011461C20FFF7D0F91C20ECE708BD000089
:1021300040380240000400407047000010B50446DB
:10214000022249B104290ED0082913D094F8410085
:10215000012816D0012010BD94F83E000128F9D1C5
:1021600084F83E200FE094F83F000128F2D184F873
:102170003F2008E094F840000128EBD184F840208B
:1021800001E084F841200122206801F09FFE1649F9
:102190002068164A884201D0904203D1436C43F430
:1021A000004343642068884213D0B0F1804F10D0C0
:1021B0000F4988420DD00F4988420AD00E49884203
:1021C00007D0904205D00D49884202D00C49884280
:1021D00004D1816801F00701062903D0016841F0AC
:1021E00001010160002010BD000001400004014019
:1021F0000004004000080040000C00400040014086
:10220000001800407047704770477047F8B5016884
:1022100004460868CA684B6910F00F0F4FF00005BC
:102220005AD003F0010602F49077374365D0C10716
:1022300005D0D10503D5216C41F00101216441078E
:1022400005D5D90703D0216C41F002012164810733
:1022500005D5D90703D0216C41F0040121640107A1
:1022600007D502F02001314303D0216C41F0080171
:102270002164216C00293BD0800604D5900602D54C
:10228000204601F092FF20684069216CC0F3801065
:1022900001F00801014320462BD001F05FFF2068C8
:1022A0004069400621D52068143050E8001F21F015
:1022B000400140E80012002AF5D1A06BA8B16C499A
:1022C0000165A06BFEF7AFFC002811D0A06B016D7B
:1022D00001B0BDE8F040084783060ED593060CD543
:1022E0002046BDE8F84001F060BF2046FFF78DFFB3
:1022F000F8BDFFF78AFF2564F8BD266B2023012E69
:1023000079D1C60677D5D60675D508684868009095
:102310004869400640D5A16B086840680004000C7D
:10232000EAD0A28D8242E7D9E085C869B0F5807F06
:102330002DD020680C3050E8001F21F4807140E857
:102340000012002AF5D12068143050E8001F21F057
:10235000010140E80012002AF5D12068143050E84D
:10236000001F21F0400140E80012002AF5D184F856
:102370003E30256320680C3050E8001F21F010012A
:1023800040E80012002AF5D1A06BFEF703FCA08DF7
:10239000E18D401A81B229E0A08DE18D401A81B211
:1023A000E08D0028A8D00029A6D020680C3050E885
:1023B000002F22F4907240E80026002EF5D120680C
:1023C000143050E8002F22F0010240E80026002ED1
:1023D000F5D184F83E30256320680C3050E8002F9A
:1023E00022F0100240E80023002BF5D12046FFF731
:1023F0000BFFF8BDFFE705062BD5150629D594F888
:102400003D002128F5D1A068B0F5805F01D1206999
:10241000B0B1206A411C2162216800784860E08CDC
:10242000401E0004000CE084E3D12068C16821F064
:102430008001C1602068C16841F04001C160D8E7F7
:10244000206A0088C0F308004860206A801C20626F
:10245000E5E74006CDD55006CBD5CA68204622F028
:102460004002CA6084F83D3000F012FAC1E7000073
:102470004D41000870B5040004D094F83D000025DB
:1024800010B106E0012070BD84F83C50204600F0F9
:1024900023F8242084F83D002068C16821F400510D
:1024A000C160204601F0E2FE2068016921F49041FC
:1024B00001612068416921F02A0141612068C168F9
:1024C00041F40051C1602564202084F83D0084F867
:1024D0003E00002070BD00002DE9F04186B00446AA
:1024E00014216846FEF720F85C485B492368002405
:1024F0005A4A14380225032607278B4220D1116837
:1025000041F010011160116801F01001059101689E
:1025100041F001010160006802AB00F0010005908C
:102520007002CDE9000583E8D00069464C48FEF70B
:10253000A1FB002201212520FEF7C6FF252027E070
:102540004649DFF820C1091FDFF81C81634524D10B
:102550000A6842F400320A60096801F4003105910A
:10256000016841F008010160006802AA00F008005B
:1025700005906020CDE9000582E8D000694640461C
:10258000FEF778FB002201212620FEF79DFF262082
:10259000FEF78CFF06B0BDE8F081DFF8D0C06345E0
:1025A00034D10A6842F480220A60096801F480216B
:1025B0000591016841F002010160016801F002012A
:1025C0000591016841F008010160006802AA00F06D
:1025D000080005904FF40060CDE9000582E8D000C6
:1025E00069462348FEF746FB4FF48070CDE90005AD
:1025F00002AA694682E8D0004046FEF73BFB002273
:1026000001212720FEF760FF2720C1E719498B42EF
:10261000C0D1116841F020011160116801F0200162
:102620000591016841F0400101600068029400F0EA
:10263000400005904FF48440CDE900050820CDE925
:10264000036069460C48FEF715FB0022114647203F
:10265000FEF73AFF47209BE7001001404438024054
:102660000000024000440040000C024000480040CE
:1026700000040240001401400018024090F83E306F
:10268000202B0ED159B152B190F83C30012B08D01B
:10269000012380F83C300023036301F06DBE01206C
:1026A000704702207047000030B55A495A4C85B037
:1026B000884207D12078A07001F078F801222146E5
:1026C0005448A0E0554988426FD100684068524D97
:1026D00010F0FF0005F1010528702ED0691E0128B9
:1026E000C96A32D0022832D06A1E0328126B32D057
:1026F000042833D0052838D0062838D0072838D009
:10270000082839D009283AD010283AD012283AD0CF
:1027100013283AD014283AD015283AD016283AD09F
:1027200017283BD090283CD091283FD0922841D008
:10273000982845D099285CD05EE040F20F3140F2F5
:10274000A32001F011FF36A037E00A3100E00A397A
:1027500035A0E16206E002F10A0101E0A2F10A01FE
:1027600035A02163FDF7FCFD46E06431F0E76439F4
:10277000EEE702F16401F3E7A2F16401F0E7491C1E
:10278000E6E7491EE4E7511CEAE7511EE8E732316B
:10279000DEE73239DCE702F13201E1E7A2F1320192
:1027A000DEE70220606228A007E031E003206062DB
:1027B00028A002E00420606229A0FDF7D1FD1BE003
:1027C000B4F910000DF1040CB4F91630B4F914206A
:1027D000B4F912108CE80F00B4F90E000090B4F9AF
:1027E0000C30B4F90A20B4F908102048FDF7B8FD00
:1027F00002E01FA0FDF7B4FDD4E90B0101F0B4FE27
:1028000001220648691C05B0BDE83040FFF736BF1D
:1028100005B030BDFC020020000000207402002042
:1028200072657365740D0A0070776D5F74657374FB
:102830005F783A25640D0A0070776D5F7465737474
:102840005F793A25640D0A0050726F626C656D32D3
:102850003A0D0A0050726F626C656D333A0D0A00D2
:1028600050726F626C656D343A0D0A003C47000887
:1028700070776D5F746573745F783A25642C20708F
:10288000776D5F746573745F793A25640D0A000093
:102890007047FEE70148FEF7F3BA0000AC000020E5
:1028A0000148FEF74ABB0000AC0000200148FEF7DB
:1028B000E7BA0000000100200148FEF73EBB00001F
:1028C0000001002038B5806B002190F83D202B4B93
:1028D00046F2A8141B68B3FBF4F3C3EBC30303EB8A
:1028E000830300933BB15B1E009303681B689B0549
:1028F00005D5009BF6E7036C43F020030364436BAC
:1029000003B1D963836B03B1D96303681C6824F4F2
:1029100080641C604185436B03B11965836B03B10F
:10292000196503681C6824F001041C6090F83D40A0
:102930002023602C0BD0282434EA02020FD080F828
:102940003D3080F83E1000BFFEF70FFC38BD80F828
:102950003D3080F83E100164FEF790FA38BD026801
:10296000136843F0010313600268136843F4806343
:102970001360016380F83D40E6E700004800002056
:1029800070B5044690F83D0094F83E10102901D02F
:10299000402906D1222804D121680A6822F4006265
:1029A0000A60282131EA00024FF000054FF02006AE
:1029B00026D021684968090505D4602803D084F829
:1029C0003D6084F83E50256320684168090537D58D
:1029D000416821F400614160606B90F835203C490A
:1029E000012A11D00165606BFEF71DF938B320682C
:1029F000016821F00101016084F83D60606B1CE01A
:102A0000256384F83D10DFE7A06B0165A06BFEF73E
:102A10000AF9A0B120684169C943490605D4006993
:102A2000616A0870606A401C60622068016821F079
:102A30000101016084F83D60A06B016D884710E0E2
:102A400094F83D10602910D04169C943490605D466
:102A50000069616A0870606A401C60622046FEF787
:102A600084FB206CC1071CD115E084F83D6025640F
:102A70004169C943490605D40069616A0870606A02
:102A8000401C60622068016821F00101016020465D
:102A9000FEF7F4F9E5E7810703D4410701D4000705
:102AA00004D52068416821F4E061416094F83D005C
:102AB000216C49070BD5282809D10648E062256317
:102AC00084F83D6084F83E502046FEF713FC70BD4C
:102AD000C52800080000FFFF10B5C26A438D0168D9
:102AE000042B06D0438D032B08D0438D022B1DD021
:102AF00012E04A6822F480624A600CE04B6823F4DA
:102B000080634B60042A06D0022A04D001680A6858
:102B100022F480620A6001680969426A1170416AA0
:102B2000491C4162418D491E418510BD012A30D0AA
:102B3000102A2ED0042A30D0022A2ED00A6842F45D
:102B400000720A6001680969426A1170416A491C91
:102B50004162428D521E4285026812690A70416AC2
:102B6000491C4162418D491E418501684A6822F431
:102B700040724A60202180F83D1090F83E200021EC
:102B8000402A80F83E100CD012210163FEF7B3FBFF
:102B900010BD0A6822F48062D3E70A6842F48062BA
:102BA000CFE70163FEF7A9FB10BD000038B590F830
:102BB0003D1022290FD1418D03290DD901680969E2
:102BC000426A1170416A491C4162418D491E41852A
:102BD000418D032906D038BDC26A022A02D00129DC
:102BE00006D029B10068416821F48061416038BD98
:102BF000274946F2A81300220968B1FBF3F101EB63
:102C00008101009101682023009C641E009422D061
:102C10000C68A405F8D40C6824F480640C60016886
:102C20004C6824F4E0644C6001680969446A2170CE
:102C3000416A491C4162418D491E418580F83D3001
:102C400090F83E1080F83E2040291DD012210163EB
:102C5000FEF751FB38BD046C44F0200404644C685A
:102C600024F4E0644C6001680969446A2170416A97
:102C7000491C4162418D491E418580F83D3080F8F4
:102C80003E20FEF772FA38BD0263FEF736FB38BD10
:102C90004800002010B5C26A90F83D1021290BD1E0
:102CA000418D51B1416A026809781161416A491C3C
:102CB0004162418D491E418510BD20230021082A13
:102CC00013D0202A11D012F5803F0ED0026854682C
:102CD00024F4E06454601122026380F83E1080F80E
:102CE0003D3000BFFEF708FB10BD0268546824F4B5
:102CF000E06454600268146844F400741460016372
:102D000080F83D3090F83E2080F83E10402AE9D10E
:102D1000FEF7F4FA10BD000010B590F83D1090F8E1
:102D20003E30C26A048DB4B1212903D0402B11D1A9
:102D300022290FD1418DE1B390F83E10402942D0B5
:102D4000416A026809781161416A491C4162418DFA
:102D5000491E418510BD2129E8D120230021082AE0
:102D600013D0202A11D012F5803F0ED0026854688B
:102D700024F4E06454601122026380F83E1080F86D
:102D80003D3000BFFEF7B8FA10BD0268546824F465
:102D9000E06454600268146844F4007414600163D1
:102DA00080F83D3090F83E2080F83E10402AE9D16E
:102DB00000E002E0FEF7A2FA10BD0068416821F4CD
:102DC0008061416010BDBDE8104000F0D3B8000044
:102DD00078B590F83E50C26A036B90F83D600024CD
:102DE0000168222E7AD1066D0EB9402D76D0056D80
:102DF0001DB90569B5F5404F09D0458D05B3468D20
:102E0000384D012E0ED0438D022B3AD05DE04A6939
:102E10008A6900920A6842F480720A60016D491C56
:102E2000016578BDAA4213D10A6822F480620A6063
:102E300001684A68120503D50A6822F4806216E028
:102E40004A698A6900920A6842F400720A6039E0AD
:102E5000082A10D0202A0ED0122B0AD0042A03D020
:102E6000022A01D0102AE7D10A6842F480620A607F
:102E700024E0012AE0D00A6822F480620A60016836
:102E8000DEE7042A21D0022A1FD0102A1DD00B68A9
:102E900023F480630B6001680B6843F400630B60EC
:102EA00001684B681B0509D5AA4212D0012A10D02F
:102EB000082A0ED0102A0CD0202A0AD001684A69AC
:102EC00089690091046578BD08E00B6843F480636C
:102ED000E5E74A6842F480524A60EFE7486988694A
:102EE0000090F0E70000FFFF90F83E10402910D05E
:102EF0000169B1F5804F19D0016DA9B3016D0129A8
:102F000010D1416C5FF0F10201F4407142EAD1113D
:102F100006E0016D0029416C05D0C9B241F0010104
:102F200000680161704701F0FE01F9E790F83D107B
:102F30002129416C09D0C9B241F001010268116137
:102F4000416B29B1C96B49B902E001F0FE01F5E717
:102F5000816B0029E6D0C96B0029E3D00068416885
:102F600041F4006141607047FFE7416CF02201F4D9
:102F70004071CBE710B590F83D10026D22B3026DA1
:102F8000012A2FD0026D022A1DD122292FD0428D75
:102F90000AB1212933D0428D002A14D1212912D11E
:102FA00001684A6822F4E0624A6001680A6842F4F3
:102FB00000720A6000210163202280F83D2080F821
:102FC0003E10FEF79BF910BDC16C0129816C02D047
:102FD000C1F3072108E00268C9B21161016D891CC3
:102FE000016510BD816CC9B20268116104E001681D
:102FF0000A6842F480720A60016D491CF0E7416A78
:10300000026809781161416A491C4162418D491E7B
:10301000418510BD38B50C4690F83D20002128258B
:10302000954302680B4605D051699169009180F87B
:103030003C3038BD556825F480655560E24354073F
:1030400000D50121120601D5828900E0028B80F8AB
:103050003C3092B2FDF713FF38BD00002DE9F0417E
:1030600090F83D40C26A002320261C4F01686FF48F
:103070008065082A01D0202A01D1282C04D0212CD7
:1030800016D04D61BDE8F081C7624A6822F4E06263
:103090004A6001684D6101680A6822F480620A6032
:1030A000036380F83D6080F83E30FEF723F9E9E7DE
:1030B000C7622122026380F83D6080F83E304A6892
:1030C00022F4E0624A6001684D6101680A6822F4F6
:1030D00080620A60FEF787F9D4E700000000FFFF76
:1030E000F8B590F83D6004460068416821F4E0615D
:1030F00041602068002541690091016841F00101AB
:1031000001602068016821F48061016020684168E5
:10311000090520D5474F222E48D02A2E46D0616B74
:10312000096849686185618D19B1216C41F004011C
:103130002164416821F400614160606BFDF785FD09
:10314000012808D0606B0765606BFDF76CFD10B15E
:10315000606B016D8847608D08B320684169C94381
:10316000490708D40069616A0870606A401C60629F
:10317000608D401E608520684169C943490608D4B6
:103180000069616A0870606A401C6062608D401E60
:103190006085608D18B1206C40F004002064206CC4
:1031A00000B32046BDE8F840FFF7EABBA16B096811
:1031B00049686185618D19B1216C41F00401216478
:1031C000416821F400614160A06BFDF73EFD0128DC
:1031D000C1D0A06B0765A06BFDF725FD0028BAD014
:1031E000A06BB6E72A2E06D12563282084F83D007F
:1031F0002046FEF7F7F894F83D10202028290DD03E
:10320000216B222901D0222E07D1256384F83D00AD
:1032100084F83E502046FEF7E5F8F8BD0649E16225
:10322000256384F83D0084F83E502046FEF762F89E
:10323000F8BD0000C52800080000FFFF2DE9FF4190
:1032400000242C48009401940294294903940160BD
:1032500001254FF480310561C0E90114057680F83D
:1032600020402549C0E90A140526C661C46080F8DB
:1032700030404561FDF719FC08B1FDF7D3FA04278A
:10328000CDE9007569461B480295FDF7CFFA08B1F4
:10329000FDF7C8FA02200096CDE9010469461548F9
:1032A000FDF7C4FA08B1FDF7BDFA0620009003202F
:1032B000019069460F48FDF7B9FA08B1FDF7B2FA77
:1032C0000720CDE9000769460A48FDF7AFFA08B1C3
:1032D000FDF7A8FA0820CDE9000669460548FDF784
:1032E000A5FA002801D0FDF79DFABDE8FF81000096
:1032F00000200140640000200100000F30B587B0BD
:1033000014216846FDF710F942480024016841F095
:1033100004010160016801F004010591016841F0B8
:1033200020010160016801F020010591016841F070
:1033300080010160016801F080010591016841F0A0
:1033400001010160016801F001010591016841F08E
:1033500002010160016801F002010591016841F07C
:1033600010010160016801F010010591016841F050
:1033700008010160016801F008010591016841F050
:10338000400101600068244D00F0400005900122DA
:103390004FF488412846FDF765FD00224FF4304187
:1033A0002846FDF75FFD4FF4744000900120CDE901
:1033B0000104694628460394FDF75CFC2815CDE915
:1033C0000004694615480294FDF754FC8020CDE9BD
:1033D0000004694612480294FDF74CFC4FF4D0609B
:1033E000CDE9000469460F480294FDF743FCA81597
:1033F000CDE9000469460C480294FDF73BFC8420AB
:10340000CDE90004694609480294FDF733FC07B092
:1034100030BD00003038024000100240000402407D
:10342000001802400008024000000240000C024068
:103430000D4810B50B4901600C49416000214FF463
:1034400080428160C0E9031241618161C161016212
:10345000FDF78CFE002803D0BDE81040FDF7E2B96F
:1034600010BD000000540040AC000020A086010008
:103470000D4810B50B4901600C49416000214FF423
:1034800080428160C0E9031241618161C1610162D2
:10349000FDF76CFE002803D0BDE81040FDF7C2B96F
:1034A00010BD00000058004000010020A08601006F
:1034B00010B58CB024216846FDF736F80024174873
:1034C000099415490A9401600321C0E901144FF6DB
:1034D000FF72C0E903244461846100910120CDE9B9
:1034E00001400F21CDE90341CDE90540CDE9074178
:1034F00069460A48FEF756FB08B1FDF793F90994AF
:1035000009A906480A94FEF7C9FA002801D0FDF778
:1035100089F90CB010BD00000000014054010020EA
:1035200010B58AB0002407941C2168460894FCF763
:10353000FBFF21484FF08041C0E9001440F2E73121
:10354000C0E9024104618461FEF799FD08B1FDF70D
:1035500069F9079407A918480894FEF79FFA08B17B
:10356000FDF760F96020CDE900040294002269466D
:1035700011480494FEF71DFD08B1FDF753F904222C
:1035800069460D48FEF715FD08B1FDF74BF9082215
:1035900069460948FEF70DFD08B1FDF743F90C2215
:1035A00069460548FEF705FD08B1FDF73BF90248FD
:1035B000FEF7A8FC0AB010BD9C01002010B58AB02F
:1035C000002407941C2168460894FCF7ADFF2248AC
:1035D00020490160A721C0E9011444F61F61C0E938
:1035E00003148461FEF74BFD08B1FDF71BF9079446
:1035F00007A919480894FEF751FA08B1FDF712F926
:103600006020CDE900040294002269461248049427
:10361000FEF7CFFC08B1FDF705F9042269460E4814
:10362000FEF7C7FC08B1FDF7FDF8082269460A4815
:10363000FEF7BFFC08B1FDF7F5F80C226946064815
:10364000FEF7B7FC08B1FDF7EDF80348FEF75AFCAA
:103650000AB010BD00040040E401002010B58CB099
:1036600024216846FCF760FF002416480994144999
:103670000A9401600321C0E901144FF6FF72C0E90A
:103680000324846100910120CDE901400394049456
:10369000CDE90540079469460A480894FEF782FA86
:1036A00008B1FDF7BFF8099409A906480A94FEF786
:1036B000F5F9002801D0FDF7B5F80CB010BD0000F9
:1036C000000800402C0200200C4810B50A49016097
:1036D0004FF4E1314160002181600C22C160C0E9FA
:1036E00004128161C161FEF7C5FE002803D0BDE868
:1036F0001040FDF797B810BD001001407402002083
:103700000C4810B50A4901604FF4E13141600021D5
:1037100081600C22C160C0E904128161C161FEF7C1
:10372000A9FE002803D0BDE81040FDF77BB810BD0E
:1037300000440040B80200200C4810B50A4901605E
:103740004FF4E1314160002181600C22C160C0E989
:1037500004128161C161FEF78DFE002803D0BDE82F
:103760001040FDF75FB810BD00480040FC0200208B
:103770000C4810B50A4901604FF4E1314160002165
:1037800081600C22C160C0E904128161C161FEF751
:1037900071FE002803D0BDE81040FDF743B810BD0E
:1037A0000014014040030020FEE7FEE72DE9F0474A
:1037B0003E493F4B0A464E78147886B0621CD5B21B
:1037C0004FF00109002236B1012E09D0022E1CD083
:1037D000032E57D006E02C2804D181F8019010E088
:1037E00012280CD04A700A705FF0000023F81020F5
:1037F000401CC0B21228F9D306B0BDE8F0870222FF
:103800004A7023F814000D70F6E723F814000D70C9
:10381000122D01D25B28EFD1032048704C68142C84
:103820002CDA8A4603EB4500224930F9088C274AF6
:10383000A1F80080204930F904CC641CA1F800C034
:103840001E4930F9106C0E801D4930F90C7C0F8038
:103850001C4930F9183C0B801B4930F9145C0D8071
:1038600030F9201D1180B0F9042019480280CAF8EF
:1038700004408DE8E01117A0FCF772FD1E49C1F865
:103880000090B9E703EB440030F8020C5B280AD043
:103890004A700A705FF0000023F81020401CC0B28C
:1038A0001228F9D3A8E70A704A70A5E75C00002047
:1038B00084030020080000200A0000200C000020E3
:1038C0000E00002010000020120000201400002034
:1038D0001600002025642020256420202564202057
:1038E00025642020256420202564202025642020B4
:1038F00025640D0A000000003400002070472DE907
:10390000F0414FF431764FF4357440F25A274FF4BA
:103910004F752146304600F027FE4FF47A70FDF7D0
:1039200097F923461A463946304600F09FFB214658
:10393000384600F019FE6420FDF78AF939462B4617
:103940002246084600F0CAFB2946384600F00CFE25
:103950006420FDF77DF92B461A463146384600F0C3
:1039600085FB2946304600F0FFFD6420FDF770F925
:10397000314623462A46084600F0B0FB2146304631
:10398000BDE8F04100F0F0BD2DE9F05F40F2F22417
:1039900040F2AF2840F21A364FF41D79251F4FF43C
:1039A0001C7A40F2AD2B371D2146404600F0DCFD6D
:1039B0006420FDF74DF92B4622464946404600F06B
:1039C00055FB2946484600F0CFFD6420FDF740F93D
:1039D00033462A465146484600F080FB3146504661
:1039E00000F0C2FD6420FDF733F93B4632465946EC
:1039F000504600F03BFB3946584600F0B5FD6420C8
:103A0000FDF726F923463A464146584600F066FB44
:103A100021464046BDE8F05F00F0A6BD2DE9F04F1D
:103A2000AF4D6FF002062DED028B8BB0B5F90E0095
:103A300000906FF00308B5F90C30B5F90A20B5F91C
:103A40000810A8A0FCF78CFC4FF0050A0220B34632
:103A5000D146071F4446DFEDB28A0390B5F9040052
:103A6000B5F90820B7EE008A801A0A90B5F9060069
:103A7000B5F90A10401A0990B5F90C00121A08920B
:103A8000B5F90E20891A0291B5F91010401A079065
:103A9000B5F91200121A0692B5F91420891A059187
:103AA000B5F91610401A0490029800F08BFDCDE98C
:103AB000000141EC100B00F0A6FC9FED9A1B51ECAD
:103AC000100B53EC112B00F095FD08D2A3465E4677
:103AD0004FF0070AD14637466FF008041AE0DDE9D7
:103AE000000141EC100B00F08EFC9FED901B51EC9F
:103AF000100B53EC112B00F07DFD0BD226464FF03E
:103B0000040A6FF005074FF00709BC1E6FF00108AB
:103B1000CDF80CA00A9800EE100AB8EEC00AC0EE6C
:103B2000280A95ED070AB8EEC00A70EE800A00EE8A
:103B300010BAB8EEC00A30EE800ABDEEC00A10EE30
:103B4000100A0090099800EE100A0898B8EEC00A12
:103B5000C0EE080A95ED080AB8EEC00A70EE600AD9
:103B600000EE106AB8EEC00A30EE800ABDEEC00A60
:103B700010EE10BA00EE100A0098B8EEC00AC0EEBF
:103B8000280A00EE100A0298B8EEC00A70EE800A09
:103B900000EE10AAB8EEC00A30EE800ABDEEC00AF0
:103BA00010EE10AA00EE100A0798B8EEC00AC0EE98
:103BB000080A00EE10BAB8EEC00A70EE600A00EE15
:103BC000109AB8EEC00A30EE800ABDEEC00A10EEC0
:103BD000106A00EE100A0398B8EEC00AC0EE280A78
:103BE00000EE10AAB8EEC00A70EE800A00EE100ACD
:103BF0000698B8EEC00A30EE800ABDEEC00A10EE9C
:103C0000105A00EE100AB8EEC00AC0EE080A00EE24
:103C1000106AB8EEC00A70EE600A00EE107AB8EED4
:103C2000C00A30EE800ABDEEC00A10EE107A059888
:103C3000594600EE100A0498B8EEC00AC0EE280AF1
:103C400000EE105AB8EEC00A70EE800A00EE104A7C
:103C5000B8EEC00A30EE800ABDEEC00A10EE109A2F
:103C600000EE100A0098B8EEC00AC0EE080A00EE96
:103C7000107AB8EEC00A70EE600A00EE108AB8EE54
:103C8000C00A30EE800ABDEEC00A10EE104A00F005
:103C90006BFC4FF47A784046FCF7DAFF3146504629
:103CA00000F062FC4046FCF7D3FF3946284600F09E
:103CB0005BFC4046FCF7CCFF2146484600F054FC34
:103CC0004046FCF7C5FF5946009800F04DFC0BB08C
:103CD0004046BDEC028BBDE8F04FFCF7B9BF0000D9
:103CE00000000020785F6C6566745F746F703A2521
:103CF000642C795F6C6566745F746F703A25642C10
:103D0000785F72696768745F746F703A25642C79A4
:103D10005F72696768745F746F703A2564000000B1
:103D20003333733F0000000000003040000000000B
:103D300000003A4070477047FDF756BB30B593B06E
:103D400030216846FCF7F0FB14210CA8FCF7ECFBD3
:103D50001D480025016841F080510160006800F0B5
:103D6000805011901948016841F480410160006859
:103D7000022400F480401190012003901020049050
:103D8000009406940820CDE90750A820CDE9090445
:103D900004200B906846FDF7B5FC08B172B6FEE74B
:103DA0000CA90F2081E831004FF4A0500F904FF480
:103DB0008050109005210CA8FDF7B8FB002801D019
:103DC00072B6FEE713B030BD4038024000700040CC
:103DD0000248016841F470010160704788ED00E01D
:103DE0000148FDF7DBBF00009C0100200148FDF702
:103DF000D5BF0000E40100200148FDF7CFBF00005F
:103E00002C020020F0B50268254C264D264E274F87
:103E1000274B4FF0804CA04209D0604507D0A84204
:103E200005D0B04203D0B84201D0984204D122F06C
:103E3000700E4A6842EA0E02A0421BD0604519D0BB
:103E4000A84217D0B04215D0B84213D0984211D032
:103E5000184DA8420ED0184DA8420BD0174DA842BD
:103E600008D0174DA84205D0164DA84202D0164DD5
:103E7000A84203D122F44075CA682A434D6922F052
:103E800080022A4302608A68C2620A688262A04293
:103E900001D0984201D10969016301214161F0BD5E
:103EA000000001400004004000080040000C0040F9
:103EB000000401400040014000440140004801402E
:103EC00000180040001C00400020004010B501F028
:103ED0001F030121046A99408C430462016A9A40DD
:103EE0001143016210BD0000F0B5026A22F0010228
:103EF0000262036A42688469124E24F073050C68FA
:103F00002C4323F002058B682B430D4DA84201D0B2
:103F1000B04205D123F00807CB683B4323F00403EC
:103F2000A84201D0B04205D14D6922F44072154338
:103F30008A692A4342608461496841630362F0BD33
:103F40000000014000040140F0B5026A22F01002B6
:103F50000262026A436884690D6824F4E64444EA14
:103F600005248D6822F0200242EA05120F4D104E02
:103F7000A84201D0B04206D1CF6822F0800242EAC6
:103F8000071222F04002A84201D0B04207D14D6989
:103F900023F4406343EA85038D6943EA8503436064
:103FA0008461496881630262F0BD00000000014045
:103FB00000040140F0B5026A22F480720262026AD3
:103FC0004368C46922F4007224F073050C68124E31
:103FD0002C438D6842EA05220E4DA84201D0B04222
:103FE00006D1CF6822F4006242EA072222F48062FE
:103FF000A84201D0B04207D14D6923F4405343EAAF
:1040000005138D6943EA05134360C4614968C163C0
:104010000262F0BD000001400004014030B5026AB8
:1040200022F480520262046A4268C3690D6823F474
:10403000E64343EA05238D6824F4005444EA05343A
:10404000084DA84202D0084DA84204D14D6922F47F
:10405000804242EA85124260C36149680164046299
:1040600030BD000000000140000401402DE9F04790
:104070000446461A2DED028B99469246002530469D
:1040800000F0A0FA8846074614E0002E02DDA4F1F5
:10409000010402E001DA04F101040AEB090000EB7B
:1040A000D0704FEA6001204600F05EFA1420FCF761
:1040B000CFFD6D1C48EC107B00F0A5F9B0EE408AF6
:1040C000F0EE608A284600F07DFA53EC182B00F0E1
:1040D00091FADAD3BDEC028BBDE8F0872DE9F04709
:1040E0008246D61A2DED028B1446894600253046AD
:1040F00000F068FA8846074614E0002E02DDA4F1BD
:10410000010402E001DA04F101040AEB090000EB0A
:10411000D0704FEA6000214600F026FA1420FCF728
:1041200097FD6D1C48EC107B00F06DF9B0EE408AF5
:10413000F0EE608A284600F045FA53EC182B00F0A8
:1041400059FADAD3BDEC028BBDE8F08710B5806B6D
:104150000021C185C184FEF758F810BD01680C31FB
:1041600051E8002F22F4907241E80023002BF5D192
:104170000168143151E8002F22F0010241E80023C8
:10418000002BF5D1016B012909D101680C3151E8EF
:10419000002F22F0100241E80023002BF5D120214E
:1041A00080F83E1000210163704708B590F83E107A
:1041B000222901D0022008BD82684FF480539A4220
:1041C00001D1016921B1816A9A421BD04AB10AE04A
:1041D0000268816A5268C2F308020A80816A891CF7
:1041E00008E0026972B10268526802F07F020A7048
:1041F000816A491C8162C18D491E0904090CC1856F
:1042000003D019E002685268F1E70168CA6822F039
:104210002002CA600168CA6822F48072CA6001681C
:104220004A6922F001024A61202180F83E10016BA8
:10423000012903D0FEF738FA002008BD00210163F0
:1042400001680C3151E8002F22F0100241E80023F0
:10425000002BF5D101680A68D20602D50A684968C0
:104260000091818DFDF7D0FFE6E7000070B50446B0
:1042700000680169E26821F440511143016121693C
:10428000A068E26908436169114308432168CA686C
:1042900049F20C639A430243CA6020684169A269EB
:1042A00021F440711143416131492068884202D0B4
:1042B0003049884202D1FDF7E3F901E0FDF7D0F97A
:1042C000E2690023192164253226B2F5004F6268A5
:1042D00028D0A0FB0101930F9200FBF7CAFF014613
:1042E000B0FBF5F06FF01802504301EB800006EBD5
:1042F0000010B0FBF5F000F0F002B1FBF5F002EBBE
:104300000012B1FBF5F06FF01803584301EB800089
:1043100006EB0010B0FBF5F000F00F002168104430
:10432000886070BDA0FB010192185B41FBF7A1FF03
:104330000146B0FBF5F00201B1FBF5F06FF0180398
:10434000584301EB800006EBC000B0FBF5F000F035
:10435000F80002EB4002B1FBF5F0584301EB80009E
:1043600006EBC000B0FBF5F000F00700D6E7000058
:10437000001001400014014081628285C285002145
:104380000164222280F83E2080F83C10016921B1AE
:104390000168CA6842F48072CA6001684A6942F0E2
:1043A00001024A610068C16841F02001C16000203B
:1043B000704700000148FDF729BF0000740200208B
:1043C0000148FDF723BF0000B80200200148FDF7B7
:1043D0001DBF0000FC0200200148FDF717BF0000D0
:1043E00040030020FEE70907090E002804DB00F166
:1043F000E02080F80014704700F00F0000F1E0208A
:1044000080F8141D70472DED020B019820F000403C
:1044100001909DED000B02B0704730380A2801D2A0
:1044200001207047002070477047000003490A6868
:104430001206FCD5C2B24A6070470000001001406D
:104440003F4CE069E062206A2063FCF7D5FFFFF78C
:1044500075FCFEF753FFFFF72BF8FFF735F9FFF771
:104460005FF8FFF7ABF8FFF7F9F8FEF7E7FEFEF7A6
:10447000DFFFFEF7FDFFFFF743F9FFF75DF9FFF7F9
:1044800077F93048FDF752FB3C212E48FDF73EFC02
:104490002D48FDF74BFB00212B48FDF74FFE042173
:1044A0002948FDF74BFE08212748FDF747FE0C2160
:1044B0002548FDF743FE2548FDF738FB002123483A
:1044C000FDF73CFE04212148FDF738FE08211F4876
:1044D000FDF734FE0C211D48FDF730FE1C48FDF7AA
:1044E00025FB3C211A48FDF711FCD4E9070100F037
:1044F0003BF8012221461748FEF7C0F80122A11C13
:104500001548FEF7BBF8A16904F128000144012217
:104510001248FEF7B3F812A0FBF722FF0025606AED
:10452000022807D0032808D00428F8D1FFF776FA2C
:104530006562F4E7FFF7E3F9FAE7FFF725FAF7E733
:1045400000000020540100209C010020E401002014
:104550002C020020FC0200207402002040030020F6
:1045600073746172740D0A004FF461724FF4C87372
:10457000904201DD104602E0984200DA184691426E
:1045800001DD114602E0994200DA1946044A116041
:10459000121D1060034A106003480160704700005C
:1045A000340400405400002058000020491058BF37
:1045B000C1F140415B1058BFC3F140438B42EFF360
:1045C0000080704710F0004248BF4042B0FA80F3CC
:1045D00010FA03F10AD0C3F11D0303F580634FEA1B
:1045E000415002EB035202EBD12170474FF0000023
:1045F0007047000051EA030C17D41CF5801F58BF08
:10460000BCF5801F00F10680994218BF704708BFB3
:104610009042704707D711F5801F58BF13F5801FD0
:1046200019D499427047894270471CF5801F08D5FC
:10463000BCF5801FF7D58B4218BF704708BF824278
:1046400070474FF4001C1CEB410F38BF1CEB430FAD
:1046500001D28B42704770B500F008F892244900EF
:104660004FF000514FF08053FFF7A0BF0EF1020E44
:104670002EF0030E5EF8046B364205D4012A43EB9C
:10468000030515F5001F12D8012841EB010C1CF59C
:10469000001F0CD80ED14FEAD17C15F5001F0CEB92
:1046A0004C0C0CF1020C08BF4CEBD37C04E04FF037
:1046B000080C01E04FEAD37C0CEB4C0526FA05F61A
:1046C00006F00706B6F1040C06D20EEB860CBDE828
:1046D00070404CF0010C6047DFE80CF0090B02025F
:1046E0004FF000414FF00000A1F5002170BD1946C8
:1046F0001046012851EB010418BFD4F5001484BF03
:10470000002001F0004170BD4FF04070E1EE100A52
:1047100070470000000000000000010203040607CB
:104720000809000000000102030404000008000062
:1047300000000000000200010000100063757272AA
:10474000656E742020785F6C6566745F746F703A74
:1047500025642C20795F6C6566745F746F703A25F0
:10476000642C785F72696768745F746F703A25644F
:104770002C795F72696768745F746F703A25642C76
:10478000785F72696768745F626F74746F6D3A25E1
:10479000642C795F72696768745F626F74746F6D9F
:1047A0003A25642C785F6C6566745F626F74746F11
:1047B0006D3A25642C795F6C6566745F626F747402
:1047C0006F6D3A25640D0A00E847000800000020DC
:1047D00064000000C40100084C4800086400002088
:1047E000A4090000E00100080000000056003600A7
:1047F0003800280075002400790052003900550067
:10480000000000008F02000008030000000000000C
:104810000000000000000000000000000000000098
:104820000000000001000000100000000000000077
:104830000024F400800200001403000000000000C7
:0C4840000000000000000000000000006C
:040000050800018965
:00000001FF
