:020000040800F2
:1000000078090020310200084F3500086F260008EB
:100010004D35000821080008193B000800000000C9
:10002000000000000000000000000000553500083E
:10003000230800080000000051350008573500086B
:100040004B0200084B0200084B0200084B0200085C
:100050004B020008533500084B0200084B02000811
:100060004B0200084B0200084B0200084B0200083C
:100070004B0200084B0200084B0200084B0200082C
:100080004B0200084B020008ED0600084B02000876
:100090004B0200084B0200084B0200084B0200080C
:1000A0004B0200084B0200084B0200084B020008FC
:1000B000013600080D360008193600087D260008B4
:1000C0007126000895260008892600084B020008C2
:1000D0004B020008F53A0008013B00080D3B000800
:1000E0004B0200084B0200084B0200084B020008BC
:1000F0004B0200084B0200084B0200084B020008AC
:100100004B0200084B0200084B0200084B0200089B
:100110004B0200084B0200084B0200084B0200088B
:100120004B0200084B0200084B0200084B0200087B
:100130004B0200084B0200084B0200084B0200086B
:100140004B0200084B0200084B0200084B0200085B
:100150004B0200084B0200084B0200084B0200084B
:100160004B0200084B0200084B0200084B0200083B
:100170004B0200084B0200084B0200080000000080
:100180004B0200084B02000800F002F800F041F8B2
:100190000AA090E8000C82448344AAF10107DA45E2
:1001A00001D100F036F8AFF2090EBAE80F0013F0F3
:1001B000010F18BFFB1A43F001031847783B0000FA
:1001C000983B0000103A24BF78C878C1FAD852078B
:1001D00024BF30C830C144BF04680C6070470000C1
:1001E0000023002400250026103A28BF78C1FBD840
:1001F000520728BF30C148BF0B607047642900F028
:10020000BB80002070471FB503F07AFD1FBD10B5FD
:1002100010BD00F03FFA1146FFF7F5FF03F0A0FC18
:1002200000F05DFA03B4FFF7F2FF03BC03F08CFCAF
:100230000948804709480047FEE7FEE7FEE7FEE77A
:10024000FEE7FEE7FEE7FEE7FEE7FEE704480549B6
:10025000054A064B70470000F13500088901000887
:100260007803002078090020780500207805002018
:10027000704753EA020C00F069802DE9F04B4FF013
:100280000006002B1FBFB3FA83F503FA05F424FA26
:1002900005F65E4012BF1643B2FA82F502FA05F483
:1002A000C5F120051EBF22FA05FC44EA0C042035E6
:1002B00056EA044C4FEA144418BF641C4FF000087F
:1002C0004FF00009904271EB030C39D3002919BF9C
:1002D000B1FA81F701FA07F6B0FA80F700FA07F6EB
:1002E000C7F120071EBF20FA07FC46EA0C0620379C
:1002F000B6FBF4FCA7EB0507103F07F01F0BCBF193
:1003000020060CFA0BFB2CFA06F644BFB346002677
:10031000202FA4BF5E464FF0000B5BEA060C08BF1F
:100320004FF0010B19EB0B09ABFB027C48EB060805
:10033000C01B06FB02CC0BFB03CC71EB0C01C1E72D
:100340000B46024641464846BDE8F08B13B54FF0D8
:1003500000004FF00001AFF30080BDE81C40704783
:100360000FB4044910B503AA029800F061F910BC5B
:100370005DF814FB180000202DE9F041064600242A
:1003800010687529314616A510D0AFF300800028FB
:1003900002DA404213A507E031688A0701D512A5A9
:1003A00002E0490704D511A5012401E0AFF3008064
:1003B00000210A2206F1240709E0B0FBF2FCB0FBA1
:1003C000F2F302FB1C00303078541846491C002818
:1003D000F3D123462A463046BDE8F04100F0CFB8BD
:1003E000000000002D0000002B0000002000000095
:1003F0002DE9F05F894604464FF0000ADFF824B18A
:10040000FB44C0F820A02046E168884700287DD042
:10041000252806D0D4E901219047206A401C20629B
:10042000F1E700255F462046E16888472028064618
:1004300007DB312E05D2B81910F8200C08B105439E
:10044000F1E7A80701D525F00405C4F81CA0002792
:10045000C4F818A02A2E09D0304603F06EFB38B33A
:1004600004EB8708303EC8F8186019E059F8041BFF
:10047000204604EB87029161E1688847012F064618
:1004800018D1E069002820DA25F020051DE0D8F811
:10049000180000EB800006EB40003038C8F8180068
:1004A0002046E1688847064603F047FB0028EED166
:1004B000012F0AD02E2E08D12046E16888477F1CE4
:1004C0000646022F45F02005C4DBA069002803DAA8
:1004D000404245F00105A061E80701D025F0100574
:1004E000A6B1A6F14100192802D8203645F40065CE
:1004F0004A463146204625604D46FFF77FFE60B1F3
:10050000012807D0ED1D25F0070000E007E000F10D
:10051000080978E705F1040975E730467AE7206AAB
:10052000BDE8F09F1E3900004FF0000200B51346F1
:1005300094469646203922BFA0E80C50A0E80C5003
:10054000B1F12001BFF4F7AF090728BFA0E80C50B4
:1005500048BF0CC05DF804EB890028BF40F8042BAD
:1005600008BF704748BF20F8022B11F0804F18BF1A
:1005700000F8012B704770477047704770472DE9AE
:10058000F0470D4699469246044600F1240801685A
:10059000880604D5E06921F01001216000E0012007
:1005A000A84201DD471B00E00027A1697A1902EB90
:1005B0000900081AA0612078C00602D42046AFF3D3
:1005C0000080002608E0D4E901211AF806009047CF
:1005D000206A401C761C20624E45F4DB2078C00661
:1005E0000AD52046AFF3008006E0D4E9012130208F
:1005F0009047206A401C2062381EA7F10107F4DCF6
:1006000007E0D4E9012118F805009047206A401C52
:100610002062281EA5F10105F3DC2046AFF300801F
:100620002078000602D50220BDE8F0870120FBE714
:10063000074B70B50D467B4400F011F80446284680
:1006400000F020F810B14FF0FF3070BD204670BDB3
:100650001335000001694A1C02610878704700B533
:100660008FB0CDE901310021059105497944CDE9EB
:10067000031011466846FFF7BBFE0FB000BD000037
:10068000E5FFFFFF007B00F08000704700487047E7
:10069000180300207546FFF7F9FFAE4605006946CE
:1006A000534620F00700854618B020B5FFF7CEFD71
:1006B000BDE820404FF000064FF000074FF0000863
:1006C0004FF0000B21F00701AC46ACE8C009ACE8E4
:1006D000C009ACE8C009ACE8C0098D4670470446C3
:1006E000AFF300802046FFF79DFD0000014800F0B9
:1006F00045B900003C000020464910B54A6822F484
:1007000040324A604A6843681A434A6001684A684E
:1007100022F480724A6001684A68036942EA03224F
:100720004A6001684A6822F040724A6001684A687B
:1007300083681A434A6001688A6822F400628A600A
:1007400001688A68C3681A438A60816A6FF07062C0
:10075000D14201688A6822F070628A6001688A6802
:100760000CD0836A1A438A6001688A6822F040527A
:100770008A6001688A68C36A1A4301E022F0405225
:100780008A6001688A6822F002028A6001688A68C9
:10079000037E42EA43028A6090F820100029016833
:1007A0004A680FD042F400624A6001684A6822F445
:1007B00060424A6001684A68174C436A04EB43335D
:1007C0001A4301E022F400624A600168CA6A22F416
:1007D0007002CA620168CA6A838B104C04EB03532F
:1007E0001A43CA6201688A6822F400728A6001684A
:1007F0008A6890F8303042EA43228A6001688A6849
:1008000022F480628A6001688A68406942EA802036
:10081000886010BD0023014000E0FFFF0000F0FFF2
:10082000FEE7704772B6FEE77047000078B5002417
:10083000009490F83C20012A19D0012280F83C2035
:100840000A6807230568092A13D9EE680A3A02EBF9
:10085000420293409E43EE600B788A680A3B03EBAA
:1008600043039A400368DD682A43DA6010E00220FF
:1008700078BD2E6902EB420293409E432E610B78B5
:100880008A6803EB43039A4003681D692A431A618F
:100890004A681F23072A13D205686E6B521E02EBAB
:1008A000820293409E436E630B790A885B1E92B26C
:1008B00003EB83039A4003685D6B2A435A6327E086
:1008C00005680D2A12D22E6BD21F02EB82029340D2
:1008D0009E432E630B790A88DB1F92B203EB8303DE
:1008E0009A4003681D6B2A431A6311E0EE6A0D3AC1
:1008F00002EB820293409E43EE620B790A880D3B25
:1009000092B203EB83039A400368DD6A2A43DA62FA
:10091000164B0568144A9D4206D10D68122D03D16D
:10092000556845F48005556005689D4218D10B68EF
:10093000102B01D0112B13D1536843F400035360E3
:10094000096810290CD10A490A4A0968B1FBF2F179
:1009500001EB8101490000E0491E00910029FBD113
:1009600080F83C40002078BD002301400020014079
:100970002800002040420F007047704770B50446C1
:1009800000680668456816F0020F05F020012AD0BD
:1009900049B3216CC90603D4216C41F40071216470
:1009A000816811F0405F17D1217EA9B9C16A11F4A5
:1009B000700F02D0816849050ED4416821F02001F2
:1009C0004160206C20F480702064206CC00403D44B
:1009D000206C40F0010020642046FFF7CDFF216825
:1009E0006FF01200086016F0040F05F0800132D09D
:1009F00089B3206CC00603D4206C40F400502064FE
:100A00002068816811F4401F1ED1816B11F4401FD2
:100A100002D08168490517D44168490514D481681A
:100A200011F0405F10D1217E71B9416821F0800141
:100A30004160206C20F480502064206CC00503D4F9
:100A4000206C40F0010020642046FFF7EDFE216895
:100A50006FF00C00086016F0010F05F040010FD098
:100A600071B120680068C0070AD0206C40F4803063
:100A70002064204600F043F821686FF00100086010
:100A800016F0200F05F080610ED000290CD0606CAC
:100A900040F00200606420686FF020050560204689
:100AA000FFF76BFF2068056070BD70B504004FF064
:100AB000000503D0206C002610B107E0012070BDB6
:100AC000204600F01DF8666484F83C60206CC00687
:100AD00010D4206C20F4885040F00200206420469E
:100AE000FFF70AFE6664206C20F0020040F001006F
:100AF000206400E0012584F83C60284670BD704702
:100B000030B587B0044614216846FFF70DFD1D4936
:100B10002068884234D11C480024016841F4807167
:100B20000160006800F4807005901748143801686F
:100B300041F001010160016801F0010105910168C6
:100B400041F0020101600068032500F002000590F9
:100B5000F020CDE90005694602940C4800F078F8D1
:100B60000120CDE9000569460294094800F070F8BB
:100B700000221146122000F095FC122000F084FCA7
:100B800007B030BD00200140443802400000024060
:100B9000000402402DE9F0410446876D00F056F94B
:100BA000064694F835000025022806D080206065AE
:100BB00084F834500120BDE8F0812068016821F0FC
:100BC000160101602068416921F080014161206CBB
:100BD00008B9A06C20B12068016821F0080101600B
:100BE0002068016821F0010101600CE000F02EF99D
:100BF000801B052807D920206065032084F8350074
:100C000084F83450D7E720680068C007EED194F824
:100C10005C103F208840B860012084F8350084F8DB
:100C200034500020C7E790F83510022903D0802106
:100C3000416501207047052180F835100068016882
:100C400021F0010101600020704790F835007047E5
:100C50002DE9F84FDFF8BCA10022012503264FF053
:100C60000F090AF1040BAAF1040E00BF0B6805FA84
:100C700002F42340A34270D10F7907F00307012F3C
:100C800001D0022F16D187684FEA420806FA08FC05
:100C900027EA0C07D1F80CC00CFA08FC4CEA070C48
:100CA000C0F808C04768A7430C79C4F30014944007
:100CB0003C4344600C79E443A4070AD0C4684FEA7B
:100CC000420C06FA0CF7BC438F6807FA0CF727436F
:100CD000C7600C7904F00304022C12D1D40800EB95
:100CE000840CDCF820405707FF0E09FA07F824EAC5
:100CF0000804D1F8108008FA07F848EA0408CCF88C
:100D0000208004684FEA420C06FA0CF7BC430F79C6
:100D100007F0030707FA0CF7274307604C6814F441
:100D2000403F70D03C4C276847F4804727602468D8
:100D300022F0030704F480440094384C07EB040CC1
:100D4000DCF8084897074FEA177809FA08F7BC4318
:100D5000334FB84202D1002724E054E0314FB8426B
:100D600001D101271EE0304FB84201D1022719E01E
:100D70002E4FB84201D1032714E02D4FB84201D1C4
:100D800004270FE02B4FB84201D105270AE02A4F74
:100D9000B84201D1062705E0284FB84201D1072704
:100DA00000E0082707FA08F72743CCF80878DAF8B4
:100DB00000405746D1F804C09C435FEACC2C00D5D4
:100DC0001C433C60DBF800405F46D1F804C09C4304
:100DD0005FEA8C2C00D51C433C60DEF8004077466F
:100DE000D1F804C09C435FEA8C3C00D51C433C60B6
:100DF000084F083F3C68D1F804C09C435FEACC3CF4
:100E000000D51C433C60521C102AFFF42FAFBDE8F4
:100E1000F88F0000083C0140443802400030014097
:100E2000000002400004024000080240000C0240A2
:100E3000001002400014024000180240001C024052
:100E40000AB1816170470904FBE70000014880682E
:100E5000704700001C000020704770472DE9F041EA
:100E6000016804464A694E6890F83E000025D74361
:100E7000FA0506D4F243D20503D46FF4807201253B
:100E80004A61B90508D4F143C90505D422686FF455
:100E9000007145F002055161790525D4F143C9057A
:100EA00022D4638D94F83D10226B202808D13BB9E1
:100EB000212910D029290ED0282901D1212A0AD090
:100EC00022686FF48061516145F00405102806D056
:100ED000402804D008E0204601F0AEFF04E020687E
:100EE000016841F400710160380508D4F043C00581
:100EF00005D421686FF4006045F008054861002DB5
:100F000007D0206C284320642046BDE8F04101F062
:100F100025BCBDE8F0812DE9F04702680021536847
:100F2000C66A90F83E4090F83D50102C12D0402CEC
:100F300010D0046C002C7DD05469E443A6077AD409
:100F4000DE43B60577D4036C03B19169BDE8F04781
:100F500001F04EBF976951694FF42A0CC9435FEA0B
:100F6000C1784FF02A4904D066452AD04E4528D092
:100F700010E0DE43B6050DD4C16A614501D10121FF
:100F800003E0C16A494501D10821C162BDE8F047CB
:100F900001F098BE0E0716D4DE43B60513D4416C9B
:100FA000C9B21161416B09B1C96B29B9816B0029C3
:100FB00007D0C96B002904D00068416841F4006182
:100FC0004160BDE8F0878E0706D4DE43B60503D442
:100FD000BDE8F04701F0EABDFE43526876074FEAEC
:100FE00002521DD4002AECDB0A0608D4DA4352056B
:100FF00005D4490705D5BDE8F04701F07BBD490799
:10100000DFD4D9438905DCD4212D05D0402CD8D19B
:10101000BDE8F04701F09CBEBDE8F04701F028BDF7
:10102000002ACEDB4A060BD4DA43520508D449071E
:1010300008D501E00DE00EE0BDE8F04701F0A4BCEA
:101040004907BED4D9438905BBD4BDE8F04701F0B8
:1010500031BC916970E7E10606D4D943890503D410
:10106000BDE8F04701F02ABF2821212D27D0292DE6
:1010700025D0650655D4DD436D0552D4640752D59D
:1010800090F83D30448D002C9BD01269446A227048
:10109000426A521C4262428D521E4285428D002A93
:1010A0008FD12A2B8DD10268536823F4806353605B
:1010B0002222026380F83D1000F082F981E72506C4
:1010C00023D4DD436D0520D4640720D590F83D304E
:1010D000448D002CF2D0446A24781461426A521C78
:1010E0004262428D521E4285428D002AE6D1292B52
:1010F000E4D10268536823F48063536021220263C1
:1011000080F83D1000F05DF95BE76107D6D4D94364
:101110008905D3D4418D0029D0D0416A0978116165
:101120000AE06107CAD4D9438905C7D4418D002993
:10113000C4D01169426A1170416A491C4162418DF3
:10114000491E41853DE7704770B5040025D094F8ED
:101150003D00002520B984F83C50204600F0BEF840
:10116000242084F83D002068016821F0010101601D
:101170002068016841F4004101602068016821F4A1
:101180000041016000F05AFA4D4A6168914201D86D
:101190004C4900E04C49884201D2012070BD4B49C6
:1011A0002368B0FBF1F15E6826F03F060E435E60F7
:1011B0006368934206D94FF4967359434FF47A7398
:1011C000B1FBF3F12368491C1E6A26F03F06314348
:1011D00019626168914210D84900401EB0FBF1F2DB
:1011E000521CC2F30B02042A01D2042022E0B0FBFD
:1011F000F1F0401CC0F30B001CE0A268F2B301EB5D
:10120000C10303EB0116431EB3FBF6F35B1C43F46F
:1012100080431B0549D092B301EBC10202EB0111DF
:10122000401EB0FBF1F0401CC0F30B0040F48040C6
:1012300040F400402168CA694CF6FF739A4310439A
:10124000C861D4E9071001432068026822F0C00297
:1012500011430160D4E9030101432068826848F228
:10126000FF339A4311438160D4E9050108432168A3
:10127000CA6822F0FF021043C86001E00EE016E0E9
:101280002068016841F0010101602564202084F894
:101290003D00256384F83E50002070BD01EB4106FF
:1012A000431EB3FBF6F35B1CB3E70120C2E701EB7F
:1012B0004101401EB0FBF1F0401CC0F30B00B7E74A
:1012C000A086010080841E0000093D0040420F00FE
:1012D000704770477047704770470000F0B587B09F
:1012E000044614216846FFF71FF92668304C2F4F3B
:1012F00000252F481222032104231034BE4227D197
:10130000066846F002060660006800F002000590DC
:10131000CDE90313C0208DE8250069462548FFF775
:1013200097FC206840F4001020602068002200F440
:101330000010059011461F2000F0B4F81F2000F0A7
:10134000A3F800221146202000F0ACF8202028E06D
:10135000194FBE4227D1066846F020060660006895
:1013600000F0200005908DE82600CDE903136946C2
:101370001248FFF76DFC206840F480002060206870
:10138000002200F4800005901146212000F08AF828
:10139000212000F079F800221146222000F082F886
:1013A000222000F071F807B0F0BD000000540040AA
:1013B000303802400004024000580040001402404F
:1013C0007047704702488168027811448160704715
:1013D0001C0000200B4810B5016841F40071016049
:1013E000016841F480610160016841F4807101602D
:1013F000032000F077F80F2000F006F800F024F842
:10140000002010BD003C024070B50D4D04464FF465
:101410007A712878B1FBF0F00A490968B1FBF0F065
:1014200000F014FB48B9102C07D200222146501EB0
:1014300000F038F800206C6070BD012070BD000025
:101440001C000020280000200E4808B5016841F467
:1014500080410160006800F4804000900948001F4E
:10146000016841F0805101600068002200F0805066
:1014700000901146052000F015F8BDE80840052051
:1014800000F002B844380240002809DB00F01F02D7
:10149000012191404009800000F1E020C0F80011D6
:1014A00070470000F0B40E4B1B680C46C3F30223D8
:1014B000C3F10705042D00D90425191D072901D200
:1014C000002300E0DB1E012606FA05F1491E21403B
:1014D00099409E40761E16403143F0BC02F01DBB81
:1014E0000CED00E0064900F0070208684FF6FF0324
:1014F000184040EA0220034A104308607047000089
:101500000CED00E00000FA052DE9F0470E4605005D
:1015100065D0DFF81481D8F80000F7B200F00700BA
:10152000B04207D288F80070D8F8000000F0070039
:10153000B04254D128683D4C810712D5400703D5ED
:10154000206840F4E05020602878000703D5206828
:1015500040F4604020602068A96820F0F000084353
:1015600020602878C0072DD03049686808390128E4
:1015700012D0022813D0032811D009688907002946
:101580002DDA216821F0030101432160FFF75EFCA1
:10159000814641F2883A0EE009688903EFE709685D
:1015A0008901ECE7FFF752FCA0EB0901514502D994
:1015B0000320BDE8F0872068696800F00C00B0EBFC
:1015C000810FEFD1D8F80010404601F00701B14279
:1015D00007D90770006800F00700B04201D0012071
:1015E000E7E72878400705D52068E96820F4E0504F
:1015F000084320602878000706D52068296920F470
:10160000604040EAC100206000F038F82168084AD4
:10161000C1F30311515CC8400649086006480068E0
:10162000FFF7F2FE0020C4E7003C02400838024009
:101630000A3D000828000020200000200448054939
:1016400000680968044AC1F38221515CC8407047B0
:1016500028000020083802401A3D000804480549C7
:1016600000680968044AC1F34231515CC8407047C0
:1016700028000020083802401A3D0008154810B51F
:10168000006810F00C02144813D01449042A0FD03B
:10169000082A0ED10F4C241F2268236802F03F0253
:1016A0005B0207D52068C0F38810A0FB010106E0AB
:1016B000084610BD2168C1F38811A1FB0001002379
:1016C000FEF7D7FD2168C1F30141491C4900B0FB79
:1016D000F1F010BD083802400024F40040787D018C
:1016E0002DE9F84F04006ED02078DFF84C93C00746
:1016F000A9F104054AD009F104000168C1F3810190
:10170000012908D00068C0F3810002280AD1D9F865
:101710000000400206D52868800337D5606800289D
:10172000E1D033E06068B0F5803F10D0B0F5A02F75
:10173000286810D020F480302860286820F48020A9
:1017400028606068A8B1FFF781FB06460DE02868B5
:1017500040F48030F4E740F480202860F7E700BFD1
:10176000FFF774FB801B642873D828688003F7D5C3
:101770000CE0FFF76BFB064605E000BFFFF766FBDA
:10178000801B6428F0D828688003F7D42078DFF81D
:10179000AC8280074FF0000A3ED5A748001D0168C3
:1017A00011F00C0F08D00068C0F3810002280BD1A3
:1017B000D9F80000400207D42868800716D5E068F1
:1017C000012800D112E033E1E068B8B10120C8F887
:1017D0000000FFF73BFB064605E000BFFFF736FBC6
:1017E000801B0228C0D828688007F7D5286821699F
:1017F00020F0F80040EAC10028600DE0C8F800A021
:10180000FFF724FB064604E0FFF720FB801B0228BD
:101810001FD828688007F7D42078000722D5864F84
:1018200087486169703771B101210160FFF70EFBD4
:10183000064604E0FFF70AFB801B022809D8386837
:101840008007F7D50EE0C0F800A0FFF7FFFA0646C4
:1018500005E082E0FFF7FAFA801B02287DD838689D
:101860008007F7D42078400768D5DFF8CCB100278F
:101870000BF13C0BDBF80000C0000BD4DBF80010D0
:1018800041F08051CBF80010DBF80000012700F098
:10189000805000906B4E3068C00510D4306840F422
:1018A00080703060FFF7D2FA009005E0FFF7CEFAC3
:1018B0000099401A022850D83068C005F6D55E4E0F
:1018C000A0686C3601280FD00528306810D020F0B1
:1018D00001003060306820F004003060A068B8B1CA
:1018E000FFF7B4FA00900FE0306840F00100F4E731
:1018F00040F004003060F7E7FFF7A8FA0099411ABA
:1019000041F28830814266D830688007F4D50EE015
:10191000FFF79CFA009007E0FFF798FA0099411A48
:1019200041F28830814256D830688007F4D42FB114
:10193000DBF8001021F08051CBF80010A069C8B38B
:101940003D49091D0968C1F3810102294AD00228D5
:10195000504607D0C8F8600000E03CE0FFF776FA98
:1019600004463BE04746C8F86000FFF76FFA0646BA
:1019700005E000BFFFF76AFA801B02282BD8286811
:101980008001F7D4D4E907010843A16A2E4A490827
:1019900002EB0141626A41EA8211084394F82C107B
:1019A00040EA0161C9F8001001203866FFF74EFADD
:1019B000044606E03EE000BFFFF748FA001B02289D
:1019C00009D828688001F7D534E000BFFFF73EFA58
:1019D000001B022802D90320BDE8F88F2868800187
:1019E000F4D427E00128F7D0D9F80000E26900F428
:1019F000800191421CD1226A00F03F01914217D12F
:101A000047F6C071626A0140B1EB821F10D1A26A31
:101A10004FF0FF3300F4403103EB5202B1EB024FC1
:101A200006D194F82C1000F07060B0EB016F01D07B
:101A30000120D1E70020CFE70438024000004742F0
:101A4000800E4742007000400000FFFF10B5401EAE
:101A5000B0F1807F01D3012010BD4FF0E024606120
:101A60000F21601702F059F80020A06107202061C3
:101A7000002010BD7047704770B590F83C20012AD7
:101A800032D0012480F83C40022280F83D200368D7
:101A90005A689D6822F070060A6832435A60134BF8
:101AA00002689A4214D0B2F1804F11D0104B9A4282
:101AB0000ED0104B9A420BD00F4B9A4208D00F4BCE
:101AC0009A4205D00E4B9A4202D00E4B9A4204D154
:101AD000496825F080031943916080F83D4000215A
:101AE00080F83C10084670BD022070BD0000014027
:101AF0000004004000080040000C004000040140C9
:101B0000004001400018004090F83D10012901D02C
:101B100001207047022180F83D1000681149884279
:101B200014D0B0F1804F11D00F4988420ED00F4928
:101B300088420BD00E49884208D00E49884205D011
:101B40000D49884202D00D49884204D1816801F0D4
:101B50000701062903D0016841F00101016000205E
:101B600070470000000001400004004000080040F1
:101B7000000C0040000401400040014000180040FB
:101B80002DE9F0410D46040003D094F83D0018B152
:101B900008E00120BDE8F081002084F83C002046E8
:101BA00000F040F8022084F83D002068816844F28B
:101BB000070291438160211D206801F033FD2268F6
:101BC00090689169166A2B68AF69034340F203304D
:101BD000814341EA0721A868EF6908434FF6FC41B9
:101BE0008843E96840EA0720014328692F6A000119
:101BF00040EA0730084369686D6926F0AA0646EA9C
:101C00000515294393602268906154F8460B0162E0
:101C1000012004F81F09E0752076E0762077A07592
:101C20000020B7E710B586B0044614216846FEF7D9
:101C30007BFC2268274C002127480223A2421FD1A7
:101C4000254A1432146844F001041460126802F04A
:101C500001020592026842F010020260006800F082
:101C6000100005904FF420600090CDE90131012073
:101C7000CDE9031069461948FEF7EAFF06B010BD2A
:101C8000174CA242FAD1144A1032146844F00404EA
:101C90001460126802F004020592026842F0080221
:101CA0000260006800F0080005904FF4405000907A
:101CB000CDE90131CDE9031369460A48FEF7C8FFB3
:101CC000002211461E20FFF7EDFB1E20FFF7DCFB74
:101CD000D4E700000000014030380240001002400C
:101CE00000080040000C024070B590F83E600446C9
:101CF00090F83F5090F8423090F84320022021B1F4
:101D000004290ED0012E1BD114E0012E18D1012B75
:101D100016D184F83E0084F8420001220021206898
:101D200020E0012D0CD1012A0AD184F83F0084F86B
:101D3000430014E0012D03D1012B01D1012A01D070
:101D4000012070BD84F83E0084F83F0084F8420012
:101D500084F8430001220021206801F0C7FC012221
:101D60000421206801F0C2FC2068016841F00101F3
:101D70000160002070BD704770B5044600680169BD
:101D80004FF00005C943890715D4C168C9438907C5
:101D900011D4E91E01610120207720688069800745
:101DA000204602D0FFF7E7FF04E000F0EFF82046FE
:101DB00000F0B0F9257720680169C943490717D4B5
:101DC000C168C943490713D46FF0040101610220BF
:101DD00020772068806910F4407F204602D0FFF70A
:101DE000CAFF04E000F0D2F8204600F093F925770E
:101DF00020680169C943090716D4C168C9430907A6
:101E000012D46FF008010161042020772068C069B6
:101E10008007204602D0FFF7AEFF04E000F0B6F8DE
:101E2000204600F077F9257720680169C943C90683
:101E300017D4C168C943C90613D46FF010010161FA
:101E4000082020772068C06910F4407F204602D027
:101E5000FFF791FF04E000F099F8204600F05AF9EE
:101E6000257720680169C943C90708D1C168C943FA
:101E7000C90704D1891E0161204600F0B1F920682C
:101E80000169C943090609D4C168C943090605D4D3
:101E90006FF0800101612046FFF7ECFD20680169C9
:101EA000C943490609D4C168C943490605D46FF03E
:101EB00040010161204600F094F920680169C9439E
:101EC00089060BD4C168C943890607D46FF0200185
:101ED00001612046BDE87040FFF7CDBD70BD000038
:101EE00030B587B0044614216846FEF71DFB216813
:101EF000002421480225B1F1804F29D01F4A914288
:101F000024D1016841F002010160016801F0020181
:101F10000591016841F0040101600068694600F024
:101F20000400059022200090CDE901541448CDE929
:101F30000345FEF78DFE4FF4A0700090CDE90154EB
:101F400069461048CDE90345FEF782FE07B030BD73
:101F5000016841F0010101600068694600F001007C
:101F6000059048F20E000090CDE901540120CDE922
:101F700003400548E8E70000303802400004004014
:101F8000000402400008024000000240704770B5A3
:101F9000044690F83C0000260D4601280FD0012091
:101FA00084F83C006AB1042A1DD0082A2FD00C2ADC
:101FB0003FD00126002084F83C00304670BD02204E
:101FC00070BD206801F0A0FB2068816941F0080124
:101FD00081612068816921F0040181612068816943
:101FE0002A69114311E0206801F0BEFB2068816975
:101FF00041F4006181612068816921F4806181611F
:10200000206881692A6941EA02218161D2E720685A
:1020100001F0E0FB2068C16941F00801C16120685E
:10202000C16921F00401C1612068C1692A691143B5
:1020300011E0206801F002FC2068C16941F40061F0
:10204000C1612068C16921F48061C1612068C169F2
:102050002A6941EA0221C161ACE710B5040003D04E
:1020600094F83D0010B107E0012010BD002084F875
:102070003C00204600F01EF8022084F83D00211D9F
:10208000206801F0CFFA012084F8460084F83E0071
:1020900084F83F0084F8400084F8410084F842004E
:1020A00084F8430084F8440084F8450084F83D0037
:1020B000002010BD08B501681448B1F1804F14D05C
:1020C000134A914220D1016841F002010160006889
:1020D000002200F00200009011461D20FFF7E2F9F7
:1020E0001D20BDE80840FFF7CFB9016841F00101AC
:1020F00001600068002200F00100009011461C20E1
:10210000FFF7D0F91C20ECE708BD00004038024082
:10211000000400407047000010B50446022249B197
:1021200004290ED0082913D094F84100012816D0B4
:10213000012010BD94F83E000128F9D184F83E201A
:102140000FE094F83F000128F2D184F83F2008E026
:1021500094F840000128EBD184F8402001E084F895
:1021600041200122206801F0C1FA16492068164A70
:10217000884201D0904203D1436C43F4004343644E
:102180002068884213D0B0F1804F10D00F498842A8
:102190000DD00F4988420AD00E49884207D090429C
:1021A00005D00D49884202D00C49884204D181688B
:1021B00001F00701062903D0016841F00101016027
:1021C000002010BD00000140000401400004004058
:1021D00000080040000C0040004001400018004092
:1021E0007047704770477047F8B501680446086843
:1021F000CA684B6910F00F0F4FF000055AD003F07A
:10220000010602F49077374365D0C10705D0D105A8
:1022100003D5216C41F001012164410705D5D9079F
:1022200003D0216C41F002012164810705D5D90753
:1022300003D0216C41F004012164010707D502F0AD
:102240002001314303D0216C41F008012164216C4D
:1022500000293BD0800604D5900602D5204601F027
:1022600044FB20684069216CC0F3801001F0080134
:10227000014320462BD001F011FB20684069400645
:1022800021D52068143050E8001F21F0400140E8BB
:102290000012002AF5D1A06BA8B16C490165A06BB2
:1022A000FEF7C1FC002811D0A06B016D01B0BDE8A4
:1022B000F040084783060ED593060CD52046BDE8AE
:1022C000F84001F012BB2046FFF78DFFF8BDFFF785
:1022D0008AFF2564F8BD266B2023012E79D1C6061E
:1022E00077D5D60675D508684868009048694006D5
:1022F00040D5A16B086840680004000CEAD0A28DAC
:102300008242E7D9E085C869B0F5807F2DD020688A
:102310000C3050E8001F21F4807140E80012002AC0
:10232000F5D12068143050E8001F21F0010140E889
:102330000012002AF5D12068143050E8001F21F067
:10234000400140E80012002AF5D184F83E302563B0
:1023500020680C3050E8001F21F0100140E8001206
:10236000002AF5D1A06BFEF715FCA08DE18D401A77
:1023700081B229E0A08DE18D401A81B2E08D002864
:10238000A8D00029A6D020680C3050E8002F22F4F5
:10239000907240E80026002EF5D12068143050E8F5
:1023A000002F22F0010240E80026002EF5D184F82B
:1023B0003E30256320680C3050E8002F22F01002D8
:1023C00040E80023002BF5D12046FFF70BFFF8BDB6
:1023D000FFE705062BD5150629D594F83D002128E1
:1023E000F5D1A068B0F5805F01D12069B0B1206A55
:1023F000411C2162216800784860E08C401E000486
:10240000000CE084E3D12068C16821F08001C16044
:102410002068C16841F04001C160D8E7206A0088A7
:10242000C0F308004860206A801C2062E5E740068F
:10243000CDD55006CBD5CA68204622F04002CA60EE
:1024400084F83D3000F012F9C1E700008D38000833
:1024500070B5040004D094F83D00002510B106E0EA
:10246000012070BD84F83C50204600F023F8242061
:1024700084F83D002068C16821F40051C160204605
:1024800001F094FA2068016921F49041016120680B
:10249000416921F02A0141612068C16841F400517D
:1024A000C1602564202084F83D0084F83E000020AF
:1024B00070BD00002DE9F04186B004461421684645
:1024C000FEF732F8474922680024474802250326D0
:1024D00007278A4222D1444914310A6842F0100287
:1024E0000A60096801F010010591016841F00101DD
:1024F0000160006802AA00F0010005907002CDE9B9
:10250000000582E8D00069463848FEF7A1FB0022AA
:1025100001212520FEF7C6FF252026E03249344B55
:102520001031DFF8D0809A4224D10A6842F4003298
:102530000A60096801F400310591016841F0080161
:102540000160006802AA00F0080005906020CDE953
:10255000000582E8D00069464046FEF779FB00227C
:1025600001212620FEF79EFF2620FEF78DFF06B0F4
:10257000BDE8F081204B9A42F9D10A6842F48022EA
:102580000A60096801F480210591016841F00201A7
:102590000160016801F002010591016841F0080144
:1025A0000160006802AA00F008000590D814CDE987
:1025B000000582E8D00069461048FEF749FB4FF459
:1025C0008070CDE9000502AA694682E8D000404645
:1025D000FEF73EFB002201212720FEF763FF2720A4
:1025E000C3E7000000100140303802400000024004
:1025F00000440040000C024000480040000402403B
:1026000090F83E30202B0ED159B152B190F83C30A9
:10261000012B08D0012380F83C300023036301F034
:102620004BBA012070470220704700000D498842D4
:1026300017D1086843680C48A0F10C018A688354DC
:10264000521C8A60042A07D302880A8042884A8082
:1026500001220A6100228A60811801220148FFF7E5
:10266000CFBF7047D40200200C0000207047FEE767
:102670000148FEF7F3BB0000840000200148FEF78C
:102680004ABC0000840000200148FEF7E7BB0000C0
:10269000D80000200148FEF73EBC0000D800002012
:1026A00038B5806B002190F83D202B4B46F2A814E2
:1026B0001B68B3FBF4F3C3EBC30303EB8303009387
:1026C0003BB15B1E009303681B689B0505D5009B0F
:1026D000F6E7036C43F020030364436B03B1D96353
:1026E000836B03B1D96303681C6824F480641C60A5
:1026F0004185436B03B11965836B03B119650368A9
:102700001C6824F001041C6090F83D402023602CDC
:102710000BD0282434EA02020FD080F83D3080F834
:102720003E1000BFFEF70FFD38BD80F83D3080F849
:102730003E100164FEF790FB38BD0268136843F059
:10274000010313600268136843F48063136001633C
:1027500080F83D40E6E700002800002070B5044600
:1027600090F83D0094F83E10102901D0402906D180
:10277000222804D121680A6822F400620A60282114
:1027800031EA00024FF000054FF0200626D0216804
:102790004968090505D4602803D084F83D6084F8B1
:1027A0003E50256320684168090537D5416821F40A
:1027B00000614160606B90F835203C49012A11D0DE
:1027C0000165606BFEF72FFA38B32068016821F0CD
:1027D0000101016084F83D60606B1CE0256384F8B2
:1027E0003D10DFE7A06B0165A06BFEF71CFAA0B1FE
:1027F00020684169C943490605D40069616A0870C7
:10280000606A401C60622068016821F0010101607B
:1028100084F83D60A06B016D884710E094F83D108E
:10282000602910D04169C943490605D40069616A2D
:102830000870606A401C60622046FEF784FC206CD1
:10284000C1071CD115E084F83D6025644169C94386
:10285000490605D40069616A0870606A401C6062BC
:102860002068016821F0010101602046FEF7F4FABA
:10287000E5E7810703D4410701D4000704D52068A8
:10288000416821F4E061416094F83D00216C490702
:102890000BD5282809D10648E062256384F83D60FD
:1028A00084F83E502046FEF713FD70BDA1260008B7
:1028B0000000FFFF10B5C26A438D0168042B06D0EB
:1028C000438D032B08D0438D022B1DD012E04A68A4
:1028D00022F480624A600CE04B6823F480634B6012
:1028E000042A06D0022A04D001680A6822F4806211
:1028F0000A6001680969426A1170416A491C4162B3
:10290000418D491E418510BD012A30D0102A2ED09C
:10291000042A30D0022A2ED00A6842F400720A60DB
:1029200001680969426A1170416A491C4162428D1D
:10293000521E4285026812690A70416A491C41624E
:10294000418D491E418501684A6822F440724A60FF
:10295000202180F83D1090F83E200021402A80F888
:102960003E100CD012210163FEF7B3FC10BD0A68C3
:1029700022F48062D3E70A6842F48062CFE7016301
:10298000FEF7A9FC10BD000038B590F83D102229D3
:102990000FD1418D03290DD901680969426A11706F
:1029A000416A491C4162418D491E4185418D03297F
:1029B00006D038BDC26A022A02D0012906D029B148
:1029C0000068416821F48061416038BD274946F2C2
:1029D000A81300220968B1FBF3F101EB810100911A
:1029E00001682023009C641E009422D00C68A4057A
:1029F000F8D40C6824F480640C6001684C6824F4FA
:102A0000E0644C6001680969446A2170416A491CAC
:102A10004162418D491E418580F83D3090F83E105D
:102A200080F83E2040291DD012210163FEF751FCA1
:102A300038BD046C44F0200404644C6824F4E06461
:102A40004C6001680969446A2170416A491C41620D
:102A5000418D491E418580F83D3080F83E20FEF7CB
:102A600072FB38BD0263FEF736FC38BD280000203B
:102A700010B5C26A90F83D1021290BD1418D51B19A
:102A8000416A026809781161416A491C4162418DBD
:102A9000491E418510BD20230021082A13D0202A79
:102AA00011D012F5803F0ED00268546824F4E0641F
:102AB00054601122026380F83E1080F83D3000BF60
:102AC000FEF708FC10BD0268546824F4E06454600A
:102AD0000268146844F400741460016380F83D30A7
:102AE00090F83E2080F83E10402AE9D1FEF7F4FB32
:102AF00010BD000010B590F83D1090F83E30C26A4D
:102B0000048DB4B1212903D0402B11D122290FD13A
:102B1000418DE1B390F83E10402942D0416A0268ED
:102B200009781161416A491C4162418D491E418504
:102B300010BD2129E8D120230021082A13D0202A02
:102B400011D012F5803F0ED00268546824F4E0647E
:102B500054601122026380F83E1080F83D3000BFBF
:102B6000FEF7B8FB10BD0268546824F4E0645460BA
:102B70000268146844F400741460016380F83D3006
:102B800090F83E2080F83E10402AE9D100E002E0B3
:102B9000FEF7A2FB10BD0068416821F4806141602E
:102BA00010BDBDE8104000F0D3B8000078B590F833
:102BB0003E50C26A036B90F83D6000240168222EEB
:102BC0007AD1066D0EB9402D76D0056D1DB9056917
:102BD000B5F5404F09D0458D05B3468D384D012ED2
:102BE0000ED0438D022B3AD05DE04A698A6900928B
:102BF0000A6842F480720A60016D491C016578BD63
:102C0000AA4213D10A6822F480620A6001684A6805
:102C1000120503D50A6822F4806216E04A698A69BF
:102C200000920A6842F400720A6039E0082A10D063
:102C3000202A0ED0122B0AD0042A03D0022A01D057
:102C4000102AE7D10A6842F480620A6024E0012A6F
:102C5000E0D00A6822F480620A600168DEE7042A94
:102C600021D0022A1FD0102A1DD00B6823F48063C4
:102C70000B6001680B6843F400630B6001684B68EC
:102C80001B0509D5AA4212D0012A10D0082A0ED05D
:102C9000102A0CD0202A0AD001684A69896900915B
:102CA000046578BD08E00B6843F48063E5E74A6893
:102CB00042F480524A60EFE7486988690090F0E783
:102CC0000000FFFF90F83E10402910D00169B1F5D7
:102CD000804F19D0016DA9B3016D012910D1416C4C
:102CE0005FF0F10201F4407142EAD11106E0016D9A
:102CF0000029416C05D0C9B241F0010100680161B1
:102D0000704701F0FE01F9E790F83D102129416C70
:102D100009D0C9B241F0010102681161416B29B1CA
:102D2000C96B49B902E001F0FE01F5E7816B0029AA
:102D3000E6D0C96B0029E3D00068416841F4006126
:102D400041607047FFE7416CF02201F44071CBE72E
:102D500010B590F83D10026D22B3026D012A2FD0FC
:102D6000026D022A1DD122292FD0428D0AB12129BC
:102D700033D0428D002A14D1212912D101684A682A
:102D800022F4E0624A6001680A6842F400720A6054
:102D900000210163202280F83D2080F83E10FEF7DC
:102DA0009BFA10BDC16C0129816C02D0C1F30721CF
:102DB00008E00268C9B21161016D891C016510BD8E
:102DC000816CC9B20268116104E001680A6842F4CA
:102DD00080720A60016D491CF0E7416A0268097857
:102DE0001161416A491C4162418D491E418510BDF6
:102DF00038B50C4690F83D200021282595430268FF
:102E00000B4605D051699169009180F83C3038BD7E
:102E1000556825F480655560E243540700D50121CB
:102E2000120601D5828900E0028B80F83C3092B214
:102E3000FEF713F838BD00002DE9F04190F83D4051
:102E4000C26A002320261C4F01686FF48065082A9F
:102E500001D0202A01D1282C04D0212C16D04D617C
:102E6000BDE8F081C7624A6822F4E0624A60016806
:102E70004D6101680A6822F480620A60036380F889
:102E80003D6080F83E30FEF723FAE9E7C762212271
:102E9000026380F83D6080F83E304A6822F4E062C8
:102EA0004A6001684D6101680A6822F480620A6024
:102EB000FEF787FAD4E700000000FFFFF8B590F8AE
:102EC0003D6004460068416821F4E061416020688B
:102ED000002541690091016841F00101016020680D
:102EE000016821F48061016020684168090520D5EE
:102EF000474F222E48D02A2E46D0616B0968496878
:102F00006185618D19B1216C41F004012164416832
:102F100021F400614160606BFDF797FE012808D045
:102F2000606B0765606BFDF77EFE10B1606B016D35
:102F30008847608D08B320684169C943490708D4B0
:102F40000069616A0870606A401C6062608D401EA2
:102F5000608520684169C943490608D40069616AEF
:102F60000870606A401C6062608D401E6085608DE4
:102F700018B1206C40F004002064206C00B320469F
:102F8000BDE8F840FFF7EABBA16B096849686185B5
:102F9000618D19B1216C41F004012164416821F473
:102FA00000614160A06BFDF750FE0128C1D0A06B0D
:102FB0000765A06BFDF737FE0028BAD0A06BB6E717
:102FC0002A2E06D12563282084F83D002046FEF7EE
:102FD000F7F994F83D10202028290DD0216B2229E3
:102FE00001D0222E07D1256384F83D0084F83E509D
:102FF0002046FEF7E5F9F8BD0649E162256384F84D
:103000003D0084F83E502046FEF762F9F8BD00000E
:10301000A12600080000FFFF2DE9FF4100242C48F5
:1030200000940194029429490394016001254FF40E
:1030300080310561C0E90114057680F820402549FA
:10304000C0E90A140526C661C46080F830404561B5
:10305000FDF72BFD08B1FDF7E5FB0427CDE9007571
:1030600069461B480295FDF7E1FB08B1FDF7DAFB65
:1030700002200096CDE9010469461548FDF7D6FB0C
:1030800008B1FDF7CFFB06200090032001906946B0
:103090000F48FDF7CBFB08B1FDF7C4FB0720CDE9D6
:1030A000000769460A48FDF7C1FB08B1FDF7BAFB06
:1030B0000820CDE9000669460548FDF7B7FB002862
:1030C00001D0FDF7AFFBBDE8FF810000002001400B
:1030D0003C0000200100000F30B587B01421684685
:1030E000FDF722FA42480024016841F00401016022
:1030F000016801F004010591016841F020010160BF
:10310000016801F020010591016841F08001016032
:10311000016801F080010591016841F00101016041
:10312000016801F001010591016841F002010160AF
:10313000016801F002010591016841F01001016090
:10314000016801F010010591016841F0080101607A
:10315000016801F008010591016841F0400101603A
:103160000068244D00F04000059001224FF4884192
:103170002846FDF765FE00224FF430412846FDF752
:103180005FFE4FF4744000900120CDE901046946D0
:1031900028460394FDF75CFD2815CDE90004694637
:1031A00015480294FDF754FD8020CDE900046946DE
:1031B00012480294FDF74CFD4FF4D060CDE90004B5
:1031C00069460F480294FDF743FDA815CDE90004B8
:1031D00069460C480294FDF73BFD8420CDE90004CC
:1031E000694609480294FDF733FD07B030BD000081
:1031F0003038024000100240000402400018024033
:103200000008024000000240000C02400D4810B5CA
:103210000B4901600C49416000214FF480428160FC
:10322000C0E9031241618161C1610162FDF78CFF58
:10323000002803D0BDE81040FDF7F4BA10BD00002F
:103240000054004084000020A08601000D4810B505
:103250000B4901600C49416000214FF480428160BC
:10326000C0E9031241618161C1610162FDF76CFF38
:10327000002803D0BDE81040FDF7D4BA10BD00000F
:1032800000580040D8000020A086010010B58CB086
:1032900024216846FDF748F9002417480994154988
:1032A0000A9401600321C0E901144FF6FF72C0E9DE
:1032B00003244461846100910120CDE901400F2184
:1032C000CDE90341CDE90540CDE9074169460A480A
:1032D000FEF756FC08B1FDF7A5FA099409A90648BE
:1032E0000A94FEF7C9FB002801D0FDF79BFA0CB049
:1032F00010BD0000000001402C01002010B58AB074
:10330000002407941C2168460894FDF70DF9214814
:103310004FF08041C0E9001440F2E731C0E90241BA
:1033200004618461FEF799FE08B1FDF77BFA07940A
:1033300007A918480894FEF79FFB08B1FDF772FA39
:103340006020CDE9000402940022694611480494EB
:10335000FEF71DFE08B1FDF765FA042269460D4827
:10336000FEF715FE08B1FDF75DFA08226946094827
:10337000FEF70DFE08B1FDF755FA0C226946054827
:10338000FEF705FE08B1FDF74DFA0248FEF7A8FD6D
:103390000AB010BD7401002010B58AB00024079453
:1033A0001C2168460894FDF7BFF8224820490160B7
:1033B000A721C0E9011444F61F61C0E90314846128
:1033C000FEF74BFE08B1FDF72DFA079407A919483F
:1033D0000894FEF751FB08B1FDF724FA6020CDE90F
:1033E000000402940022694612480494FEF7CFFDBF
:1033F00008B1FDF717FA042269460E48FEF7C7FD2B
:1034000008B1FDF70FFA082269460A48FEF7BFFD2A
:1034100008B1FDF707FA0C2269460648FEF7B7FD2A
:1034200008B1FDF7FFF90348FEF75AFD0AB010BDD9
:1034300000040040BC01002010B58CB02421684677
:10344000FDF772F800241648099414490A940160A3
:103450000321C0E901144FF6FF72C0E9032484611F
:1034600000910120CDE9014003940494CDE9054089
:10347000079469460A480894FEF782FB08B1FDF7F5
:10348000D1F9099409A906480A94FEF7F5FA00282B
:1034900001D0FDF7C7F90CB010BD000000080040D6
:1034A000040200200C4810B50A4901604FF4E131D4
:1034B0004160002181600C22C160C0E90412816179
:1034C000C161FEF7C5FF002803D0BDE81040FDF73D
:1034D000A9B910BD001001404C0200200C4810B5E5
:1034E0000A4901604FF4E1314160002181600C2202
:1034F000C160C0E904128161C161FEF7A9FF002823
:1035000003D0BDE81040FDF78DB910BD0044004068
:10351000900200200C4810B50A4901604FF4E131D7
:103520004160002181600C22C160C0E90412816108
:10353000C161FEF78DFF002803D0BDE81040FDF704
:1035400071B910BD00480040D4020020FEE7FEE73C
:10355000704770477047FDF735BF000030B593B036
:1035600030216846FCF7E0FF14210CA8FCF7DCFFD3
:103570001D480025016841F080510160006800F09D
:10358000805011901948016841F480410160006841
:10359000022400F480401190012003901020049038
:1035A000009406940820CDE90750A820CDE909042D
:1035B00004200B906846FEF793F808B172B6FEE758
:1035C0000CA90F2081E831004FF4A0500F904FF468
:1035D0008050109005210CA8FDF796FF002801D01F
:1035E00072B6FEE713B030BD4038024000700040B4
:1035F0000248016841F470010160704788ED00E005
:103600000148FEF7B9BB0000740100200148FEF735
:10361000B3BB0000BC0100200148FEF7ADBB0000B9
:1036200004020020F0B50268254C264D264E274F97
:10363000274B4FF0804CA04209D0604507D0A842EC
:1036400005D0B04203D0B84201D0984204D122F054
:10365000700E4A6842EA0E02A0421BD0604519D0A3
:10366000A84217D0B04215D0B84213D0984211D01A
:10367000184DA8420ED0184DA8420BD0174DA842A5
:1036800008D0174DA84205D0164DA84202D0164DBD
:10369000A84203D122F44075CA682A434D6922F03A
:1036A00080022A4302608A68C2620A688262A0427B
:1036B00001D0984201D10969016301214161F0BD46
:1036C000000001400004004000080040000C0040E1
:1036D0000004014000400140004401400048014016
:1036E00000180040001C00400020004010B501F010
:1036F0001F030121046A99408C430462016A9A40C5
:103700001143016210BD0000F0B5026A22F001020F
:103710000262036A42688469124E24F073050C68E1
:103720002C4323F002058B682B430D4DA84201D09A
:10373000B04205D123F00807CB683B4323F00403D4
:10374000A84201D0B04205D14D6922F44072154320
:103750008A692A4342608461496841630362F0BD1B
:103760000000014000040140F0B5026A22F010029E
:103770000262026A436884690D6824F4E64444EAFC
:1037800005248D6822F0200242EA05120F4D104EEA
:10379000A84201D0B04206D1CF6822F0800242EAAE
:1037A000071222F04002A84201D0B04207D14D6971
:1037B00023F4406343EA85038D6943EA850343604C
:1037C0008461496881630262F0BD0000000001402D
:1037D00000040140F0B5026A22F480720262026ABB
:1037E0004368C46922F4007224F073050C68124E19
:1037F0002C438D6842EA05220E4DA84201D0B0420A
:1038000006D1CF6822F4006242EA072222F48062E5
:10381000A84201D0B04207D14D6923F4405343EA96
:1038200005138D6943EA05134360C4614968C163A8
:103830000262F0BD000001400004014030B5026AA0
:1038400022F480520262046A4268C3690D6823F45C
:10385000E64343EA05238D6824F4005444EA053422
:10386000084DA84202D0084DA84204D14D6922F467
:10387000804242EA85124260C36149680164046281
:1038800030BD0000000001400004014010B5806B15
:103890000021C185C184FEF7A6FC10BD01680C3172
:1038A00051E8002F22F4907241E80023002BF5D15B
:1038B0000168143151E8002F22F0010241E8002391
:1038C000002BF5D1016B012909D101680C3151E8B8
:1038D000002F22F0100241E80023002BF5D1202117
:1038E00080F83E1000210163704708B590F83E1043
:1038F000222901D0022008BD82684FF480539A42E9
:1039000001D1016921B1816A9A421BD04AB10AE012
:103910000268816A5268C2F308020A80816A891CBF
:1039200008E0026972B10268526802F07F020A7010
:10393000816A491C8162C18D491E0904090CC18537
:1039400003D019E002685268F1E70168CA6822F002
:103950002002CA600168CA6822F48072CA600168E5
:103960004A6922F001024A61202180F83E10016B71
:10397000012903D0FEF75AFE002008BD0021016393
:1039800001680C3151E8002F22F0100241E80023B9
:10399000002BF5D101680A68D20602D50A68496889
:1039A0000091818DFEF71EFCE6E7000070B504462D
:1039B00000680169E26821F4405111430161216905
:1039C000A068E26908436169114308432168CA6835
:1039D00049F20C639A430243CA6020684169A269B4
:1039E00021F440711143416131492068884202D07D
:1039F0003049884202D1FDF731FE01E0FDF71EFE9D
:103A0000E2690023192164253226B2F5004F62686D
:103A100028D0A0FB0101930F9200FCF72AFC01467D
:103A2000B0FBF5F06FF01802504301EB800006EB9D
:103A30000010B0FBF5F000F0F002B1FBF5F002EB86
:103A40000012B1FBF5F06FF01803584301EB800052
:103A500006EB0010B0FBF5F000F00F0021681044F9
:103A6000886070BDA0FB010192185B41FCF701FC6E
:103A70000146B0FBF5F00201B1FBF5F06FF0180361
:103A8000584301EB800006EBC000B0FBF5F000F0FE
:103A9000F80002EB4002B1FBF5F0584301EB800067
:103AA00006EBC000B0FBF5F000F00700D6E7000021
:103AB000001001400014014081628285C28500210E
:103AC0000164222280F83E2080F83C10016921B177
:103AD0000168CA6842F48072CA6001684A6942F0AB
:103AE00001024A610068C16841F02001C160002004
:103AF000704700000148FEF777BB00004C02002031
:103B00000148FEF771BB0000900200200148FEF75B
:103B10006BBB0000D4020020FEE70907090E002855
:103B200004DB00F1E02080F80014704700F00F0083
:103B300000F1E02080F8141D704730380A2801D2C7
:103B400001207047002070477047000003490A6851
:103B50001206FCD5C2B24A60704700000010014056
:103B6000FDF738FCFFF7FAFCFFF7B6FAFFF78EFB1C
:103B7000FFF798FCFFF7C2FBFFF70EFCFFF75CFCBA
:103B8000FFF74AFAFFF742FBFFF760FBFFF7A6FCDF
:103B9000FFF7C0FC2748FDF7B7FF3C212548FEF79B
:103BA000A3F82548FDF7B0FF00212348FEF7B4FA3B
:103BB00004212148FEF7B0FA08211F48FEF7ACFAAD
:103BC0000C211D48FEF7A8FA1C48FDF79DFF0021B7
:103BD0001A48FEF7A1FA04211848FEF79DFA0821B9
:103BE0001648FEF799FA0C211448FEF795FA144886
:103BF000FDF78AFF3C211248FEF776F846210020A7
:103C000000F066F80F480122A0F10C04A1680144FD
:103C10000D48FEF7F5FC0DA0FCF7A2FB002520697E
:103C20000028FCD0B4F90210B4F9000000F012F83A
:103C30002561F4E72C01002074010020BC01002064
:103C4000040200200C000020D40200207374617272
:103C5000740D0A0010B5194C6FF009030A28226888
:103C600001DD521D02E0984201DA521F2260134822
:103C70000A29406801DD401F02E0994201DA401D37
:103C80006060616800205A2902DD5A21616002E00B
:103C9000002900DA6060B42A01DDB42001E0002AC6
:103CA00000DA2060D4E9000100F012F8D4E9001233
:103CB000BDE8104002A0FCF753BB00002C00002020
:103CC000616E676C65203A2564202025640D0A002A
:103CD00040F2B6325043B42290FBF2F04FF4AF7290
:103CE00051435A2291FBF2F1F930044AF93189B279
:103CF00080B21160111D086070470000340400405C
:103D00004FF04070E1EE100A704700000000000024
:103D10000000010203040607080900000000010278
:103D2000030404000008000000000000000200017D
:103D300000001000543D0008000000203C0000007E
:103D4000C4010008903D00083C0000203C09000030
:103D5000E00100080000000000000000000000007A
:103D60000000000000000000000000000000000053
:103D70000100000010000000000000000024F4001A
:103D800032000000320000000000000000000000CF
:040000050800018965
:00000001FF
