:020000040800F2
:10000000300C0020890200087F5000083F3F0008A4
:100010007D500008051800089564000800000000E5
:10002000000000000000000000000000ED59000882
:10003000551B00080000000049540008EF59000853
:10004000A3020008A3020008A3020008A3020008FC
:10005000A30200089D580008A3020008A30200089C
:10006000A3020008A3020008A3020008A3020008DC
:10007000A3020008A3020008A3020008A3020008CC
:10008000A3020008A3020008A3020008A3020008BC
:10009000A3020008A3020008A3020008A3020008AC
:1000A000A3020008995A0008A3020008A30200084E
:1000B000A55A0008B15A0008BD5A00084D3F000873
:1000C000413F0008653F0008593F0008A3020008AF
:1000D000A302000865640008716400087D640008DC
:1000E000A3020008A3020008A3020008A30200085C
:1000F000A3020008A3020008A3020008A30200084C
:10010000A3020008A3020008A3020008A30200083B
:10011000A3020008A3020008A3020008A30200082B
:10012000A3020008A3020008A3020008A30200081B
:10013000A3020008A3020008A3020008A30200080B
:10014000A3020008A3020008A3020008A3020008FB
:10015000A3020008A3020008A302000889640008A3
:10016000A3020008A3020008A3020008A3020008DB
:10017000A3020008A3020008A30200080000000078
:10018000A3020008A302000800F002F800F06CF8D7
:100190000AA090E8000C82448344AAF10107DA45E2
:1001A00001D100F061F8AFF2090EBAE80F0013F0C8
:1001B000010F18BFFB1A43F001031847807B0000B2
:1001C000A07B00000A444FF0000C10F8013B13F034
:1001D000070408BF10F8014B1D1108BF10F8015BA0
:1001E000641E05D010F8016B641E01F8016BF9D193
:1001F00013F0080F1EBF10F8014BAD1C0C1B09D1EA
:100200006D1E58BF01F801CBFAD505E014F8016B5B
:1002100001F8016B6D1EF9D59142D6D370470000ED
:100220000023002400250026103A28BF78C1FBD8FF
:10023000520728BF30C148BF0B607047662906F0DF
:10024000D187642900F0C480002070471FB506F0F4
:10025000C4FF00F039FC04000020002106F084FAFD
:10026000E0601FBD10B510BD00F046FD1146FFF760
:10027000EDFF06F06FF900F064FD03B4FFF7F2FF45
:1002800003BC06F05CF900000948804709480047B4
:10029000FEE7FEE7FEE7FEE7FEE7FEE7FEE7FEE736
:1002A000FEE7FEE704480549054A064B7047000093
:1002B000895A00088901000830060020300C00200F
:1002C0003008002030080020704753EA020C00F08C
:1002D00069802DE9F04B4FF00006002B1FBFB3FAE9
:1002E00083F503FA05F424FA05F65E4012BF1643BF
:1002F000B2FA82F502FA05F4C5F120051EBF22FA12
:1003000005FC44EA0C04203556EA044C4FEA144438
:1003100018BF641C4FF000084FF00009904271EBC9
:10032000030C39D3002919BFB1FA81F701FA07F696
:10033000B0FA80F700FA07F6C7F120071EBF20FACF
:1003400007FC46EA0C062037B6FBF4FCA7EB0507D2
:10035000103F07F01F0BCBF120060CFA0BFB2CFA19
:1003600006F644BFB3460026202FA4BF5E464FF0DA
:10037000000B5BEA060C08BF4FF0010B19EB0B09F1
:10038000ABFB027C48EB0608C01B06FB02CC0BFB58
:1003900003CC71EB0C01C1E70B46024641464846CF
:1003A000BDE8F08B13B54FF000004FF00001AFF344
:1003B0000080BDE81C4070470FB4044910B503AA83
:1003C000029800F06FFB10BC5DF814FB44010020A4
:1003D0002DE9F0410646002410687529314616A51E
:1003E00010D0AFF30080002802DA404213A507E0E6
:1003F00031688A0701D512A502E0490704D511A585
:10040000012401E0AFF3008000210A2206F1240755
:1004100009E0B0FBF2FCB0FBF2F302FB1C00303051
:1004200078541846491C0028F3D123462A46304602
:10043000BDE8F04100F0CFB8000000002D00000042
:100440002B000000200000002DE9F05F89460446E3
:100450004FF0000ADFF824B1FB44C0F820A020468A
:10046000E168884700287DD0252806D0D4E90121FD
:100470009047206A401C2062F1E700255F46204635
:10048000E16888472028064607DB312E05D2B819D7
:1004900010F8200C08B10543F1E7A80701D525F0B5
:1004A0000405C4F81CA00027C4F818A02A2E09D0FF
:1004B000304606F03DF838B304EB8708303EC8F804
:1004C000186019E059F8041B204604EB870291617B
:1004D000E1688847012F064618D1E069002820DA34
:1004E00025F020051DE0D8F8180000EB800006EB91
:1004F00040003038C8F818002046E16888470646B2
:1005000006F016F80028EED1012F0AD02E2E08D1C1
:100510002046E16888477F1C0646022F45F02005EB
:10052000C4DBA069002803DA404245F00105A06160
:10053000E80701D025F01005A6B1A6F14100192861
:1005400002D8203645F400654A46314620462560EB
:100550004D46FFF773FE60B1012807D0ED1D25F071
:10056000070000E007E000F1080978E705F1040959
:1005700075E730467AE7206ABDE8F09FAC77000067
:100580004FF0000200B5134694469646203922BF2C
:10059000A0E80C50A0E80C50B1F12001BFF4F7AF77
:1005A000090728BFA0E80C5048BF0CC05DF804EB59
:1005B000890028BF40F8042B08BF704748BF20F8C7
:1005C000022B11F0804F18BF00F8012B70477047C5
:1005D0007047704770472DE9F0470D46994692469F
:1005E000044600F124080168880604D5E06921F07A
:1005F0001001216000E00120A84201DD471B00E05E
:100600000027A1697A1902EB0900081AA061207875
:10061000C00602D42046AFF30080002608E0D4E9EB
:1006200001211AF806009047206A401C761C2062BF
:100630004E45F4DB2078C0060AD52046AFF3008093
:1006400006E0D4E9012130209047206A401C206256
:10065000381EA7F10107F4DC07E0D4E9012118F8FE
:1006600005009047206A401C2062281EA5F1010564
:10067000F3DC2046AFF300802078000602D502208C
:10068000BDE8F0870120FBE770472DE9FF4F0C46DE
:100690001E464FF0FF378BB0D2E90001DDF86080D5
:1006A0000A908A46C1F30A5505B93D46002108461D
:1006B0004FF00000BAF1000F00F4400005DA00EB43
:1006C00080004FF4400101EA50004FEA9059B9F11F
:1006D000010F00DDB9460A9850EA4A000ED044F6F0
:1006E0001050A5F2FF3545432F14B8F1000F1ED06E
:1006F0007542291E1EDDC9F100021CE0B8F1010F90
:100700004FF0000001D0302103E0F24305E0215416
:10071000401CB042FBDB30460022002121540B99E3
:10072000C1F80880C1E900200FB0BDE8F08FBD1B03
:100730006D1CDEE74A4600DA694206A800F066FA58
:1007400006AB93E8070003AB83E8070050460A991D
:1007500000F03EFB8DE80700A0F500501F38009028
:100760000398002D09DD42F21F014A46084403A9FF
:100770000390684600F09DFD08E0A0F500504A4651
:100780001F3803A90390684600F0A7FD8DE8070015
:100790000004000C03D04FF0FF30410800E0104689
:1007A000B8F1000F03D00022009215461EE0751E1E
:1007B00005D400F08DF9303262556D1EF9D5B3467F
:1007C0000122084302D000227F1C04E02078302858
:1007D00001D100227F1E002A099786D01DE0112D2D
:1007E00007DA00F075F9303262556D1C50EA0102EB
:1007F000F5D1084302D00098C8B10EE00021681E70
:1008000005E0235C625C63542254401E491C814213
:10081000F7DBAB46A81B401E0990002004F80B0034
:100820000B98099AC0F80880C0E9002B7CE71126D4
:100830004FF0000859E72DE9F04F88460446D21DD5
:1008400022F0070191B0D1E90001CDE90A0105F0DC
:100850003DFE02460B98C00F01D02D2007E0206816
:10086000810701D52B2002E0202101EAC000032AE4
:10087000099001D0072A05DB03464146204600F0D7
:1008800085F90BE12078800601D5E06900E00620BB
:10089000B8F1650F814606D0B8F1660F18D0B8F1EF
:1008A000670F70D131E00020B9F1110F009001DB2A
:1008B000112301E009F101030AAA01A90CA8FFF71D
:1008C000E4FEDDE90C70002609F10105834647E0EE
:1008D00001204B4600904FF000470AAA01A90CA83E
:1008E000FFF7D3FEDDE90DB00C995D46002610B987
:1008F00009F101000D18B9EB050003D4C0F1FF3672
:1009000009F10105A5EB09002BE0B9F1010F01DAAE
:100910004FF001090020B9F1110F0090484601DDA8
:10092000112300E003460AAA01A90CA8FFF7ADFEB7
:10093000DDE90C704D4600268346207800070AD476
:10094000AB4500DA5D4601A8012D04DD411911F81F
:10095000011C302907D04F4502DA17F1040F04DAE1
:10096000012082460FE06D1EEEE7002F02DCED1B3A
:100970003E4403E0781CA84200DD7D1CB81B00F15A
:10098000010A4FF000472078000703D4AA4501DB95
:100990004FF0FF3A0021B7F1004F0DF143088DF8F9
:1009A000431024D002202B23002F01DA7F422D2375
:1009B0000A21021EA0F1010000DC5FB197FBF1FCEF
:1009C00097FBF1F201FB1C7C17460CF1300C08F888
:1009D00001CDEEE7A8F1010003702188090501D5DA
:1009E000452100E06521A0F1010800F8011C0998EB
:1009F0000FA9A1EB0807FF1D00B10120411901EB70
:100A0000EA70A1693844081A401EA0612078C00627
:100A100002D42046AFF30080099828B1D4E901211F
:100A20009047206A401C20622078C00622D52046CC
:100A3000AFF300801EE0002E04DBB34502DD01A809
:100A4000805D00E03020D4E901219047206A401CFD
:100A50002062761CAAF101005FEA000A0AD100F0C8
:100A600033F8C0680168405CD4E901219047206AEE
:100A7000401C2062281EA5F10105DCDC07E0D4E95A
:100A8000012118F8010B9047206A401C2062381E93
:100A9000A7F10107F3DC2046AFF30080032011B07B
:100AA00043E60000074B70B50D467B4400F05BF851
:100AB0000446284600F018F910B14FF0FF3070BD21
:100AC000204670BD935A000000487047F005002092
:100AD00030B5B0F10A024FEA900E71F100034EEA10
:100AE000817EB0EB0E0061EB91014FEA101E4EEAE1
:100AF000017E10EB0E0041EB11114FEA102E4EEA71
:100B0000016E10EB0E0041EB11214FEA104E4EEA40
:100B1000014E10EB0E0041EB1141401841F1000174
:100B20004FEAD00040EA41704FEAD10110EB800556
:100B30004FEA810444EA907444EB01046D1944EBDC
:100B40000404521BA3414FF0000348BF0A3200D5F2
:100B500030BD401C41F1000130BD000001694A1C5C
:100B600002610878704700B58FB0CDE901310021EE
:100B7000059105497944CDE9031011466846FFF710
:100B800063FC0FB000BD0000E5FFFFFF2DE9F04161
:100B90001F46044603260168072A01F4006004DBAF
:100BA00008B116A505E016A503E008B115A500E0FB
:100BB00015A521F010002060A069C01EA0610FB132
:100BC000401EA0612046AFF300804FB1D4E901215F
:100BD00038469047206A401C2062C01C206206E014
:100BE000206AFAE7D4E9012115F8010B9047761E37
:100BF000F8D22046AFF30080BDE8F0814E414E00B0
:100C00006E616E00494E4600696E66002DE9F04740
:100C1000814616468AB0334878440DC88DE80D00E9
:100C200030487844801C03AC0DC884E80D0041F6C0
:100C30009B300844372190FBF1F290FBF1F5A5F1D0
:100C4000800501FB12041B3C02D56442012000E038
:100C50000020DFF890A080460027FA44AAF1BE0ADF
:100C60000DE0E00709D03246684607EB47010AEB82
:100C7000810100F032FB8DE8070064107F1C002C1E
:100C8000EFD1184F7F44AC3F18E0E80714D007EBD2
:100C900004100DF1180A90E80E008AE80E00C068F2
:100CA000F04201D198190890324606A903A800F035
:100CB00014FB03AB83E807006D10641C002DE4D126
:100CC00032466946B8F1000F03A802D000F0F1FAED
:100CD00001E000F002FBC9E90001C9F808200AB0F0
:100CE000BDE8F0877C700000007B00F0800070475A
:100CF00000487047D00500207546FFF7F9FFAE4663
:100D000005006946534620F00700854618B020B517
:100D1000FFF7C8FABDE820404FF000064FF000078B
:100D20004FF000084FF0000B21F00701AC46ACE893
:100D3000C009ACE8C009ACE8C009ACE8C0098D4600
:100D400070470446AFF300802046FFF796FA000094
:100D50004FF0013C50F8042B51F8043B9A4221D14A
:100D6000A2EB0C03934313EACC1317D150F8042BD6
:100D700051F8043B9A4215D1A2EB0C03934313EABA
:100D8000CC130BD150F8042B51F8043B9A4209D1F3
:100D9000A2EB0C03934313EACC13DBD04FF000001B
:100DA000704700BFD01A01BAB1FA81F101F0180101
:100DB00022FA01F0CB40C1F12001DBB2C0B2C01A6F
:100DC0002CFA01F3D11A914311EAC311E6D170470D
:100DD0005FEA400C08BF91F0000F4FEA8C234FEA06
:100DE000C12243EA51514FEA1C5018BF00F5F040B0
:100DF0004FEA300018BF41F000415FEA6C5C00F040
:100E00002980BCF1FF3F08BF40F080407047130CC1
:100E100006BF12044FF0100C4FF0000C130E04BF6D
:100E200012020CF1080C130F04BF12010CF1040C98
:100E3000930F04BF92000CF1020CD30F04BF5200B9
:100E40000CF1010C11464FF00002A0F11F00A0EBC5
:100E50000C00704711F0004F08BF704731F000419F
:100E60003FF4D5AF0B0C06BF09044FF0100C4FF048
:100E7000000C0B0E04BF09020CF1080C0B0F04BF91
:100E800009010CF1040C8B0F04BF89000CF1020C5A
:100E9000CB0F04BF49000CF1010CCCF12003A0EBF7
:100EA0000C0022FA03F302FA0CF241EA030100F10A
:100EB0000100704720F07F4C80EA030023F07F4759
:100EC000ACEB070303F57C5300F0004003F1FF0394
:100ED0002DE980494FEA154B09B44FEA144325EA3E
:100EE0000B4E24EA03480FF2042606EB13274908A9
:100EF0003E785FEA320203FB0667C7F5000707FB8F
:100F000006F64FEA54374FEAD64606F1020607FBCB
:100F1000066CCCF1005C4FEA1C472CEA074C07FB3F
:100F200006F40CFB06F504EB15464FEA961634BFA3
:100F300000204FF000404FEAD13706FB07FC4FEA94
:100F40001C4C0CFB0BF7D21B03FB0CF761EB0701EE
:100F50000CFB0EF7B0EB074072EB17420CFB08F7E7
:100F600034BFA2EB0742B2EB074261EB17414FEAF5
:100F70000C444FEA910706FB07FC4FEA1C4C0CFBA4
:100F80000BF7B0EBC74072EB573203FB0CF734BFE3
:100F9000A2EBC742B2EBC74261EB57310CFB0EF735
:100FA000B0EBC70072EB57720CFB08F734BFA2EB33
:100FB000C702B2EBC70261EB5771039F4FEA816131
:100FC00041EA921104EBCC044FEAD1374FEA826236
:100FD00006FB07FC42EA90124FEA80604FEA1C4C85
:100FE0000CFB0BF7D21B03FB0CF761EB07010CFBAF
:100FF0000EF7B0EB074072EB17420CFB08F734BF5B
:10100000A2EB0742B2EB074261EB17414FEA8C5566
:101010004FEA910704EB9C2406FB07FC4FEA1C4CAB
:101020000CFB0BF7B0EBC74072EB573203FB0CF72E
:1010300034BFA2EBC742B2EBC74261EB57310CFBA6
:101040000EF7B0EBC70072EB57720CFB08F734BF1A
:10105000A2EBC702B2EBC70261EB577115EB4C254F
:101060004FEA816141EA92114FEA82624FEAD13739
:1010700042EA901206FB07FC44F100044FEA80604C
:101080004FEA1C4C0CFB0BF7D21B03FB0CF761EB7C
:1010900007010CFB0EF7B0EB074072EB17420CFB9D
:1010A00008F734BFA2EB0742B2EB074261EB1741EE
:1010B00015EB1C154FEA813141EA92414FEA823229
:1010C00042EA90424FEA80304FEA0C7644F1000445
:1010D00048EA03434EEA0B484FF0000EB2EB080C0F
:1010E00071EB030724BF624639464EEB0E0E4FF0FC
:1010F000000B0018524149414BEB0B0BB2EB080CB3
:1011000071EB03077BF1000B24BF624639464EEBBF
:101110000E0E4FF0000B0018524149414BEB0B0BE8
:10112000B2EB080C71EB03077BF1000B24BF6246A6
:1011300039464EEB0E0E51EA020718BF46F0010683
:1011400016EB0E7655F1000254F1000103D5BDE80F
:101150008901BDE80088BDE88901BDE80048B619ED
:10116000524141EB0101A3F10103704780807F7E72
:101170007D7C7B7A7978777676757473727171700D
:101180006F6E6E6D6C6C6B6A6A69686867666665BF
:101190006464636362616160605F5F5E5E5D5D5C4D
:1011A0005C5B5B5A5A5959585857575656555555BE
:1011B0005454535352525251515050504F4F4F4E1E
:1011C0004E4D4D4D4C4C4C4B4B4B4A4A4A4949496C
:1011D00048484847474747464646454545444444AE
:1011E000444343434342424242414141002B26D4BF
:1011F000770021D01CB54FEA370703B44FF0100039
:101200004FF010014FF000000FBCBDE810400BF193
:10121000010BBBF1010F08BF5FEA170722BF12F1F4
:10122000010211F101014FF0004143F1000300F010
:10123000004043EA00007047F9D35708DAE746EA6E
:10124000064613F1400F4FEA16461FDD13F1200F3B
:10125000DFBF16430A46002120335B42C8D0C3F1EA
:10126000200746EA064602FA07F74FEA164646EA1C
:101270000706C3F1200722FA03F201FA07F721FA61
:1012800003F14FF0000342EA0702B1E746EA020623
:1012900046EA06464FEA164646EA0106BCBF46EA5B
:1012A0000646360C4FF000034FF000024FF00001ED
:1012B0009EE72DE9C048934630B491E8380007C84E
:1012C00031EA400C48BF34EA430C03D5FFF7F2FD86
:1012D000FFF78CFFF0BCBDE800882DE9C0489346BD
:1012E00030B491E8380007C810F0804F08BF13F001
:1012F000804F03D100F005F8FFF778FFF0BCBDE8A0
:10130000008820F07F4780EA030023F07F4C07EB42
:101310000C03A3F57C5300F00040A3F1FE0392F010
:10132000000F00F0B38095F0000F00F077802DE9FA
:1013300001494FEA11404FEA144621EA004800FBF8
:1013400006FC24EA064708FB06F607FB08F800FB44
:1013500007F718EB06484CEB164C4FEA124B18EB0C
:1013600007484FEA15464CEB174022EA0B4E0BFBA1
:1013700006FC25EA06470EFB06F607FB0EFE0BFBF6
:1013800007F71EEB064E4CEB164C4FF000061EEB1B
:10139000074E4CEB174B18EB0B0840F1000018EB15
:1013A0000E0B58EB000840F100008F1A4FF00001BF
:1013B0003CBFC943661B14BFB5EB040C00213CBF06
:1013C000C943F61B4FEA17444EEA8E0E27EA04453E
:1013D0004FEA1C4704FB07622CEA074C05FB07F7A2
:1013E0000CFB05F604FB0CFC16EB074642EB174220
:1013F00016EB0C4642EB1C421BEB060658EB0202B6
:10140000414146EA9E0601D5BDE80189B61952411F
:1014100041EB0101A3F10103BDE801894FEA144545
:101420004FEA114724EA054621EA074C05FB07F479
:1014300006FB07F70CFB06F105FB0CFC11EB074163
:1014400044EB17444FEA124711EB0C4144EB1C44A8
:1014500022EA074C05FB07F206FB07F70CFB06F632
:1014600005FB0CFC16EB074642EB174216EB0C464D
:1014700042EB1C456A1854F1000148BF7047B61989
:10148000524141EB0101A3F10103704795F0000FB8
:1014900037D04FEA11424FEA144721EA024624EAC4
:1014A000074C02FB07F106FB07F70CFB06F402FBF7
:1014B0000CFC14EB074441EB17414FEA154714EBC2
:1014C0000C4441EB1C4125EA074C02FB07F506FBE7
:1014D00007F70CFB06F602FB0CFC16EB074645EB88
:1014E000174516EB0C4645EB1C42121951F1000151
:1014F00048BF7047B619524141EB0101A3F1010306
:1015000070474FEA14454FEA114724EA054621EA9D
:10151000074C05FB07F106FB07F70CFB06F24FF043
:10152000000605FB0CFC12EB074241EB174112EBE6
:101530000C4251EB1C4148BF7047921841EB01012E
:10154000A3F101037047000010B5142239493A484D
:1015500004F0F6F93748A0F1AC040168E16642688E
:10156000226782682262C26862620269A26242697C
:10157000E26282692263C2696263026AA263426AAA
:10158000E263826A2264C26A6264026BA264426B92
:10159000E264826B2265C26B6265026CA265406C7C
:1015A000E06526A0FEF708FF29A0216FFEF704FFE3
:1015B0002CA0216AFEF700FF30A0616AFEF7FCFE56
:1015C00034A0A16AFEF7F8FE38A0E16AFEF7F4FE47
:1015D0003CA0216BFEF7F0FE41A0616BFEF7ECFE34
:1015E00046A0A16BFEF7E8FE4BA0E16BFEF7E4FE20
:1015F00050A0216CFEF7E0FE54A0616CFEF7DCFE0B
:1016000058A0A16CFEF7D8FE5CA0E16CFEF7D4FEFA
:1016100060A0216DFEF7D0FE65A0616DFEF7CCFEE7
:101620006AA0A16DFEF7C8FEE16DBDE810406EA096
:10163000FEF7C2BEAC0000200000010870776D5FAD
:101640006F7269676E5F783A25640D0A00000000CA
:1016500070776D5F6F7269676E5F793A25640D0A06
:101660000000000070776D5F785F6C6566745F7472
:101670006F705F70323A25640D0A000070776D5FFD
:10168000795F6C6566745F746F705F70323A256461
:101690000D0A000070776D5F785F72696768745F2C
:1016A000746F705F70323A25640D0A0070776D5F59
:1016B000795F72696768745F746F705F70323A2522
:1016C000640D0A0070776D5F785F72696768745F98
:1016D000626F74746F6D5F70323A25640D0A00009A
:1016E00070776D5F795F72696768745F626F747439
:1016F0006F6D5F70323A25640D0A000070776D5F80
:10170000785F6C6566745F626F74746F6D5F703262
:101710003A25640D0A00000070776D5F795F6C6593
:1017200066745F626F74746F6D5F70323A25640D1A
:101730000A00000070776D5F785F6C6566745F7497
:101740006F705F70333A25640D0A000070776D5F2B
:10175000795F6C6566745F746F705F70333A25648F
:101760000D0A000070776D5F785F72696768745F5B
:10177000746F705F70333A25640D0A0070776D5F87
:10178000795F72696768745F746F705F70333A2550
:10179000640D0A0070776D5F785F72696768745FC7
:1017A000626F74746F6D5F70333A25640D0A0000C8
:1017B00070776D5F795F72696768745F626F747468
:1017C0006F6D5F70333A25640D0A000070776D5FAE
:1017D000785F6C6566745F626F74746F6D5F703391
:1017E0003A25640D0A00000070776D5F795F6C65C3
:1017F00066745F626F74746F6D5F70333A25640D49
:101800000A000000FEE700002DE9F84F070072D043
:10181000C34CDFF810A30825606E4FF0010904F1F6
:10182000AC06152868D2DFE800F0670B1C675D671F
:101830007967AD67C667DF67FC67F567F467F30034
:1018400003F01EFC00210823B7A2084603F0C5FCE4
:10185000C4F86490082F02D0102F4CD13AE1022036
:101860003EE0AF48AC30112FD0E90021F0E802C3D0
:10187000D8D2DFE807F041EEEDECCD2D412F341B3F
:10188000EB2041414141EA0040F8041C16E00423EA
:101890000221402003F06CFC0095606E042306EBEF
:1018A0008000194650F8042C402068E0ACF10A0C86
:1018B00040F808CC02E00A3240F8082C9DA0FEF760
:1018C0007BFD0095606E06EB800050F8082CDEE78B
:1018D000521C00E0521E40F8082C0095D7E7042067
:1018E000606633E08E48AC30112FF0E90221F0E859
:1018F00002C301D201E011E143E0DFE807F042E278
:10190000E5E7890C420B0D0AE90942424242EB002D
:10191000D1E7CBE7DEE7DBE70620E1E78048AC3044
:10192000112FF0E90421F0E802C32AD2DFE807F022
:10193000E7C9CCCEF40CE70B0D0AD009E7E7E7E7DF
:10194000D200B8E7B2E7C5E7C2E7656603F098FBE7
:101950000021012379A2084603F03FFC012379A26C
:101960000221102003F039FC012377A2042110206A
:1019700003F033FC0095032300212020626E03F066
:10198000F7FBBCE06648AC30112FF0E90621F0E827
:1019900002C36DD2DFE807F0B395989AC00CB30B81
:1019A0000D0A9C09B3B3B3B39E0084E77EE791E7C9
:1019B0008EE70A2094E75A48AC30112FF0E908214D
:1019C000F0E802C354D2DFE807F09A7C7F81A70CCD
:1019D0009A0B0D0A83099A9A9A9A85006BE765E734
:1019E00078E775E70C207BE74D48AC30112FF0E924
:1019F0000A21F0E802C33BD2DFE807F081636668A2
:101A00008E10810F110E6A09818181816C0052E76D
:101A100082E03FE023E004E048E75BE758E70E2080
:101A20005EE73F48AC30112FF0E90C21F0E802C32B
:101A300065D2DFE807F06446494B71116410120F5C
:101A40004D09646464644F0035E743E040E03DE0E5
:101A50003AE036E02AE73DE73AE7102040E7304831
:101A6000AC30112FF0E90E21F0E802C347D200E0BC
:101A700045E0DFE807F04426292B510C440B0D0A02
:101A80002D09444444442F0015E70FE722E71FE7E0
:101A9000122025E72248AC30112FF0E91021F0E8A0
:101AA00002C32CD2DFE807F02B0D1012380C2B0BE1
:101AB000360A14092B2B2B2B1600FCE6F6E609E759
:101AC00006E7A3F10A01DFE6491EDDE60A31DBE69F
:101AD000491CD9E612491422AC315546504603F050
:101AE00039FF0F491422AC31284603F029FF03F0D7
:101AF000C7FA0021012315A2084603F06EFB606EB1
:101B000001280BDD06EB8000083803C8BDE8F84F5C
:101B100004F008BE1420E3E6C4F86490BDE8F88F32
:101B200000000020000001084D61696E204D656EC7
:101B300075000000793A25640D0A00004D6F646558
:101B40006C000000783A0000793A00007361766515
:101B50005F6F6B00704772B6FEE70000002229B18C
:101B600001291AD002291BD04FF440720E490B688C
:101B700023F440730B600B6813430B600A6822F078
:101B8000F8020A600A68022303EBC00002430A60FD
:101B9000086840F48030086070474FF48072E5E7D1
:101BA0004FF40072E2E70000103C02401348016865
:101BB00089050FD5016821F400710160016841F4C5
:101BC00000610160016821F400610160016841F475
:101BD00000710160016849050FD5016821F4806139
:101BE0000160016841F480510160016821F4805175
:101BF0000160016841F4806101607047003C02406F
:101C000008490A6822F440720A600A6842F0040235
:101C10000A600A684FF4803343EA002002430A60F6
:101C200070470000103C0240064A136823F44073DA
:101C3000136013681360136843F0010313600170AD
:101C400070470000103C0240094910B50C6824F4AC
:101C500040740C600C6844F440740C600C6844F0F0
:101C600001040C600260BFF36F8F436010BD000081
:101C7000103C0240074A136823F440731360136852
:101C800043F480731360136843F001031360018011
:101C900070470000103C0240074A136823F4407369
:101CA0001360136843F400731360136843F0010377
:101CB0001360016070470000103C0240174908683B
:101CC000C206174805D5C26942F01002C26110224F
:101CD0000A600A68920605D5C26942F00802C2612C
:101CE00020220A600A68520605D5C26942F0040241
:101CF000C26140220A600A68120605D5C26942F034
:101D00000202C26180220A600A68920705D5C26990
:101D100042F02002C2610220086070470C3C024081
:101D20008405002070B5114904460020C86100F008
:101D30003DFA06460E4D09E0601C07D024B100F0C4
:101D400035FA801BA04201D9032070BD2868C0036A
:101D5000F2D42868C00701D001202860286810F05C
:101D6000F200F2D0FFF7AAFF012070BD8405002029
:101D70000C3C02402DE9F0410446876D00F016FA54
:101D8000064694F835000025022806D080206065BC
:101D900084F834500120BDE8F0812068016821F00A
:101DA000160101602068416921F080014161206CC9
:101DB00008B9A06C20B12068016821F00801016019
:101DC0002068016821F0010101600CE000F0EEF9EB
:101DD000801B052807D920206065032084F8350082
:101DE00084F83450D7E720680068C007EED194F833
:101DF0005C103F208840B860012084F8350084F8EA
:101E000034500020C7E790F83510022903D0802114
:101E1000416501207047052180F835100068016890
:101E200021F0010101600020704790F835007047F3
:101E300070B5044600F0BAF90546601C02D00448AB
:101E40000078044400F0B2F9401BA042FAD370BD00
:101E5000480100202DE9F047044622480F46017E44
:101E600001290AD00121804601764CF250394846BA
:101E7000FFF758FF020003D02FE00220BDE8F087F3
:101E80004FF0FF3038602068174D012801D0A66858
:101E90001CE0207C6168FFF7B3FE4846FFF742FF75
:101EA0000246286820F00400286014E0217C3046B7
:101EB000FFF754FE4846FFF735FF0200286820F080
:101EC000FA00286001D03E6005E0761CD4E90210DB
:101ED0000844B042EAD8FFF769FE002188F81810DC
:101EE0001046CBE784050020103C024003480168FF
:101EF00041F000410160002070470000103C0240AA
:101F00002DE9F0471B4E05461446307E1F46894694
:101F1000012808D0012030764CF250384046FFF7B7
:101F200001FF18B114E00220BDE8F0879DB1012D3A
:101F300016D0022D19D022463B464846FFF784FEB4
:101F40004046FFF7EFFE0C490A6822F001020A60E2
:101F500000213176E8E7E1B24846FFF765FEEFE79A
:101F6000A1B24846FFF786FEEAE721464846FFF75A
:101F700093FEE5E784050020103C0240074900205D
:101F80000A68002A09DA054A054B0C3A1360054B2A
:101F900013600968002900DA01207047103C0240F4
:101FA00023016745AB89EFCD2DE9F84FDFF8BCA1E0
:101FB0000022012503264FF00F090AF1040BAAF1B4
:101FC000040E00BF0B6805FA02F42340A34270D14F
:101FD0000F7907F00307012F01D0022F16D1876870
:101FE0004FEA420806FA08FC27EA0C07D1F80CC0B1
:101FF0000CFA08FC4CEA070CC0F808C04768A74375
:102000000C79C4F3001494403C4344600C79E443DD
:10201000A4070AD0C4684FEA420C06FA0CF7BC4386
:102020008F6807FA0CF72743C7600C7904F00304A4
:10203000022C12D1D40800EB840CDCF820405707A6
:10204000FF0E09FA07F824EA0804D1F8108008FA0C
:1020500007F848EA0408CCF8208004684FEA420CEC
:1020600006FA0CF7BC430F7907F0030707FA0CF7E1
:10207000274307604C6814F4403F70D03C4C2768FD
:1020800047F480472760246822F0030704F4804463
:102090000094384C07EB040CDCF8084897074FEA2B
:1020A000177809FA08F7BC43334FB84202D100272A
:1020B00024E054E0314FB84201D101271EE0304FF7
:1020C000B84201D1022719E02E4FB84201D10327AF
:1020D00014E02D4FB84201D104270FE02B4FB84236
:1020E00001D105270AE02A4FB84201D1062705E0B1
:1020F000284FB84201D1072700E0082707FA08F760
:102100002743CCF80878DAF800405746D1F804C0E5
:102110009C435FEACC2C00D51C433C60DBF80040BC
:102120005F46D1F804C09C435FEA8C2C00D51C4369
:102130003C60DEF800407746D1F804C09C435FEA7B
:102140008C3C00D51C433C60084F083F3C68D1F8EC
:1021500004C09C435FEACC3C00D51C433C60521C4D
:10216000102AFFF42FAFBDE8F88F0000083C0140B3
:1021700044380240003001400000024000040240A8
:1021800000080240000C024000100240001402400F
:1021900000180240001C02400069084000D00120E5
:1021A00070470AB1816170470904FBE70148806804
:1021B0007047000048010020704770472DE9F0414A
:1021C000016804464A694E6890F83E000025D743EE
:1021D000FA0506D4F243D20503D46FF480720125C8
:1021E0004A61B90508D4F143C90505D422686FF4E2
:1021F000007145F002055161790525D4F143C90507
:1022000022D4638D94F83D10226B202808D13BB96D
:10221000212910D029290ED0282901D1212A0AD01C
:1022200022686FF48061516145F00405102806D0E2
:10223000402804D008E0204602F0D0FA04E02068EC
:10224000016841F400710160380508D4F043C0050D
:1022500005D421686FF4006045F008054861002D41
:1022600007D0206C284320642046BDE8F04101F0EF
:10227000DDBEBDE8F0812DE9F0470268002153681A
:10228000C66A90F83E4090F83D50102C12D0402C79
:1022900010D0046C002C7DD05469E443A6077AD496
:1022A000DE43B60577D4036C03B19169BDE8F0470E
:1022B00002F070BA976951694FF42A0CC9435FEA7A
:1022C000C1784FF02A4904D066452AD04E4528D01F
:1022D00010E0DE43B6050DD4C16A614501D101218C
:1022E00003E0C16A494501D10821C162BDE8F04758
:1022F00002F066B90E0716D4DE43B60513D4416C5E
:10230000C9B21161416B09B1C96B29B9816B00294F
:1023100007D0C96B002904D00068416841F400610E
:102320004160BDE8F0878E0706D4DE43B60503D4CE
:10233000BDE8F04702F0B8B8FE43526876074FEAAE
:1023400002521DD4002AECDB0A0608D4DA435205F7
:1023500005D4490705D5BDE8F04702F049B849075B
:10236000DFD4D9438905DCD4212D05D0402CD8D128
:10237000BDE8F04702F06AB9BDE8F04701F0F6BFEA
:10238000002ACEDB4A060BD4DA43520508D44907AB
:1023900008D501E00DE00EE0BDE8F04701F072BFA6
:1023A0004907BED4D9438905BBD4BDE8F04701F045
:1023B00000BF916970E7E10606D4D943890503D4CB
:1023C000BDE8F04702F04CBA2821212D27D0292D55
:1023D00025D0650655D4DD436D0552D4640752D52A
:1023E00090F83D30448D002C9BD01269446A2270D5
:1023F000426A521C4262428D521E4285428D002A20
:102400008FD12A2B8DD10268536823F480635360E7
:102410002222026380F83D1000F01AFA81E72506B7
:1024200023D4DD436D0520D4640720D590F83D30DA
:10243000448D002CF2D0446A24781461426A521C04
:102440004262428D521E4285428D002AE6D1292BDE
:10245000E4D10268536823F480635360212202634D
:1024600080F83D1000F0F5F95BE76107D6D4D94359
:102470008905D3D4418D0029D0D0416A09781161F2
:102480000AE06107CAD4D9438905C7D4418D002920
:10249000C4D01169426A1170416A491C4162418D80
:1024A000491E41853DE7704770B5040025D094F87A
:1024B0003D00002520B984F83C50204600F056F934
:1024C000242084F83D002068016821F001010160AA
:1024D0002068016841F4004101602068016821F42E
:1024E0000041016000F0F2FA4D4A6168914201D862
:1024F0004C4900E04C49884201D2012070BD4B4953
:102500002368B0FBF1F15E6826F03F060E435E6083
:102510006368934206D94FF4967359434FF47A7324
:10252000B1FBF3F12368491C1E6A26F03F063143D4
:1025300019626168914210D84900401EB0FBF1F267
:10254000521CC2F30B02042A01D2042022E0B0FB89
:10255000F1F0401CC0F30B001CE0A268F2B301EBE9
:10256000C10303EB0116431EB3FBF6F35B1C43F4FC
:1025700080431B0549D092B301EBC10202EB01116C
:10258000401EB0FBF1F0401CC0F30B0040F4804053
:1025900040F400402168CA694CF6FF739A43104327
:1025A000C861D4E9071001432068026822F0C00224
:1025B00011430160D4E9030101432068826848F2B5
:1025C000FF339A4311438160D4E905010843216830
:1025D000CA6822F0FF021043C86001E00EE016E076
:1025E0002068016841F0010101602564202084F821
:1025F0003D00256384F83E50002070BD01EB41068C
:10260000431EB3FBF6F35B1CB3E70120C2E701EB0B
:102610004101401EB0FBF1F0401CC0F30B00B7E7D6
:10262000A086010080841E0000093D0040420F008A
:102630007047704770477047704700002DE9FF4FA3
:1026400083B09A46DDE9119793460446DDF8408051
:10265000FFF7ACFD054694F83D0020287FD11923F3
:10266000012240492046009502F0CEF9002876D19B
:1026700094F83C00012872D0012084F83C002068C6
:102680000168C90703D1016841F0010101602068B8
:10269000016821F400610160212084F83D004020A0
:1026A00084F83E0000262664C4F82480A4F82A900A
:1026B000608D20852C48E062CDE9007553465A466E
:1026C0002046049902F012F870B930E02A463946E3
:1026D000204602F018FA58B1206C042804D1206872
:1026E000016841F400710160012007B0BDE8F08F7E
:1026F000606A216800780861606A401C6062218D10
:10270000491E89B22185628D521E628522685369F5
:10271000DB435B070BD469B100781061606A401C31
:102720006062208D401E2085608D401E6085208D5A
:102730000028CBD12A463946204602F03FF900282E
:10274000CAD154F83D0B016841F4007101602020AA
:1027500004F81E09E67766770020C6E7FFE7022047
:10276000C3E70000020010000000FFFFF0B587B0D3
:10277000044614216846FDF703FF2668304C2F4FAE
:1027800000252F481222032104231034BE4227D1F2
:10279000066846F002060660006800F00200059038
:1027A000CDE90313C0208DE8250069462548FFF7D1
:1027B000FBFB206840F4001020602068002200F439
:1027C0000010059011461F2000F0B4F81F2000F003
:1027D000A3F800221146202000F0ACF8202028E0C9
:1027E000194FBE4227D1066846F0200606600068F1
:1027F00000F0200005908DE82600CDE9031369461E
:102800001248FFF7D1FB206840F480002060206868
:10281000002200F4800005901146212000F08AF883
:10282000212000F079F800221146222000F082F8E1
:10283000222000F071F807B0F0BD00000054004005
:1028400030380240000402400058004000140240AA
:102850007047704702488168027811448160704770
:10286000480100200B4810B5016841F40071016077
:10287000016841F480610160016841F48071016088
:10288000032000F077F80F2000F006F800F024F89D
:10289000002010BD003C024070B50D4D04464FF4C1
:1028A0007A712878B1FBF0F00A490968B1FBF0F0C1
:1028B00000F014FB48B9102C07D200222146501E0C
:1028C00000F038F800206C6070BD012070BD000081
:1028D00048010020540100200E4808B5016841F469
:1028E00080410160006800F4804000900948001FAA
:1028F000016841F0805101600068002200F08050C2
:1029000000901146052000F015F8BDE808400520AC
:1029100000F002B844380240002809DB00F01F0232
:10292000012191404009800000F1E020C0F8001131
:1029300070470000F0B40E4B1B680C46C3F3022333
:10294000C3F10705042D00D90425191D072901D25B
:10295000002300E0DB1E012606FA05F1491E214096
:1029600099409E40761E16403143F0BC03F0C6BD30
:102970000CED00E0064900F0070208684FF6FF037F
:10298000184040EA0220034A1043086070470000E4
:102990000CED00E00000FA052DE9F0470E460500B9
:1029A00065D0DFF81481D8F80000F7B200F0070016
:1029B000B04207D288F80070D8F8000000F0070095
:1029C000B04254D128683D4C810712D5400703D549
:1029D000206840F4E05020602878000703D5206884
:1029E00040F4604020602068A96820F0F0000843AF
:1029F00020602878C0072DD0304968680839012840
:102A000012D0022813D0032811D0096889070029A1
:102A10002DDA216821F0030101432160FFF7C6FB95
:102A2000814641F2883A0EE009688903EFE70968B8
:102A30008901ECE7FFF7BAFBA0EB0901514502D988
:102A40000320BDE8F0872068696800F00C00B0EB57
:102A5000810FEFD1D8F80010404601F00701B142D4
:102A600007D90770006800F00700B04201D00120CC
:102A7000E7E72878400705D52068E96820F4E050AA
:102A8000084320602878000706D52068296920F4CB
:102A9000604040EAC100206000F038F82168084A30
:102AA000C1F30311515CC84006490860064800683C
:102AB000FFF7F2FE0020C4E7003C02400838024065
:102AC000E8710008540100204C0100200448054929
:102AD00000680968044AC1F38221515CC84070470C
:102AE0005401002008380240F871000804480549E4
:102AF00000680968044AC1F34231515CC84070471C
:102B00005401002008380240F8710008154810B53B
:102B1000006810F00C02144813D01449042A0FD096
:102B2000082A0ED10F4C241F2268236802F03F02AE
:102B30005B0207D52068C0F38810A0FB010106E006
:102B4000084610BD2168C1F38811A1FB00010023D4
:102B5000FDF7BBFB2168C1F30141491C4900B0FBF3
:102B6000F1F010BD083802400024F40040787D01E7
:102B70002DE9F84F04006ED02078DFF84C93C007A1
:102B8000A9F104054AD009F104000168C1F38101EB
:102B9000012908D00068C0F3810002280AD1D9F8C1
:102BA0000000400206D52868800337D560680028F9
:102BB000E1D033E06068B0F5803F10D0B0F5A02FD1
:102BC000286810D020F480302860286820F4802005
:102BD00028606068A8B1FFF7E9FA06460DE02868AA
:102BE00040F48030F4E740F480202860F7E700BF2D
:102BF000FFF7DCFA801B642873D828688003F7D5B8
:102C00000CE0FFF7D3FA064605E000BFFFF7CEFA67
:102C1000801B6428F0D828688003F7D42078DFF878
:102C2000AC8280074FF0000A3ED5A748001D01681E
:102C300011F00C0F08D00068C0F3810002280BD1FE
:102C4000D9F80000400207D42868800716D5E0684C
:102C5000012800D112E033E1E068B8B10120C8F8E2
:102C60000000FFF7A3FA064605E000BFFFF79EFA53
:102C7000801B0228C0D828688007F7D528682169FA
:102C800020F0F80040EAC10028600DE0C8F800A07C
:102C9000FFF78CFA064604E0FFF788FA801B02284B
:102CA0001FD828688007F7D42078000722D5864FE0
:102CB00087486169703771B101210160FFF776FAC9
:102CC000064604E0FFF772FA801B022809D838682C
:102CD0008007F7D50EE0C0F800A0FFF767FA0646B8
:102CE00005E082E0FFF762FA801B02287DD8386891
:102CF0008007F7D42078400768D5DFF8CCB10027EB
:102D00000BF13C0BDBF80000C0000BD4DBF800102B
:102D100041F08051CBF80010DBF80000012700F0F3
:102D2000805000906B4E3068C00510D4306840F47D
:102D300080703060FFF73AFA009005E0FFF736FA4E
:102D40000099401A022850D83068C005F6D55E4E6A
:102D5000A0686C3601280FD00528306810D020F00C
:102D600001003060306820F004003060A068B8B125
:102D7000FFF71CFA00900FE0306840F00100F4E724
:102D800040F004003060F7E7FFF710FA0099411AAD
:102D900041F28830814266D830688007F4D50EE071
:102DA000FFF704FA009007E0FFF700FA0099411AD4
:102DB00041F28830814256D830688007F4D42FB170
:102DC000DBF8001021F08051CBF80010A069C8B3E7
:102DD0003D49091D0968C1F3810102294AD0022831
:102DE000504607D0C8F8600000E03CE0FFF7DEF98D
:102DF00004463BE04746C8F86000FFF7D7F90646AF
:102E000005E000BFFFF7D2F9801B02282BD8286805
:102E10008001F7D4D4E907010843A16A2E4A490882
:102E200002EB0141626A41EA8211084394F82C10D6
:102E300040EA0161C9F8001001203866FFF7B6F9D1
:102E4000044606E03EE000BFFFF7B0F9001B022891
:102E500009D828688001F7D534E000BFFFF7A6F94C
:102E6000001B022802D90320BDE8F88F28688001E2
:102E7000F4D427E00128F7D0D9F80000E26900F483
:102E8000800191421CD1226A00F03F01914217D18A
:102E900047F6C071626A0140B1EB821F10D1A26A8D
:102EA0004FF0FF3300F4403103EB5202B1EB024F1D
:102EB00006D194F82C1000F07060B0EB016F01D0D7
:102EC0000120D1E70020CFE704380240000047424C
:102ED000800E4742007000400000FFFF10B5401E0A
:102EE000B0F1807F01D3012010BD4FF0E02460617C
:102EF0000F21601703F002FB0020A0610720206172
:102F0000002010BD7047704770B590F83C20012A32
:102F100032D0012480F83C40022280F83D20036832
:102F20005A689D6822F070060A6832435A60134B53
:102F300002689A4214D0B2F1804F11D0104B9A42DD
:102F40000ED0104B9A420BD00F4B9A4208D00F4B29
:102F50009A4205D00E4B9A4202D00E4B9A4204D1AF
:102F6000496825F080031943916080F83D400021B5
:102F700080F83C10084670BD022070BD0000014082
:102F80000004004000080040000C00400004014024
:102F9000004001400018004010B5040003D094F830
:102FA0003D0010B107E0012010BD002084F83C0076
:102FB000204600F01FF8022084F83D00211D206803
:102FC00002F082FD012084F8460084F83E0084F877
:102FD0003F0084F8400084F8410084F8420084F8FF
:102FE000430084F8440084F8450084F83D00002044
:102FF00010BD000008B500680B49884212D10B488B
:10300000016841F0010101600068002200F0010048
:10301000009011461920FFF78DFCBDE808401920EB
:10302000FFF77ABC08BD00000000014044380240B0
:1030300090F83D10012901D001207047022180F84D
:103040003D1000681149884214D0B0F1804F11D072
:103050000F4988420ED00F4988420BD00E49884252
:1030600008D00E49884205D00D49884202D00D494A
:10307000884204D1816801F00701062903D0016864
:1030800041F0010101600020704700000000014094
:103090000004004000080040000C00400004014013
:1030A000004001400018004090F83D10012901D077
:1030B00001207047022180F83D100168CA6842F083
:1030C0000102CA6000681149884214D0B0F1804FF3
:1030D00011D00F4988420ED00E4988420BD00E49BC
:1030E000884208D00D49884205D00D49884202D057
:1030F0000C49884204D1816801F00701062903D0F8
:10310000016841F0010101600020704700000140AA
:103110000004004000080040000C00400004014092
:10312000004001400018004070B5044690F83C0093
:103130000025012817D0012684F83C60022084F87D
:103140003D002068826822F0770222F47F4282608C
:103150000868502838D00DDC20284FD005DC90B30B
:10316000102811D14AE0022070BD302846D04028F6
:103170000AD13BE060282FD070280DD0B0F5805FD9
:1031800003D0B0F5005F12D0012584F83D60002027
:1031900084F83C00284670BDCB68D1E90121206845
:1031A00002F003FD2068816841F0770109E0CB68F7
:1031B000D1E90121206802F0F8FC2068816841F41F
:1031C00080418160E1E719E0CA684968206802F03F
:1031D00007FE5021206806E0CA684968206802F0AE
:1031E00010FE6021206802F0EAFCCEE7CA68496858
:1031F000206802F0F5FD40212068F4E722680146CE
:103200001046F0E72DE9F0410D46040003D094F894
:103210003D0018B108E00120BDE8F081002084F8ED
:103220003C00204600F040F8022084F83D00206871
:10323000816844F2070291438160211D206802F0F9
:1032400043FC226890689169166A2B68AF69034352
:1032500040F20330814341EA0721A868EF6908433F
:103260004FF6FC418843E96840EA0720014328699A
:103270002F6A000140EA0730084369686D6926F04B
:10328000AA0646EA0515294393602268906154F81E
:10329000460B0162012004F81F09E0752076E076F4
:1032A0002077A0750020B7E710B586B0044614213A
:1032B0006846FDF765F917492068884227D1164806
:1032C0000021026842F004020260006800F004007D
:1032D000059011481038026842F008020260006848
:1032E00000F0080005904FF4405000900220CDE916
:1032F0000101CDE9031069460848FEF755FE00229A
:1033000011461E20FFF716FB1E20FFF705FB06B037
:1033100010BD00000008004040380240000C024090
:1033200070B590F83E60044690F83F5090F84230F7
:1033300090F84320022021B104290ED0012E1BD188
:1033400014E0012E18D1012B16D184F83E0084F828
:10335000420001220021206820E0012D0CD1012A29
:103360000AD184F83F0084F8430014E0012D03D112
:10337000012B01D1012A01D0012070BD84F83E004B
:1033800084F83F0084F8420084F8430001220021C1
:10339000206802F0FDFB01220421206802F0F8FB06
:1033A0002068016841F001010160002070BD704794
:1033B00070B50446006801694FF00005C9438907EC
:1033C00015D4C168C943890711D4E91E01610120E0
:1033D0002077206880698007204602D0FFF7E7FF4A
:1033E00004E000F0EFF8204600F0B0F925772068FF
:1033F0000169C943490717D4C168C943490713D4B0
:103400006FF004010161022020772068806910F4C8
:10341000407F204602D0FFF7CAFF04E000F0D2F858
:10342000204600F093F9257720680169C943090710
:1034300016D4C168C943090712D46FF008010161AD
:10344000042020772068C0698007204602D0FFF75B
:10345000AEFF04E000F0B6F8204600F077F92577DB
:1034600020680169C943C90617D4C168C943C906A0
:1034700013D46FF010010161082020772068C06923
:1034800010F4407F204602D0FFF791FF04E000F0E7
:1034900099F8204600F05AF9257720680169C94358
:1034A000C90708D1C168C943C90704D1891E016190
:1034B000204600F0B1F920680169C943090609D422
:1034C000C168C943090605D46FF080010161204637
:1034D000FFF718FD20680169C943490609D4C1688E
:1034E000C943490605D46FF040010161204600F050
:1034F000E0F920680169C94389060BD4C168C94352
:10350000890607D46FF0200101612046BDE87040B4
:10351000FFF7F9BC70BD000030B587B00446142138
:103520006846FDF72DF82168002421480225B1F1F5
:10353000804F29D01F4A914224D1016841F00401F3
:103540000160016801F004010591016841F0020188
:1035500001600068694600F0020005904FF4A07019
:103560000090CDE901541448CDE90345FEF71CFD58
:1035700020200090CDE9015469461048CDE903456B
:10358000FEF712FD07B030BD016841F00101016096
:103590000068694600F00100059048F20A000090BA
:1035A000CDE901540120CDE903400548E8E70000DA
:1035B000303802400004004000080240000402408D
:1035C00000000240704770B5044690F83C000026A9
:1035D0000D4601280FD0012084F83C006AB1042A6E
:1035E0001DD0082A2FD00C2A3FD00126002084F8B5
:1035F0003C00304670BD022070BD206802F0E8FA41
:103600002068816941F0080181612068816921F0A9
:1036100004018161206881692A69114311E02068F1
:1036200002F006FB2068816941F400618161206835
:10363000816921F480618161206881692A6941EA98
:1036400002218161D2E7206802F028FB2068C1696D
:1036500041F00801C1612068C16921F00401C16124
:103660002068C1692A69114311E0206802F04AFB11
:103670002068C16941F40061C1612068C16921F419
:103680008061C1612068C1692A6941EA0221C16182
:10369000ACE710B5040003D094F83D0010B107E08A
:1036A000012010BD002084F83C00204600F01EF8E8
:1036B000022084F83D00211D206802F005FA012057
:1036C00084F8460084F83E0084F83F0084F8400007
:1036D00084F8410084F8420084F8430084F84400F0
:1036E00084F8450084F83D00002010BD08B501684D
:1036F0001448B1F1804F14D0134A914220D101688F
:1037000041F0020101600068002200F00200009018
:1037100011461D20FFF70EF91D20BDE80840FFF7F8
:10372000FBB8016841F0010101600068002200F06F
:103730000100009011461C20FFF7FCF81C20ECE76C
:1037400008BD0000403802400004004070470000FF
:1037500010B50446022249B104290ED0082913D01D
:1037600094F84100012816D0012010BD94F83E00C5
:103770000128F9D184F83E200FE094F83F00012899
:10378000F2D184F83F2008E094F840000128EBD102
:1037900084F8402001E084F841200122206802F0F2
:1037A000F7F916492068164A884201D0904203D1A1
:1037B000436C43F4004343642068884213D0B0F163
:1037C000804F10D00F4988420DD00F4988420AD04F
:1037D0000E49884207D0904205D00D49884202D058
:1037E0000C49884204D1816801F00701062903D001
:1037F000016841F001010160002010BD000001409E
:10380000000401400004004000080040000C00409B
:10381000004001400018004070B50A4988420ED1AE
:1038200002F03AFF084C0D25206006E007A0FCF7E7
:10383000C3FD02F031FF206010B10D28F6D070BD3D
:103840002560F3E7540300203C010020666C6167AB
:103850005F73746F70210D0A0000000070B504469C
:1038600090F83C00012812D0012584F83C50022039
:1038700084F83D00204602F06DFA01004FF0000090
:1038800007D084F83D5084F83C00012070BD022030
:1038900070BD2168CA6822F04002CA602168CA6807
:1038A00022F48042CA6084F83D5084F83C00002035
:1038B00070BD704770477047F8B5016804460868E6
:1038C000CA684B6910F00F0F4FF000055AD003F093
:1038D000010602F49077374365D0C10705D0D105C2
:1038E00003D5216C41F001012164410705D5D907B9
:1038F00003D0216C41F002012164810705D5D9076D
:1039000003D0216C41F004012164010707D502F0C6
:103910002001314303D0216C41F008012164216C66
:1039200000293BD0800604D5900602D5204602F03F
:1039300094FC20684069216CC0F3801001F00801FC
:10394000014320462BD002F061FC2068406940060C
:1039500021D52068143050E8001F21F0400140E8D4
:103960000012002AF5D1A06BA8B16C490165A06BCB
:10397000FEF749FA002811D0A06B016D01B0BDE837
:10398000F040084783060ED593060CD52046BDE8C7
:10399000F84002F062BC2046FFF78DFFF8BDFFF74C
:1039A0008AFF2564F8BD266B2023012E79D1C60637
:1039B00077D5D60675D508684868009048694006EE
:1039C00040D5A16B086840680004000CEAD0A28DC5
:1039D0008242E7D9E085C869B0F5807F2DD02068A4
:1039E0000C3050E8001F21F4807140E80012002ADA
:1039F000F5D12068143050E8001F21F0010140E8A3
:103A00000012002AF5D12068143050E8001F21F080
:103A1000400140E80012002AF5D184F83E302563C9
:103A200020680C3050E8001F21F0100140E800121F
:103A3000002AF5D1A06BFEF79DF9A08DE18D401A0B
:103A400081B229E0A08DE18D401A81B2E08D00287D
:103A5000A8D00029A6D020680C3050E8002F22F40E
:103A6000907240E80026002EF5D12068143050E80E
:103A7000002F22F0010240E80026002EF5D184F844
:103A80003E30256320680C3050E8002F22F01002F1
:103A900040E80023002BF5D12046FFF70BFFF8BDCF
:103AA000FFE705062BD5150629D594F83D002128FA
:103AB000F5D1A068B0F5805F01D12069B0B1206A6E
:103AC000411C2162216800784860E08C401E00049F
:103AD000000CE084E3D12068C16821F08001C1605E
:103AE0002068C16841F04001C160D8E7206A0088C1
:103AF000C0F308004860206A801C2062E5E74006A9
:103B0000CDD55006CBD5CA68204622F04002CA6007
:103B100084F83D3000F012FAC1E70000FD610008B2
:103B200070B5040004D094F83D00002510B106E003
:103B3000012070BD84F83C50204600F023F824207A
:103B400084F83D002068C16821F40051C16020461E
:103B500002F0E4FB2068016921F4904101612068D2
:103B6000416921F02A0141612068C16841F4005196
:103B7000C1602564202084F83D0084F83E000020C8
:103B800070BD00002DE9F04186B00446142168465E
:103B9000FCF7F6FC5C485B49236800245A4A143859
:103BA0000225032607278B4220D1116841F010011E
:103BB0001160116801F010010591016841F00101E7
:103BC0000160006802AB00F0010005907002CDE9D1
:103BD000000583E8D00069464C48FEF7E5F900226D
:103BE00001212520FEF7A6FE252027E04649DFF823
:103BF00020C1091FDFF81C81634524D10A6842F403
:103C000000320A60096801F400310591016841F051
:103C100008010160006802AA00F008000590602019
:103C2000CDE9000582E8D00069464046FEF7BCF9C0
:103C3000002201212620FEF77DFE2620FEF76CFEE5
:103C400006B0BDE8F081DFF8D0C0634534D10A6822
:103C500042F480220A60096801F48021059101681C
:103C600041F002010160016801F002010591016863
:103C700041F008010160006802AA00F00800059008
:103C80004FF40060CDE9000582E8D0006946234882
:103C9000FEF78AF94FF48070CDE9000502AA694663
:103CA00082E8D0004046FEF77FF90022012127205C
:103CB000FEF740FE2720C1E719498B42C0D11168A9
:103CC00041F020011160116801F0200105910168A7
:103CD00041F0400101600068029400F0400005904E
:103CE0004FF48440CDE900050820CDE90360694622
:103CF0000C48FEF759F9002211464720FEF71AFE3C
:103D000047209BE700100140443802400000024079
:103D100000440040000C0240004800400004024003
:103D2000001401400018024090F83E30202B0ED1C4
:103D300059B152B190F83C30012B08D0012380F8E2
:103D40003C300023036302F06FBB01207047022068
:103D50007047000030B55A495A4C85B0884207D1A7
:103D60002078A07001F078FA012221465448A0E0A2
:103D7000554988426FD100684068524D10F0FF00ED
:103D800005F1010528702ED0691E0128496F32D037
:103D9000022832D06A1E0328926F32D0042833D012
:103DA000052838D0062838D0072838D0082839D038
:103DB00009283AD010283AD012283AD013283AD0FD
:103DC00014283AD015283AD016283AD017283BD0D4
:103DD00090283CD091283FD0922841D0982845D0B7
:103DE00099285CD05EE040F20F3140F2A32002F04F
:103DF00099FC36A037E00A3100E00A3935A0616746
:103E000006E002F10A0101E0A2F10A0135A0A16772
:103E1000FCF7D2FA46E06431F0E76439EEE702F1EC
:103E20006401F3E7A2F16401F0E7491CE6E7491EEB
:103E3000E4E7511CEAE7511EE8E73231DEE73239A8
:103E4000DCE702F13201E1E7A2F13201DEE7022014
:103E5000206628A007E031E00320206628A002E0C9
:103E60000420206629A0FCF7A7FA1BE0B4F9100093
:103E70000DF1040CB4F91630B4F91420B4F9121091
:103E80008CE80F00B4F90E000090B4F90C30B4F9CE
:103E90000A20B4F908102048FCF78EFA02E01FA0AF
:103EA000FCF78AFAD4E91D0102F03CFC0122064825
:103EB000691C05B0BDE83040FFF736BF05B030BD26
:103EC000FC0400200000002074040020726573656B
:103ED000740D0A0070776D5F746573745F783A25AE
:103EE000640D0A0070776D5F746573745F793A25AD
:103EF000640D0A0050726F626C656D323A0D0A00F3
:103F000050726F626C656D333A0D0A0050726F62C9
:103F10006C656D343A0D0A00B07C000870776D5FF7
:103F2000746573745F783A25642C2070776D5F74C4
:103F30006573745F793A25640D0A00007047FEE7E7
:103F40000148FEF73BB90000AC0200200148FEF733
:103F500092B90000AC0200200148FEF72FB9000022
:103F6000000300200148FEF786B90000000300208E
:103F700038B5806B002190F83D202B4B46F2A814F9
:103F80001B68B3FBF4F3C3EBC30303EB830300939E
:103F90003BB15B1E009303681B689B0505D5009B26
:103FA000F6E7036C43F020030364436B03B1D9636A
:103FB000836B03B1D96303681C6824F480641C60BC
:103FC0004185436B03B11965836B03B119650368C0
:103FD0001C6824F001041C6090F83D402023602CF4
:103FE0000BD0282434EA02020FD080F83D3080F84C
:103FF0003E1000BFFEF757FA38BD80F83D3080F81C
:104000003E100164FEF7D8F838BD0268136843F02B
:10401000010313600268136843F480631360016353
:1040200080F83D40E6E700005401002070B50446EA
:1040300090F83D0094F83E10102901D0402906D197
:10404000222804D121680A6822F400620A6028212B
:1040500031EA00024FF000054FF0200626D021681B
:104060004968090505D4602803D084F83D6084F8C8
:104070003E50256320684168090537D5416821F421
:1040800000614160606B90F835203C49012A11D0F5
:104090000165606BFDF7B7FE38B32068016821F059
:1040A0000101016084F83D60606B1CE0256384F8C9
:1040B0003D10DFE7A06B0165A06BFDF7A4FEA0B18A
:1040C00020684169C943490605D40069616A0870DE
:1040D000606A401C60622068016821F00101016093
:1040E00084F83D60A06B016D884710E094F83D10A6
:1040F000602910D04169C943490605D40069616A45
:104100000870606A401C60622046FEF7CCF9206CA3
:10411000C1071CD115E084F83D6025644169C9439D
:10412000490605D40069616A0870606A401C6062D3
:104130002068016821F0010101602046FEF73CF88B
:10414000E5E7810703D4410701D4000704D52068BF
:10415000416821F4E061416094F83D00216C490719
:104160000BD5282809D10648E062256384F83D6014
:1041700084F83E502046FEF75BFA70BD713F0008A0
:104180000000FFFF01684A69D24352050FD46FF463
:1041900080624A61002140F8301F202242738173FF
:1041A000026942F00402026101730120704700209D
:1041B000704710B5C26A438D0168042B06D0438D49
:1041C000032B08D0438D022B1DD012E04A6822F445
:1041D00080624A600CE04B6823F480634B60042AE1
:1041E00006D0022A04D001680A6822F480620A60BC
:1041F00001680969426A1170416A491C4162418D36
:10420000491E418510BD012A30D0102A2ED0042A23
:1042100030D0022A2ED00A6842F400720A60016887
:104220000969426A1170416A491C4162428D521EFD
:104230004285026812690A70416A491C4162418DD7
:10424000491E418501684A6822F440724A60202173
:1042500080F83D1090F83E200021402A80F83E1062
:104260000CD012210163FEF7E4F910BD0A6822F4B4
:104270008062D3E70A6842F48062CFE70163FEF709
:10428000DAF910BD38B590F83D1022290FD1418DD3
:1042900003290DD901680969426A1170416A491CF4
:1042A0004162418D491E4185418D032906D038BDAB
:1042B000C26A022A02D0012906D029B100684168E9
:1042C00021F48061416038BD274946F2A8130022DD
:1042D0000968B1FBF3F101EB810100910168202332
:1042E000009C641E009422D00C68A405F8D40C68CD
:1042F00024F480640C6001684C6824F4E0644C6031
:1043000001680969446A2170416A491C4162418D12
:10431000491E418580F83D3090F83E1080F83E20DF
:1043200040291DD012210163FEF783F938BD046CCA
:1043300044F0200404644C6824F4E0644C60016898
:104340000969446A2170416A491C4162418D491ED4
:10435000418580F83D3080F83E20FEF7A4F838BD56
:104360000263FEF768F938BD5401002010B5C26A37
:1043700090F83D1021290BD1418D51B1416A02685D
:1043800009781161416A491C4162418D491E41858C
:1043900010BD20230021082A13D0202A11D012F5A5
:1043A000803F0ED00268546824F4E0645460112207
:1043B000026380F83E1080F83D3000BFFEF73AF906
:1043C00010BD0268546824F4E06454600268146804
:1043D00044F400741460016380F83D3090F83E208E
:1043E00080F83E10402AE9D1FEF726F910BD000002
:1043F00010B590F83D1090F83E30C26A048DB4B10B
:10440000212903D0402B11D122290FD1418DE1B3B5
:1044100090F83E10402942D0416A02680978116143
:10442000416A491C4162418D491E418510BD2129C7
:10443000E8D120230021082A13D0202A11D012F518
:10444000803F0ED00268546824F4E0645460112266
:10445000026380F83E1080F83D3000BFFEF7EAF8B6
:1044600010BD0268546824F4E06454600268146863
:1044700044F400741460016380F83D3090F83E20ED
:1044800080F83E10402AE9D100E002E0FEF7D4F8BF
:1044900010BD0068416821F48061416010BDBDE835
:1044A000104000F0D3B8000078B590F83E50C26AD2
:1044B000036B90F83D6000240168222E7AD1066DCE
:1044C0000EB9402D76D0056D1DB90569B5F5404F83
:1044D00009D0458D05B3468D384D012E0ED0438D44
:1044E000022B3AD05DE04A698A6900920A6842F478
:1044F00080720A60016D491C016578BDAA4213D122
:104500000A6822F480620A6001684A68120503D5CD
:104510000A6822F4806216E04A698A6900920A6891
:1045200042F400720A6039E0082A10D0202A0ED026
:10453000122B0AD0042A03D0022A01D0102AE7D174
:104540000A6842F480620A6024E0012AE0D00A6826
:1045500022F480620A600168DEE7042A21D0022A80
:104560001FD0102A1DD00B6823F480630B600168F4
:104570000B6843F400630B6001684B681B0509D5A9
:10458000AA4212D0012A10D0082A0ED0102A0CD02C
:10459000202A0AD001684A6989690091046578BDBA
:1045A00008E00B6843F48063E5E74A6842F4805210
:1045B0004A60EFE7486988690090F0E70000FFFF74
:1045C00090F83E10402910D00169B1F5804F19D004
:1045D000016DA9B3016D012910D1416C5FF0F102A9
:1045E00001F4407142EAD11106E0016D0029416CED
:1045F00005D0C9B241F0010100680161704701F0C6
:10460000FE01F9E790F83D102129416C09D0C9B2AB
:1046100041F0010102681161416B29B1C96B49B9CF
:1046200002E001F0FE01F5E7816B0029E6D0C96BDD
:104630000029E3D00068416841F40061416070479F
:10464000FFE7416CF02201F44071CBE710B590F820
:104650003D10026D22B3026D012A2FD0026D022A95
:104660001DD122292FD0428D0AB1212933D0428D6C
:10467000002A14D1212912D101684A6822F4E0628B
:104680004A6001680A6842F400720A60002101630E
:10469000202280F83D2080F83E10FDF7CDFF10BDB0
:1046A000C16C0129816C02D0C1F3072108E00268C6
:1046B000C9B21161016D891C016510BD816CC9B25F
:1046C0000268116104E001680A6842F480720A60BD
:1046D000016D491CF0E7416A026809781161416A7D
:1046E000491C4162418D491E418510BD2DE9F843A9
:1046F000044600680D46DDE90897016898461646AD
:1047000041F4807101604B4600224FF001112046B8
:10471000009700F079F948B120680068C00502D51B
:104720004FF4007020640320BDE8F883216805F091
:10473000FE0008613B464A461549204600F098F9BC
:1047400088B920684169806900903A464946204608
:1047500000F0D9F948B1206C042804D12068016820
:1047600041F4007101600120DEE7F5B2B8F1010FFC
:1047700009D02168300A08613A464946204600F0CF
:10478000C2F90028E7D1206805610020CCE70000CD
:104790000200010038B50C4690F83D200021282584
:1047A000954302680B4605D051699169009180F8E4
:1047B0003C3038BD556825F480655560E2435407A8
:1047C00000D50121120601D5828900E0028B80F814
:1047D0003C3092B2FDF7F1FC38BD00002DE9F0410C
:1047E00090F83D40C26A002320261C4F01686FF4F8
:1047F0008065082A01D0202A01D1282C04D0212C40
:1048000016D04D61BDE8F081C7624A6822F4E062CB
:104810004A6001684D6101680A6822F480620A609A
:10482000036380F83D6080F83E30FDF701FFE9E763
:10483000C7622122026380F83D6080F83E304A68FA
:1048400022F4E0624A6001684D6101680A6822F45E
:1048500080620A60FDF7FDFFD4E700000000FFFF63
:10486000F8B590F83D6004460068416821F4E061C5
:1048700041602068002541690091016841F0010113
:1048800001602068016821F480610160206841684E
:10489000090520D5474F222E48D02A2E46D0616BDD
:1048A000096849686185618D19B1216C41F0040185
:1048B0002164416821F400614160606BFDF7B5FA45
:1048C000012808D0606B0765606BFDF79CFA10B19A
:1048D000606B016D8847608D08B320684169C943EA
:1048E000490708D40069616A0870606A401C606208
:1048F000608D401E608520684169C943490608D41F
:104900000069616A0870606A401C6062608D401EC8
:104910006085608D18B1206C40F004002064206C2C
:1049200000B32046BDE8F840FFF780BBA16B0968E3
:1049300049686185618D19B1216C41F004012164E0
:10494000416821F400614160A06BFDF76EFA012817
:10495000C1D0A06B0765A06BFDF755FA0028BAD04F
:10496000A06BB6E72A2E06D12563282084F83D00E7
:104970002046FDF76DFF94F83D10202028290DD02A
:10498000216B222901D0222E07D1256384F83D0016
:1049900084F83E502046FDF75BFFF8BD0649E16212
:1049A000256384F83D0084F83E502046FDF740FE24
:1049B000F8BD0000713F00080000FFFF70B516460B
:1049C0000D4604460DE02046FFF7DCFB08B1012050
:1049D00070BD681C05D0FDF7E9FB801BA84207D815
:1049E00035B120684069C0434007ECD4002070BD59
:1049F000002044F8300F20216173A073216941F039
:104A0000200121612073E2E72DE9F0471E46904620
:104A10000D460446C1F30747DDF8209008E0701CFE
:104A200006D0FDF7C3FBA0EB0900B0420FD876B16A
:104A30002068012F18D0806925EA00000004000CCE
:104A400014D000214145EAD00020BDE8F0870020C5
:104A500044F8300F20216173A073216941F02001D7
:104A6000216120730120F0E74069E5E70121E9E7D2
:104A70002DE9F0479A4691460E46044600254FF030
:104A80002008C1F3074725E020684069C04340057E
:104A900014D42068016841F40071016021686FF44A
:104AA00080604861256384F83D8084F83E50206C26
:104AB00040F00400206484F83C501FE0B9F1FF3F4F
:104AC00008D0FDF773FBA0EB0A0149450CD8B9F1FA
:104AD000000F09D02068012F13D0806926EA00005A
:104AE0000004000C0BD0CFE744F8305F84F80D8051
:104AF000A573206940F02000206125730120BDE8E6
:104B0000F0874069EAE770B516460D4604460DE0A9
:104B10002046FFF737FB08B1012070BD681C05D0A7
:104B2000FDF744FB801BA84207D835B120684069D7
:104B3000C0430006ECD4002070BD002044F8300FC4
:104B400020216173A073216941F02001216120734C
:104B5000E2E700002DE9F04387B014216846FBF737
:104B60000FFD62480024016841F004010160016802
:104B700001F004010591016841F020010160016824
:104B800001F020010591016841F080010160016898
:104B900001F080010591016841F0010101600168A7
:104BA00001F001010591016841F002010160016815
:104BB00001F002010591016841F0100101600168F6
:104BC00001F010010591016841F0080101600168E0
:104BD00001F008010591016841F0400101600068A1
:104BE000434E00F040004FF408650590002229462E
:104BF0003046FDF7D6FADFF8FC9000222021484627
:104C0000FDF7CFFADFF8F080002202214046FDF7E1
:104C1000C8FA3A4F0122E9003846FDF7C2FA0022ED
:104C20004FF430413846FDF7BCFA00950125CDE937
:104C30000154694630460394FDF7B6F904208DE827
:104C4000310069464846FDF7AFF994208DE8310000
:104C50002B4E69463046FDF7A7F920200090CDE99C
:104C60000154694648460394FDF79EF902200090DE
:104C7000CDE90154694640460394FDF795F94FF498
:104C800074400090CDE90154694638460394FDF71D
:104C90008BF9A802CDE90004694640460294FDF76D
:104CA00083F98020CDE90004694616480294FDF797
:104CB0007BF94FF4D060CDE9000469464846029480
:104CC000FDF772F92802CDE90004694630460294E6
:104CD000FDF76AF98420CDE9000469460A48029488
:104CE000FDF762F907B0BDE8F083000030380240FC
:104CF000001402400008024000040240001002407C
:104D00000000024000180240000C02400D4810B59F
:104D10000B4901600C49416000214FF480428160E1
:104D2000C0E9031241618161C1610162FDF7BCFB11
:104D3000002803D0BDE81040FCF70DBF10BD0000F7
:104D400000540040AC020020A08601000D4810B5C0
:104D50000B4901600C49416000214FF480428160A1
:104D6000C0E9031241618161C1610162FDF79CFBF1
:104D7000002803D0BDE81040FCF7EDBE10BD0000D8
:104D80000058004000030020A086010010B58CB040
:104D90000024059406940794142168460894FBF7B0
:104DA000EFFB1B48099419490A94016040F28F6196
:104DB000C0E9011447F22F51C0E903148021C0E972
:104DC0000541FEF7E9F808B1FCF7C5FE4FF4805045
:104DD000059005A90E48FEF7A7F908B1FCF7BBFE40
:104DE000009469460A480194FEF738FD08B1FCF7C3
:104DF000B2FE099409A906480A94FEF785F800282E
:104E000001D0FCF7A8FE0CB010BD0000000001406E
:104E10005403002010B58AB0002407941C21684672
:104E20000894FBF7ADFB1D484FF08041C0E900142A
:104E300040F2E731C0E9024104618461FEF729FCD8
:104E400008B1FCF788FE079407A914480894FEF7F8
:104E50005BF808B1FCF77FFE6020CDE90004029406
:104E6000002269460D480494FEF7ADFB08B1FCF73B
:104E700072FE042269460948FEF7A5FB08B1FCF75B
:104E80006AFE0C2269460548FEF79DFB08B1FCF757
:104E900062FE0248FEF740FB0AB010BD9C030020F2
:104EA00010B58AB0002407941C2168460894FBF7CB
:104EB00067FB1E481C490160A721C0E9011444F6A4
:104EC0001F61C0E903148461FEF7E3FB08B1FCF73E
:104ED00042FE079407A915480894FEF715F808B193
:104EE000FCF739FE6020CDE90004029400226946F7
:104EF0000E480494FEF767FB08B1FCF72CFE042271
:104F000069460A48FEF75FFB08B1FCF724FE082259
:104F100069460648FEF757FB08B1FCF71CFE03483C
:104F2000FEF7FAFA0AB010BD00040040E4030020C6
:104F300010B58CB024216846FBF722FB00241648EC
:104F4000099414490A9401600321C0E901144FF641
:104F5000FF72C0E90324846100910120CDE9014082
:104F600003940494CDE90540079469460A480894DF
:104F7000FEF748F908B1FCF7EEFD099409A90648C7
:104F80000A94FDF7C1FF002801D0FCF7E4FD0CB046
:104F900010BD0000000800402C0400200C4810B593
:104FA0000A4901604FF4E1314160002181600C2227
:104FB000C160C0E904128161C161FEF7B1FD002842
:104FC00003D0BDE81040FCF7C6BD10BD0010014085
:104FD000740400200C4810B50A4901604FF4E13117
:104FE0004160002181600C22C160C0E9041281612E
:104FF000C161FEF795FD002803D0BDE81040FCF725
:10500000AABD10BD00440040B80400200C4810B5F3
:105010000A4901604FF4E1314160002181600C22B6
:10502000C160C0E904128161C161FEF779FD002809
:1050300003D0BDE81040FCF78EBD10BD0048004015
:10504000FC0400200C4810B50A4901604FF4E1311E
:105050004160002181600C22C160C0E904128161BD
:10506000C161FEF75DFD002803D0BDE81040FCF7EC
:1050700072BD10BD0014014040050020FEE7FEE7B0
:1050800070B5002404F1B000C0B200F0C1F80020F7
:1050900000F0BEF8102000F0BBF80025002000F062
:1050A000C9F86D1CEDB2802DF8D3641CE4B2082C55
:1050B000E8D370BD10B5C820FCF7BAFEBDE81040BB
:1050C00001F0EAB910B50446B031C8B200F0A0F85A
:1050D000102040EA141000F09BF804F00F00BDE827
:1050E000104000F095B800002DE9F041203A00246E
:1050F0000D468046D6B27F2803D900208D1C8046FD
:10510000EDB2102B29460FD0FFF7DCFF164906EB56
:10511000460001EB4005285D00F08CF8641CE4B209
:10512000062CF8D3BDE8F081FFF7CCFF0F4F00BF8E
:1051300004EB0610385C00F07DF8641CE4B2082C27
:10514000F6D36D1CE9B24046FFF7BCFF5FF00004E8
:1051500004EB06103844007A00F06CF8641CE4B2EA
:10516000082CF5D3DEE70000007200082874000860
:105170002DE9F05F0026DDF828901D4692468B460B
:10518000804634464FEA590723E0281B401EC1B22F
:105190000A2001F079FABAFBF0F00A21B0FBF1F233
:1051A00001FB120026B9691E8C4201DA38B10126D2
:1051B0003030C2B207FB0480C0B24B4604E007FBAC
:1051C0000480C0B24B4620225946FFF78DFF641C75
:1051D000E4B2AC42D9D3BDE8F09F2DE9F041984646
:1051E00017460E46044600250DE04346314620464C
:1051F000FFF77AFF0834E4B2782C02D90024B61CF9
:10520000F6B26D1CEDB27A5D002AEED1BDE8F081F8
:1052100001B584B001214FF4807204A88DE8070025
:105220000B46002278210248FDF708FA05B000BDC0
:105230000003002001B584B001214FF4807204A85E
:105240008DE807000B46402278210248FDF7F6F969
:1052500005B000BD000300202DE9F04F6449654B07
:105260000A464E78157887B06A1CD2B2002436B14F
:10527000012E08D0022E1AD0032E7CD005E02C2857
:1052800003D101240EE012280BD04C700C700020CA
:1052900023F81040401CC0B21628F9D307B0BDE86F
:1052A000F08F02244C7023F815000A70F6E723F8FB
:1052B00015000A70162A01D25B28EFD1032048702E
:1052C00048684D4C4D4D4E4E4E4FDFF83C91DFF847
:1052D0003CA1DFF83CE1DFF83CB1142850DA03EBE5
:1052E000420030F8241C30F81CCCA1EB0C0C4049D7
:1052F0004968491CBCF1000F1EDD30F818CCA4F839
:1053000000C030F814CCA5F800C030F820CCA6F8C6
:1053100000C030F81CCCA7F800C030F8288CA9F8E1
:10532000008030F8248CAAF8008030F8108CAEF899
:10533000008030F80CCC1DE030F810CCA4F800C090
:1053400030F80CCCA5F800C030F818CCA6F800C096
:1053500030F814CCA7F800C030F8208CA9F80080F1
:1053600030F81C8CAAF8008030F8288CAEF8008049
:1053700030F824CC00E027E01D48ABF800C04160C5
:1053800003EB4201244A31F9080D1080234AB1F998
:1053900004101180B5F90030B4F90020CDE9050101
:1053A000CDE90323BAF90000B7F90020B6F90010DF
:1053B0008DE80700B9F90030BBF90020BEF90010F4
:1053C00017A0FAF7F9FF69E703EB450030F8020C84
:1053D0005B280AD04C700C705FF0000023F810407E
:1053E000401CC0B21628F9D358E70C704C7055E732
:1053F000A4020020A4050020080000200A000020CC
:105400000C0000200E0000201000002012000020E0
:10541000140000201600002040010020420100205E
:105420002564202025642020256420202564202058
:105430002564202025642020256420202564202543
:10544000642025640D0A00007047000010B51E4C52
:10545000D4E9080101F066F941F28830FCF7E8FC74
:10546000D4E90802D4E90A1300F0DDFCD4E90A010A
:1054700001F058F96420FCF7DBFCD4E90A02D4E916
:105480000C1300F063FED4E90C0101F04BF9642029
:10549000FCF7CEFCD4E90C02D4E90E1300F0C3FCF7
:1054A000D4E90E0101F03EF96420FCF7C1FCD4E917
:1054B0000E02D4E9081300F049FED4E90801BDE862
:1054C000104001F02FB900000000002010B51E4C64
:1054D000D4E9100101F026F94FF47A70FCF7A8FC2A
:1054E000D4E91002D4E9121300F09DFCD4E91201B2
:1054F00001F018F96420FCF79BFCD4E91202D4E90E
:10550000141300F023FED4E9140101F00BF9642018
:10551000FCF78EFCD4E91402D4E9161300F083FCE6
:10552000D4E9160101F0FEF86420FCF781FCD4E90F
:105530001602D4E9101300F009FED4E91001BDE809
:10554000104001F0EFB80000000000202DE9F84FF6
:10555000A449B7EE000AB1F90870B1F90C80B1F9AD
:1055600014C0A8F10209B1F910307F1E07EB090041
:10557000ACF1030C60449B1F1844C217B1F90A60D8
:10558000B1F90E5000EB9270B1F9164040F38F0262
:10559000ED1CB61EB1F912A07019E41E204450444F
:1055A0004FEAE07800EB98700A8340F38F0048835D
:1055B000B1F90480A2EB070BA8EB0208CDF800803C
:1055C000B1F90680871BA8EB000EDDF80080461BB2
:1055D00000EE908AD51AA0EB0A03F8EEE00A041B4D
:1055E000BF1EA2EB090980EE801AD1ED1B0AA2EBC7
:1055F0000C02F8EEE00A71EE200AFDEEE00A10EE71
:10560000900A00EE90EAF8EEE00A80EE801AD1ED02
:105610001C0AF8EEE00A70EEC10AFDEEE00A10EE98
:10562000901A00EE90BAF8EEE00A80EE801A00EED2
:10563000900AF8EEE00A71EE200AFDEEE00A10EEA4
:1056400090BA00EE907AF8EEE00A80EE801A00EE52
:10565000901AF8EEE00A09F10308DB1C921E70EEC6
:10566000C10AFDEEE00A10EE907A00EE908AF8EEA4
:10567000E00A80EE801A00EE900AF8EEE00A71EE81
:10568000200AFDEEE00A10EE90AA00EE906AF8EE15
:10569000E00A80EE801A00EE901AF8EEE00A70EE52
:1056A000C10AFDEEE00A10EE906A00EE905AF8EEA4
:1056B000E00A80EE801A00EE900AF8EEE00A71EE41
:1056C000200AFDEEE00A10EE909A00EE903AF8EE15
:1056D000E00A80EE801A00EE901AF8EEE00A70EE12
:1056E000C10AFDEEE00A10EE905A00EE902AF8EEA4
:1056F000E00A80EE801A00EE900AF8EEE00A71EE01
:10570000200AFDEEE00A10EE908A00EE904AF8EED4
:10571000E00A80EE801A00EE901AB8EEE00A30EE51
:10572000410ABDEEC00A10EE104A00F0FBFF4FF434
:105730007A70FCF77DFB3946584600F0F3FF4FF4D2
:105740007A70FCF775FB33463A465146584600F0EE
:10575000B5FB3146504600F0E5FF3246514622A0E7
:10576000FAF72AFE4FF47A70FCF762FB2B463246BA
:105770004946504600F0A2FB2946484600F0D2FFB9
:105780002A46494623A0FAF717FE4FF47A70FCF731
:105790004FFB23462A464146484600F08FFB2146F0
:1057A000404600F0BFFF2246414626A0FAF704FE1D
:1057B0004FF47A70FCF73CFB3B4622465946404684
:1057C00000F07CFB3946584600F0ACFF3A4659469B
:1057D00028A0FAF7F1FDBDE8F84F4FF47A70FCF716
:1057E00027BB00000000002070776D5F785F726952
:1057F0006768745F746F703A25642C2070776D5FF2
:10580000795F72696768745F746F703A25640D0A16
:105810000000000070776D5F785F72696768745F81
:10582000626F74746F6D3A25642C2070776D5F79A8
:105830005F72696768745F626F74746F6D3A256434
:105840000D0A000070776D5F785F6C6566745F624B
:105850006F74746F6D3A25642C2070776D5F795F7B
:105860006C6566745F626F74746F6D3A25640D0ABF
:105870000000000070776D5F785F6C6566745F7420
:105880006F703A25642C2070776D5F795F6C656668
:10589000745F746F703A25640D0A00007047000051
:1058A0001C49884201D2002070471B49884201D21E
:1058B000012070471949884201D2022070471849D7
:1058C000884201D2032070471649884201D2042041
:1058D00070471549884201D2052070471349884214
:1058E00001D2062070471249884201D20720704732
:1058F0001049884201D2082070470F49884201D2DE
:10590000092070470D49884201D20A2070470B20B8
:1059100070470000004000080080000800C0000838
:10592000000001080000020800000408000006084A
:105930000000080800000A0800000C0800000E081B
:1059400010B5002303E010C841F823405B1C9342CC
:10595000F9D310BD2DE9F04F87B04FF0000817467E
:105960000E460446CDF81480B0F1006F38D3A0077E
:1059700036D1FCF703FB1C48254604EB87074CF2A5
:105980005039844215D24FF0010A4FF0020BBD424C
:105990000FD22868401C11D02846CDF80080FFF7B0
:1059A0007FFF02AA05A982E8010C6846FCF752FABB
:1059B00028B14846FCF7B6F970B10FE02D1D4846F6
:1059C000FCF7B0F9E3E70023214602203268FCF738
:1059D00097FA18B9241D361DBC42F4D3FCF786FA99
:1059E00007B0BDE8F08F00000000FF1F7047FCF714
:1059F00031BF000030B593B030216846FAF7C0FDE2
:105A000014210CA8FAF7BCFD1D480025016841F0DF
:105A100080510160006800F08050119019480168C1
:105A200041F4804101600068022400F4804011903C
:105A30000120039010200490009406940820CDE9E2
:105A40000750A820CDE9090404200B906846FDF713
:105A50008FF808B172B6FEE70CA90F2081E831007B
:105A60004FF4A0500F904FF48050109005210CA8D7
:105A7000FCF792FF002801D072B6FEE713B030BDEC
:105A800040380240007000400248016841F4700153
:105A90000160704788ED00E00148FDF789BC000017
:105AA000540300200148FDF783BC00009C03002044
:105AB0000148FDF77DBC0000E40300200148FDF72C
:105AC00077BC00002C040020F0B50268254C264D60
:105AD000264E274F274B4FF0804CA04209D06045FF
