:020000040800F2
:10000000B80900204D02000825500008753B000883
:10001000B14F0008F9170008B155000800000000B2
:100020000000000000000000000000002B5000084D
:10003000411A000800000000275000082D50000859
:1000400067020008670200086702000867020008EC
:1000500067020008295000086702000867020008CC
:1000600067020008670200086702000867020008CC
:1000700067020008670200086702000867020008BC
:100080006702000867020008C5160008670200083A
:10009000670200086702000867020008670200089C
:1000A000670200086702000867020008670200088C
:1000B000D5500008E1500008ED500008853B0008CD
:1000C000793B00089D3B0008913B0008670200084F
:1000D000670200088D55000899550008A5550008CD
:1000E000670200086702000867020008670200084C
:1000F000670200086702000867020008670200083C
:10010000670200086702000867020008670200082B
:10011000670200086702000867020008670200081B
:10012000670200086702000867020008670200080B
:1001300067020008670200086702000867020008FB
:1001400067020008670200086702000867020008EB
:1001500067020008670200086702000867020008DB
:1001600067020008670200086702000867020008CB
:10017000670200086702000867020008000000002C
:10018000670200086702000800F002F800F04FF86C
:100190000AA090E8000C82448344AAF10107DA45E2
:1001A00001D100F044F8AFF2090EBAE80F0013F0E5
:1001B000010F18BFFB1A43F00103184730990000E4
:1001C00050990000103A24BF78C878C1FAD8520775
:1001D00024BF30C830C144BF04680C6070470000C1
:1001E0000023002400250026103A28BF78C1FBD840
:1001F000520728BF30C148BF0B607047662908F01E
:100200005085642900F01481732900F0CD8400200A
:1002100070471FB508F03BFD00F0FEFC0400002015
:10022000002107F06FFFE0601FBD10B510BD00F0AA
:1002300013FE1146FFF7EDFF06F090FE00F031FED1
:1002400003B4FFF7F2FF03BC05F0A9FE094880479D
:1002500009480047FEE7FEE7FEE7FEE7FEE7FEE7A8
:10026000FEE7FEE7FEE7FEE704480549054A064BC0
:1002700070470000C550000889010008B80300203D
:10028000B8090020B8050020B8050020704753EADF
:10029000020C00F069802DE9F04B4FF00006002BB6
:1002A0001FBFB3FA83F503FA05F424FA05F65E409E
:1002B00012BF1643B2FA82F502FA05F4C5F1200521
:1002C0001EBF22FA05FC44EA0C04203556EA044C11
:1002D0004FEA144418BF641C4FF000084FF00009A7
:1002E000904271EB030C39D3002919BFB1FA81F7A1
:1002F00001FA07F6B0FA80F700FA07F6C7F120070F
:100300001EBF20FA07FC46EA0C062037B6FBF4FCB9
:10031000A7EB0507103F07F01F0BCBF120060CFAE7
:100320000BFB2CFA06F644BFB3460026202FA4BFD1
:100330005E464FF0000B5BEA060C08BF4FF0010B66
:1003400019EB0B09ABFB027C48EB0608C01B06FB54
:1003500002CC0BFB03CC71EB0C01C1E70B46024650
:1003600041464846BDE8F08B13B54FF000004FF012
:100370000001AFF30080BDE81C40704710B54C1081
:1003800084EA530404D54042C1F1000138BF491E3C
:100390001B4204D55242C3F1000338BF5B1EFFF776
:1003A00076FF14F0804F04D04042C1F1000138BF05
:1003B000491E14F0004F04D05242C3F1000338BF6D
:1003C0005B1E10BD0FB4044910B503AA029800F0DB
:1003D000EFFB10BC5DF814FB0000002070B50C466C
:1003E0000546012A05D02878800600D5EA69002351
:1003F00002E0012305E05B1C934202D2E05C00288E
:10040000F9D1A869E618C01AA861286A18442862B8
:100410002846AFF3008004E0D5E9012114F8010B70
:100420009047B442F8D32846AFF3008070BD000077
:100430002DE9F0410646002410687529314616A5BD
:1004400010D0AFF30080002802DA404213A507E085
:1004500031688A0701D512A502E0490704D511A524
:10046000012401E0AFF3008000210A2206F12407F5
:1004700009E0B0FBF2FCB0FBF2F302FB1C003030F1
:1004800078541846491C0028F3D123462A463046A2
:10049000BDE8F04100F00EB9000000002D000000A2
:1004A0002B000000200000002DE9F05F8946044683
:1004B0004FF0000ADFF824B1FB44C0F820A020462A
:1004C000E168884700287DD0252806D0D4E901219D
:1004D0009047206A401C2062F1E700255F462046D5
:1004E000E16888472028064607DB312E05D2B81977
:1004F00010F8200C08B10543F1E7A80701D525F055
:100500000405C4F81CA00027C4F818A02A2E09D09E
:10051000304605F03DFD38B304EB8708303EC8F89F
:10052000186019E059F8041B204604EB870291611A
:10053000E1688847012F064618D1E069002820DAD3
:1005400025F020051DE0D8F8180000EB800006EB30
:1005500040003038C8F818002046E1688847064651
:1005600005F016FD0028EED1012F0AD02E2E08D15D
:100570002046E16888477F1C0646022F45F020058B
:10058000C4DBA069002803DA404245F00105A06100
:10059000E80701D025F01005A6B1A6F14100192801
:1005A00002D8203645F400654A463146204625608B
:1005B0004D46FFF723FE60B1012807D0ED1D25F061
:1005C000070000E007E000F1080978E705F10409F9
:1005D00075E730467AE7206ABDE8F09F4A9400004C
:1005E00040EA010310B59B070FD1042A0DD310C8B0
:1005F00008C9121F9C42F8D020BA19BA884201D902
:10060000012010BD4FF0FF3010BD1AB1D30703D049
:10061000521C07E0002010BD10F8013B11F8014BFF
:100620001B1B07D110F8013B11F8014B1B1B01D11B
:10063000921EF1D1184610BD02F0FF0343EA0322D7
:1006400042EA024200F0C8BA4FF0000200B5134679
:1006500094469646203922BFA0E80C50A0E80C50E2
:10066000B1F12001BFF4F7AF090728BFA0E80C5093
:1006700048BF0CC05DF804EB890028BF40F8042B8C
:1006800008BF704748BF20F8022B11F0804F18BFF9
:1006900000F8012B7047704770477047704710B5DE
:1006A00000F0BEFA006810BD10B5044600F0B8FABC
:1006B000046010BD2DE9F0470D4699469246044668
:1006C00000F124080168880604D5E06921F01001D2
:1006D000216000E00120A84201DD471B00E0002767
:1006E000A1697A1902EB0900081AA0612078C006F6
:1006F00002D42046AFF30080002608E0D4E90121AF
:100700001AF806009047206A401C761C20624E456D
:10071000F4DB2078C0060AD52046AFF3008006E05F
:10072000D4E9012130209047206A401C2062381E05
:10073000A7F10107F4DC07E0D4E9012118F805006E
:100740009047206A401C2062281EA5F10105F3DCB9
:100750002046AFF300802078000602D50220BDE8D5
:10076000F0870120FBE770472DE9FF4F0C461E463E
:100770004FF0FF378BB0D2E90001DDF860800A90BE
:100780008A46C1F30A5505B93D46002108464FF097
:100790000000BAF1000F00F4400005DA00EB800021
:1007A0004FF4400101EA50004FEA9059B9F1010FAE
:1007B00000DDB9460A9850EA4A000ED044F61050BF
:1007C000A5F2FF3545432F14B8F1000F1ED0754236
:1007D000291E1EDDC9F100021CE0B8F1010F4FF027
:1007E000000001D0302103E0F24305E02154401C19
:1007F000B042FBDB30460022002121540B99C1F8A6
:100800000880C1E900200FB0BDE8F08FBD1B6D1C52
:10081000DEE74A4600DA694206A800F0A3FA06AB12
:1008200093E8070003AB83E8070050460A9900F0FD
:1008300081FB8DE80700A0F500501F380090039859
:10084000002D0ADD42F21F014A460844002303A995
:100850000390684600F0EAFD09E0A0F500504A4622
:100860001F38002303A90390684600F0F4FD8DE8CB
:1008700007000004000C03D04FF0FF30410800E0F7
:100880001046B8F1000F03D00022009215461EE07A
:10089000751E05D400F0C8F9303262556D1EF9D5C9
:1008A000B3460122084302D000227F1C04E02078D6
:1008B000302801D100227F1E002A099784D01DE034
:1008C000112D07DA00F0B0F9303262556D1C50EA94
:1008D0000102F5D1084302D00098C8B10EE0002112
:1008E000681E05E0235C625C63542254401E491C70
:1008F0008142F7DBAB46A81B401E0990002004F89C
:100900000B000B98099AC0F80880C0E9002B7AE721
:1009100011264FF0000857E72DE9F04F88460446AE
:10092000D21D22F0070191B0D1E90001CDE90A0101
:1009300004F03FFE02460B98C00F01D02D2007E0C7
:100940002068810701D52B2002E0202101EAC000A8
:10095000032A099001D0072A05DB034641462046B9
:1009600000F0C0F90BE12078800601D5E06900E0D5
:100970000620B8F1650F814606D0B8F1660F18D091
:10098000B8F1670F70D131E00020B9F1110F00907C
:1009900001DB112301E009F101030AAA01A90CA856
:1009A000FFF7E2FEDDE90C70002609F10105834640
:1009B00047E001204B4600904FF000470AAA01A9EA
:1009C0000CA8FFF7D1FEDDE90DB00C995D460026BD
:1009D00010B909F101000D18B9EB050003D4C0F1FD
:1009E000FF3609F10105A5EB09002BE0B9F1010F74
:1009F00001DA4FF001090020B9F1110F00904846CB
:100A000001DD112300E003460AAA01A90CA8FFF7A3
:100A1000ABFEDDE90C704D460026834620780007CA
:100A20000AD4AB4500DA5D4601A8012D04DD411969
:100A300011F8011C302907D04F4502DA17F1040FD5
:100A400004DA012082460FE06D1EEEE7002F02DC83
:100A5000ED1B3E4403E0781CA84200DD7D1CB81B62
:100A600000F1010A4FF000472078000703D4AA459F
:100A700001DB4FF0FF3A0021B7F1004F0DF14308C1
:100A80008DF8431024D002202B23002F01DA7F425F
:100A90002D230A21021EA0F1010000DC5FB197FBAB
:100AA000F1FC97FBF1F201FB1C7C17460CF1300CBA
:100AB00008F801CDEEE7A8F10100037021880905CF
:100AC00001D5452100E06521A0F1010800F8011CD5
:100AD00009980FA9A1EB0807FF1D00B101204119DA
:100AE00001EBEA70A1693844081A401EA061207821
:100AF000C00602D42046AFF30080099828B1D4E99B
:100B000001219047206A401C20622078C00622D52F
:100B10002046AFF300801EE0002E04DBB34502DD6B
:100B200001A8805D00E03020D4E901219047206ACF
:100B3000401C2062761CAAF101005FEA000A0AD17B
:100B400000F06AF8C0680168405CD4E90121904770
:100B5000206A401C2062281EA5F10105DCDC07E0AC
:100B6000D4E9012118F8010B9047206A401C20624B
:100B7000381EA7F10107F3DC2046AFF30080032005
:100B800011B041E610B5436913B1AFF3008001E045
:100B9000FFF724FC012010BD127800F124010A7037
:100BA00000224A700122EDE711684FF0FF32E9E7B9
:100BB000074B70B50D467B4400F081F8044628468B
:100BC00000F042F910B14FF0FF3070BD204670BD0B
:100BD000575E00004FF000020429C0F0128010F0B0
:100BE000030C3FF433ADCCF1040CBCF1020F18BF81
:100BF00000F8012BA8BF20F8022BA1EB0C01FFF796
:100C000025BD5FEAC17C24BF00F8012B00F8012B51
:100C100048BF00F8012B704700487047740300205C
:100C2000004870475403002030B5B0F10A024FEA83
:100C3000900E71F100034EEA817EB0EB0E0061EB85
:100C400091014FEA101E4EEA017E10EB0E0041EBBF
:100C500011114FEA102E4EEA016E10EB0E0041EB1F
:100C600011214FEA104E4EEA014E10EB0E0041EBFF
:100C70001141401841F100014FEAD00040EA4170B3
:100C80004FEAD10110EB80054FEA810444EA9074E9
:100C900044EB01046D1944EB0404521BA3414FF0D3
:100CA000000348BF0A3200D530BD401C41F10001AD
:100CB00030BD000001694A1C02610878704700B528
:100CC0008FB0CDE901310021059105497944CDE985
:100CD000031011466846FFF7E7FB0FB000BD0000A8
:100CE000E5FFFFFF2DE9F0411F460446032601689A
:100CF000072A01F4006004DB08B116A505E016A57B
:100D000003E008B115A500E015A521F01000206052
:100D1000A069C01EA0610FB1401EA0612046AFF3C4
:100D200000804FB1D4E9012138469047206A401C29
:100D30002062C01C206206E0206AFAE7D4E90121A3
:100D400015F8010B9047761EF8D22046AFF30080CD
:100D5000BDE8F0814E414E006E616E00494E460086
:100D6000696E66002DE9F047814616468AB035481F
:100D700078440DC88DE80D0032487844801C03ACDF
:100D80000DC884E80D0041F69B300844372190FBE4
:100D9000F1F290FBF1F5A5F1800501FB12041B3C7B
:100DA00002D56442012000E00020DFF898A08046D0
:100DB0000027FA44AAF1BE0A0EE0E0070AD0324644
:100DC000684607EB470101230AEB810100F043FB72
:100DD0008DE8070064107F1C002CEED1194F7F4472
:100DE000AE3F19E0E80715D007EB04100DF1180A23
:100DF00090E80E008AE80E00C068F04201D1981910
:100E000008903246012306A903A800F024FB03AB97
:100E100083E807006D10641C002DE3D14FF001033F
:100E200032466946B8F1000F03A802D000F0FEFA7E
:100E300001E000F010FBC9E90001C9F808200AB080
:100E4000BDE8F087108D0000007B00F08000704747
:100E500000487047540300207546FFF7F9FFAE467F
:100E600005006946534620F00700854618B020B5B6
:100E7000FFF7FAF9BDE820404FF000064FF00007F9
:100E80004FF000084FF0000B21F00701AC46ACE832
:100E9000C009ACE8C009ACE8C009ACE8C0098D469F
:100EA000704710B50446AFF300802046BDE81040FF
:100EB000FFF7C6B94FF0013C50F8042B51F8043B42
:100EC0009A4221D1A2EB0C03934313EACC1317D11E
:100ED00050F8042B51F8043B9A4215D1A2EB0C03B5
:100EE000934313EACC130BD150F8042B51F8043B75
:100EF0009A4209D1A2EB0C03934313EACC13DBD043
:100F00004FF00000704700BFD01A01BAB1FA81F16A
:100F100001F0180122FA01F0CB40C1F12001DBB24F
:100F2000C0B2C01A2CFA01F3D11A914311EAC311CD
:100F3000E6D170475FEA400C08BF91F0000F4FEA1E
:100F40008C234FEAC12243EA51514FEA1C5018BF8B
:100F500000F5F0404FEA300018BF41F000415FEA71
:100F60006C5C00F02980BCF1FF3F08BF40F080407E
:100F70007047130C06BF12044FF0100C4FF0000C1A
:100F8000130E04BF12020CF1080C130F04BF120160
:100F90000CF1040C930F04BF92000CF1020CD30F60
:100FA00004BF52000CF1010C11464FF00002A0F1F9
:100FB0001F00A0EB0C00704711F0004F08BF7047F6
:100FC00031F000413FF4D5AF0B0C06BF09044FF0E0
:100FD000100C4FF0000C0B0E04BF09020CF1080CB2
:100FE0000B0F04BF09010CF1040C8B0F04BF890027
:100FF0000CF1020CCB0F04BF49000CF1010CCCF139
:101000002003A0EB0C0022FA03F302FA0CF241EAEF
:10101000030100F10100704720F07F4C80EA0300DB
:1010200023F07F47ACEB070303F57C5300F000404F
:1010300003F1FF032DE980494FEA154B09B44FEA4C
:10104000144325EA0B4E24EA03480FF2042606EB6C
:10105000132749083E785FEA320203FB0667C7F5AB
:10106000000707FB06F64FEA54374FEAD64606F16B
:10107000020607FB066CCCF1005C4FEA1C472CEA29
:10108000074C07FB06F40CFB06F504EB15464FEA8C
:10109000961634BF00204FF000404FEAD13706FBD0
:1010A00007FC4FEA1C4C0CFB0BF7D21B03FB0CF7A5
:1010B00061EB07010CFB0EF7B0EB074072EB174238
:1010C0000CFB08F734BFA2EB0742B2EB074261EB1F
:1010D00017414FEA0C444FEA910706FB07FC4FEA21
:1010E0001C4C0CFB0BF7B0EBC74072EB573203FB09
:1010F0000CF734BFA2EBC742B2EBC74261EB5731EA
:101100000CFB0EF7B0EBC70072EB57720CFB08F745
:1011100034BFA2EBC702B2EBC70261EB5771039F6A
:101120004FEA816141EA921104EBCC044FEAD137D6
:101130004FEA826206FB07FC42EA90124FEA8060A7
:101140004FEA1C4C0CFB0BF7D21B03FB0CF761EBBB
:1011500007010CFB0EF7B0EB074072EB17420CFBDC
:1011600008F734BFA2EB0742B2EB074261EB17412D
:101170004FEA8C554FEA910704EB9C2406FB07FCD1
:101180004FEA1C4C0CFB0BF7B0EBC74072EB57322D
:1011900003FB0CF734BFA2EBC742B2EBC74261EBD3
:1011A00057310CFB0EF7B0EBC70072EB57720CFB1C
:1011B00008F734BFA2EBC702B2EBC70261EB57716D
:1011C00015EB4C254FEA816141EA92114FEA8262A8
:1011D0004FEAD13742EA901206FB07FC44F10004C3
:1011E0004FEA80604FEA1C4C0CFB0BF7D21B03FB51
:1011F0000CF761EB07010CFB0EF7B0EB074072EB4D
:1012000017420CFB08F734BFA2EB0742B2EB0742D0
:1012100061EB174115EB1C154FEA813141EA924110
:101220004FEA823242EA90424FEA80304FEA0C762F
:1012300044F1000448EA03434EEA0B484FF0000E25
:10124000B2EB080C71EB030724BF624639464EEB44
:101250000E0E4FF0000B0018524149414BEB0B0BA7
:10126000B2EB080C71EB03077BF1000B24BF624665
:1012700039464EEB0E0E4FF0000B0018524149411B
:101280004BEB0B0BB2EB080C71EB03077BF1000B84
:1012900024BF624639464EEB0E0E51EA020718BFD4
:1012A00046F0010616EB0E7655F1000254F10001EE
:1012B00003D5BDE88901BDE80088BDE88901BDE826
:1012C0000048B619524141EB0101A3F101037047F7
:1012D00080807F7E7D7C7B7A797877767675747373
:1012E000727171706F6E6E6D6C6C6B6A6A69686832
:1012F000676666656464636362616160605F5F5EC8
:101300005E5D5D5C5C5B5B5A5A595958585757563D
:1013100056555555545453535252525151505050A2
:101320004F4F4F4E4E4D4D4D4C4C4C4B4B4B4A4AF4
:101330004A49494948484847474747464646454538
:101340004544444444434343434242424241414171
:10135000002B9C4630D477002BD01CB54FEA3707C2
:1013600003B44FF010004FF01001BAF1000F06D097
:10137000BCF1000FDCBF40F0080040F008014FF066
:1013800000000FBCBDE810400BF1010BBBF1010FD9
:1013900008BF5FEA170722BF12F1010211F1010134
:1013A0004FF0004143F1000300F0004043EA000029
:1013B0007047F9D35708D0E746EA064613F1400FC5
:1013C0004FEA16461FDD13F1200FDFBF16430A4612
:1013D000002120335B42BED0C3F1200746EA064617
:1013E00002FA07F74FEA164646EA0706C3F1200756
:1013F00022FA03F201FA07F721FA03F14FF0000392
:1014000042EA0702A7E746EA020646EA06464FEA2C
:10141000164646EA0106BCBF46EA0646360C4FF0C1
:1014200000034FF000024FF0000194E72DE9804CDB
:101430009A46934670B491E8380007C831EA400CE8
:1014400048BF34EA430C03D5FFF7E6FDFFF780FF02
:10145000F0BCBDE8008C2DE9804C9A46934670B4F0
:1014600091E8380007C810F0804F08BF13F0804F94
:1014700003D100F005F8FFF76BFFF0BCBDE8008C6E
:1014800020F07F4780EA030023F07F4C07EB0C033A
:10149000A3F57C5300F00040A3F1FE0392F0000F8F
:1014A00000F0B38095F0000F00F077802DE901493E
:1014B0004FEA11404FEA144621EA004800FB06FCBF
:1014C00024EA064708FB06F607FB08F800FB07F7C7
:1014D00018EB06484CEB164C4FEA124B18EB07483A
:1014E0004FEA15464CEB174022EA0B4E0BFB06FC6D
:1014F00025EA06470EFB06F607FB0EFE0BFB07F779
:101500001EEB064E4CEB164C4FF000061EEB074E42
:101510004CEB174B18EB0B0840F1000018EB0E0BCF
:1015200058EB000840F100008F1A4FF000013CBF5B
:10153000C943661B14BFB5EB040C00213CBFC94373
:10154000F61B4FEA17444EEA8E0E27EA04454FEA8F
:101550001C4704FB07622CEA074C05FB07F70CFB52
:1015600005F604FB0CFC16EB074642EB174216EBA4
:101570000C4642EB1C421BEB060658EB02024141B3
:1015800046EA9E0601D5BDE80189B619524141EBF4
:101590000101A3F10103BDE801894FEA14454FEAB7
:1015A000114724EA054621EA074C05FB07F406FB30
:1015B00007F70CFB06F105FB0CFC11EB074144EBB4
:1015C00017444FEA124711EB0C4144EB1C4422EA4A
:1015D000074C05FB07F206FB07F70CFB06F605FBBD
:1015E0000CFC16EB074642EB174216EB0C4642EB9F
:1015F0001C456A1854F1000148BF7047B6195241A2
:1016000041EB0101A3F10103704795F0000F37D0C2
:101610004FEA11424FEA144721EA024624EA074CF6
:1016200002FB07F106FB07F70CFB06F402FB0CFCC0
:1016300014EB074441EB17414FEA154714EB0C44F8
:1016400041EB1C4125EA074C02FB07F506FB07F7B7
:101650000CFB06F602FB0CFC16EB074645EB1745A8
:1016600016EB0C4645EB1C42121951F1000148BF24
:101670007047B619524141EB0101A3F101037047D4
:101680004FEA14454FEA114724EA054621EA074C80
:1016900005FB07F106FB07F70CFB06F24FF000060F
:1016A00005FB0CFC12EB074241EB174112EB0C421D
:1016B00051EB1C4148BF7047921841EB0101A3F167
:1016C00001037047014800F067BA0000680000207D
:1016D000464910B54A6822F440324A604A68436875
:1016E0001A434A6001684A6822F480724A600168BD
:1016F0004A68036942EA03224A6001684A6822F0A4
:1017000040724A6001684A6883681A434A60016807
:101710008A6822F400628A6001688A68C3681A4392
:101720008A60816A6FF07062D14201688A6822F033
:1017300070628A6001688A680CD0836A1A438A6082
:1017400001688A6822F040528A6001688A68C36A28
:101750001A4301E022F040528A6001688A6822F050
:1017600002028A6001688A68037E42EA43028A6054
:1017700090F82010002901684A680FD042F40062F6
:101780004A6001684A6822F460424A6001684A6817
:10179000174C436A04EB43331A4301E022F400621E
:1017A0004A600168CA6A22F47002CA620168CA6AA1
:1017B000838B104C04EB03531A43CA6201688A6896
:1017C00022F400728A6001688A6890F8303042EA38
:1017D00043228A6001688A6822F480628A60016814
:1017E0008A68406942EA8020886010BD0023014079
:1017F00000E0FFFF0000F0FFFEE7000010B52DED58
:10180000048B9FED258ADFED258A9FED259A05F053
:101810002DFC05F0F3FA78EEC08A224CB0EE480AAF
:10182000D4ED000A08EE280A78EEE00A60EE890A94
:1018300038EE800A30EE208A18EE100A07F0B6F96A
:1018400041EC100B18A053EC102BFEF7BBFD9FEDE5
:101850001B0AC4ED008A38EE000ABDEEC00A10EE85
:10186000104AA1B2A0B204F0EBFB15A117A0FEF73D
:10187000A9FD2246114617A0FEF7A4FDB0EEE80A26
:1018800010EE100AB0F17F5F03DA0120BDEC048B8B
:1018900010BD0020FAE7000000000000000096C222
:1018A0000AD7233C58000020636F6E74726F6C3D42
:1018B0002020252E32660D0A000000000000F543AE
:1018C0007269676874696E670000000025730D0A0D
:1018D0000000000025642C25640D0A0070B52DED74
:1018E000068BB0EE40AA9FED418AF1EE049A9FED7F
:1018F000409A05F083FAF0EE408A18EE900A07F05D
:1019000055F941EC100B3BA053EC102BFEF75AFDA0
:101910007AEE688A18EE900A07F048F941EC100B4D
:101920003AA053EC102BFEF74DFD3C4CB0EE480AAC
:1019300069EEA80A94ED011A08EE280A38EEC11AD9
:1019400021EE091A30EE800A30EE018A18EE100AF4
:1019500007F02CF941EC100B31A053EC102BFEF7E3
:1019600031FD9FED340AC4ED018A70EE480A38EE6D
:10197000000AFCEEE00ABCEEC00A10EE900A86B245
:1019800010EE100A85B204F1080006F0DFFA040038
:1019900028D005F059FB012C16D0022C9FED268B88
:1019A00014D0032C1ED1284606F02DFE53EC182B24
:1019B00006F03CFE06F0FAFD81B23046BDEC068B27
:1019C000BDE8704004F052BB2946F6E7304606F009
:1019D0001AFE53EC182B06F029FE06F0E7FD80B244
:1019E0002946EBE7BDEC068B70BD0000000000004F
:1019F0000AD7233C63757272656E745F7961773DB7
:101A00002020252E32660D0A000000006572726FDC
:101A1000723D2020252E32660D0A0000580000205D
:101A2000636F6E74726F6C3D2020252E32660D0A36
:101A3000000000000000FA43333333333333E33F15
:101A4000704772B6FEE7704778B50024009490F8AE
:101A50003C20012A19D0012280F83C200A68072383
:101A60000568092A13D9EE680A3A02EB420293404C
:101A70009E43EE600B788A680A3B03EB43039A406F
:101A80000368DD682A43DA6010E0022078BD2E6921
:101A900002EB420293409E432E610B788A6803EB6F
:101AA00043039A4003681D692A431A614A681F2349
:101AB000072A13D205686E6B521E02EB8202934016
:101AC0009E436E630B790A885B1E92B203EB83031D
:101AD0009A4003685D6B2A435A6327E005680D2A24
:101AE00012D22E6BD21F02EB820293409E432E63D2
:101AF0000B790A88DB1F92B203EB83039A400368D9
:101B00001D6B2A431A6311E0EE6A0D3A02EB820262
:101B100093409E43EE620B790A880D3B92B203EB31
:101B200083039A400368DD6A2A43DA62164B05682C
:101B3000144A9D4206D10D68122D03D1556845F413
:101B40008005556005689D4218D10B68102B01D0A7
:101B5000112B13D1536843F4000353600968102913
:101B60000CD10A490A4A0968B1FBF2F101EB810183
:101B7000490000E0491E00910029FBD180F83C405B
:101B8000002078BD0023014000200140100000200B
:101B900040420F007047704770B504460068066801
:101BA000456816F0020F05F020012AD049B3216CD8
:101BB000C90603D4216C41F400712164816811F0DD
:101BC000405F17D1217EA9B9C16A11F4700F02D00C
:101BD000816849050ED4416821F020014160206CE4
:101BE00020F480702064206CC00403D4206C40F08A
:101BF000010020642046FFF7CDFF21686FF012003E
:101C0000086016F0040F05F0800132D089B3206C13
:101C1000C00603D4206C40F4005020642068816822
:101C200011F4401F1ED1816B11F4401F02D0816856
:101C3000490517D44168490514D4816811F0405F03
:101C400010D1217E71B9416821F080014160206C82
:101C500020F480502064206CC00503D4206C40F038
:101C6000010020642046FFF7EEFE21686FF00C00B3
:101C7000086016F0010F05F040010FD071B1206827
:101C80000068C0070AD0206C40F4803020642046F1
:101C900000F043F821686FF00100086016F0200F93
:101CA00005F080610ED000290CD0606C40F002007D
:101CB000606420686FF0200505602046FFF76BFF29
:101CC0002068056070BD70B504004FF0000503D0BA
:101CD000206C002610B107E0012070BD204600F006
:101CE0001DF8666484F83C60206CC00610D4206C3B
:101CF00020F4885040F0020020642046FFF7E8FC02
:101D00006664206C20F0020040F00100206400E0D6
:101D1000012584F83C60284670BD704730B587B017
:101D2000044614216846FEF78FFC1D49206888424E
:101D300034D11C480024016841F4807101600068BE
:101D400000F48070059017481438016841F00101D3
:101D50000160016801F001010591016841F0020193
:101D600001600068032500F002000590F020CDE935
:101D70000005694602940C4800F08AF80120CDE97C
:101D8000000569460294094800F082F800221146D5
:101D9000122000F03FFE122000F02EFE07B030BDF2
:101DA000002001404438024000000240000402408C
:101DB0002DE9F0410446876D00F06CF9064694F871
:101DC00035000025022806D08020606584F8345054
:101DD0000120BDE8F0812068016821F01601016052
:101DE0002068416921F080014161206C08B9A06C34
:101DF00020B12068016821F00801016020680168B5
:101E000021F0010101600CE000F044F9801B05287D
:101E100007D920206065032084F8350084F8345009
:101E2000D7E720680068C007EED194F85C103F2027
:101E30008840B860012084F8350084F834500020D0
:101E4000C7E790F83510022903D0802141650120B1
:101E50007047052180F835100068016821F0010104
:101E600001600020704790F83500704770B5044657
:101E700000F010F90546601C02D0044800780444C4
:101E800000F008F9401BA042FAD370BD0400002006
:101E90002DE9F84FDFF8BCA10022012503264FF001
:101EA0000F090AF1040BAAF1040E00BF0B6805FA32
:101EB00002F42340A34270D10F7907F00307012FEA
:101EC00001D0022F16D187684FEA420806FA08FCB3
:101ED00027EA0C07D1F80CC00CFA08FC4CEA070CF6
:101EE000C0F808C04768A7430C79C4F300149440B5
:101EF0003C4344600C79E443A4070AD0C4684FEA29
:101F0000420C06FA0CF7BC438F6807FA0CF727431C
:101F1000C7600C7904F00304022C12D1D40800EB42
:101F2000840CDCF820405707FF0E09FA07F824EA72
:101F30000804D1F8108008FA07F848EA0408CCF839
:101F4000208004684FEA420C06FA0CF7BC430F7974
:101F500007F0030707FA0CF7274307604C6814F4EF
:101F6000403F70D03C4C276847F480472760246886
:101F700022F0030704F480440094384C07EB040C6F
:101F8000DCF8084897074FEA177809FA08F7BC43C6
:101F9000334FB84202D1002724E054E0314FB84219
:101FA00001D101271EE0304FB84201D1022719E0CC
:101FB0002E4FB84201D1032714E02D4FB84201D172
:101FC00004270FE02B4FB84201D105270AE02A4F22
:101FD000B84201D1062705E0284FB84201D10727B2
:101FE00000E0082707FA08F72743CCF80878DAF862
:101FF00000405746D1F804C09C435FEACC2C00D582
:102000001C433C60DBF800405F46D1F804C09C43B1
:102010005FEA8C2C00D51C433C60DEF8004077461C
:10202000D1F804C09C435FEA8C3C00D51C433C6063
:10203000084F083F3C68D1F804C09C435FEACC3CA1
:1020400000D51C433C60521C102AFFF42FAFBDE8A2
:10205000F88F0000083C0140443802400030014045
:10206000000002400004024000080240000C024050
:10207000001002400014024000180240001C024000
:102080000069084000D0012070470AB181617047A3
:102090000904FBE701488068704700000400002045
:1020A000704770472DE9F041016804464A694E685F
:1020B00090F83E000025D743FA0506D4F243D20536
:1020C00003D46FF4807201254A61B90508D4F14345
:1020D000C90505D422686FF4007145F0020551610D
:1020E000790525D4F143C90522D4638D94F83D10B8
:1020F000226B202808D13BB9212910D029290ED0E4
:10210000282901D1212A0AD022686FF48061516107
:1021100045F00405102806D0402804D008E02046E9
:1021200002F0F6F904E02068016841F400710160F2
:10213000380508D4F043C00505D421686FF4006069
:1021400045F008054861002D07D0206C2843206425
:102150002046BDE8F04101F085BDBDE8F0812DE9E4
:10216000F047026800215368C66A90F83E4090F834
:102170003D50102C12D0402C10D0046C002C7DD07F
:102180005469E443A6077AD4DE43B60577D4036CDA
:1021900003B19169BDE8F04702F096B997695169BA
:1021A0004FF42A0CC9435FEAC1784FF02A4904D0A2
:1021B00066452AD04E4528D010E0DE43B6050DD442
:1021C000C16A614501D1012103E0C16A494501D1DC
:1021D0000821C162BDE8F04702F00EB80E0716D420
:1021E000DE43B60513D4416CC9B21161416B09B12C
:1021F000C96B29B9816B002907D0C96B002904D0AC
:102200000068416841F400614160BDE8F0878E07D5
:1022100006D4DE43B60503D4BDE8F04701F060BF45
:10222000FE43526876074FEA02521DD4002AECDBC7
:102230000A0608D4DA43520505D4490705D5BDE896
:10224000F04701F0F1BE4907DFD4D9438905DCD45A
:10225000212D05D0402CD8D1BDE8F04702F012B8AE
:10226000BDE8F04701F09EBE002ACEDB4A060BD443
:10227000DA43520508D4490708D501E00DE00EE025
:10228000BDE8F04701F01ABE4907BED4D94389051D
:10229000BBD4BDE8F04701F0A8BD916970E7E10645
:1022A00006D4D943890503D4BDE8F04702F072B9DA
:1022B0002821212D27D0292D25D0650655D4DD4391
:1022C0006D0552D4640752D590F83D30448D002CF2
:1022D0009BD01269446A2270426A521C4262428D4B
:1022E000521E4285428D002A8FD12A2B8DD1026841
:1022F000536823F4806353602222026380F83D1008
:1023000000F016FB81E7250623D4DD436D0520D4BC
:10231000640720D590F83D30448D002CF2D0446AFB
:1023200024781461426A521C4262428D521E4285D8
:10233000428D002AE6D1292BE4D10268536823F4A8
:10234000806353602122026380F83D1000F0F1FAAF
:102350005BE76107D6D4D9438905D3D4418D0029E1
:10236000D0D0416A097811610AE06107CAD4D94323
:102370008905C7D4418D0029C4D01169426A117002
:10238000416A491C4162418D491E41853DE77047C4
:1023900070B5040025D094F83D00002520B984F8DC
:1023A0003C50204600F052FA242084F83D0020687A
:1023B000016821F0010101602068016841F40041D9
:1023C00001602068016821F40041016000F0EEFB2B
:1023D0004D4A6168914201D84C4900E04C4988421D
:1023E00001D2012070BD4B492368B0FBF1F15E685A
:1023F00026F03F060E435E606368934206D94FF4B1
:10240000967359434FF47A73B1FBF3F12368491C77
:102410001E6A26F03F06314319626168914210D866
:102420004900401EB0FBF1F2521CC2F30B02042A19
:1024300001D2042022E0B0FBF1F0401CC0F30B00FD
:102440001CE0A268F2B301EBC10303EB0116431ECB
:10245000B3FBF6F35B1C43F480431B0549D092B3F6
:1024600001EBC10202EB0111401EB0FBF1F0401C78
:10247000C0F30B0040F4804040F400402168CA697A
:102480004CF6FF739A431043C861D4E90710014327
:102490002068026822F0C00211430160D4E9030100
:1024A00001432068826848F2FF339A4311438160F8
:1024B000D4E9050108432168CA6822F0FF021043ED
:1024C000C86001E00EE016E02068016841F00101FB
:1024D00001602564202084F83D00256384F83E5087
:1024E000002070BD01EB4106431EB3FBF6F35B1CFD
:1024F000B3E70120C2E701EB4101401EB0FBF1F060
:10250000401CC0F30B00B7E7A086010080841E00CA
:1025100000093D0040420F00704770477047704708
:10252000704700002DE9FF4F83B09A46DDE911970F
:1025300093460446DDF84080FFF7ACFD054694F86D
:102540003D00202870D119230122714920460095B1
:1025500002F0F4F80028F5D194F83C00012863D08B
:10256000012084F83C0020680168C90703D1016894
:1025700041F0010101602068016821F400610160FF
:10258000222084F83D00402084F83E000026266486
:10259000C4F82480A4F82A90608D20855D48E0620C
:1025A000CDE9007553465A462046049901F0BAFE1B
:1025B00000287CD1208DD0B1012821D002282068AC
:1025C00024D0416980690090208D032869D80128B2
:1025D0002BD0514902283B464FF00002009559D0BC
:1025E0008846204602F0AAF8002860D13CE0206826
:1025F000416981690091016841F40071016077E0EF
:102600002068016821F480610160F0E7016821F42D
:10261000806101602068016841F400610160206808
:1026200041698069009063E06FE02A4639462046A0
:1026300002F003F998BB20680069616A08704EE0F7
:102640002068016841F40071016020680069616AD6
:102650000870606A401C6062218D491E2185618D71
:10266000491E6185216838E02068016821F4806195
:10267000016020680069616A0870606A401C6062DD
:10268000208D401E2085608D401E60853B460022C7
:1026900041460095204602F051F800B9D0E706E027
:1026A000FFE72A463946204602F0C7F818B1012054
:1026B00007B0BDE8F08F20680069616A0870606A41
:1026C000401C6062218D491E2185618D491E6185F6
:1026D00021684A69D24352070AD409690170606AC5
:1026E000401C6062208D401E2085608D401E6085EC
:1026F000208D00287FF468AF202084F83D0084F806
:102700003E6084F83C600020D2E70220D0E7000061
:10271000020010000000FFFF040001002DE9FF4F40
:1027200083B09A46DDE9119793460446DDF8408070
:10273000FFF7B0FC054694F83D0020287FD119230F
:10274000012240492046009501F0F8FF002876D18B
:1027500094F83C00012872D0012084F83C002068E5
:102760000168C90703D1016841F0010101602068D7
:10277000016821F400610160212084F83D004020BF
:1027800084F83E0000262664C4F82480A4F82A9029
:10279000608D20852C48E062CDE9007553465A468D
:1027A0002046049901F03CFE70B930E02A463946D3
:1027B000204602F075F858B1206C042804D1206836
:1027C000016841F400710160012007B0BDE8F08F9D
:1027D000606A216800780861606A401C6062218D2F
:1027E000491E89B22185628D521E62852268536915
:1027F000DB435B070BD469B100781061606A401C51
:102800006062208D401E2085608D401E6085208D79
:102810000028CBD12A463946204601F069FF00281E
:10282000CAD154F83D0B016841F4007101602020C9
:1028300004F81E09E67766770020C6E7FFE7022066
:10284000C3E70000020010000000FFFFF0B587B0F2
:10285000044614216846FDF7F7FE2668304C2F4FDA
:1028600000252F481222032104231034BE4227D111
:10287000066846F002060660006800F00200059057
:10288000CDE90313C0208DE8250069462548FFF7F0
:10289000FFFA206840F4001020602068002200F455
:1028A0000010059011461F2000F0B4F81F2000F022
:1028B000A3F800221146202000F0ACF8202028E0E8
:1028C000194FBE4227D1066846F020060660006810
:1028D00000F0200005908DE82600CDE9031369463D
:1028E0001248FFF7D5FA206840F480002060206885
:1028F000002200F4800005901146212000F08AF8A3
:10290000212000F079F800221146222000F082F800
:10291000222000F071F807B0F0BD00000054004024
:1029200030380240000402400058004000140240C9
:10293000704770470248816802781144816070478F
:10294000040000200B4810B5016841F400710160DB
:10295000016841F480610160016841F480710160A7
:10296000032000F077F80F2000F006F800F024F8BC
:10297000002010BD003C024070B50D4D04464FF4E0
:102980007A712878B1FBF0F00A490968B1FBF0F0E0
:1029900000F014FB48B9102C07D200222146501E2B
:1029A00000F038F800206C6070BD012070BD0000A0
:1029B00004000020100000200E4808B5016841F412
:1029C00080410160006800F4804000900948001FC9
:1029D000016841F0805101600068002200F08050E1
:1029E00000901146052000F015F8BDE808400520CC
:1029F00000F002B844380240002809DB00F01F0252
:102A0000012191404009800000F1E020C0F8001150
:102A100070470000F0B40E4B1B680C46C3F3022352
:102A2000C3F10705042D00D90425191D072901D27A
:102A3000002300E0DB1E012606FA05F1491E2140B5
:102A400099409E40761E16403143F0BC02F0C9BD4D
:102A50000CED00E0064900F0070208684FF6FF039E
:102A6000184040EA0220034A104308607047000003
:102A70000CED00E00000FA052DE9F0470E460500D8
:102A800065D0DFF81481D8F80000F7B200F0070035
:102A9000B04207D288F80070D8F8000000F00700B4
:102AA000B04254D128683D4C810712D5400703D568
:102AB000206840F4E05020602878000703D52068A3
:102AC00040F4604020602068A96820F0F0000843CE
:102AD00020602878C0072DD030496868083901285F
:102AE00012D0022813D0032811D0096889070029C1
:102AF0002DDA216821F0030101432160FFF7CAFAB2
:102B0000814641F2883A0EE009688903EFE70968D7
:102B10008901ECE7FFF7BEFAA0EB0901514502D9A4
:102B20000320BDE8F0872068696800F00C00B0EB76
:102B3000810FEFD1D8F80010404601F00701B142F3
:102B400007D90770006800F00700B04201D00120EB
:102B5000E7E72878400705D52068E96820F4E050C9
:102B6000084320602878000706D52068296920F4EA
:102B7000604040EAC100206000F038F82168084A4F
:102B8000C1F30311515CC84006490860064800685B
:102B9000FFF7F2FE0020C4E7003C02400838024084
:102BA000A68C0008100000200800002004480549F9
:102BB00000680968044AC1F38221515CC84070472B
:102BC0001000002008380240B68C0008044805496F
:102BD00000680968044AC1F34231515CC84070473B
:102BE0001000002008380240B68C0008154810B5C7
:102BF000006810F00C02144813D01449042A0FD0B6
:102C0000082A0ED10F4C241F2268236802F03F02CD
:102C10005B0207D52068C0F38810A0FB010106E025
:102C2000084610BD2168C1F38811A1FB00010023F3
:102C3000FDF72DFB2168C1F30141491C4900B0FBA0
:102C4000F1F010BD083802400024F40040787D0106
:102C50002DE9F84F04006ED02078DFF84C93C007C0
:102C6000A9F104054AD009F104000168C1F381010A
:102C7000012908D00068C0F3810002280AD1D9F8E0
:102C80000000400206D52868800337D56068002818
:102C9000E1D033E06068B0F5803F10D0B0F5A02FF0
:102CA000286810D020F480302860286820F4802024
:102CB00028606068A8B1FFF7EDF906460DE02868C6
:102CC00040F48030F4E740F480202860F7E700BF4C
:102CD000FFF7E0F9801B642873D828688003F7D5D4
:102CE0000CE0FFF7D7F9064605E000BFFFF7D2F981
:102CF000801B6428F0D828688003F7D42078DFF898
:102D0000AC8280074FF0000A3ED5A748001D01683D
:102D100011F00C0F08D00068C0F3810002280BD11D
:102D2000D9F80000400207D42868800716D5E0686B
:102D3000012800D112E033E1E068B8B10120C8F801
:102D40000000FFF7A7F9064605E000BFFFF7A2F96C
:102D5000801B0228C0D828688007F7D52868216919
:102D600020F0F80040EAC10028600DE0C8F800A09B
:102D7000FFF790F9064604E0FFF78CF9801B022864
:102D80001FD828688007F7D42078000722D5864FFF
:102D900087486169703771B101210160FFF77AF9E5
:102DA000064604E0FFF776F9801B022809D8386848
:102DB0008007F7D50EE0C0F800A0FFF76BF90646D4
:102DC00005E082E0FFF766F9801B02287DD83868AD
:102DD0008007F7D42078400768D5DFF8CCB100270A
:102DE0000BF13C0BDBF80000C0000BD4DBF800104B
:102DF00041F08051CBF80010DBF80000012700F013
:102E0000805000906B4E3068C00510D4306840F49C
:102E100080703060FFF73EF9009005E0FFF73AF967
:102E20000099401A022850D83068C005F6D55E4E89
:102E3000A0686C3601280FD00528306810D020F02B
:102E400001003060306820F004003060A068B8B144
:102E5000FFF720F900900FE0306840F00100F4E740
:102E600040F004003060F7E7FFF714F90099411AC9
:102E700041F28830814266D830688007F4D50EE090
:102E8000FFF708F9009007E0FFF704F90099411AED
:102E900041F28830814256D830688007F4D42FB18F
:102EA000DBF8001021F08051CBF80010A069C8B306
:102EB0003D49091D0968C1F3810102294AD0022850
:102EC000504607D0C8F8600000E03CE0FFF7E2F8A9
:102ED00004463BE04746C8F86000FFF7DBF80646CB
:102EE00005E000BFFFF7D6F8801B02282BD8286822
:102EF0008001F7D4D4E907010843A16A2E4A4908A2
:102F000002EB0141626A41EA8211084394F82C10F5
:102F100040EA0161C9F8001001203866FFF7BAF8ED
:102F2000044606E03EE000BFFFF7B4F8001B0228AD
:102F300009D828688001F7D534E000BFFFF7AAF868
:102F4000001B022802D90320BDE8F88F2868800101
:102F5000F4D427E00128F7D0D9F80000E26900F4A2
:102F6000800191421CD1226A00F03F01914217D1A9
:102F700047F6C071626A0140B1EB821F10D1A26AAC
:102F80004FF0FF3300F4403103EB5202B1EB024F3C
:102F900006D194F82C1000F07060B0EB016F01D0F6
:102FA0000120D1E70020CFE704380240000047426B
:102FB000800E4742007000400000FFFF10B5401E29
:102FC000B0F1807F01D3012010BD4FF0E02460619B
:102FD0000F21601702F005FB0020A061072020618F
:102FE000002010BD7047704770B590F83C20012A52
:102FF00032D0012480F83C40022280F83D20036852
:103000005A689D6822F070060A6832435A60134B72
:1030100002689A4214D0B2F1804F11D0104B9A42FC
:103020000ED0104B9A420BD00F4B9A4208D00F4B48
:103030009A4205D00E4B9A4202D00E4B9A4204D1CE
:10304000496825F080031943916080F83D400021D4
:1030500080F83C10084670BD022070BD00000140A1
:103060000004004000080040000C00400004014043
:10307000004001400018004090F83D10012901D0A7
:1030800001207047022180F83D10006811498842F4
:1030900014D0B0F1804F11D00F4988420ED00F49A3
:1030A00088420BD00E49884208D00E49884205D08C
:1030B0000D49884202D00D49884204D1816801F04F
:1030C0000701062903D0016841F0010101600020D9
:1030D000704700000000014000040040000800406C
:1030E000000C004000040140004001400018004076
:1030F0002DE9F0410D46040003D094F83D0018B1CD
:1031000008E00120BDE8F081002084F83C00204662
:1031100000F040F8022084F83D002068816844F205
:10312000070291438160211D206801F0E5FF2268BC
:1031300090689169166A2B68AF69034340F20330C7
:10314000814341EA0721A868EF6908434FF6FC4133
:103150008843E96840EA0720014328692F6A000193
:1031600040EA0730084369686D6926F0AA0646EA16
:103170000515294393602268906154F8460B01625B
:10318000012004F81F09E0752076E0762077A0750D
:103190000020B7E710B586B0044614216846FDF755
:1031A00053FA2268274C002127480223A2421FD14C
:1031B000254A1432146844F001041460126802F0C5
:1031C00001020592026842F010020260006800F0FD
:1031D000100005904FF420600090CDE901310120EE
:1031E000CDE9031069461948FEF752FE06B010BD3E
:1031F000174CA242FAD1144A1032146844F0040465
:103200001460126802F004020592026842F008029B
:103210000260006800F0080005904FF440500090F4
:10322000CDE90131CDE9031369460A48FEF730FEC6
:10323000002211461E20FFF7EDFB1E20FFF7DCFBEE
:10324000D4E7000000000140303802400010024086
:1032500000080040000C024070B590F83E60044643
:1032600090F83F5090F8423090F84320022021B16E
:1032700004290ED0012E1BD114E0012E18D1012BF0
:1032800016D184F83E0084F8420001220021206813
:1032900020E0012D0CD1012A0AD184F83F0084F8E6
:1032A000430014E0012D03D1012B01D1012A01D0EB
:1032B000012070BD84F83E0084F83F0084F842008D
:1032C00084F8430001220021206801F079FF0122E7
:1032D0000421206801F074FF2068016841F00101B9
:1032E0000160002070BD704770B504460068016938
:1032F0004FF00005C943890715D4C168C943890740
:1033000011D4E91E016101202077206880698007BF
:10331000204602D0FFF7E7FF04E000F0EFF8204678
:1033200000F0B0F9257720680169C943490717D42F
:10333000C168C943490713D46FF004010161022039
:1033400020772068806910F4407F204602D0FFF784
:10335000CAFF04E000F0D2F8204600F093F9257788
:1033600020680169C943090716D4C168C943090720
:1033700012D46FF008010161042020772068C06931
:103380008007204602D0FFF7AEFF04E000F0B6F859
:10339000204600F077F9257720680169C943C906FE
:1033A00017D4C168C943C90613D46FF01001016175
:1033B000082020772068C06910F4407F204602D0A2
:1033C000FFF791FF04E000F099F8204600F05AF969
:1033D000257720680169C943C90708D1C168C94375
:1033E000C90704D1891E0161204600F0B1F92068A7
:1033F0000169C943090609D4C168C943090605D44E
:103400006FF0800101612046FFF7ECFD2068016943
:10341000C943490609D4C168C943490605D46FF0B8
:1034200040010161204600F094F920680169C94318
:1034300089060BD4C168C943890607D46FF02001FF
:1034400001612046BDE87040FFF7CDBD70BD0000B2
:1034500030B587B0044614216846FDF7F5F82168B9
:10346000002421480225B1F1804F29D01F4A914202
:1034700024D1016841F002010160016801F00201FC
:103480000591016841F0040101600068694600F09F
:103490000400059022200090CDE901541448CDE9A4
:1034A0000345FEF7F5FC4FF4A0700090CDE9015400
:1034B00069461048CDE90345FEF7EAFC07B030BD88
:1034C000016841F0010101600068694600F00100F7
:1034D000059048F20E000090CDE901540120CDE99D
:1034E00003400548E8E7000030380240000400408F
:1034F000000402400008024000000240704770B51E
:10350000044690F83C0000260D4601280FD001200B
:1035100084F83C006AB1042A1DD0082A2FD00C2A56
:103520003FD00126002084F83C00304670BD0220C8
:1035300070BD206801F052FE2068816941F00801E9
:1035400081612068816921F00401816120688169BD
:103550002A69114311E0206801F070FE206881693A
:1035600041F4006181612068816921F48061816199
:10357000206881692A6941EA02218161D2E72068D5
:1035800001F092FE2068C16941F00801C161206824
:10359000C16921F00401C1612068C1692A69114330
:1035A00011E0206801F0B4FE2068C16941F40061B7
:1035B000C1612068C16921F48061C1612068C1696D
:1035C0002A6941EA0221C161ACE710B5040003D0C9
:1035D00094F83D0010B107E0012010BD002084F8F0
:1035E0003C00204600F01EF8022084F83D00211D1A
:1035F000206801F081FD012084F8460084F83E0037
:1036000084F83F0084F8400084F8410084F84200C8
:1036100084F8430084F8440084F8450084F83D00B1
:10362000002010BD08B501681448B1F1804F14D0D6
:10363000134A914220D1016841F002010160006803
:10364000002200F00200009011461D20FFF7E2F971
:103650001D20BDE80840FFF7CFB9016841F0010126
:1036600001600068002200F00100009011461C205B
:10367000FFF7D0F91C20ECE708BD000040380240FD
:10368000000400407047000010B50446022249B112
:1036900004290ED0082913D094F84100012816D02F
:1036A000012010BD94F83E000128F9D184F83E2095
:1036B0000FE094F83F000128F2D184F83F2008E0A1
:1036C00094F840000128EBD184F8402001E084F810
:1036D00041200122206801F073FD16492068164A36
:1036E000884201D0904203D1436C43F400434364C9
:1036F0002068884213D0B0F1804F10D00F49884223
:103700000DD00F4988420AD00E49884207D0904216
:1037100005D00D49884202D00C49884204D1816805
:1037200001F00701062903D0016841F001010160A1
:10373000002010BD000001400004014000040040D2
:1037400000080040000C004000400140001800400C
:103750007047704770477047F8B5016804460868BD
:10376000CA684B6910F00F0F4FF0000559D003F0F5
:10377000010602F49077374365D0C10705D0D10523
:1037800003D5216C41F001012164410705D5D9071A
:1037900003D0216C41F002012164810705D5D907CE
:1037A00003D0216C41F004012164010707D502F028
:1037B0002001314303D0216C41F008012164216CC8
:1037C00000293AD0800604D5900602D5204601F0A3
:1037D000F6FD20684069216CC0F38010090700D411
:1037E00060B3204601F0C4FD20684069400621D541
:1037F0002068143050E8001F21F0400140E800121A
:10380000002AF5D1A06BA8B16C490165A06BFEF749
:1038100018FB002811D0A06B016D01B0BDE8F0408D
:10382000084783060FD593060DD52046BDE8F8401E
:1038300001F0C5BD2046FFF78EFFF8BD2046FFF71B
:103840008AFF2564F8BD266B2023012E79D1C60698
:1038500077D5D60675D5086848680090486940064F
:1038600040D5A16B086840680004000CEAD0A28D26
:103870008242E7D9E085C869B0F5807F2DD0206805
:103880000C3050E8001F21F4807140E80012002A3B
:10389000F5D12068143050E8001F21F0010140E804
:1038A0000012002AF5D12068143050E8001F21F0E2
:1038B000400140E80012002AF5D184F83E3025632B
:1038C00020680C3050E8001F21F0100140E8001281
:1038D000002AF5D1A06BFEF76BFAA08DE18D401A9E
:1038E00081B229E0A08DE18D401A81B2E08D0028DF
:1038F000A8D00029A6D020680C3050E8002F22F470
:10390000907240E80026002EF5D12068143050E86F
:10391000002F22F0010240E80026002EF5D184F8A5
:103920003E30256320680C3050E8002F22F0100252
:1039300040E80023002BF5D12046FFF70BFFF8BD30
:10394000FFE705062BD5150629D594F83D0021285B
:10395000F5D1A068B0F5805F01D12069B0B1206ACF
:10396000411C2162216800784860E08C401E000400
:10397000000CE084E3D12068C16821F08001C160BF
:103980002068C16841F04001C160D8E7206A008822
:10399000C0F308004860206A801C2062E5E740060A
:1039A000CDD55006CBD5CA68204622F04002CA6069
:1039B00084F83D3000F0DDF8C1E7000061530008F5
:1039C00070B5040004D094F83D00002510B106E065
:1039D000012070BD84F83C50204600F023F82420DC
:1039E00084F83D002068C16821F40051C160204680
:1039F00001F046FD2068016921F4904101612068D1
:103A0000416921F02A0141612068C16841F40051F7
:103A1000C1602564202084F83D0084F83E00002029
:103A200070BD00002DE9F04186B0044614216846BF
:103A3000FCF70AFE4749226800244748022503266E
:103A400007278A4222D1444914310A6842F0100201
:103A50000A60096801F010010591016841F0010157
:103A60000160006802AA00F0010005907002CDE933
:103A7000000582E8D00069463848FEF709FA0022BE
:103A800001212520FEF7C6FF252026E03249344BD0
:103A90001031DFF8D0809A4224D10A6842F4003213
:103AA0000A60096801F400310591016841F00801DC
:103AB0000160006802AA00F0080005906020CDE9CE
:103AC000000582E8D00069464046FEF7E1F9002291
:103AD00001212620FEF79EFF2620FEF78DFF06B06F
:103AE000BDE8F081204B9A42F9D10A6842F4802265
:103AF0000A60096801F480210591016841F0020122
:103B00000160016801F002010591016841F00801BE
:103B10000160006802AA00F008000590D814CDE901
:103B2000000582E8D00069461048FEF7B1F94FF46D
:103B30008070CDE9000502AA694682E8D0004046BF
:103B4000FEF7A6F9002201212720FEF763FF2720B8
:103B5000C3E700000010014030380240000002407E
:103B600000440040000C02400048004000040240B5
:103B700070477047FEE700000148FEF793BA000067
:103B8000B00000200148FEF7EABA0000B0000020B3
:103B90000148FEF787BA0000040100200148FEF743
:103BA000DEBA00000401002038B5806B002190F8D7
:103BB0003D202B4B46F2A8141B68B3FBF4F3C3EB78
:103BC000C30303EB830300933BB15B1E00930368C5
:103BD0001B689B0505D5009BF6E7036C43F02003AB
:103BE0000364436B03B1D963836B03B1D963036887
:103BF0001C6824F480641C604185436B03B1196523
:103C0000836B03B1196503681C6824F001041C6010
:103C100090F83D402023602C0BD0282434EA020287
:103C20000FD080F83D3080F83E1000BFFEF7AFFBAC
:103C300038BD80F83D3080F83E100164FEF730FA60
:103C400038BD0268136843F001031360026813680B
:103C500043F480631360016380F83D40E6E70000B1
:103C60001000002070B5044690F83D0094F83E1016
:103C7000102901D0402906D1222804D121680A68E0
:103C800022F400620A60282131EA00024FF00005A8
:103C90004FF0200626D021684968090505D4602820
:103CA00003D084F83D6084F83E5025632068416865
:103CB000090537D5416821F400614160606B90F8D7
:103CC00035203C49012A11D00165606BFEF7B9F837
:103CD00038B32068016821F00101016084F83D607B
:103CE000606B1CE0256384F83D10DFE7A06B016585
:103CF000A06BFEF7A6F8A0B120684169C943490648
:103D000005D40069616A0870606A401C60622068BE
:103D1000016821F00101016084F83D60A06B016D34
:103D2000884710E094F83D10602910D04169C943DC
:103D3000490605D40069616A0870606A401C6062C7
:103D40002046FEF724FB206CC1071CD115E084F847
:103D50003D6025644169C943490605D40069616A2B
:103D60000870606A401C60622068016821F00101EF
:103D700001602046FEF794F9E5E7810703D4410787
:103D800001D4000704D52068416821F4E061416056
:103D900094F83D00216C49070BD5282809D1064825
:103DA000E062256384F83D6084F83E502046FEF7CB
:103DB000B3FB70BDA93B00080000FFFF01684A6922
:103DC000D24352050FD46FF480624A61002140F85B
:103DD000301F202242738173026942F004020261A3
:103DE0000173012070470020704710B5C26A438DEF
:103DF0000168042B06D0438D032B08D0438D022B82
:103E00001DD012E04A6822F480624A600CE04B68E0
:103E100023F480634B60042A06D0022A04D0016890
:103E20000A6822F480620A6001680969426A1170B6
:103E3000416A491C4162418D491E418510BD012ADC
:103E400030D0102A2ED0042A30D0022A2ED00A6870
:103E500042F400720A6001680969426A1170416A9D
:103E6000491C4162428D521E4285026812690A70E5
:103E7000416A491C4162418D491E418501684A6879
:103E800022F440724A60202180F83D1090F83E20D4
:103E90000021402A80F83E100CD012210163FEF769
:103EA0003CFB10BD0A6822F48062D3E70A6842F442
:103EB0008062CFE70163FEF732FB10BD38B590F8A2
:103EC0003D1022290FD1418D03290DD901680969BF
:103ED000426A1170416A491C4162418D491E418507
:103EE000418D032906D038BDC26A022A02D00129B9
:103EF00006D029B10068416821F48061416038BD75
:103F0000274946F2A81300220968B1FBF3F101EB3F
:103F10008101009101682023009C641E009422D03E
:103F20000C68A405F8D40C6824F480640C60016863
:103F30004C6824F4E0644C6001680969446A2170AB
:103F4000416A491C4162418D491E418580F83D30DE
:103F500090F83E1080F83E2040291DD012210163C8
:103F6000FEF7DBFA38BD046C44F0200404644C68AE
:103F700024F4E0644C6001680969446A2170416A74
:103F8000491C4162418D491E418580F83D3080F8D1
:103F90003E20FEF7FCF938BD0263FEF7C0FA38BDDB
:103FA0001000002010B5C26A90F83D1021290BD1F5
:103FB000418D51B1416A026809781161416A491C19
:103FC0004162418D491E418510BD20230021082AF0
:103FD00013D0202A11D012F5803F0ED00268546809
:103FE00024F4E06454601122026380F83E1080F8EB
:103FF0003D3000BFFEF792FA10BD0268546824F409
:10400000E06454600268146844F40074146001634E
:1040100080F83D3090F83E2080F83E10402AE9D1EB
:10402000FEF77EFA10BD000010B590F83D1090F834
:104030003E30C26A048DB4B1212903D0402B11D186
:1040400022290FD1418DE1B390F83E10402942D092
:10405000416A026809781161416A491C4162418DD7
:10406000491E418510BD2129E8D120230021082ABD
:1040700013D0202A11D012F5803F0ED00268546868
:1040800024F4E06454601122026380F83E1080F84A
:104090003D3000BFFEF742FA10BD0268546824F4B8
:1040A000E06454600268146844F4007414600163AE
:1040B00080F83D3090F83E2080F83E10402AE9D14B
:1040C00000E002E0FEF72CFA10BD0068416821F420
:1040D0008061416010BDBDE8104000F0D3B8000021
:1040E00078B590F83E50C26A036B90F83D600024AA
:1040F0000168222E7AD1066D0EB9402D76D0056D5D
:104100001DB90569B5F5404F09D0458D05B3468DFC
:10411000384D012E0ED0438D022B3AD05DE04A6916
:104120008A6900920A6842F480720A60016D491C33
:10413000016578BDAA4213D10A6822F480620A6040
:1041400001684A68120503D50A6822F4806216E005
:104150004A698A6900920A6842F400720A6039E08A
:10416000082A10D0202A0ED0122B0AD0042A03D0FD
:10417000022A01D0102AE7D10A6842F480620A605C
:1041800024E0012AE0D00A6822F480620A60016813
:10419000DEE7042A21D0022A1FD0102A1DD00B6886
:1041A00023F480630B6001680B6843F400630B60C9
:1041B00001684B681B0509D5AA4212D0012A10D00C
:1041C000082A0ED0102A0CD0202A0AD001684A6989
:1041D00089690091046578BD08E00B6843F4806349
:1041E000E5E74A6842F480524A60EFE74869886927
:1041F0000090F0E70000FFFF90F83E10402910D03B
:104200000169B1F5804F19D0016DA9B3016D012984
:1042100010D1416C5FF0F10201F4407142EAD1111A
:1042200006E0016D0029416C05D0C9B241F00101E1
:1042300000680161704701F0FE01F9E790F83D1058
:104240002129416C09D0C9B241F001010268116114
:10425000416B29B1C96B49B902E001F0FE01F5E7F4
:10426000816B0029E6D0C96B0029E3D00068416862
:1042700041F4006141607047FFE7416CF02201F4B6
:104280004071CBE710B590F83D10026D22B3026D7E
:10429000012A2FD0026D022A1DD122292FD0428D52
:1042A0000AB1212933D0428D002A14D1212912D1FB
:1042B00001684A6822F4E0624A6001680A6842F4D0
:1042C00000720A6000210163202280F83D2080F8FE
:1042D0003E10FEF725F910BDC16C0129816C02D09A
:1042E000C1F3072108E00268C9B21161016D891CA0
:1042F000016510BD816CC9B20268116104E00168FA
:104300000A6842F480720A60016D491CF0E7416A54
:10431000026809781161416A491C4162418D491E58
:10432000418510BD2DE9F84F0446006889460B9D74
:1043300001689846174641F4806101602068016871
:1043400041F48071016000954FF0011B0022594635
:1043500020460A9B00F0F2F94FF4007A40B1206841
:104360000068C00501D5C4F840A00320BDE8F88F5F
:10437000216809F0FE0008612B46284920460A9A68
:1043800000F010FAF0BB20684169806900902A466D
:1043900020460A9900F084FA40B1206C04283AD1F2
:1043A0002068016841F40071016034E0FEB2B8F1A8
:1043B000010F09D02168380A08612A4620460A9967
:1043C00000F06EFA0028E8D1206806612A462046EF
:1043D0000A9900F065FA0028DFD12068016841F4ED
:1043E0008071016000950022594620460A9B00F02A
:1043F000A5F90028B3D1216809F0FF0040F00100C1
:10440000086100E007E02B46044920460A9A00F0C4
:10441000C9F90028AAD00120A8E700000200010085
:104420002DE9F843044600680D46DDE90897016868
:104430009846164641F4807101604B4600224FF0C9
:1044400001112046009700F079F948B12068006812
:10445000C00502D54FF4007020640320BDE8F88346
:10446000216805F0FE0008613B464A461549204692
:1044700000F098F988B920684169806900903A464F
:104480004946204600F00CFA48B1206C042804D1BB
:104490002068016841F4007101600120DEE7F5B297
:1044A000B8F1010F09D02168300A08613A4649463F
:1044B000204600F0F5F90028E7D1206805610020CA
:1044C000CCE700000200010038B50C4690F83D2012
:1044D00000212825954302680B4605D05169916952
:1044E000009180F83C3038BD556825F480655560F2
:1044F000E243540700D50121120601D5828900E06C
:10450000028B80F83C3092B2FDF7CBFD38BD000045
:104510002DE9F04190F83D40C26A002320261C4F4F
:1045200001686FF48065082A01D0202A01D1282C67
:1045300004D0212C16D04D61BDE8F081C7624A68D5
:1045400022F4E0624A6001684D6101680A6822F461
:1045500080620A60036380F83D6080F83E30FDF7BA
:10456000DBFFE9E7C7622122026380F83D6080F843
:104570003E304A6822F4E0624A6001684D61016899
:104580000A6822F480620A60FEF7D3F9D4E70000DB
:104590000000FFFFF8B590F83D60044600684168F0
:1045A00021F4E061416020680025416900910168C3
:1045B00041F0010101602068016821F4806101601F
:1045C00020684168090520D5474F222E48D02A2E61
:1045D00046D0616B096849686185618D19B1216CAC
:1045E00041F004012164416821F400614160606B85
:1045F000FDF739FC012808D0606B0765606BFDF79B
:1046000020FC10B1606B016D8847608D08B3206895
:104610004169C943490708D40069616A0870606A42
:10462000401C6062608D401E608520684169C943FE
:10463000490608D40069616A0870606A401C6062BB
:10464000608D401E6085608D18B1206C40F00400C4
:104650002064206C00B32046BDE8F840FFF702BBA1
:10466000A16B096849686185618D19B1216C41F0C0
:1046700004012164416821F400614160A06BFDF7F1
:10468000F2FB0128C1D0A06B0765A06BFDF7D9FB39
:104690000028BAD0A06BB6E72A2E06D125632820C1
:1046A00084F83D002046FEF743F994F83D102020A1
:1046B00028290DD0216B222901D0222E07D1256374
:1046C00084F83D0084F83E502046FEF731F9F8BDED
:1046D0000649E162256384F83D0084F83E50204697
:1046E000FDF71AFFF8BD0000A93B00080000FFFF1E
:1046F00070B516460D4604460DE02046FFF75EFBFA
:1047000008B1012070BD681C05D0FDF7C3FC801BFB
:10471000A84207D835B120684069C0434007ECD4AF
:10472000002070BD002044F8300F20216173A07379
:10473000216941F0200121612073E2E72DE9F04772
:104740001E4690460D460446C1F30747DDF820900B
:1047500008E0701C06D0FDF79DFCA0EB0900B042FC
:104760000FD876B12068012F18D0806925EA0000A3
:104770000004000C14D000214145EAD00020BDE81F
:10478000F087002044F8300F20216173A073216965
:1047900041F02001216120730120F0E74069E5E745
:1047A0000121E9E72DE9F0479A4691460E46044675
:1047B00000254FF02008C1F3074725E02068406935
:1047C000C043400514D42068016841F400710160C1
:1047D00021686FF480604861256384F83D8084F827
:1047E0003E50206C40F00400206484F83C501FE0F0
:1047F000B9F1FF3F08D0FDF74DFCA0EB0A01494598
:104800000CD8B9F1000F09D02068012F13D08069AE
:1048100026EA00000004000C0BD0CFE744F8305F1C
:1048200084F80D80A573206940F020002061257375
:104830000120BDE8F0874069EAE72DE9F041002555
:1048400090460E460446202717E04069C043C00644
:104850000CD454F8301B6FF01000486144F8105924
:104860006777A577206A2062257717E0FDF712FCAD
:10487000A0EB0800B04208D83EB120684169C943A6
:104880004906E2D40020BDE8F08144F8305F677348
:10489000A573206940F02000206125730120F2E714
:1048A00070B516460D4604460DE02046FFF786FA21
:1048B00008B1012070BD681C05D0FDF7EBFB801B23
:1048C000A84207D835B120684069C0430006ECD43F
:1048D000002070BD002044F8300F20216173A073C8
:1048E000216941F0200121612073E2E710B58021A8
:1048F0006B2000F09DF86420FDF7B8FA00216B20D2
:1049000000F096F8032000F05EF8002000F056F862
:10491000322000F075F80021382000F089F80021DD
:104920006A2000F085F80021232000F081F8802122
:10493000372000F07DF8752000F018F80446014695
:1049400009A0FBF73FFD682C01D0012010BD01211B
:104950006B2000F06DF800216C2000F069F8322027
:1049600000F04EF8002010BD256400001FB5642340
:10497000012203A98DE80E0013460246D021054806
:10498000FDF7D0FD10B1012004B010BD9DF80C0062
:10499000FAE70000B00000203EB54000CDE900324B
:1049A0000A4664240146029401230348FDF7BAFD38
:1049B000002800D001203EBDB0000020C006010E3E
:1049C0001C2000F035B8C006010E1B2000F030B8E6
:1049D000BC2801D3012110E0622801D302210CE0A0
:1049E0002A2801D3032108E0142801D3042104E07C
:1049F0000A2801D3052100E006211A2000F018B88A
:104A000010B504464FF47A70844201D9044602E09E
:104A1000042C00D20424B0FBF4F0401EC1B21920D3
:104A200000F006F86008BDE81040FFF7D1BF0000B5
:104A300003B583B06423012204A98DE80E00134658
:104A40000246D0210348FDF769FE002800D001206E
:104A500005B000BDB00000203EB54000CDE90032F9
:104A60000A4664240146029401230348FDF756FEDA
:104A7000002800D001203EBDB00000202DE9FF41FC
:104A800000242C4800940194029429490394016065
:104A900001254FF480310561C0E90114057680F8E5
:104AA00020402549C0E90A140526C661C46080F883
:104AB00030404561FDF707F908B1FCF7C2FF042754
:104AC000CDE9007569461B480295FCF7BDFF08B1AA
:104AD000FCF7B7FF02200096CDE9010469461548AE
:104AE000FCF7B2FF08B1FCF7ACFF062000900320F2
:104AF000019069460F48FCF7A7FF08B1FCF7A1FF3A
:104B00000720CDE9000769460A48FCF79DFF08B178
:104B1000FCF797FF0820CDE9000669460548FCF739
:104B200093FF002801D0FCF78CFFBDE8FF81000057
:104B300000200140680000200100000F30B587B060
:104B400014216846FBF780FD42480024016841F0CB
:104B500004010160016801F004010591016841F060
:104B600020010160016801F020010591016841F018
:104B700080010160016801F080010591016841F048
:104B800001010160016801F001010591016841F036
:104B900002010160016801F002010591016841F024
:104BA00010010160016801F010010591016841F0F8
:104BB00008010160016801F008010591016841F0F8
:104BC000400101600068244D00F040000590012282
:104BD0004FF488412846FDF758FA00224FF430413F
:104BE0002846FDF752FA4FF4744000900120CDE9B9
:104BF0000104694628460394FDF74AF92815CDE9D2
:104C00000004694615480294FDF742F98020CDE979
:104C10000004694612480294FDF73AF94FF4D06057
:104C2000CDE9000469460F480294FDF731F9A81553
:104C3000CDE9000469460C480294FDF729F9842067
:104C4000CDE90004694609480294FDF721F907B04F
:104C500030BD000030380240001002400004024025
:104C6000001802400008024000000240000C024010
:104C70000D4810B50B4901600C49416000214FF40B
:104C800080428160C0E9031241618161C1610162BA
:104C9000FDF77EFB002803D0BDE81040FCF7D1BE35
:104CA00010BD000000540040B0000020A0860100AC
:104CB0000D4810B50B4901600C49416000214FF4CB
:104CC00080428160C0E9031241618161C16101627A
:104CD000FDF75EFB002803D0BDE81040FCF7B1BE35
:104CE00010BD00000058004004010020A086010013
:104CF00010B58CB024216846FBF7A6FC00241748A9
:104D0000099415490A9401600321C0E901144FF682
:104D1000FF72C0E903244461846100910120CDE960
:104D200001400F21CDE90341CDE90540CDE907411F
:104D300069460A48FEF7DCF908B1FCF782FE0994DF
:104D400009A906480A94FEF74FF9002801D0FCF79C
:104D500078FE0CB010BD000000000140580100209A
:104D600010B58AB0002407941C2168460894FBF70C
:104D70006BFC21484FF08041C0E9001440F2E7315C
:104D8000C0E9024104618461FEF71FFC08B1FCF731
:104D900058FE079407A918480894FEF725F908B1AA
:104DA000FCF74FFE6020CDE9000402940022694622
:104DB00011480494FEF7A3FB08B1FCF742FE04225D
:104DC00069460D48FEF79BFB08B1FCF73AFE082246
:104DD00069460948FEF793FB08B1FCF732FE0C2246
:104DE00069460548FEF78BFB08B1FCF72AFE02482E
:104DF000FEF72EFB0AB010BDA001002010B58AB04E
:104E0000002407941C2168460894FBF71DFC2248E7
:104E10002049C0E900144FF6FF71C0E90241046166
:104E20008461FEF7D2FB08B1FCF70BFE079407A9DB
:104E300019480894FEF7D8F808B1FCF702FE602084
:104E4000CDE9000402940022694613480494FEF759
:104E500056FB08B1FCF7F5FD042269460E48FEF743
:104E60004EFB08B1FCF7EDFD082269460A48FEF743
:104E700046FB08B1FCF7E5FD0C2269460648FEF743
:104E80003EFB08B1FCF7DDFD0348FEF7E1FA0AB08E
:104E900010BD000000040040E801002010B58CB0F7
:104EA00024216846FBF7D0FB0024164809941449D6
:104EB0000A9401600321C0E901144FF6FF72C0E9B2
:104EC0000324846100910120CDE9014003940494FE
:104ED000CDE90540079469460A480894FEF708F9A9
:104EE00008B1FCF7AEFD099409A906480A94FEF73B
:104EF0007BF8002801D0FCF7A4FD0CB010BD000029
:104F000000080040300200200C4810B50A4901603A
:104F10004FF4E1314160002181600C22C160C0E9A1
:104F200004128161C161FEF74BFD002803D0BDE88A
:104F30001040FCF786BD10BD001001407802002033
:104F40000C4810B50A4901604FF4E131416000217D
:104F500081600C22C160C0E904128161C161FEF769
:104F60002FFD002803D0BDE81040FCF76ABD10BD3E
:104F700000440040BC0200200C4810B50A49016002
:104F80004FF4E1314160002181600C22C160C0E931
:104F900004128161C161FEF713FD002803D0BDE852
:104FA0001040FCF74EBD10BD00480040000300203B
:104FB000FEE7000010B50CA10EA0FBF703FA00BF3E
:104FC000FFF794FC0028FBD103E00CA109A0FBF73C
:104FD000F9F902F039F90028F7D1BDE810400CA129
:104FE00004A0FBF7EFB900004D505520496E6974DD
:104FF0002E2E2E0025730D0A000000004D70753610
:1050000030353020496E69742057726F6E67210009
:105010004D70753630353020496E6974204F4B2104
:1050200000000000FEE7704770477047FDF782BC44
:1050300030B593B030216846FBF706FB14210CA86D
:10504000FBF702FB1D480025016841F0805101601B
:10505000006800F0805011901948016841F48041C7
:1050600001600068022400F4804011900120039048
:1050700010200490009406940820CDE90750A82041
:10508000CDE9090404200B906846FDF7E1FD08B165
:1050900072B6FEE70CA90F2081E831004FF4A05052
:1050A0000F904FF48050109005210CA8FDF7E4FC00
:1050B000002801D072B6FEE713B030BD4038024080
:1050C000007000400248016841F4700101607047BF
:1050D00088ED00E00148FEF707B90000A0010020BC
:1050E0000148FEF701B90000E80100200148FEF781
:1050F000FBB8000030020020F0B50268254C264DB8
:10510000264E274F274B4FF0804CA04209D06045D8
:1051100007D0A84205D0B04203D0B84201D098428F
:1051200004D122F0700E4A6842EA0E02A0421BD05F
:10513000604519D0A84217D0B04215D0B84213D05C
:10514000984211D0184DA8420ED0184DA8420BD04D
:10515000174DA84208D0174DA84205D0164DA842B9
:1051600002D0164DA84203D122F44075CA682A43E2
:105170004D6922F080022A4302608A68C2620A688E
:105180008262A04201D0984201D1096901630121E4
:105190004161F0BD000001400004004000080040F3
:1051A000000C004000040140004001400044014068
:1051B0000048014000180040001C00400020004052
:1051C00010B501F01F030121046A99408C43046269
:1051D000016A9A401143016210BD0000F0B5026AF5
:1051E00022F001020262036A42688469124E24F0CE
:1051F00073050C682C4323F002058B682B430D4D7F
:10520000A84201D0B04205D123F00807CB683B4348
:1052100023F00403A84201D0B04205D14D6922F425
:10522000407215438A692A43426084614968416338
:105230000362F0BD0000014000040140F0B5026AC5
:1052400022F010020262026A436884690D6824F445
:10525000E64444EA05248D6822F0200242EA051261
:105260000F4D104EA84201D0B04206D1CF6822F0B7
:10527000800242EA071222F04002A84201D0B04266
:1052800007D14D6923F4406343EA85038D6943EAFE
:10529000850343608461496881630262F0BD000058
:1052A0000000014000040140F0B5026A22F480725F
:1052B0000262026A4368C46922F4007224F0730532
:1052C0000C68124E2C438D6842EA05220E4DA8420E
:1052D00001D0B04206D1CF6822F4006242EA072230
:1052E00022F48062A84201D0B04207D14D6923F474
:1052F000405343EA05138D6943EA05134360C461D3
:105300004968C1630262F0BD000001400004014031
:1053100030B5026A22F480520262046A4268C369AC
:105320000D6823F4E64343EA05238D6824F4005412
:1053300044EA0534084DA84202D0084DA84204D1E1
:105340004D6922F4804242EA85124260C361496895
:105350000164046230BD000000000140000401400F
:1053600010B5806B0021C185C184FEF7F4F910BD32
:1053700001680C3151E8002F22F4907241E80023BB
:10538000002BF5D10168143151E8002F22F0010201
:1053900041E80023002BF5D1016B012909D10168F7
:1053A0000C3151E8002F22F0100241E80023002BBD
:1053B000F5D1202180F83E1000210163704708B527
:1053C00090F83E10222901D0022008BD82684FF4D7
:1053D00080539A4201D1016921B1816A9A421BD05E
:1053E0004AB10AE00268816A5268C2F308020A8080
:1053F000816A891C08E0026972B10268526802F091
:105400007F020A70816A491C8162C18D491E0904AC
:10541000090CC18503D019E002685268F1E7016800
:10542000CA6822F02002CA600168CA6822F4807249
:10543000CA6001684A6922F001024A61202180F8AD
:105440003E10016B012903D0FEF792FB002008BD3E
:105450000021016301680C3151E8002F22F0100295
:1054600041E80023002BF5D101680A68D20602D575
:105470000A6849680091818DFEF76CF9E6E7000043
:1054800070B5044600680169E26821F44051114397
:1054900001612169A068E269084361691143084319
:1054A0002168CA6849F20C639A430243CA602068C3
:1054B0004169A26921F44071114341613149206879
:1054C000884202D03049884202D1FDF77FFB01E0DB
:1054D000FDF76CFBE2690023192164253226B2F541
:1054E000004F626828D0A0FB0101930F9200FAF7E9
:1054F000CEFE0146B0FBF5F06FF01802504301EB11
:10550000800006EB0010B0FBF5F000F0F002B1FBFC
:10551000F5F002EB0012B1FBF5F06FF01803584301
:1055200001EB800006EB0010B0FBF5F000F00F007F
:1055300021681044886070BDA0FB010192185B4196
:10554000FAF7A5FE0146B0FBF5F00201B1FBF5F05C
:105550006FF01803584301EB800006EBC000B0FB6E
:10556000F5F000F0F80002EB4002B1FBF5F0584313
:1055700001EB800006EBC000B0FBF5F000F0070087
:10558000D6E7000000100140001401400148FEF77A
:10559000E3B80000780200200148FEF7DDB8000003
:1055A000BC0200200148FEF7D7B80000000300202D
:1055B000FEE703B401984100009850EAC12018BFEB
:1055C00004204A0D18BF40F0010040F2FF72B2EB18
:1055D000515F08BF40F00200012808BF052002B05B
:1055E00070470907090E002804DB00F1E02080F86D
:1055F0000014704700F00F0000F1E02080F8141D47
:10560000704700000000000070B5C1482DED020B8E
:105610002DED0E8B82B0119D25F000449FEDBEDB79
:105620009FEDBFEB84423EDBA4F140511098A1F105
:105630007F6108430FD0BC48844202DC28D1109817
:1056400030B39DED100B02B0BDEC0E8B02B0BDE887
:10565000704000F069BC9DED100B53EC1D2B51EC1C
:10566000100B02F0E3FF9DED100B41EC180B53EC17
:105670001E2B51EC100B02F0D9FF53EC182B02F04B
:1056800095FD41EC100B02B0BDEC0E8B02B070BD6D
:105690000120FBF709F802B0BDEC0E8B02B0BDE8AB
:1056A000704000F055BCA1489FEDA18B844256DAB2
:1056B0009DED100BB4F1795F0ADA51EC100BFFF796
:1056C00078FF042808BF00F053FC9DED100BDAE7CB
:1056D00053EC102B51EC100B02F0A8FF41EC190B0E
:1056E00095480621B0EE490AF0EE690A784400F0C8
:1056F0009FFB53EC192B51EC100B02F097FF41EC80
:105700001A0B8E48B0EE490AF0EE690A042178447B
:1057100000F08EFB53EC192B51EC100B02F086FFBE
:1057200053EC182B02F042FD41EC100B51EC1A0B1C
:1057300053EC102B02F0E2FDCDE900019DED000BD2
:1057400053EC102B9DED100B51EC100B02F06EFF83
:105750009DED101B53EC112B02F028FDD2E09DEDC6
:10576000100B51EC100B01F047F953EC182B03F020
:105770005BF89FED730BCDE9000153EC102B9DED11
:10578000000B51EC100B02F051FF41EC190B6E486D
:105790000621B0EE490AF0EE690A784400F048FBB1
:1057A00053EC192B51EC100B02F040FF41EC1B0B9A
:1057B0006648B0EE490AF0EE690A0421784400F028
:1057C00037FB53EC192B51EC100B02F02FFF53EC6D
:1057D000182B02F0EBFC41EC1C0B51EC190B02F006
:1057E00059FC41EC180B5A489FED5BABA04222DC00
:1057F00053EC1C2B51EC1B0B02F080FDCDE900019A
:105800009DED000B51EC180B53EC102B02F00EFF2A
:1058100053EC182B02F0CAFC53EC1A2B02F006FFD3
:1058200053EC1D2B03F0D8F853EC1E2B02F0FCFFB9
:1058300041EC100B5FE08DED008B002000909DEDA2
:10584000000B51EC180B53EC102B02F0AFFC9DED4C
:10585000000B41EC1E0B53EC102B51EC100B02F023
:10586000E5FE53EC192B02F0DFFF53EC1E2B02F088
:1058700045FD41EC190B53EC1C2B51EC1B0B02F0BA
:105880003DFD41EC1B0B53EC1A2B51EC190B02F0B4
:10589000CDFE53EC1D2B02F0C7FF41EC190B53EC6E
:1058A0001A2B51EC180B02F0C1FE53EC1B2B02F02B
:1058B000BDFE53EC192B03F08FF89DED000B41EC6E
:1058C000180B53EC1A2B51EC100B02F0AFFE9FEDAE
:1058D000249B53EC192B02F0A7FF41EC100B51EC69
:1058E000180B53EC102B03F077F853EC192B02F044
:1058F0009BFF41EC100B002D3FF7C5AE51EC100B98
:1059000002F016FC41EC100BBDE6000000000000A8
:105910000000F03F00000000075C143326A6913C15
:10592000182D4454FB21F93F0000F07F0000E03FB8
:10593000000000000000F03F284200003642000056
:10594000000000000000E03F7A41000088410000B4
:105950003333EF3F00000000000000000000004073
:10596000182D4454FB21E93F70B59B482DED020BE7
:105970002DED068B079D25F00044A04218DC9748CA
:10598000844202DC0AD1069840B19DED060BBDECC5
:10599000068B02B0BDE8704000F0C6BA002DCCBF47
:1059A0009FED8F0B9FED900BBDEC068B02B070BD91
:1059B0008F48A04215DD8F48A042D8BF4FF0FF347A
:1059C00058DD9DED060B51EC100BFFF7F2FD04289E
:1059D00008BF00F0CDFA9DED060BBDEC068B02B0C2
:1059E00070BD9DED060B51EC100B01F005F8CDE9F3
:1059F000060181489FED828BA0423CDD8248A04297
:105A00001FDD00249FED82AB9DED060B53EC1A2B9E
:105A100051EC100B02F0CAFB9DED060B41EC190B8B
:105A200053EC1A2B51EC100B02F000FE53EC182B28
:105A300002F0D2FF53EC192B02F060FCCDE9060115
:105A400049E09DED060B012453EC182B51EC100B93
:105A500002F0ACFB9DED060B41EC190B53EC182B3F
:105A600051EC100B02F0B8FF53EC192B02F046FC7E
:105A7000CDE906012FE06848A0421FDD02249FED1A
:105A8000689B9DED060B53EC192B51EC100B02F0AB
:105A9000CDFD53EC182B02F089FB9DED060B41EC7C
:105AA000180B53EC192B51EC100B02F095FF53EC33
:105AB000182B02F023FCCDE906010CE09DED060B4E
:105AC000032453EC102B9FED580B51EC100B02F0FC
:105AD00015FCCDE906019DED060B53EC102B51ECA6
